:020000024000BC
:10000000B0320220D92604004F810400AD2604003E
:10001000AD260400AD260400AD260400AD26040084
:100020000000000000000000000000005521040056
:10003000AD26040000000000F5200400AD260400F9
:10004000D9210400D9210400D9210400D9210400B8
:10005000D9210400D9210400D9210400D9210400A8
:10006000D9210400D9210400D9210400D921040098
:10007000D9210400D9210400D9210400D921040088
:10008000D9210400D9210400D9210400D921040078
:10009000D9210400D9210400D9210400D921040068
:1000A000D9210400D9210400D9210400D921040058
:1000B000593A0400D9210400D9210400D9210400AF
:1000C000D9210400D9210400D9210400D921040038
:1000D000D9210400D9210400D9210400D921040028
:1000E000D9210400D9210400D9210400D921040018
:1000F000D9210400D9210400D9210400D921040008
:10010000D9210400D9210400D9210400D9210400F7
:10011000D9210400D9210400D9210400D9210400E7
:10012000D9210400D9210400D9210400D9210400D7
:10013000D9210400D9210400D9210400D9210400C7
:04014000D9210400BD
:1001440053B94AB9002908BF00281CBF4FF0FF313A
:100154004FF0FF3000F070B9ADF1080C6DE904CE3A
:1001640000F006F8DDF804E0DDE9022304B070478E
:100174002DE9F047089E0D4604468A46002B7FD1A0
:100184008A42174641D9B2FA82F24AB1C2F1200139
:1001940005FA02F39740944020FA01F141EA030A78
:1001A4004FEA17484FEA144C1FFA87F9BAFBF8FED6
:1001B40008FB1EA30EFB09F14CEA0343994206D93E
:1001C400FB1802D2994200F224810EF1FF3E591A23
:1001D400A3B2B1FBF8F008FB101100FB09F943EAE4
:1001E4000144A14505D93C1902D2A14500F20E8172
:1001F4000138A4EB090440EA0E4000211EB1D440AA
:100204000023C6E90043BDE8F08702B9FFDEB2FA75
:1002140082F2002A4FD1CB1B4FEA174E1FFA87F800
:100224000121250CB3FBFEFC0EFB1C302B4608FB06
:100234000CF945EA0045A9450AD97D192CBF0123CB
:100244000023A94502D9002B00F0D9800CF1FF3C12
:10025400A5EB0905A3B2B5FBFEF00EFB105508FB98
:1002640000F843EA0544A04505D93C1902D2A0454B
:1002740000F2C9800138A4EB080440EA0C40BDE751
:100284008B4208D9002E00F0B1800021C6E9000598
:100294000846BDE8F087B3FA83F1002946D1AB42A2
:1002A400C0F0A780824240F2A4800846002EAAD063
:1002B400C6E9004AA7E7C2F12000974001FA02F319
:1002C4004FEA174EC14024FA00F51FFA87F894400C
:1002D4001D43B1FBFEF02B0C0EFB101100FB08FCC0
:1002E40043EA01439C4509D9FB182CBF0121002195
:1002F4009C4502D9002900F095800138A3EB0C033A
:10030400ADB2B3FBFEF10EFB113301FB08FC45EA71
:100314000345AC4505D97D1902D2AC4500F289806C
:100324000139A5EB0C0341EA00417AE7C1F120044D
:100334008B4002FA01F705FA01FCE24020FA04F8C6
:10034400E54000FA01FE134348EA0C024FEA134861
:100354004FEA124C1FFA83F9B5FBF8FA08FB1A5559
:100364000AFB09F04CEA054C60450AD913EB0C0C66
:100374002CBF01250025604501D9002D55D00AF177
:10038400FF3AACEB000C92B2BCFBF8F008FB10CCCB
:1003940000FB09F942EA0C4CE14505D913EB0C0CBE
:1003A40001D2E1453BD8013840EA0A40ACEB090CE4
:1003B400A0FB0789CC4545464A4602D306D1C6452B
:1003C40004D20138B8EB070569EB03022EB3BEEB88
:1003D40005036CEB020C23FA01F20CFA04F42CFA78
:1003E40001F300211443C6E900430CE731463046CB
:1003F40009E7841A65EB030301209A4656E7ACF13A
:10040400020C3D4424E702383C4434E702383C44BF
:10041400EFE6AEF1020E3B44D9E63146F3E602388C
:100424009C44C1E702383B4468E7AAF1020A9C44B1
:10043400A7E702393D4474E7704700BF08B5114B84
:10044400186806F0F3FE014660B10F4A0F4BD21A4A
:10045400D208920142F003020D4807F099FB4FF0D5
:10046400FF3008BD0B4B186806F0E0FE0028F8D0FA
:10047400054A064B0146D21AD208920142F0030201
:10048400EAE700BF50A80120608F0400588F0400E1
:10049400D891040054A8012030B51B4B1B4C87B0E5
:1004A400E41AE408A40144F003042146184807F0C0
:1004B40062FB00234FF48051164A0393CDE90123D4
:1004C400154D164B01A8CDE90413294606F09EFFED
:1004D400014640B12246124807F05AFB4FF0FF355F
:1004E400284607B030BD28686B4641220D4906F006
:1004F400D3FE054618B1014622460B48ECE701A895
:1005040006F0AEFEECE700BF588F0400608F0400D5
:10051400FC9104001271000150A801200906000694
:100524001F920400D2AD01204492040000234FF432
:10053400005110B5114A86B0CDE901230393104B45
:100544004122CDE9041301A80E4B0F4906F04AFEDF
:10055400044678B10D4B0E4A0146D21AD2089201D4
:100564000C4842F0030207F013FB4FF0FF3420461F
:1005740006B010BD01A806F073FEF8E712410001B1
:100584000906000654A80120D2AD0120588F0400AA
:10059400608F04006E9204002DE9F0412026364B52
:1005A400364C86B0E41AE408A40144F0030421465E
:1005B400334805AD07F0DFFA32496422324B334841
:1005C4000195009606F08AFE014648B1224630485D
:1005D40007F0DEFA4FF0FF35284606B0BDE8F0819B
:1005E4004027DFF8D8802B4802950197CDF800808A
:1005F4003346254A2849006806F098FE054618B196
:10060400014622462548E3E72146254807F0B3FA88
:10061400234664222349244807F0CEFA2346642261
:100624001849224807F0FDFA22461E49204807F0DF
:10063400AFFA234632461F491B4807F0BDFA23464A
:1006440032461149194807F0ECFA2246194918486C
:1006540007F09EFA23463A461749134807F0ACFAC6
:100664003A4641462346114807F0DBFA224612492E
:100674000F4807F08DFAAFE7588F0400608F04002D
:100684009192040094A50120B2AD0120090000025A
:10069400B292040050A8012009060006D792040073
:1006A400F992040019930400239304003B9304007B
:1006B40044930400569304006293040013AE012093
:1006C40037B5134B134C1448E41AE408A40144F05E
:1006D4000304214607F04FFA402301930F4B1048BF
:1006E4000093104A20231049006806F049FE05468D
:1006F40048B1014622460D4807F04AFA4FF0FF354B
:10070400284603B030BD2146094807F034FAF7E71C
:10071400588F0400608F04006C93040013AE012012
:1007240054A80120B2AD01200906000689930400F3
:10073400AD93040038B5184B184C1948E41AE40872
:10074400A40144F00304214607F015FA06F081FEE3
:1007540038B12146134807F00EFA4FF0FF3528460A
:1007640038BDFFF799FE0028F3D1FFF7DFFE00281C
:10077400EFD1FFF711FF0028EBD1FFF7A1FF00280D
:10078400E7D1FFF75BFE214605460028E2D1064883
:1007940007F0F1F9E3E700BF588F0400608F04000D
:1007A400D4930400EE930400099404000B6801330D
:1007B4000B60014B1B68184700A50120014B186012
:1007C400704700BF00A5012007B50B460021024673
:1007D4000191034801A900F0FFF803B05DF804FBA0
:1007E400B107040030B5002585B0CDE90101044608
:1007F40001A90548039500F0EFF8DDE902309842BD
:10080400B8BF255405B030BDA77404002DE9F84FD6
:10081400B0F81890044619F0080893460DD0012941
:100824000CBF49F0100949F02009A0F818908BF387
:100834001188BFF36F8FBDE8F88F09F0070902290B
:1008440007D1204606F05AFE0028F0D00128238B59
:1008540050D16769218B002F15DA256821F0070133
:10086400C4E9008841F0010121830026218B01F0B5
:10087400070ACA4502D0A368002B5CD10DB9002E2B
:1008840074D0002358E001F007035A1F012A20D82E
:1008940021F00701062B256889B2C4E900880CD130
:1008A400002D2B4638BF00232BB1628B1B6801320D
:1008B4006283002BF8D141F002012046218306F027
:1008C4001DFE06460028D1D0238B43F0200323834A
:1008D400CBE7042B0CD121F0070189B220462183F8
:1008E40006F00CFE05460028BFD041F0200121830C
:1008F4000025BAE7032809D1226923F00703166803
:1009040043F00603002523832F46AFE7042806D1CE
:10091400226923F00703566843F00403F2E705282D
:1009240006D1226923F00703966843F00503E9E73B
:1009340000252E46E8E7012341F0080121838BF3CB
:100944001188BFF36F8F03BB002D33D116B120463E
:100954002049B0474FF02003EFF3118B83F3128843
:10096400BFF36F8F238B23F008032383238BDA06D3
:1009740028D5012123F010032383B4F8189009F03B
:10098400070900297FF45BAF51E7A1680029DBD098
:100994000B68002B38BF0023994652463B4620463D
:1009A400D1F804B0D847B9F1000FCDD04946D9F8F1
:1009B4000030EEE729463B46524620462D6806F0B5
:1009C400B9FDC1E713F020011EBF23F0200302216B
:1009D4002383D2E7657504002DE9F04F8B469246D8
:1009E4001C46002591B002909AF8000008B92846E8
:1009F4005EE325280AF1010707D05946029B984770
:100A04000028C0F25583013510E2182200210AA8FB
:100A140007F019FC9AF80130252B78D0002294466F
:100A2400164696461046394617F8013B2B2B00F024
:100A34009D8000F29480202B00F09B80232B00F0FB
:100A44009A8028B19DF8300040F004008DF8300001
:100A5400BEF1000F05D09DF8300040F008008DF87D
:100A640030002EB19DF8300040F010008DF83000B9
:100A7400BCF1000F05D09DF8300040F020008DF847
:100A840030002AB19DF8302042F040028DF8302029
:100A94009DF8302002F04400442803D16FF38612FD
:100AA4008DF830209DF830202A2B42F080028DF8FA
:100AB40030207BD19DF831204B1C42F001028DF88F
:100AC40031201A782E2A0CBF012100219DF83120F3
:100AD40061F341028DF8312074D15A782A2A6AD000
:100AE40000210A260133184610F8012BA2F1300721
:100AF400092F40F28E809DF830200E91C2F3400001
:100B040040EAD17161F341028DF830205AE00AF1D4
:100B140002078DF833309DF83130D90740F149810F
:100B240054F8049BB9F1000F07DA9DF83020C9F19D
:100B3400000942F004028DF830205A0740F1428146
:100B440054F8048BB8F1000F80F241819DF83130E4
:100B54006FF341038DF831304FF0FF3837E12D2B1F
:100B64000CD0302B7FF46DAF01225CE74FF0010E07
:100B740059E7012657E74FF0010C54E7012052E7EB
:100B840033460CFB0202303A1E4616F8010BA0F164
:100B94003007092FF4D9994293D09DF830100D9263
:100BA400D20F62F341018DF830108AE70B46002220
:100BB4004FF00A0CE8E79DF83120023342F00402BA
:100BC4008DF831201F4617F8012B6C2A41D025D807
:100BD400682A2BD06A2A46D04C2A4CD01F4617F8D4
:100BE400012B9DF83130782A8DF8332000F2D9801A
:100BF400572A4DD8412A03D0453A022A00F2D1801F
:100C040004229DF8323062F302038DF8323001235E
:100C14009EE006FB01210346303964E7742A26D09E
:100C24007A2ADBD106229DF831300DE05A78682A01
:100C34009DF8312006D1012161F3C6028DF83120DF
:100C44009F1CCCE71346022262F3C6038DF83130B1
:100C5400C5E75A786C2A9DF8312001D10421EBE7CD
:100C640013460322F0E705229DF83130ECE7072212
:100C74009DF83130E8E7BDF8303023F4F04323F039
:100C8400020343F4804343F00203ADF83030A6E797
:100C9400A2F15801202900F2848001A050F821F02B
:100CA400690D0400A70D0400A70D0400A70D04009E
:100CB400A70D0400A70D0400A70D0400A70D040050
:100CC400A70D0400050C0400A70D0400690D040021
:100CD400290D0400050C0400050C0400050C040097
:100CE400A70D0400290D0400A70D0400A70D04009E
:100CF400A70D0400A70D0400710D0400690D040084
:100D04008D0D0400A70D0400A70D04008D0D040033
:100D1400A70D0400690D0400A70D0400A70D04002D
:100D2400690D040001209DF8321003F0780360F38C
:100D34000201402B8DF8321002BF9DF8301041F0B3
:100D440001018DF83010632A31D1003B18BF012313
:100D54009DF83020C2F340010B4363F341028DF848
:100D64003020D8E602209DF83210DEE703219DF8FA
:100D7400322003F07803A3F1400061F302024342FE
:100D84008DF832204341E3E703219DF8322013F02C
:100D9400780F61F3020214BF012300238DF832207F
:100DA400D6E79DF8303043F001038DF8303000234E
:100DB400CEE79DF93020002AACBF4FF0FF39DDF8B3
:100DC4003490BAE69B077FF5C7AEDDF83880002380
:100DD400CDE90D339DF832309DF8312003F007033F
:100DE400012BC2F3C30236D1D31E042B20D8DFE873
:100DF40003F00307071F1F0054F8040BC11704E096
:100E0400073424F00704F4E80201CDE90A019DF84F
:100E1400303013F0030654D03B46524659460298EC
:100E240006F031FE0028C0F243810544BA46DBE5F2
:100E340054F8040B012A4FEAE071CDE90A0105D107
:100E44009DF828300A9300230B93E0E7022ADED1B1
:100E5400BDF92800D2E7022B23D1D31E042B13D8CB
:100E6400DFE803F0030A0A12120000212068231DA0
:100E74000A900B911C46CAE7073424F00703F3E8F1
:100E84000201CDE90A01F5E754F8043B012A0A936B
:100E94004FF000030B93D3D0022AB8D1BDF8283009
:100EA400D0E7042B07D1073424F00704F4E8020147
:100EB400CDE90A01ABE7032B04BF54F8043B0A93C2
:100EC400A5E79DF833007828B0D8622822D82528D1
:100ED4003FF493AD5828A9D1DDE90A010DF12603A9
:100EE40000930CAA04AB06F083FD8246B8F1000F10
:100EF4000DF126000CDB9DF83020A0EB0A036FF304
:100F0400861298458DF8302002D9A8EB03030D937F
:100F140080463DE06338152888D801A151F820F0B7
:100F2400A50F040009100400310E0400310E040062
:100F3400310E0400310E040009100400310E0400C7
:100F4400310E0400310E0400310E04006710040059
:100F54003510040039100400310E0400310E040071
:100F64007D0F0400310E040035100400310E04001E
:100F7400310E040035100400B8F1000FDDF828A08C
:100F84000ADB4146504607F04AF900260AEB0008FE
:100F9400BAF1000F0CD149E7504607F039F9F4E7EC
:100FA40000260A9B0DF111088DF810300DF1100A7E
:100FB400A8EB0A0306B101339DF83220D0066BD5A5
:100FC400023352060D9948BF0E9A0B4448BF9B1832
:100FD400B9F1000F79DD9DF83020A9EB0309C2F3C4
:100FE40080030393530770D4500664D546B1594621
:100FF4003046029B984700285ADB039B01351E4666
:10100400302359E01E0711D413F0100618BF202610
:10101400DDE90A23002A73F10001BFF65DAF5242F5
:1010240063EB43032D26CDE90A2355E72B26EFE78F
:10103400002651E70A9848B30DF1260300930021D6
:1010440004AB0CAA06F0D4FCBDF83230824603F09F
:10105400EF0343F4F04343F010030026ADF83230BD
:1010640044E70A9B072A3FF6E1AEDFE802F00D04ED
:10107400060D08080D0D1D70D8E61D80D6E628461D
:10108400E917C3E90001D1E61D60CFE6DFF8C480AB
:101094000646A8F1050A8BE7110748BF013390E71C
:1010A400184603935946029B98470028039B04DA89
:1010B40011B0BDE8F08F20234D444A46002AA5EB29
:1010C400090109F1FF39EBDC0D4636B159463046CA
:1010D400029B98470028EBDB01359DF83230D90696
:1010E40001D41A0706D559463020029B9847002898
:1010F400DEDB01359DF83230DB0607D559469DF815
:101104003300029B98470028D2DB01350D9E2E4404
:10111400731B002B16DC434652465946029806F0D0
:10112400B2FC0028C4DB0544A944A9EB0503002B49
:101134007FF77CAE59462020029B98470028B7DBF6
:101144000135F2E759463020029B98470028AFDB6F
:101154000135DDE7339404004FF02002EFF31183EF
:1011640082F31288BFF36F8F0121044AC2F840153D
:1011740083F31188BFF36F8F002070470090034002
:1011840020B1034B800143F001031847704700BFAF
:10119400F08F040030B5002289B00F490F4807F0E2
:1011A4003BFD002200230024CDE906230E230C4D31
:1011B400CDE903344FF440722846CDE90144094B8C
:1011C4000949009405F0FAF80849284607F0A0FBFD
:1011D400204609B030BD00BFF511040058A6012017
:1011E40090A60120D5150400B00B02203894040009
:1011F400014805F031BA00BF44A6012000230C4A7F
:1012040010B513700B4A4FF4004013600A4B0B4A9D
:101214001A6000F0B5FC00F055FA094806F068FCC5
:10122400BDE81040042328220649074807F026BBDE
:1012340054AE01205CA8012004A50120337B0400E6
:1012440064A80120F03B02206CA8012070B5104B6B
:10125400D3E8EF5F6A1CC3E8E12F0029F8D12DB968
:101264000C4C0D4E361B3611B54200DB70BD237B92
:1012740053B123689B690BB12046984763680422E5
:101284002046196800F010FA01351034ECE700BF6D
:1012940060A80120B08F0400D08F040010B54FF077
:1012A4002003EFF3118483F31288BFF36F8F044894
:1012B40006F02EFC84F31188BFF36F8F10BD00BFBE
:1012C40064A8012010B5044C227812B9034805F033
:1012D400C3F90123237010BD53AE012044A601209D
:1012E400084BD3E8EF2F0132C3E8E12F0029F8D1EE
:1012F400054BD3E8EF2F013AC3E8E12F0029F8D1D9
:10130400704700BF5CA8012058A8012000200246B5
:10131400034BD3E8EF0FC3E8E12F0029F9D170475D
:101324005CA80120F8B5FFF7F1FF00260746094C39
:10133400094D2D1B2D11AE4200DBF8BD63685B79AE
:101344002BB123681B6913B13946204698470136EF
:101354001034F0E7B08F0400D08F0400144B37B57D
:101364009842044602D3134B98421CD30022002314
:10137400114801A904F0C2FF0546B8B90122019B36
:10138400D3E8EF1FC3E8E02F0028F9D101982146E4
:101394001F22043006F029FF7E23019C84F82330A9
:1013A40084F824500434204603B030BD034CFAE7DB
:1013B400808C04002C9C04006CA801204094040040
:1013C40048B1054B984205D3A03398422CBF002066
:1013D4000120704700207047F03B0220414B2DE96B
:1013E400F74F1B78044603B9A0B1FFF757FF054632
:1013F40018B19CB1284606F0A2FC2CB93A4B1B68E4
:10140400002B01DDFFF78EFF384806F07FFB041E3A
:1014140018BF0124204603B0BDE8F08F344BD3E855
:10142400EF2F013AC3E8E12F0029F8D1314B1B78A3
:10143400BBB92B7ADB0714D406F090FC804628460F
:1014440006F05BFC0146404606F075FB06462A4B57
:101454002A4ADFF8BCA09B1ADFF8B8B04FEAD309D8
:1014640036B9274E274F4FF00008BF1B3F1136E017
:10147400B6FA86F7C7F11F073946284606F040FC3E
:10148400214B0246984202D3204B984216D3104671
:10149400FFF796FF90B9524510D06989C1F38911BD
:1014A40000F0F4F84FEA891343F001030246ADF863
:1014B400003039464346584606F097FB012303FAA9
:1014C40007F726EA0706CBE773685B7923B133682D
:1014D400294630465B68984708F101081036B8453C
:1014E400F2DB87E753AE01205CA8012064A8012049
:1014F40058A8012054AE0120708F0400588F0400B6
:10150400B08F0400D08F0400808C04002C9C040055
:10151400409404005A940400264B37B51B6841815B
:1015240004469847E0604FF02003EFF3118583F3FE
:101534001288BFF36F8F2048214606F0DDFA85F349
:101544001188BFF36F8F1D4BD3E8EF2F511CC3E8F5
:10155400E01F0028F8D11A4B1B7883B14FF0200309
:10156400EFF3118483F31288BFF36F8F0020FFF72A
:1015740035FF84F31188BFF36F8F03B030BD114B77
:101584001B68002BF9D052B9002200230E48CDE984
:1015940000234FF47A72002305F0AAFDEDE70A2A2E
:1015A400EBD1094807F044FB084803B0BDE83040DC
:1015B40005F052B804A5012064A8012058A8012010
:1015C40054AE012088A8012058A6012044A6012079
:1015D40010B5FFF73BFE05F079FB0C4B186030B1FA
:1015E4000B4B1B68092B02DD0A4805F035F8094C42
:1015F4000020FFF7F3FE0028FAD14FF0FF324FF03E
:10160400FF33204605F048F8F2E700BF88A8012020
:1016140058A8012044A60120F8B50E4F3D7875B9AD
:10162400FFF714FE0C4C0D4E361B3611B54207DB8A
:101634000020FFF7D3FE0028FAD101233B70F8BD48
:1016440063685B791BB1236820465B699847013561
:101654001034EBE754AE0120B08F0400D08F0400A7
:1016640007B504380190D0E8EF3F5A1EC0E8E12FD7
:101674000029F8D1012B03D1034801A907F019F976
:1016840003B05DF804FB00BF6CA80120044A054BBD
:101694009B1AB1EBD30F34BF52F8310000207047CE
:1016A400588F0400B08F0400054B4268C31A1B1105
:1016B400013313710122436819605A71FFF702BEA6
:1016C400B08F04004FF4F07320220249024807F05F
:1016D400D5B800BF903C02208CA80120002337B568
:1016E400094D01930120FFF779FE0446FFF7F8FD49
:1016F40000220023284601A904F000FE08B1002CB2
:10170400F0D1019803B030BD8CA80120002307B5A7
:10171400002201930648002301A904F0EFFD10B153
:10172400FFF7DCFF0190019803B05DF804FB00BFF4
:101734008CA80120F0B5037A457A85B00190D807CA
:101744004FEA15151CD4DDB1002426463146019814
:1017540006F0D6FA0746FFF733FE70B134B9019BA1
:101764002946186906F0E7F9044648B124FA06F355
:10177400D90702D53846FFF773FF0136AE42E5D3E9
:10178400019B1A7A920704D55B69084C0393039B67
:101794002BB9064801A907F08CF805B0F0BD1D6807
:1017A400204603A907F085F80395F0E78CA80120EB
:1017B4000EB403B503AB53F8042B0146044801935C
:1017C400FFF70AF902B05DF804EB03B0704700BFFD
:1017D400078104002DE9F04F1F4687B001F0010393
:1017E4000592064688469DF84090BDF948A001F050
:1017F400020B049301F0080506F01EFA02460028C5
:1018040044D030463849FFF7D3FF0446BBF1000FFC
:1018140008D018F0440F3BD13A4630463349FFF71D
:10182400C7FF0444049B53B1314B304653F829207D
:10183400304B3149002A08BF1A46FFF7B9FF3DB1C2
:101844002E4B304653F829202D49FFF7B1FF0546AA
:10185400BAF1000F16DB059B002B43D0012303FADA
:1018640009F9284B19F0100F274F18BF1F4651468E
:101874009DF84400FFF70AFF394602463046FFF759
:1018840097FF0544281907B0BDE8F08F0446BDE76B
:101894001E4B18680028C4D01D4B4FF4616C1968A6
:1018A4004FF03C0EB7FBF1F7B7FBF0F1B1FBFCF2E4
:1018B40000FB11770CFB121C4FF47A714F43B7FBFA
:1018C400F0F800FB1877BCFBFEF34F43B7FBF0F0D6
:1018D4000EFB13C1CDE90180009130460D49FFF79D
:1018E40067FF9EE7084FC2E7AC940400B09404007D
:1018F400F88F04009E940400D59404000C90040016
:10190400D8940400A8940400A3940400A8A8012077
:10191400ACA80120B994040038B50C46E10705468B
:1019240003D5084A0849FFF743FFE20608D4A30693
:101934002846BDE838404CBF04490549FFF738BF85
:1019440038BD00BF9E940400D5940400DF940400C5
:10195400DE9404002DE9F0471D46089B1746DA067D
:1019640004460E4605D499064CBF2A492A49FFF776
:101974001FFF4FF00008DFF8A890A8452ADB0025D8
:10198400DFF8A080DFF8A090DFF894A0BD422FD24A
:1019940049462046725DFFF70BFF0135102D20D11B
:1019A40020461E49FFF704FF0025DFF87480DFF8A6
:1019B4007C90AF4228D9725D4946A2F120035F2B87
:1019C40028BF2E222046FFF7F3FE0135102D14D137
:1019D400BDE8F08749462046FFF7EAFE08F1010812
:1019E400CBE76A07D2D151462046FFF7E1FECDE7A7
:1019F40041462046FFF7DCFECFE76B07D9D14146CD
:101A04002046FFF7D5FED4E741462046FFF7D0FE37
:101A1400DBE700BFDF940400DE940400EB940400D1
:101A2400E9940400E7940400E1940400ED940400B4
:101A34002DE9F0478B7A174613F0070805460E4642
:101A44000A7A8AB021D0D2434989C3F3C203C1F3CD
:101A54008911CDE900830291F368394602F001024D
:101A6400FFF7B8FE8146347AE44314F001040ED043
:101A74002946304606F0DBF9B8F1000F2BD0424678
:101A840039462846FFF748FF25E0C146EBE7B8F1A1
:101A9400000F26D12746EB6806AA069330463B463C
:101AA400A96806F0B0F9069A6B681A603AB1AB6897
:101AB400134413F8014CA4F10A035C425C41284628
:101AC40006F012FB069B1F44002BE4D11CB12846F0
:101AD4001349FFF76DFE284606F006FB0AB0BDE881
:101AE400F087304606F03AF90E4902462846FFF7D9
:101AF4005FFE4FF0100A05AA2346304606A9CDF82A
:101B040014A006F080F9059A002AB8D04B4628465E
:101B1400009706A9FFF71EFF059B1C44EBE700BFD7
:101B2400F0940400D594040042F20F7373B58B4211
:101B340028BF0B4605680446052168460D4A05F092
:101B4400D0FC0646636828460B225B680A4906F007
:101B540061F963683246694628465B6806F05AF9BB
:101B640063681B2228465B68044906F053F902B0F7
:101B740070BD00BF679B04002E95040012950400FD
:101B840001230021074A10B5074C1360A04204D872
:101B940001B11360054B186010BD012140085B00C2
:101BA400F4E700BFACA8012040420F00A8A8012020
:101BB400F8B50D460446064F4618B44201D12846EE
:101BC400F8BD386814F8011B83685B689847F4E72C
:101BD400C4A80120014B024A1A607047C4A801201E
:101BE400388D04000122024B02481A7006F07CBAB8
:101BF40055AE01203C9004000148FFF795BF00BF9B
:101C04003C90040010B50C46084606F06DF82146D9
:101C140004480F22FFF70CFF2046BDE8104006F0F1
:101C24008EB800BF3C9004000122014B1A7070472B
:101C340067AE01200122024B02481A7006F054BA22
:101C440068AE0120689004000148FFF76DBF00BF33
:101C54006890040010B50C46084606F045F8214685
:101C640004480F22FFF7E4FE2046BDE8104006F0CA
:101C740066B800BF68900400054B1B781BB141F2A5
:101C8400883006F09CBF0520002105F00BB800BF8A
:101C940068AE01202DE9F84FDFF8949080460F4696
:101CA4000424CB46DFF88CA099F80050CDB94FF04E
:101CB400FF334FF0FF32504604F00AFC3A464146E7
:101CC400284602F033FD0646504604F07FFC174DCB
:101CD400FEB101232B709BF800306BB93846BDE888
:101CE400F88F3A464146002002F020FD0646EEE712
:101CF4005CB92C704FF0FF34002002F063FD002823
:101D0400ECD02B78002BF3D1E8E7013CFFF7B4FFCC
:101D1400F2E72B7813B1013C04D12C702B78002B03
:101D2400C2D1DBE7FFF7A8FFF8E700BF67AE0120E9
:101D340068AE01201CA601202DE9F84305464FF0AA
:101D44002003EFF3118683F31288BFF36F8F104BD8
:101D54001C68002C38BF00249CB14FF00C090D4FB7
:101D6400DFF83480D4E90132002D08BF13462BB1CB
:101D740098F8142009FB02F2B85C98472468002CF8
:101D8400F0D186F31188BFF36F8FBDE8F88300BFED
:101D9400DCA80120E8A801206CAD0120012200F09C
:101DA4001F039A40084B400903EB8000D0E8EF3F43
:101DB40043EA0201C0E8EC1FBCF1000FF6D11A425D
:101DC40014BF012000207047F4A80120012230B57F
:101DD4001A4B85B01D7D05F01F039A40D043184B64
:101DE400690903EB8103D3E8EF1F01EA0004C3E8A8
:101DF400EC4FBCF1000FF6D1114217D00C22114C5C
:101E040001AB02FB054207CA83E807000E4A7AB118
:101E140093E8070005F061FE0020FFF78DFF0C2317
:101E240000226B43E118E250C1E9012205B030BD44
:101E340082F31188BFF36F8FEEE700BF6CAD012012
:101E4400E4A80120E8A80120DF7A04002DE9F0418C
:101E5400394B05461C7D88B02046FFF79FFF374E5F
:101E640060B90C27E84607FB04672A46214640462A
:101E740006F05EF998E8070087E807000C2363433F
:101E8400F05CF218670904F01F0800283BD06B1CB3
:101E940014D040F2E73000219368C01841F10001EA
:101EA400012908BF002841D203F2E7304FF47A73C6
:101EB400B0FBF3F00121281A06F061FE04F062FC85
:101EC4000120FFF739FF01221D4B02FA08F203EB50
:101ED4008703D3E8EF1F1143C3E8E01F0028F8D1BC
:101EE4000C2303FB046405AB94E8070083E80700B4
:101EF400144A1AB193E8070005F0DCFDFFF766FF0A
:101F040004F01AFE0120012303FA08F86FEA080816
:101F14000D4B03EB8707D7E8EF3F03EA0803C7E855
:101F2400E23F002AF7D108B0BDE8F0814FF47A729D
:101F34000023FEF705F9BDE76CAD0120E8A80120F8
:101F4400E4A80120B97A0400F4A801200149102270
:101F54000A60704710ED00E072B6404080F31188CB
:101F6400BFF36F8FBFF34F8F30BF62B6BFF36F8F76
:101F7400704700BF72B6494081F3118820BF80F3D7
:101F8400118862B6704700BF73B506460C4601B3AC
:101F9400134B144D1448ED1AED08AD0145F001053D
:101FA400ADF80050D1E90123096805F01EFEADF833
:101FB4000050D4E90423E1680C4805F016FE2A46D3
:101FC400E1690B4805F0E4FD2A46A169094805F0DA
:101FD400DFFD2146304602B0BDE8704004F036B85B
:101FE400588F0400908F04006795040096950400B0
:101FF400C5950400D495040043B2002B08DB0122EC
:1020040000F01F0002FA00F0024A5B0942F82300C4
:10201400704700BF00E100E0054B420953F822205D
:10202400012300F01F0003FA00F01040704700BFC6
:1020340000E100E043B2002B01F10101ACBF03F168
:102044006043064B4FEA4111C9B2ABBF03F561438C
:1020540000F00F0083F800131954704714ED00E0EA
:1020640008B572B6044B9A691AB100229A6106F057
:1020740054FC62B608BD00BF6CAD012030BFFFF751
:10208400FDBF00BF0B4A08B50B4B22F07F029A60DC
:10209400BFF34F8FBFF36F8FD3F8882022F4700201
:1020A400C3F8882004F078F804F068FE00F006FB1A
:1020B40004F07CF80000040000ED00E0094A0A493D
:1020C400936809685867996708494B6843F08053D7
:1020D4004B60002383F31188BFF36F8F9368986F6D
:1020E400704700BF6CAD0120C091040000ED00E01A
:1020F40015498A6882F87DE04FF030001044EFF310
:10210400098C80E8F01F202080F31288BFF36F8FC2
:102114000E4F4FF00066CA698A603E6092F97DE016
:10212400506F0023536780F3118802F1300090E868
:10213400F01F8CF3098802F1000004B506F00CF8D6
:10214400BDE80440704700006CAD012004ED00E0E0
:102154001EF0040F0CBFEFF30880EFF309808169D0
:1021640011F8021C0229FFD001B505F0E6FF01BDFC
:1021740042F8203C009B0C4942F81C3C019B21F096
:10218400010142F8183C029B42F8081C42F8143C36
:102194004FF0807342F8043C002343674FF43C4300
:1021A400203A0265C367704757760400084B98606D
:1021B400436E83F30B88104681F30988002163B6CC
:1021C40081F31188BFF36F8F0022002305F041FAD9
:1021D4006CAD012001B572B60B4A906900281EBF90
:1021E4000021916106F099FB62B6EFF30580A0F13E
:1021F40010004FEAC0000549014409C99847BDE8E9
:1022040001400349084700006CAD0120508D0400D3
:1022140019220400044B9968D869884203D0034901
:102224004FF080520A6070476CAD012004ED00E06D
:1022340070B5284B284C294DE41AE408A40144F055
:1022440001063146264805F096FCAA6A930103D597
:102254003146244805F08FFCAB6ADD0104D52248E1
:1022640044F0010105F087FC1C4DAE6A16F480169B
:1022740005D01E4844F0010105F07DFC0226AB6A3E
:10228400180304D51A4844F0010105F074FC134DF9
:10229400AA6A510304D5174844F0010105F06BFC08
:1022A400AB6A9A0304D5144844F0010105F063FCB9
:1022B4000A4DAB6ADB0304D5104844F0010105F074
:1022C4005AFCAB6A30466FEA03436FEA1343AB62CE
:1022D40070BD00BF588F0400908F040000ED00E033
:1022E400029604001A9604002D96040047960400F2
:1022F400719604008F960400B4960400CE960400F0
:102304002DE9F041284B294C294DE41AE408A40195
:1023140044F0010807460E462648414605F02BFCCA
:10232400AA6AD00603D54146234805F024FCAB6ACB
:10233400190704D5214844F0010105F01CFC1C4D8B
:10234400AB6A9A0712D544F0010841461C4805F0CF
:1023540012FC696BAB6A1B0608D54246194805F0A6
:1023640017FC1FB1AB6A23F08003AB62104DAA6A5D
:10237400D00704D5144844F0010105F0FCFBAB6A16
:10238400990604D5114844F0010105F0F4FB00203E
:10239400074B9A6AD20658BF9A6A9A6A42F0FF02B9
:1023A4009A623070BDE8F081588F0400908F040069
:1023B40000ED00E0F99604000F9704004297040032
:1023C400559704006D97040083970400A2970400B6
:1023D4002DE9F0412A4B2B4C2B4DE41AE408A401BF
:1023E40044F0010807460E462848414605F0C3FB61
:1023F400AA6AD10403D54146254805F0BCFBAB6A63
:102404001A0504D5234844F0010105F0B4FB1E4D20
:10241400AB6A9B0512D544F0010841461E4805F0FD
:10242400AAFBA96BAB6A180408D542461B4805F001
:10243400AFFB1FB1AB6A23F40043AB62124DAB6A2E
:10244400590504D5164844F0010105F094FBAB6A24
:10245400DA050DD5134844F0010105F08CFB00208A
:10246400094A936A43F47F4393623070BDE8F08174
:10247400AB6A9B04F3D50C4844F00101EDE700BFBF
:10248400588F0400908F040000ED00E0D197040001
:10249400E797040042970400F89704001198040099
:1024A4002698040041980400A29704002DE9F04303
:1024B400684B0546D3F804808946144600278BB040
:1024C400C8F3080687F31188BFF36F8F02F07F43C8
:1024D400B3F17F4F24D1D00722D4510603D422076D
:1024E4000ED401270EE05C495C4B5D485B1ADB08A7
:1024F4009B0143F0010105F03EFB14F0040701D0F9
:102504004D46002700238DF80730F31E092B00F2F7
:102514008880DFE803F00775797286868686867D73
:102524003D46EFE74FF000084B4A4C4E4D48B61A73
:10253400F608B60146F00106314605F01CFB454B92
:102544008DF80780DC6A14F0020405D03146464851
:1025540005F011FB002406E0DA6A002A1DDA314690
:10256400424805F008FB9DF807309BB92022294614
:1025740002A805F05DFE099B002F66D0C3F3080294
:1025840022B96FEA53236FEA43230993204602A931
:10259400FFF7FAFC0BB0BDE8F083DB6A5B00E2D521
:1025A4003146334805F0E7FAAB6933F8022C4DF6AF
:1025B40002739A420CD003F1604303F626631B783E
:1025C4006BB101200DF10701FFF79AFE0446CAE73B
:1025D40032462968274805F0DBFA2C68C3E7264B06
:1025E4001B782BB101200DF10701FFF7F1FEEDE798
:1025F400224B1B889BB2002BB5D0FFF719FEE5E7F1
:1026040000200DF10701DFE700200DF10701ECE7E1
:102614001249114B1A48C91AC908890141F001012C
:1026240096E70D4A0D4B17489B1ADB0818F4F87F00
:102634004FEA8313144943F0010318BF0146A6F17E
:102644001002124805F0B8FA84E723F4FF7323F06C
:1026540001039AE700ED00E0588F0400908F040016
:10266400599804007C98040093980400B4980400DA
:10267400C2980400E198040029ED00E02AED00E08E
:10268400FD98040036990400219904004F99040030
:10269400044B5A6942F010025A615A6942F480624A
:1026A4005A61704700ED00E0EFF30880EFF3098111
:1026B40001B57246FFF7FAFE01BD00BF00232021D9
:1026C4000348C2180133412B82F80013F9D1704733
:1026D40000E100E0002080F31488BFF36F8F002036
:1026E40080F30A8880F30B8806F0C2FA00200E49B2
:1026F4000860BFF34F8F0D4880F3088800F02AF874
:10270400202080F311880A484FF40061401880F3B8
:102714000988EFF314800221084380F31488BFF37F
:102724006F8FFFF7AFFC000094ED00E0B0320220A1
:10273400F033022000231846054A1168C1F307212B
:102744008B4200D17047936010610133F8E700BFFA
:1027540090ED00E010B572B6002484F31388FFF7FF
:10276400E9FF0E4A234611464FF0FF3403F12000DF
:102774000133102B42F82040F8D100234FF0FF30F2
:1027840003F160020133102B41F82200F8D162B644
:10279400BFF34F8FBFF36F8F10BD00BF00E100E0A8
:1027A400064B9B68834207D1EFF3058323B1044AA8
:1027B400536843F08053536004F08EBA6CAD01202B
:1027C40000ED00E01FB5094C094A234601210948E0
:1027D40000F012F900230393074B0121E41A01A826
:1027E4000193029400F012F904B010BD000004201B
:1027F40000A501207890040058A6012010B50B68AC
:102804000C7A23F01F0204F01F031A43CB686409F7
:1028140023F01F03044943EA440343F0010388609F
:10282400CA600B6110BD00BF90ED00E00F2810B529
:102834000DD9084B084A0146D21AD208920107481A
:1028440042F0010205F0A4F96FF0150010BDFFF786
:10285400D5FFFBE7588F0400808F040066990400BD
:102864002DE9F04F8946144606464FF00008544DB2
:1028740085B0C84533DAD6F804A0BAF1000F4DD0BC
:10288400BAF11F0F1ED91AF01F0F1BD1D6F800B0D2
:102894001BF01F0F16D1584605F064FC07460AEBDF
:1028A4000B00013805F05EFC87421CD06FF0150761
:1028B400444A454B3946D21AD2089201434842F061
:1028C400010208E041463F4A3F4B4148D21AD20830
:1028D400920142F0010205F05BF96FF01504204605
:1028E40005B0BDE8F08F17F1160FE1D0631EBB42AF
:1028F400DEDBAF60E968AF602B6921F01F0143F0B4
:102904001F0BD6E900321A44994202F1FF3A1AD158
:10291400D34507D13146F8B205F02DFC08F1010882
:102924000C36A6E73146AF60EB6822F01F0203F0D5
:102934001F031A43EA60E0B205F01DFC10F1160F04
:10294400CBD0441CEAE7013BD345E0B223F01F039C
:10295400AF6006D12A69314602F01F0213432B618E
:10296400EAE7296901F01F010B432B61314605F0A9
:1029740002FC10F1160FB0D0AF60EA689DF8083081
:102984000BF1FF3B62F304038DF808302B699DF8CB
:1029940008205B0863F347128DF80820D6E900325B
:1029A4001344009323F01F035B44A3EB0A03013099
:1029B40023F01F036946C0B20393FFF737FFBDE757
:1029C40090ED00E0808F0400588F0400AF9904005C
:1029D4008C9904000522034B5A60BFF34F8FBFF359
:1029E4006F8F704790ED00E0BFF35F8F0022014BC3
:1029F4005A60704790ED00E010B5034C2278FFF761
:102A04002FFF207010BD00BF69AE01202DE9F74FE4
:102A1400264D8A4606464FF00008AB46244FD04563
:102A24001BDAD6F80490B9F1000F39D031680846A2
:102A3400019105F097FB0199044609EB0100013867
:102A440005F090FB84424FF014021A4B08D06FF04B
:102A5400150302FB08F84BF8083003B0BDE8F08F0B
:102A640014F1160F2C60F8D01978A142F5DD02FBA1
:102A740008B0BC60BC60FC6800F10801007B64F332
:102A84000400087138690C79400860F347140C712C
:102A9400F96821F01F016960396921F01F0129617A
:102AA40008F1010814350C36B9E700BFF8A8012075
:102AB40090ED00E069AE012038B50E4C2568102D6C
:102AC40014D8FFF791FF00200B4B0C4A1A63854280
:102AD40005D10B4B1D70FFF77DFF002038BD6168E9
:102AE40001EB0011FFF78AFE0130F0E74FF0FF30F1
:102AF400F4E700BF8490040090ED00E0AAFF4400D6
:102B040069AE012008B50849084B0948C91AC90823
:102B1400890141F0010105F02EF803F091FA0C232C
:102B24000360002008BD00BF908F0400588F04008C
:102B3400D299040008B5024804F0C6FCFEE700BFC1
:102B4400FD990400014B1860704700BF08A50120DF
:102B540070B504460C250D480E46231A9A100C4BEA
:102B640040215343DBB25D4305F14003184405F0B3
:102B74007FFB011E04DB074B2B445B689847002155
:102B840020463346BDE87040184700BF1CA9012009
:102B9400B76DDBB6C49004002DE9F0410F4C104D25
:102BA400031B9B105D43EBB20C255D43074605F107
:102BB40040000E462044402105F073FB011E08DB53
:102BC400084B2C44C4E90E36074B5B59BDE8F04171
:102BD400184738463346BDE8F04118471CA9012080
:102BE400B76DDBB609830400C490040070B50022FD
:102BF400012104460520FFF71DFA0520FFF7FCF923
:102C04000F4801F0EFF80F4B984215D105F0B4FCD2
:102C140026690D49304604F0C0FC00280BDB012571
:102C240035642469084904F11C0004F0B6FC00284A
:102C340001DB0020E56470BD6FF00400FBE700BF1A
:102C4400852C04000000AD0BDC90040001460C232D
:102C540000224B43084870B5C4184033D4E90E56DB
:102C64001844A26305F03BFB2DB132462B46BDE868
:102C740070400248184770BD1CA90120F08C040064
:102C840010B1012804D07047034B1B6C5B0701D1C2
:102C9400FFF7DCBF704700BF1CA9012008B54FF047
:102CA4002003EFF3118183F31288BFF36F8F114A6E
:102CB400136843F0020013F0010310600BD00E4AB6
:102CC400D2F80C34D2F80C2413F0010303D00B48CF
:102CD40005F005FB012381F31188BFF36F8F23B146
:102CE400BDE808400020FFF7B1BF0120BDE808405F
:102CF40001F088B86CA90120005000405CA90120B3
:102D0400074BD3E8EF2F22F00201C3E8E01F0028AD
:102D1400F7D1D30702D4012001F0A6B8704700BF51
:102D24006CA901201FB500220123CDE902236B46C3
:102D3400084ACDF800D0CDF804D005F009FB0028EE
:102D440005DB4FF4FA720023684603F0A5FC05B0D6
:102D54005DF804FB278304002DE9F84301220746AC
:102D64003649D1E8EF3FC1E8E02F0028F9D133B963
:102D7400334934484B60CB608A6004F021FC7B1EED
:102D8400012B2ED8012F06D12F4BD3F81C3403F07E
:102D94000303022B25D005F0B5FD044618B92B4BCF
:102DA4001B78002B44D14FF02003EFF3118683F3FB
:102DB4001288BFF36F8F0124234DDFF89C80A9464E
:102DC400D5F81834D5F81824D2030CD503F003032E
:102DD400022B01D0012F06D134B386F31188BFF33F
:102DE4006F8FBDE8F883D4B13046FFF7C3F8D5F848
:102DF4001835DBB2012BE3D1D8F80020002ADFD04C
:102E04000022C8F80020D8F8002002222021C5F8AA
:102E140018250F4AC2F880110E4A1360D0E700212A
:102E2400012003F03FFFE2E70223C9F80433D8E7A7
:102E34000222054B0646C3F80823BDE770A901200A
:102E44000CA9012038A9012000500040AB0B02203E
:102E540000E100E0085000400451004008B5084873
:102E6400084B186005F08AFC38B10748FFF76AFE82
:102E74000548FDF7A3FC002008BD6FF01200FBE736
:102E8400388D040074A90120912E04000A2838B555
:102E94000446074D04D1286883680D215B68984770
:102EA40028688368E1B25B689847204638BD00BF54
:102EB40074A9012030B5406801F01F05047BB2F508
:102EC400005F45EA441585B04FF0000404D128465C
:102ED40001F088FA00202CE0B2F5804FCDE90244DD
:102EE40029D1B3F5003F0CBF042305238DF8083026
:102EF400836823FA01F1C90729D4B2F5A03F26D18A
:102F04001B4A05F01F03803352F82330DB071ED41D
:102F14000DF107042146284601F0D4F9154B9842D7
:102F240014D1204601F018FA134B98420ED06FF0DA
:102F34000B0005B030BDB3F5C02F05D0B3F5003F8D
:102F44000CBF02230123D1E70323CFE7039400231B
:102F54002846194602AA01F075F8074B984204D195
:102F64000121284601F0FEF9B4E76FF00400E0E720
:102F7400002584400400AD0B0000AD0B10B501F03A
:102F8400DBF9044668B901F0AFF9084B98420AD15D
:102F94002146074801F090F9224605213120FFF728
:102FA40049F8002010BD6FF00400FBE70000AD0BF2
:102FB400B92F0400430970B517D10C4B5968A1B15E
:102FC4000C680125002C38BF0024094E85408A680E
:102FD4002A4002D030464B68984734B123682146D2
:102FE400002B38BF00231C46F1E770BD78A90120EF
:102FF400088D04002DE9F043476801F01F053B7B71
:103004000E46144685B045EA4315CAB902A92846B6
:1030140001F058F90446284601F006FA474B984255
:1030240004D06FF0040005B0BDE8F083844205D1FC
:103034009DF8080001F08AF9A042F2D10020F2E7DD
:103044004FF000090DF103013046CDE9029901F07A
:1030540039F94B4680464946284602AA00F0F2FF59
:10306400364B984202D06FF01500DCE7804503D15F
:103074009DF8030001F06AF9A3054CD5304B314AA1
:103084002340934239D00CD8062B14D004D893B1E2
:10309400022BE8D104230EE0B3F5801FE3D1012312
:1030A40009E0294A93422AD0B3F5A00F29D0B3F5F9
:1030B400800FD8D102238DF8043084F48073C3F3D5
:1030C4000023E0068DF805304CBF0323C4F34013FE
:1030D40021058DF8063016D501217B6801FA06F624
:1030E4009E600022284601A901F052F8134B984231
:1030F40014BF6FF01500002095E70723DBE70523D5
:10310400D9E70323D7E7620541BF01217B6801FAB0
:1031140006F6DE60E5E7E3064FF000034CBF032448
:10312400C4F340141A46284601A98DF8044000F05F
:1031340089FF024B984281D095E700BF0000AD0B98
:103144000600F0000600100002004000F0B54B79C4
:10315400012B26D0032B21D110268B79032B1DD1D3
:10316400CC790CB1012C19D10A7912B1022A15D1EA
:103174000E220B684568B3F5164F2D6865D02DD81F
:10318400B3F5165F64D016D8B3F5966F62D00AD83B
:10319400B3F5967F61D0B3F5167F61D06FF08500EB
:1031A40052E00026D9E7B3F5166F5CD0B3F5965F0D
:1031B400F4D1374B3CE0B3F5E14F57D007D8B3F522
:1031C400615F55D0B3F5964FE8D1324B30E047F606
:1031D4001227BB42E2D14FF4000329E0B3F5613F6B
:1031E40048D013D8B3F5963F47D009D84DF6C02739
:1031F400BB4244D0B3F5614FD0D14FF46B0317E019
:10320400B3F5E13FCAD14FF0EB7311E0B3F5612F91
:1032140038D008D8204FBB4237D0B3F5E12FBDD109
:103224004FF0E86304E01D4FBB42B7D14FF0805329
:10323400C5F82435036934432243043303C9C5F86C
:103244006C2583E803000020F0BD4FF41D03EFE775
:10325400134BEDE74FF49E23EAE74FF4A033E7E77F
:103264004FF41C33E4E74FF41D23E1E70D4BDFE794
:103274000D4BDDE74FF06C73DAE70C4BD8E74FF4F6
:103284006503D5E74FF07063D2E74FF08063CFE773
:1032940000B0130000A04E0090D0030040420F0085
:1032A4000050270000C0750000F03A0000903A0179
:1032B400F8B505460F46066905F024FB10B92C4BFA
:1032C4001B7883B94FF02003EFF3118483F3128842
:1032D400BFF36F8F284605F0E9F828BB84F3118803
:1032E400BFF36F8FEEE76424284605F0DFF870B96A
:1032F400012005F03FF9013CF6D10021012003F043
:10330400D1FCF0E784F31188BFF36F8FF5E74FF03A
:103314002003EFF3118483F31288BFF36F8F2846E1
:1033240005F0C4F80028EDD0012206F8107F696882
:103334000B68C3F84465C3F848250022C3F820216C
:10334400D3F82001C3F85821D3F858214A68D2068B
:1033540041BF0822C3F800254FF48002C3F80423B8
:1033640001229A6084F31188BFF36F8FF8BD00BF08
:10337400AB0B02202DE9F843064601210022082068
:10338400FEF758FE0820FEF737FE002377683569FC
:103394003C68C4F800352E607368D868411C0BD0B3
:1033A4000121DFF854C100F01F029140CCF808104D
:1033B400032180324CF8221019694A1C0DD01A7F5F
:1033C400DFF834C1002A14BF4FF00C0E4FF0000E8A
:1033D40001F01F0280324CF822E0D3F814C0BCF193
:1033E400FF3F0ED04FF0010EDFF80C810CF01F02EE
:1033F4000EFA02FEC8F808E04FF0030E803248F8D7
:1034040022E0D3F818E0BEF1FF3F0DD05A7FDFF879
:10341400E880002A14BF4FF00C094FF000090EF0A9
:103424001F02803248F822901B68C3F80C05C3F8C9
:10343400141531693046C3F808C50431C3F810E5E2
:10344400FFF784FE0646A8B97B68990722D505F1E3
:10345400120000F07DFD234B98420ED0224B2349ED
:103464002348C91AC908890141F0010104F083FB0A
:103474006FF004063046BDE8F883AB7C43F00043AC
:10348400C4F8A031C4F88C300123AA7C9340194AB3
:10349400C2F804350823C4F800353B7A5BB9C4F894
:1034A4001031D4F8103105F11103C4F83435012377
:1034B400C4F8383523607B6810359A075CBF4FF435
:1034C4008072C4F80423DB0644BF4FF48003C4F8BD
:1034D40004330023C4F84455C4F848350123A360D9
:1034E400E360C7E70000AD0B588F0400A88F040009
:1034F400399A04000070014000258440F8B5204E3C
:1035040022F07F45D6E900CEB2EB0C0222F01F0177
:1035140063EB0E03044611EB0C014FEA521043EB2C
:103524000E0740EAC360A5F50013B3F5400FC6E9E2
:1035340000174FF000060AD20126124B19680A063A
:103544000B0A5219104943F10003C1E9002303F0A7
:1035540007FDA30003F1804303F5A833D3F8402506
:10356400AA420BD11EB94FF40002C3F840254FF410
:103574008030064B00FA04F4C3F84443F8BD00BF9E
:1035840028A701208CA9012010A701200050014088
:103594000123834010B5DC430C4AD2E8EF1F01EA53
:1035A400040CC2E8EECFBEF1000FF6D14FF4803226
:1035B40002FA00F0064AC2F80803BFF35F8FBFF3B4
:1035C4006F8F0B4214BF0120002010BD88A9012079
:1035D4000050014001230E4A8340D2E8EF1F1943F3
:1035E400C2E8EC1FBCF1000FF7D14FF48033094A55
:1035F4008340C2F80433084BD3E8AF3F23FA00F00A
:10360400C30742BF4FF40012044BC3F800217047B4
:1036140088A901200050014084A9012000E100E0B4
:103624000D4B1B68190A1806BFF35F8F0B4BD3F8B9
:103634000435C01841F10001B3F5801F0AD2084BCC
:10364400D3E90023994208BF904203D210F180705D
:1036540041F10001704700BF8CA9012000500140D6
:1036640010A701202DE9F74F16461F460546FFF720
:103674008FFF0090FFF7D4FFB94208BFB0427BD25E
:1036840000234FF08072B6EB000867EB01094B454D
:1036940008BF42457DD3404B03EB0513D3E9022316
:1036A4009F4208BF964251D04FF4803B26F07F42A0
:1036B40014464FEA850905F1500809F180494FEA9B
:1036C400880809F5A8391FFA88F808F18048D9F85C
:1036D4004005324B08F5A8380BFA05FBD3F804A5CE
:1036E400A0EB0A0020F07F402AF07F410128C9F8AE
:1036F400401505D10192132005F061FA274B019A78
:103704000AF1020CA4EB0C0020F07F400021B0F57C
:10371400000F88BF6446C8F80010D8F8000024F0F1
:103724007F40C3F844B3C9F84005D3F80405824583
:1037340006D0201A023820F07F40B0F5000F19D8C7
:10374400A41A24F07F44321947F10003124C2901D2
:1037540004EB0510C0E902230C9A0D9B625000246F
:103764004360009B13B12846FFF734FF204603B0A3
:10377400BDE8F08F2046B1E70123094AAB40D2E807
:10378400EF1F1943C2E8E01F0028F8D132463B4638
:10379400DCE76FF01504E4E718A7012000500140AE
:1037A40084A9012073B500244FF0FF304FF0FF319E
:1037B400164D174BC5F80845C3E902014FF4803391
:1037C40002264FF40012C5F80433124B0121C5F848
:1037D40004631520C3F880212246FEF72BFC152034
:1037E400FEF70AFC01230C4A204613600B4A2B60A7
:1037F40013600B4B0B4A009301940023FFF732FF35
:103804003046FFF7A9FA204602B070BD00500140CF
:1038140018A7012000E100E00850014088A9012018
:1038240001350400FFFF7F00334B2DE97343D3F8C8
:1038340004339A0709D5314B1A6832B100221A6051
:103844002F4A1B681368013313604FF02003EFF312
:10385400118283F31288BFF36F8F274BD3F804339D
:10386400DB030ED5274BD3E8EF1F21F00100C3E89B
:10387400E40F002CF7D1244B002936D11968002914
:1038840033D1002382F31188BFF36F8F53B3FFF753
:10389400C7FE04464FF02003EFF3118083F3128830
:1038A400BFF36F8F194B0022D3E90289494508BF42
:1038B40044451FD3D3E900164FF0FF344FF0FF35D2
:1038C4001A604FF48032C3E902450B4BC3F8482316
:1038D40080F31188BFF36F8F21B142464B4600201D
:1038E4000096884702B0BDE87083002119601B6808
:1038F4000123C7E71146EBE70050014004510140A2
:103904008CA9012084A901204051014018A701205D
:10391400154B73B5B0F1FF3F08BF1846461E002E85
:1039240020DD9E42A8BF1E46FFF77AFE0F4BD3E967
:103934000045001BB0F5000F28BF0026203000EB27
:1039440046120B4822F01F02824228BF0246002082
:10395400084BA2180093019045F10003FFF782FE83
:1039640002B070BD0026DFE7FFFF030028A7012097
:10397400E0FF7F000135040008B5FFF751FE054A5A
:10398400D2E90032C01A61EB0201400940EAC16089
:1039940008BD00BF28A7012038B5194D194C2B7854
:1039A40033B9C4E90033184804F0BEFF01232B7077
:1039B40000222A201146FEF73DFB0021134802F0A5
:1039C40065F9134B18604FF0FF324FF0FF330E4888
:1039D40002F07EFD206870B10468002C38BF00241A
:1039E400043002F039FE34B123682046002B38BF7E
:1039F40000231C46F4E7044802F0E8FD002038BD2B
:103A04006AAE012094A901209CA9012058910400C8
:103A140090A9012070B50D4C02460A2500262046C7
:103A24000B4B1B68016891420ED051B14168591A81
:103A3400B142C4BF04460E46013D00F10800F1D175
:103A44002046013B0260436070BD00BF08AA01200C
:103A5400E4A90120684620F007018D4619B50F4BF3
:103A6400D3E8EF2F0132C3E8E12F0029F8D101F0A8
:103A740051F90B4B1C68002C38BF00242CB1201DBD
:103A840002F0EAFD2468002CF8D1FEF7E9FAFEF70B
:103A9400C1FBBDE819408546704700BFE4A9012079
:103AA40000AA01202DE9F04F884687B005F085F87B
:103AB400D8F800300446002B0D4603D103F064F817
:103AC400742077E0BCBF4FF0FF33C8F80030012208
:103AD400002102A804F02FFF0DF104094FF0200388
:103AE400EFF3118B83F31288BFF36F8F03F0EEF8BB
:103AF400FFF790FF384943680A688A4693424FF0BB
:103B0400000308D10193354B5A68002A55D1C3E903
:103B14000099012300E042608BF31188BFF36F8F9B
:103B2400002B46D0D8F80020531C19BF22EAE272B9
:103B3400D3174FF0FF324FF0FF3302A802F0ACFD71
:103B44004FF02003EFF3118B83F31288BFF36F8FD1
:103B54000020224B1A6852B14A4539D1019988BBD9
:103B640058681960904200D159600023019303F012
:103B7400ADF8FFF74FFFDAF8003043608BF311889C
:103B8400BFF36F8FD8F80090B9F1FF3F11D005F063
:103B940014F814EB090445EBE975261A65EB0107E3
:103BA400002E77F10003B8BF0026C8F80060002E8D
:103BB40086D0002007B0BDE8F08FC2F80090C3F8AB
:103BC4000490A6E701605968914208BF5860CCE7A9
:103BD40010461268BFE700BFE4A9012000AA012033
:103BE40070B40468094B2CB19C4203D303F1300533
:103BF400AC4206D3064D2C78661C03EB04132E70DE
:103C04000360006870BC04F096BE00BFB4A9012034
:103C14006BAE01204FF08052014BC3F80021704776
:103C240000E100E04FF08052014BC3F8802170475F
:103C340000E100E04FF00052014BC3F8002170474F
:103C440000E100E04FF00052014BC3F880217047BF
:103C540000E100E0014600220023014804F0E7BD32
:103C640008A601200146014804F0EBBD08A6012086
:103C7400014600220023014804F0D9BDECA901202B
:103C84000146014804F0DDBDECA9012010B5002473
:103C94000E4BC3E900440E4BD3E8EF2FC3E8E14FCA
:103CA4000029F9D104F054FC21460422094804F007
:103CB400CAFA21460422084804F0C5FABDE81040B7
:103CC4004FF400520549064804F062BD00AA0120E1
:103CD400E4A90120B0A90120E8A90120E864012099
:103CE400ECA9012008B5FDF797FC064B06490748E7
:103CF400C91AC908890141F0010103F03CFF002001
:103D040004F035FC588F0400688F04008B9A04007B
:103D1400F0B50446A3B00D4616461F464FF0FF32D9
:103D24004FF0FF330B4802F0D3FB88B9684604F028
:103D340017FA3A463146289B2846A0470446684667
:103D440004F00FFA034802F041FC204623B0F0BD12
:103D54001F24FAE730A60120014B024A1A6070477B
:103D640020A501200090D00370B501250368B3FAA3
:103D740083F2202AC2F11F0410D005FA04F223EAC8
:103D84000202D0E8EF6F9E4204D1C0E8EC2FBCF1F0
:103D9400000FF6D1EAD102480C7070BD0148FCE76F
:103DA4000000AD0B0200AD0B036810B5CB40DB0780
:103DB40011D4012303FA01F1036841EA0302D0E8B4
:103DC400EF4F9C4204D1C0E8EC2FBCF1000FF6D1B8
:103DD400F2D1024810BD0248FCE700BF0000AD0B61
:103DE4000400AD0B044B1A7922B9012218601A7130
:103DF400024870470248704758AA01200000AD0BE2
:103E04000C00AD0B10B101281ED07047134BD3F832
:103E14001824D3F8181411F4803F194610D002F076
:103E24000302022A0CD1C3F8182500220C4B1A6095
:103E340002221B68094BC3F8042301229A607047CD
:103E44000123C1F81835F0E70022064B1A601B68FD
:103E5400024BC3F804031860704700BF00500040D1
:103E6400045100400051004038B510B1012816D06B
:103E740038BD0222012142F21075164CC4F8082301
:103E8400154A10601268154A1160D4F81834DB031F
:103E9400EED5012004F06EFB013DF6D1E8E70022E7
:103EA40042F210750E4B0B4CC4F808031A601B68E1
:103EB4000C4B1860D4F80C34D4F80C2403F0010330
:103EC400D203D5D5002BD3D0012004F053FB013D00
:103ED400F0D1CDE700500040045100400C500040A8
:103EE4000051004004500040154B10B51A684AB107
:103EF4000020012218601B68124BC3F80823124BE0
:103F04001B689847114B1A6882B100221A601B681B
:103F14000C4BD3F81824D3F8181402F00302012A26
:103F24004FF0020103D1C3F818159A6010BDC3F80D
:103F34000813054B0120BDE810401B68184700BF5B
:103F4400005100400050004058AA01200451004094
:103F540001460148FFF708BF24A5012070B50D4CA8
:103F640000F1080334F813300546DA050E4607D588
:103F7400C3F3432304EBC302526854F83330984725
:103F8400A3682BB131462846E268BDE87040184763
:103F940070BD00BF28A50120124B083033F8102053
:103FA40010B4D1051BD5C2F3432122F4F85223F8EF
:103FB4001020002003F1100434F8022B12F4807F47
:103FC40003D0C2F34322914209D001302028F3D117
:103FD4000022054810BC43F83120FFF7E5BE10BCB1
:103FE400704700BF28A501207CA5012038B50C4CE2
:103FF40000F1080534F815309A060AD500225B0B47
:104004009B0003F1804303F54433C3F81025C3F840
:104014001025FFF7C1FF002324F8153038BD00BF79
:1040240028A5012000F01F02054800EB8200D0F80B
:10403400003223F4403343EA0143C0F800327047AE
:1040440000258440F7B50446F9B14C4F00F1080C43
:1040540037F81C0000F02205222D02D1484803B095
:10406400F0BD484D04F01F0605EB8606D6F8005255
:10407400097825F00F0520F0020045EA810140F09F
:104084000100C6F8001227F81C0092B13B4804F165
:10409400080630F8161015788F0752680CD5002AD8
:1040A400DCD130F8162022F01C0242EA850520F803
:1040B4001650D3BB3448D2E721F02001C904C90CFF
:1040C40020F81610002AECD0032DC7D892F800C0AF
:1040D4006246920002F1804202F5443225B9C2F8E8
:1040E4001055C2F81055DCE7D2F810754FEA042ECB
:1040F40027F00307C2F81075D2F810750EF4F85EB5
:1041040027F4473727F44077C2F81075D2F81075B2
:1041140041EA4C3147EA054747EA0E0741F02001DE
:10412400C2F8107520F81610BBE72046D3E90067E3
:10413400FFF732FF002EBDD0104D2B689E4204D1F4
:104144006B689F4201D1002209E010480DF107017C
:10415400FFF70AFE0C4B984281D19DF8072005EB2E
:10416400C20308345F6035F8143045F8326043EA1E
:10417400422343F4807325F814309BE728A50120DB
:104184000400AD0B002584400000AD0B7CA501208C
:104194002DE9F043002944D0434E00F1080C36F8D1
:1041A4001C50AB0704D4AF0602D54048BDE8F083E9
:1041B40015F01C0F02D04B78012BF6D03C4B11F1BB
:1041C400010E00F01F0714BF0224002403EB87072D
:1041D4008B1C14BF4FF00C094FF0000944EA09048A
:1041E400D7F8008244F4E06444F0010428EA0408A7
:1041F400BEF1000F03D091F801E04FEA4E0E0BB16F
:104204008C78A300097845F0030543EA012343EAC7
:10421400080343EA0E0343F00103C7F8003226F80B
:104224001C500AB92348C1E71F4D00F1080635F8B0
:104234001640A307B9D50023177824F02004B90049
:1042440001F18041E40401F54431E40CC1F8103576
:1042540025F81640C1F8103592F801C0BCF1000FE2
:10426400E0D0D1F81035927823F4981323F4F8535E
:10427400C1F81035D1F810E5030203F4F8534FEAFE
:104284000C4043EA0E0300F440301205034302F4E9
:10429400801244EA4734134344F02004C1F8103533
:1042A40025F81640BEE700BF28A501200400AD0B89
:1042B400002584400000AD0B014BC3E902017047A7
:1042C40028A50120054B083033F810309A0643BF67
:1042D4005B0B03480B700348704700BF28A50120FF
:1042E4000000AD0B0400AD0B38B50E4C94F85850DB
:1042F400B5B94022294604F1100003F0A4FF31208F
:10430400FDF77AFE4FF00042074B08481D601B681A
:10431400074BC3F80423012384F85830636538BD80
:104324000448FCE728A501207C1103400000AD0BE4
:10433400001003400500AD0B034B93F85800003800
:1043440018BF0120704700BF28A50120014601487D
:10435400FFF72ABD78A5012001460148FFF704BDF7
:1043640078A501201B4B00F1080233F8123010B479
:104374009A061AD513F0020417D117485B0B9A005A
:104384008450805802F1804202F54432D2F810057C
:1043940040F00100C2F8100529B1012202FA03F32A
:1043A4000E4AC2F8043310BC7047C3F38203042BD3
:1043B4000CD0052B0CD00A4B196900F01F03D9400F
:1043C40001F00101023110BCFFF72CBE0321FAE712
:1043D4000221F8E728A50120001103400010034042
:1043E400002584400E4B00F1080233F81230990680
:1043F40013D59A0711D401225B0B9A4009499B00FB
:1044040003F18043C1F8082303F54433D3F810259E
:1044140022F00302C3F8102570470021FFF702BE03
:1044240028A50120001003400C4B00F1080213F8EA
:10443400123010B5DB0704460DD5FFF7D3FF204635
:10444400FFF7D4FD0222064B04F01F048034054814
:1044540043F8242010BD0448FCE700BF28A5012030
:10446400002584400000AD0B0400AD0B2DE9F04F96
:104474000026012234464B4B4B484C4985B01D68FD
:1044840035B1D0F8045315421EBF1C601D68164395
:1044940004338B424FEA4202F1D1454F3B6883B16A
:1044A400444D0DF10C082B6A03932B624FF0010964
:1044B400039840B938603B682B6A03932B62002B46
:1044C400F4D1012469E090FAA0FABAFA8AFA3A4AD5
:1044D4000AF1080332F813104FEADA0C0AF0070362
:1044E40009FA03F418F80C30C1F3820223EA040336
:1044F40008F80C3005EB8A03D3F80042C80693464B
:10450400C4F3014418D5114650460193FFF726FD24
:10451400019BE4B2D3F80032C3F301439C4207D1B8
:1045240000215046FFF77EFD21465046FFF77AFDF5
:1045340009FA0AF02862BBE7022C0CBF032102210E
:1045440050460192FFF76EFD019A032A04D0022C13
:1045540007D1BBF1010FEBD159465046FFF7FEFCE2
:10456400E6E7032CE4D1BBF1020FF4E796FAA6F3D5
:10457400B3FA83F304FA03F29B0003F1804303F5D7
:104584004433D3F81005D3F81015C0F30420C1F355
:10459400014126EA0206FFF7E1FC002EE6D105B050
:1045A400BDE8F08F001103400010034020110340C8
:1045B4007C1103400025844028A5012070B5084CD7
:1045C4000E462379154643B92A20FDF715FD01232C
:1045D400044823712660A56070BD0348FCE700BF52
:1045E40060AA01200000AD0B0C00AD0B002330B518
:1045F4000D4A50F8234003F5A2710133082B42F809
:104604002140F6D10023084A00F1200103F5B274D9
:1046140051F8045B0133082B42F82450F6D1036CA3
:10462400C2F8043330BD00BF00A002400023144A86
:104634001449C1F81035C2F81035C2F81435C2F85F
:104644001835C2F81C35C2F82035C2F82435C2F832
:104654002835C1F89035C2F89035C2F89435C2F8BF
:104664009835C2F89C35C2F8A035C2F8A435C2F812
:10467400A8354FF0FF32C1F80823034A137170477D
:1046840004A0024000A0024060AA01200C4B30B4F8
:10469400D3F80C0301240346002523B930BC094B8D
:1046A4001A689968104793FAA3F2B2FA82F204FAEC
:1046B40002F123EA0103044992008D50EDE700BFA3
:1046C40000A0024060AA012000A10240032310B50B
:1046D400104C114A23616361104BA261E3614FF4F2
:1046E400705323620023A3626362E36222660C4A6E
:1046F4000C4962661022E01DA2662367E3666367C5
:1047040003F069FD2046084903F065FD2023A371E9
:1047140010BD00BF6CAA0120A89A04007CAE012041
:104724006CAE0120B19A0400B59A04002DE9F84F4B
:104734004FF0180B224F14460BFB0072936A556A14
:104744000646AB42884634D8D2F820A0AAEB050925
:1047540009F1FF32944211D84FF0180906FB09936E
:104764003B44586822464146284403F061FD09FB56
:1047740006762C4401207462BDE8F88F13449C42F1
:104784001BD800FB0BBBBB44DBF804004A4628449F
:104794002C4403F04DFDB4EB0A0406D02246DBF8AA
:1047A400040008EB090103F043FD182000FB067622
:1047B400E0E7013B5B1BA342CED20020DCE700BF55
:1047C4006CAA01201822034B02FB00339A6A586A30
:1047D400801A70476CAA01202DE9F04180460446F6
:1047E400002758F8086B0C4DF6B22B78B3420AD068
:1047F4000137042F05F10C05F7D1A06850B103F07F
:104804000FFF002006E0216840466B68090C9847BA
:104814000228EDD0BDE8F0817C9104002DE9F84F29
:10482400534F05460021386803F080FE04460028F3
:104834004CD12B78D5F80880622B43D0632B43D01E
:10484400612B02D14B4B1C88A4B2386803F06CFE78
:10485400D5F80CA02969A8EB0A08A1EB0A039BB2BE
:1048640014FA88F4B4FBF3F203FB12446A68A2EB73
:104874000A0213FA82F2121B92FBF3F003FB1022DA
:104884001FFA82F914FA82F29342A24422DAA1EBCB
:104894000A039BB2A9EB03049946A4B2B9F1000F31
:1048A40064D00520FFF7D6F9804600285ED09CB17D
:1048B4000520FFF7CFF9064670B94046BDE8F84F2A
:1048C400FFF7D0B92C4BBEE72C4BBCE7BDE8F84F43
:1048D400FFF7B0B90024E1E70021386803F026FEB1
:1048E40040B1FFF7A7F94046FFF7BCF9002C3DD0D3
:1048F4003046E3E72B78622B34D0632B34D0612B22
:1049040007D11C4A138804EB090111FA83F39BB203
:10491400138038686FF0100B6FF0410703F004FE4A
:1049240088F800B088F801702B780521404688F893
:104934000430A8F8029003F016FE4946504603F0EE
:1049440012FE9CB186F800B077702B7805213046B2
:104954003371748003F007FE2146E868BDE8F84F20
:1049640003F001BE044ACDE7044ACBE7BDE8F88F63
:1049740024AB0120A8AD0120A4AD0120A6AD0120E7
:104984000023084A10B51380074A04461380074AD7
:104994000748138001221146FFF722F9054B1C60DA
:1049A40010BD00BFA8AD0120A4AD0120A6AD01201B
:1049B40024AB012020AB012008B5104B1B780BB9A8
:1049C400FFF740F90E4B1868426883689A4201D099
:1049D400FFF724FF0B4B1868826843689A4201D0A2
:1049E400FFF71CFF084B1868826843689A4203D09B
:1049F400BDE80840FFF712BF08BD00BF7CEA0120F4
:104A04001CAB012014AB012018AB01202DE9F74F9A
:104A1400434B1B681969D3F814A01A7C00221A743A
:104A2400587C5A74987C9A74D87CDA74187D1A75F8
:104A3400587D5A75987D9A75D87DDA75002933D0DA
:104A44000139032930D8DFE801F002654C53354AB7
:104A5400117809B1002111700022914617461446BD
:104A6400314D32493248D5F800E0D1F8008006686B
:104A7400DAF808B00195A34519D107B10660B9F178
:104A8400000F01D0C1F8008012B1019AC2F800E011
:104A94001A7A012100221972597A5A72997A9A72F1
:104AA400DA7A6FF05F02DA7203B0BDE8F08FA51C0A
:104AB4000AEB85056D6895F800C0BCF1620F09D05A
:104AC400BCF1630F0AD0BCF1610F04BF2E4601276D
:104AD4000134D0E7A8464FF00109F9E7AE460122B8
:104AE400F6E701210F4A11701A7A03210022D2E756
:104AF400197A04211972597A5A72997A9A72D97A5E
:104B04006FF05F01D972074B1A7003B0BDE8F04F24
:104B1400FFF752BF03B0BDE8F04FFFF78BB800BFFB
:104B240020AB01207CEA012018AB012014AB01204A
:104B34001CAB0120014B1878704700BF7CEA0120B0
:104B44002DE9F04106460F460025DFF874803368EE
:104B5400AB4201D8BDE8F08106EBC504A368FBB104
:104B64006368DBB2012B1BD16268B8F80030B3EB89
:104B7400124F15D1022FA06814D1FFF72DFE022881
:104B84000ED0012813D1636823F0FF0343F002031E
:104B94006360B8F800300133A8F80030FFF73AF842
:104BA4000135D4E70168090C03F0F8FCE7E70028B5
:104BB400EFD1636823F0FF0343F00303E8E700BF8A
:104BC400AAAD012070B5164600240368A34201D1A2
:104BD40000231CE000EBC4025568EDB2032D18D18C
:104BE40001EB84139360516821F0FF0151600C497B
:104BF4000888441C0C80516889B241EA0041516024
:104C040018464022002103F01EFB03464660184666
:104C140070BD15B99568002DE2D00134D6E700BF08
:104C2400ACAD012008B50B4B1B68C01A0A4BC0F38E
:104C340089101B6803EBC000436823F0FF0343F0B3
:104C440001034360032003F06BFC0122034B1A6051
:104C540008BD00BF40AB012044AB01200CA00240C2
:104C640008B50B4B1B68C01A0A4BC0F389101B68AC
:104C740003EBC000436823F0FF0343F001034360E8
:104C8400032003F04DFC0122034B1A6008BD00BF52
:104C940038AB01203CAB012004A00240054B1B783B
:104CA40033B9054B02221968044B1868FFF78ABF11
:104CB400002070477EEA012040AB012044AB012074
:104CC4000A2337B50C4C0D4D019301222168286845
:104CD400FFF778FF68B903F025FC18B901A9FEF7BE
:104CE400E1FEF2E74FF47A70019B584303F018FC9D
:104CF400EBE703B030BD00BF38AB01203CAB012073
:104D0400034B1B780BB9FEF7B3BF0020704700BFFD
:104D14007EEA012010B5064CFEF784FF20680121CD
:104D2400FFF70EFF60680221BDE81040FFF708BFDF
:104D34002CAB01200023114930B50A681468A34242
:104D44000BD100234A6811688B4215D002EBC304CF
:104D5400A468A04208D00133F6E702EBC305AD68AE
:104D6400A84201D00133EAE702EBC3035A6822F0F8
:104D7400FF0242F003025A6030BD00BF2CAB012099
:104D84002DE9F04F002295B005464D490079FFF713
:104D940015FC3822002103A803F055FA02230493DA
:104DA400082306932023089301230B9304230D93D4
:104DB40010234FF0400C0F938023CDE911C3D5236A
:104DC40003A81393FFF712FC2B6800215A68186894
:104DD40003F039FA2A681468D36904F1600604F10F
:104DE400A40704F1E80A04F53A7B04F12009002B36
:104DF40060D004F140083349C1F800903BB1926996
:104E04004046C8F80420C8F80030FFF7B9FD286808
:104E140000230269012162604269A170A2602A4AEA
:104E240023701760294A637016600822E370E660F5
:104E3400276184F8A420C4F81490C4F818807B7007
:104E4400BB70FB70142784F86020214A214DC2F8FE
:104E540000B0214A7370C2F800A0204AB370F37006
:104E6400C2F81046C2F814361D4C29701D4923603F
:104E740002930B600B681C4E0293029B002001A955
:104E84000197FEF70FFE019B143B1E442B78012B68
:104E940004D1002EF2D16FF07303236024685CB94F
:104EA400124B1C70124B1C80124B1C80204615B0F8
:104EB400BDE8F08F98469EE7FFF7B8FBF6E700BF22
:104EC400FD4E040034AB012044AB01203CAB012077
:104ED40040AB01207DEA012038AB012000A0024054
:104EE40028AB012010560040F04902007EEA012060
:104EF400ACAD0120AAAD012070B5044620060CD546
:104F0400FFF784FDFFF716FE38B1E0223E4B83F82D
:104F14002A234FF480625A6070BDE10748D548F2F5
:104F240002023A4BD3F81436934235D01BD843F2DD
:104F34003202934236D00BD8013B012BECD803222A
:104F44000E20334B1A70334B186003F0F5FBE3E784
:104F540048F201029342DFD103222D4B1A7016222C
:104F64002C4B1A60D8E72C4A93420CD8B3F1886FC3
:104F74000CD848F203029342CED10322244B1A7078
:104F84000C22244BEDE7254A9342C5D10321204A44
:104F94001170204A1360BFE703221D4B1A705F2271
:104FA4001C4BDEE703221A4B1A700522194BD8E773
:104FB40014F0400503D00222154B1A70ACE76207C7
:104FC40005D5134B1A781E463AB9FEF723FEE306BD
:104FD400A2D5BDE87040FEF71DBE012AF7D1104AE4
:104FE40010481268916841605268026021B11AB198
:104FF400096809B112682AB9032305223370054BE5
:105004001A60E4E71D70E2E700E100E000A002405E
:105014007DEA012028AB0120040040040100500572
:1050240034AB01202CAB012008B54FF4B072002141
:10503400024803F008F9002008BD00BF48AB012076
:105044002DE9F04115462C2250431E460E4B0C46CA
:105054001F181B582B408B4202D10020BDE8F08161
:105064007B68002BF9D1B846D8F800302B40A34216
:10507400F3D0D8F80430002BEFD131463846FEF790
:1050840011FD0028F0D0E9E748AB01200D4A70B5C6
:10509400002311462C2505FB03F40C595CB1D4689C
:1050A40024F00806022E01D0052C04D105FB03F6DA
:1050B4008C5904438C510133082B02F12C02EAD1A0
:1050C40070BD00BF48AB01200D4A70B500231146E6
:1050D4002C25C04305FB03F40C595CB1D46824F0BF
:1050E4000806022E01D0052C04D105FB03F68C59C9
:1050F40004408C510133082B02F12C02EAD170BD1B
:1051040048AB01200A4B024630B500201C462C2136
:1051140001FB00F5655915B19D69954206D0013032
:10512400082803F12C03F3D14FF0FF3030BD00BF4A
:1051340048AB0120072808D82C234343044AD0183D
:10514400D358002B08BF002070470020704700BFD1
:1051540048AB01206A289ABF014B185C5F20704756
:10516400C19A0400052813D007D870B10B4B1B5CFF
:105174000B4A40F215101360704706280BD00D2817
:1051840009D06A28F2D95F23F2E7054B186070470B
:105194004FF48A70704740F211107047C19A0400AE
:1051A400B0AC012010B50024064B20221C60064B35
:1051B400214606481C6003F046F80122044B2046B1
:1051C4001A7010BDBCAC0120B8AC0120C0AC0120E9
:1051D40080EA012048F20F032DE9F04F994204467A
:1051E4000E4689B000F0A48049F20403994200F00D
:1051F400AB8048F20D03994240F0B880BC4B1A686A
:105204000393012A2DD14069002840F08C80D4F802
:1052140018A0D4F800804FEA4A1318460193FEF709
:1052240019FD074610B3242000FB0AF0FEF712FD17
:105234000546E8B1042600EBCA0307F120090293EE
:10524400029BAB4218D1BAF1000F05D0019B3B443D
:105254009946002349F8043CA64B1F600223039A95
:1052640013602068002840F0C781C7E1FEF7FAFC0C
:105274000C22A14B1A60EFE758F8062008EB060150
:1052840049F8202C08EB06025268B1F812B0013A32
:10529400042A8CBF0022994B06F1140698BF9A5633
:1052A400974B49F81C2C1A68964B49F8182C1A6825
:1052B40049F8142C0A8A9449042A088849F8102CBD
:1052C40049F80C5C08EB060121D102226A60102225
:1052D40028812A700A68EA6059F8102C0BF1010041
:1052E4001644FEF7B7FC49F8080C48B15A4608EBD7
:1052F400060102F09DFF002159F8082C02F80B105A
:1053040049F8049C5E4409F12009083598E70A230A
:105314004FF0240C28816B6085F800C005F1100063
:1053240002F086FFD8E7FFF71DFF734B186095E77F
:1053340043696A2B8EBF5F23744AD35C744A13603B
:10534400744B01221A7059E10369032B07D8DFE873
:1053540003F0020802084FF40030FFF797FE6E4B8B
:10536400EFE74FF40030FFF7AFFEF8E701F4104326
:10537400B3F5104FC0683BD1FFF7C4FE074638466B
:10538400FFF7D8FE054600283FF46BAF01463346CD
:105394002246384600F0F4F9002800F02F8148F244
:1053A4000C039E4226D8B6F5004F7FF65AAFA6F5F9
:1053B4000046013E0B2E3FF654AF01A353F826F0EE
:1053C400895404003D5504005956040077560400DE
:1053D40021550400095604000956040081550400AF
:1053E400A35404006752040067520400AB55040040
:1053F400070CC4E749F202039E4200F0CC8049F254
:1054040003039E425BD049F201039E427FF429AF1D
:105414002E6816F4801600F0EE80A368042B40F288
:10542400E780638A002B00F0E480102B40F0CC80EE
:105434002420FEF70FFC18B30A23436024230370CF
:10544400627C237C04F1240143EA0223038100F1FA
:10545400100204F1140353F8046B8B4242F8046BFA
:10546400F9D12423226807930492626804A9CDE940
:105474000520E86903685B689847013040F08F8035
:105484000220BCE02B68012B40F0B8806069002842
:1054940040F0E98002232B60A369AB61AFE02B6885
:1054A4009BB20D2B40F0AA806069002840F0DB809D
:1054B4002B681B0C1B0443F00E032B609FE02B682E
:1054C40043F400232B602B6823F400332B602369FF
:1054D4006C2B07D12B6843F080432B6080236B60D7
:1054E400AB608BE06A2B96BF084A5F23D35CF6E778
:1054F400B8AC0120BCAC0120B4AC0120BC9A0400BF
:10550400ACAC0120A8AC0120AEAD0120C19A0400CE
:10551400E0AC012081EA01207FEA01202B689BB2E4
:10552400032B6BD16069002840F09D802B681B0C15
:105534001B0443F00403C0E72B6899005ED52B6875
:1055440023F000532B60606968B92B6843F400337F
:105554002B602B6843F480132B602B681B0C1B04FB
:1055640043F00503A9E76A288EBF5F234C4B1B5CFD
:105574006B602B6843F480232B603FE02B689BB265
:10558400062B3BD1606900286DD12B681B0C1B04D2
:1055940043F0070391E72B689BB2072B2ED12B68AE
:1055A40043F48033E8E72B689BB2082B26D1636968
:1055B400002B6DD13B4B43F827402B681B0C1B047D
:1055C40043F009032B6032E0042B14D11020FEF7C2
:1055D40041FB00283FF454AF0223436010230370BF
:1055E400227C617C42EA012202816269C26039E75D
:1055F4000023184636E7206803F03CF8002009B081
:10560400BDE8F08F274B43F8274063697BB16B2BD0
:105614000FD128690C2201282B6804D143F00063C0
:105624002B606A60EBE743F480232B606A600120FF
:10563400E5E723F00200012802D10C236B60DEE7CA
:105644006A2B8EBF5F23164AD35C6B602B6843F4CE
:105654008023B7E72B685A02D0D5606918B92B6844
:1056640043F4000329E76A2817D80D4B1B5C6B60D1
:10567400C4E72B68DB01C1D563694BB9206818B155
:105684000120084B43F827402B6843F0007314E7CC
:105694006A2B02D8024AD35CE9E75F23E7E700BF3D
:1056A400C19A0400C0AC012038B5074C054654F833
:1056B400300038B1FEF7D6FA002344F8353004EB55
:1056C400C504636038BD00BFE4AC01204FF0FF3374
:1056D4002DE9F743DFF89480019308EBC0090D46E8
:1056E4001646D9F8043047F281028969074602F068
:1056F400C3FF044698B3D9F8042022B158F83710F0
:10570400006802F095FD2423174A03FB072304F1E4
:10571400140203F1240153F8040B8B4242F8040BE6
:10572400F9D1A36822462433A3602B6847F2810190
:105734001B0C1B0443F00A032B60042002F093FFAC
:105744002B68DB000DD44FF6FF720B21384601ABFA
:1057540002F0A5FF00B12E6003B0BDE8F0830C2079
:10576400FAE77720F8E700BF83EA0120E4AC0120E0
:105774000122024B00201A70704700BF82EA012008
:1057840070B50C4648F281018B42064635D049F289
:1057940082018B4240D048F202018B4261D1002C3D
:1057A4005FD06369B3F5827F02D0B3F5877F58D1A8
:1057B400236823F0005323605569002D4DD12368DD
:1057C4001B0C1B0443F0050323602368DB0001D496
:1057D400002020E024237343234AD35C022BF7D117
:1057E4002146304602F06BFF0028F1D07728EFD035
:1057F4006060236843F480232DE0002CE8D0236804
:105804009BB20A2BE4D1506940BB23681B0C1B04D8
:1058140043F00B03236070BD002CD9D023689BB2E6
:105824000B2BD5D11569C5B9236843F08063236078
:10583400FFF73AFF236823F08063236023681B0C7F
:105844001B0443F00C032360236843F400332360F8
:10585400236843F480132360BAE72846FFF77AFCF1
:10586400C6E70120D7E700BF83EA012037B5154614
:105874006FF058020023027304220D4C43738373A8
:10588400C373027243728372C372024689B20320E5
:10589400237002F0E8FE4FF0FF3301932378AB420C
:1058A40001D103B030BD01A90020FEF7FBF8F5E7F4
:1058B400A3EB0120012208B511460848FEF790F930
:1058C400002002F0CAFE28B101220521FFF7CEFF15
:1058D400002008BD6FF00B00FBE700BF24AD0120E2
:1058E40070B5C3680546A72B03D0286802F0C2FE32
:1058F40008E0032908D0042919D0022902D1012281
:105904000E4B1A7000200AE00D4E336843B1002498
:10591400006898472868346002F0ACFEE0B270BDBD
:105924000222084B01241860044B1A70F6E7064B58
:105934001B68002BD9D000689847D6E7A3EB012059
:1059440030AD01202CAD012028AD012010B5044656
:10595400006808B102F08EFE054BE2689A4205BF6A
:105964000120044B0020187004BF034B1C6010BDC1
:105974001AE1AB15A4EB012034AD01202DE9F0416F
:10598400046807460D46002C00F0868001F470433D
:10599400B3F5005F42D15F4B1A789846012A31D1A2
:1059A4005D4A21681288B2EB114F2BD162686ABB41
:1059B4005A4B1E681EB342F209039D421FD1304662
:1059C4002389802240F8043B04F10A0102F030FCF0
:1059D400802204F18A0106F1840002F029FCD4F843
:1059E4000A31C6F80431D4F80E31C6F80831D4F8B7
:1059F4001231C6F80C31D4F81631C6F81031002330
:105A040088F80030386802F035FE45E047F6FF714B
:105A14008A420CBF032202221A70F3E7404E336815
:105A2400002BEFD044F2040291420BD8B1F5804F21
:105A3400E8D9A1F58042023A022A0BD8DFE802F045
:105A4400454F590044F20113994203D044F2012313
:105A54009942D7D1334F386808B102F00BFE44F2B3
:105A640001239D42304B1AD102223C6094F85140EC
:105A74001A70E30702D50220336898472B4D14F0BF
:105A8400180433682A781AD01AB9052098470123D4
:105A94002B700120336898470020BDE8F08144F260
:105AA400011295420BBF012200223C603C600BBFF7
:105AB40094F8414094F83D401A701A70D9E7002ACE
:105AC400E7D0062098472C70E3E7194C206808B10A
