:020000040000FA
:100000000008002045010000A70100005188000001
:100010005588000059880000618800005D88000054
:10002000000000000000000000000000298800001F
:10003000C301000000000000C7010000CB01000068
:1000400000000000000000000000000029980000EF
:1000500000000000D30100000000000000000000CC
:10006000D7010000DB010000DF010000E301000018
:1000700000000000E7010000EB010000EF010000BC
:10008000F3010000F7010000000000000000000084
:10009000FB010000FF010000000000000000000064
:1000A0000302000000000000000000000702000042
:1000B0000B0200000F0200001302000017020000F4
:1000C0001B0200001F0200002302000027020000A4
:1000D0002B020000000000002F02000000000000C2
:1000E00033020000000000003702000000000000A2
:1000F0003B020000000000000000000000000000C3
:10010000000000003F0200000000000000000000AE
:1001100000000000000000000000000000000000DF
:10012000000000004302000000000000000000008A
:1001300000000000000000000000000000000000BF
:1001400047020000114C124DAC4209DA2168626886
:10015000A368043BA2BFC858D050FAE70C34F3E7B9
:100160000C4B0D4CA34208DA19685A680020043A77
:10017000A4BF8850FBE70833F4E772B60748084984
:10018000086008F0ADF908F00BF800004C02000020
:1001900070020000700200009002000000000000E9
:1001A00008ED00E0FEE7FFF7FEBF08F051BB08F0E6
:1001B00051BB08F051BB08F053BB08F04FBB08F02F
:1001C00033BBFFF7FEBFFFF7FEBFFFF7FEBF09F02F
:1001D0002BBBFFF7FEBFFFF7FEBFFFF7FEBFFFF72A
:1001E000FEBFFFF7FEBFFFF7FEBFFFF7FEBFFFF743
:1001F000FEBFFFF7FEBFFFF7FEBFFFF7FEBFFFF733
:10020000FEBFFFF7FEBFFFF7FEBFFFF7FEBFFFF722
:10021000FEBFFFF7FEBFFFF7FEBFFFF7FEBFFFF712
:10022000FEBFFFF7FEBFFFF7FEBFFFF7FEBFFFF702
:10023000FEBFFFF7FEBFFFF7FEBFFFF7FEBFFFF7F2
:10024000FEBFFFF7FEBFFFF7FEBF00BFA0740300B5
:10025000C0910020C00100006074030060520020C3
:100260004000000040740300004000202000000017
:1002700080930020A0180000001000200020000043
:10028000A0520020203F000020400020401200002B
:1002A00008B5074B044613B1002100E000BF054B21
:1002B0001868836A03B19847204631F0BBFD00BF40
:1002C000000000001C12000070B50D4D00260D4C02
:1002D000641BA410A64209D10B4D00260B4C31F033
:1002E000ABFD641BA410A64205D170BD55F8043BBC
:1002F00001369847EEE755F8043B01369847F2E798
:100300007893002078930020789300207C9300203D
:10031000024B0146186800F003B800BF9492002019
:1003200038B50546002945D051F8043C0C1F002B78
:10033000B8BFE41800F0C4F91F4A1368104633B977
:10034000636014602846BDE8384000F0BFB9A3429E
:100350000BD921686218934202BF1A685B68521871
:10036000636008BF22600460ECE71A465B680BB16B
:10037000A342FAD911685018A0420BD12068014459
:10038000501811608342DDD118685B6801445360E6
:100390001160D7E702D90C232B60D3E7206821181E
:1003A0008B4202BF19685B680918636008BF21604F
:1003B0005460C7E738BD00BFAC9E0020F8B5CD1C27
:1003C000064625F0030508350C2D38BF0C25002DF9
:1003D00001DBA94203D90C2333600020F8BD00F0F3
:1003E0006FF921490A6814469CB9204F3B6823B92C
:1003F0002146304600F054F838602946304600F077
:100400004FF8431C23D10C233046336000F05EF9D3
:10041000E3E723685B1B17D40B2B03D923601C4431
:10042000256004E06368A2420CBF0B605360304655
:1004300000F04CF904F10B00231D20F00700C21A54
:10044000CCD01B1AA350C9E722466468CCE7C41C71
:1004500024F00304A042E3D0211A304600F020F833
:100460000130DDD1CFE700BFAC9E0020B09E002060
:100470000FB40A4B13B51C6824B1A36913B9204605
:1004800000F07EF805AB049AA1682046019300F0C5
:100490004BF902B0BDE8104004B0704794920020C0
:1004A00038B50023054D044608462B6031F0B4FCF6
:1004B000431C02D12B6803B1236038BD60AA002021
:1004C000034613F8012B002AFBD1181A0138704794
:1004D000002310B504468360818119464366C281BA
:1004E00008228361C0E90033C0E904335C3002F0C4
:1004F0001DFB054B24626362044BA362044BE36261
:10050000044B236310BD00BFB50C0000D70C0000E6
:100510000F0D0000330D0000014900F0AFB800BF1F
:100520000910000070B54A1E68250E46554305F1B6
:100530007401FFF743FF044640B1002105F1680252
:10054000C0E900160C30A06002F0F0FA204670BD41
:10055000014800F0B3B800BF5CAA0020014800F0D9
:10056000AEB800BF5CAA0020014800F0A7B800BFE9
:1005700057AA0020014800F0A2B800BF57AA0020E7
:1005800010B50446FFF7F0FFA3691BB1BDE81040AA
:10059000FFF7F0BFC4E9123323652046124B134A1C
:1005A0001B68A262A34204BF0123A36100F020F8EC
:1005B0006060204600F01CF8A060204600F018F8AB
:1005C00000220421E0606068FFF782FF0122092118
:1005D000A068FFF77DFF02221221E068FFF778FF95
:1005E0000123A361D2E700BF1C120000190500001F
:1005F000F8B50746FFF7ACFF1E4B1E68B36913B989
:100600003046FFF7BDFF4836D6E90134013B03D53C
:1006100033680BB33668F7E7B4F90C50D5B9164B0D
:1006200004F158006566E36000F047F8FFF796FFB5
:100630000822294604F15C002560A561C4E9015542
:10064000C4E9045502F072FAC4E90D55C4E9125523
:100650002046F8BD6834D9E704213846FFF762FF29
:10066000044630600028D5D1FFF778FF0C233B60AB
:10067000EEE700BF1C1200000100FFFF2DE9F84368
:100680000646884600F148040027D4E90195B9F1EF
:10069000010905D52468002CF7D13846BDE8F88358
:1006A000AB89012B07D9B5F90E30013303D02946A8
:1006B0003046C04707436835E9E7704770477047E1
:1006C0000148FFF7FBBF00BF58AA00200148FFF711
:1006D000F6BF00BF58AA00209368013B002B93602F
:1006E00010B407DA9469A34201DB0A2902D110BCD5
:1006F00000F024BB1368581C10600846197010BC29
:100700007047F8B506460F461446D518AC4201D1DD
:10071000002007E03A4614F8011B3046FFF7DCFFE3
:10072000431CF3D1F8BD00002DE9F04F0D469DB0FC
:1007300014469846064618B183690BB9FFF720FFA7
:10074000894B9D421BD175686B6ED90705D4AB8967
:100750009A0502D4A86DFFF7B1FFAB891B0701D53D
:100760002B69EBB92946304600F04CFBC0B16B6EEB
:10077000DC070ED54FF0FF301DB0BDE8F08F7B4B8E
:100780009D4201D1B568DFE7794B9D4208BFF5680E
:10079000DAE7AB899805EDD4A86DFFF790FFE9E79C
:1007A0000023CDF80C804FF00109DFF8C8810993D0
:1007B00020238DF8293030238DF82A3023469A469D
:1007C00013F8012B0AB1252AF9D1BAEB040B0BD08F
:1007D0005B46224629463046FFF793FF013000F082
:1007E000AA80099A5A4409929AF80030002B00F026
:1007F000A28000234FF0FF320AF1010A049307930D
:100800008DF853301A93CDE90523544605225948F3
:1008100014F8011B00F0AAFC049AD8B9D10644BF11
:1008200020238DF85330130744BF2B238DF853300A
:100830009AF800302A2B15D0079A544600204FF022
:100840000A0C214611F8013B303B092B4ED9B0B1BF
:10085000079214E0A0EB0803A24609FA03F313433E
:100860000493D2E7039B191D1B68002B0391BBBFA8
:100870005B4242F0020207930793B8BF04922378C9
:100880002E2B0CD163782A2B35D1039B02341A1DF1
:100890001B68002B0392B8BF4FF0FF330593DFF8BE
:1008A000E4A003222178504600F060FC40B14023D0
:1008B000A0EB0A00013403FA00F0049B0343049305
:1008C00014F8011B06222C488DF8281000F04EFC6D
:1008D00000283FD0294B1BBB039B073323F00703A2
:1008E00008330393099B3B44099367E70CFB0232EF
:1008F0000C460120A5E7002301344FF00A0C1946ED
:100900000593204610F8012B303A092A03D9002B11
:10091000C5D00591C3E70CFB012104460123F0E794
:1009200003AB2A4604A930460093154B00E000BFF4
:100930000746781CD6D16B6ED90705D4AB899A05CA
:1009400002D4A86DFFF7BBFEAB895B063FF512AF83
:10095000099811E703AB2A4604A930460093084BD7
:1009600000F082F8E4E700BF4012000060120000CF
:1009700020120000801200008A1200000000000017
:1009800003070000861200002DE9F047164699463D
:100990008A6807460B690C46DDF820809342B8BF91
:1009A0001346336091F843200AB101333360236862
:1009B000990642BF336802333360256815F0060597
:1009C00006D104F1190AE36832689B1AAB4229DCAC
:1009D00094F84320131E226818BF012392062ED4D8
:1009E00004F1430249463846C047013021D023680C
:1009F0001A3454F80E5C03F0060332680026042B08
:100A000054F8123C08BFAD1A54F80A2C14BF002544
:100A100025EAE5759342C4BF9B1AED18B5421AD179
:100A2000002008E00123524649463846C0470130BD
:100A300003D14FF0FF30BDE8F0870135C3E7E1187F
:100A40005A1C30200233224481F8430094F84510A8
:100A500082F84310C4E70123224649463846C0477E
:100A60000130E6D00136D9E72DE9FF470C46914623
:100A700080469A46277E04F143020C99782F07D8C6
:100A8000622F0AD8002F00F0D880582F00F0A380E2
:100A900004F1420684F842703AE0A7F16303152B93
:100AA000F6D801A050F823F0010B0000150B000050
:100AB000910A0000910A0000910A0000910A0000CA
:100AC000150B0000910A0000910A0000910A000035
:100AD000910A0000210C0000450B0000030C0000EF
:100AE000910A0000910A0000430C0000910A0000E6
:100AF000450B0000910A0000910A00000B0C000059
:100B00000B6804F142061A1D1B680A6084F8423023
:100B10000123A3E0256808682E0600F104030AD526
:100B200005680B60002D03DA2D236D4284F84330F5
:100B30005E480A2319E015F0400F05680B6018BFE6
:100B40002DB2EFE70B682568181D0860280601D54F
:100B50001D6802E06906FBD51D886F2F53480CBF46
:100B600008230A23002184F843106668002EA6603B
:100B7000A2BF216821F0040121600DB9002E4DD0E3
:100B80001646B5FBF3F103FB1157C75D06F8017D6F
:100B90002F460D46BB42F4D9082B0BD12368DF0743
:100BA00008D5236961689942DEBF302306F8013C0D
:100BB00006F1FF36921B22614B4603AA21464046AE
:100BC000CDF800A0FFF7E0FE01304CD14FF0FF3030
:100BD00004B0BDE8F087354884F8457023680E6896
:100BE0001F0656F8045B0E6014D5D90744BF43F0C6
:100BF000200323601DB9236823F020032360102302
:100C0000B0E7236843F0200323607823284884F862
:100C10004530E3E75E0648BFADB2E6E71646BBE700
:100C20000B6826681D1D60690D6035061B6801D5BF
:100C3000186002E07106FBD5188000231646236178
:100C4000BAE70B681A1D0A6000211E686268304608
:100C500000F08CFA08B1801B606063682361002398
:100C600084F84330A8E72369324649464046D047D6
:100C70000130ABD023689B0713D4E068039B9842F4
:100C8000B8BF1846A4E70123324649464046D0473C
:100C900001309BD00135E36803995B1AAB42F2DC6B
:100CA000EBE7002504F11906F5E700BF91120000FB
:100CB000A212000010B50C46B1F90E1000F064FA53
:100CC0000028ABBF636DA3891B1823F48053ACBF0E
:100CD0006365A38110BD2DE9F0411F468B89054650
:100CE0000C46DB05164605D502230022B1F90E108D
:100CF00000F0C6F9A3893246B4F90E10284623F451
:100D00008053A3813B46BDE8F04100F069B810B5BF
:100D10000C46B1F90E1000F0B3F9431CA38915BFBE
:100D2000606523F4805343F48053A38118BFA381EB
:100D300010BDB1F90E1000F0D3B80000F8B50E46A2
:100D40001446054618B183690BB9FFF719FC214B0E
:100D50009C422BD16C68A369A360A3891A072FD585
:100D600023696BB32369F6B220683746C01A6369FA
:100D7000834204DC2146284600F046F930BBA368D4
:100D80000130013BA36023685A1C22601E70636916
:100D9000834204D0A389DB0706D50A2E04D121465D
:100DA000284600F031F988B93846F8BD0A4B9C4214
:100DB00001D1AC68CFE7094B9C4208BFEC68CAE799
:100DC0002146284600F01EF80028CBD04FF0FF3710
:100DD000EAE700BF4012000060120000201200008D
:100DE00038B50446064D0846114600222A601A46C8
:100DF0000AF066F8431C02D12B6803B1236038BDAA
:100E000060AA0020324B70B51D6806460C4625B11D
:100E1000AB6913B92846FFF7B3FB2E4B9C420FD1A9
:100E20006C68A389B4F90C2019072CD4DD0611D401
:100E30000923336042F040034FF0FF30A3813EE0CE
:100E4000254B9C4201D1AC68EBE7244B9C4208BF88
:100E5000EC68E6E7580712D5616B41B104F1440331
:100E6000994202D03046FFF75BFA00236363A389FF
:100E700023F02403A3810023636023692360A389F3
:100E800043F00803A38123694BB9A38903F42073BA
:100E9000B3F5007F03D02146304600F027F9A08942
:100EA000B4F90C2010F001030AD00023A360636999
:100EB0005B42A361236943B910F08000BAD170BDD1
:100EC000810758BF6369A360F4E70020F7E700BF1C
:100ED00094920020401200006012000020120000D6
:100EE00038B50023054D044608462B6030F06CFFF2
:100EF000431C02D12B6803B1236038BD60AA0020D7
:100F00008A892DE9F041054610070C4658D44B68F4
:100F1000002B05DC0B6C002B02DC0020BDE8F0810F
:100F2000E66A002EF9D0002312F480522F682B605D
:100F300032D0606DA3895A0705D56368C01A636B08
:100F40000BB1236CC01A00230246E66A2846216AC8
:100F5000B047431CA38906D129681D292CD8294AEA
:100F6000CA40D60728D50022D904626022692260CF
:100F700004D5421C01D12B6803B96065616B2F60F9
:100F80000029CAD004F14403994202D02846FFF751
:100F9000C7F900206063C1E7216A01232846B047F2
:100FA000411CC7D12B68002BC4D01D2B01D0162BA0
:100FB00001D12F60B1E7A38943F04003A381ADE7DE
:100FC0000F69002FA9D093070E680F600CBF4B6903
:100FD0000023A6EB07088B60B8F1000F9DDD4346A8
:100FE0003A46216A2846A66AB047002806DCA3894B
:100FF0004FF0FF3043F04003A3818FE70744A8EB95
:101000000008E9E70100402038B50B6905460C46A9
:1010100013B90025284638BD18B183690BB9FFF70D
:10102000AFFA144B9C421BD16C68B4F90C30002B06
:10103000EFD0626ED00704D4990502D4A06DFFF7FB
:101040003DFB28462146FFF75BFF636E0546DA0746
:10105000E0D4A3899B05DDD4A06DFFF730FBD9E771
:10106000054B9C4201D1AC68DFE7044B9C4208BFB2
:10107000EC68DAE740120000601200002012000065
:1010800038B50446064D0846114600222A601A4625
:1010900030F0B2FE431C02D12B6803B1236038BD8F
:1010A00060AA002070B50E46B1F90E1096B0144635
:1010B00000291D4607DA00232B60B3891A0610D4D5
:1010C0004FF480630EE06A4600F070F80028F2DB0F
:1010D000019A02F47042A2F500535A425A412A6022
:1010E000EEE740230020236016B070BD8B8973B5F6
:1010F0009D0706460C4607D504F14703236023618C
:101100000123636102B070BD01AB6A46FFF7CAFFFD
:10111000009905463046FFF751F948B9B4F90C304B
:101120009A05EFD423F0030343F00203A381E3E71E
:101130000D4BB362A389206043F080032061A3813B
:10114000009B6361019B5BB1B4F90E10304600F067
:101150003FF828B1A38923F0030343F00103A381DF
:10116000A0890543A581CDE719050000C9B2034652
:10117000024410B59342184601D1002003E00478E0
:1011800001338C42F6D110BD38B50446064D0846F1
:10119000114600222A601A4630F036FE431C02D166
:1011A0002B6803B1236038BD60AA002038B5002346
:1011B000064D0446084611462B6030F00DFE431CD8
:1011C00002D12B6803B1236038BD00BF60AA0020A4
:1011D00038B50023054D044608462B6030F004FE68
:1011E000431C02D12B6803B1236038BD60AA0020E4
:1011F000024B0A460146186800F002B8949200209B
:1012000038B502FB01F52946FFF7D8F8044618B1B6
:101210002A46002101F08AFC204638BD9892002021
:1012200000000000000000000000000000000000BE
:1012300000000000000000000000000000000000AE
:10124000000000000000000000000000000000009E
:10125000000000000000000000000000000000008E
:10126000000000000000000000000000000000007E
:10127000000000000000000000000000000000006E
:10128000232D302B2000686C4C006566674546476F
:1012900000303132333435363738394142434445F2
:1012A0004600303132333435363738396162636461
:1012B0006566000000B51EF0010F85B0CDE9001293
:1012C000029308BF0121034618BF0021074A4FF4CB
:1012D000807008F011F905B05DF804EB71467246B4
:1012E0007346F4468EF30088744700BF1D720000F9
:1012F00000B51EF0010F85B0CDE90012029308BFC2
:101300000121034618BF0021074A4FF4807008F0FE
:10131000F3F805B05DF804EB714672467346F44687
:101320008EF30088744700BF8972000000B51EF07C
:10133000010F85B0CDE90012029308BF01210346D9
:1013400018BF0021074A4FF4807008F0D5F805B0A7
:101350005DF804EB714672467346F4468EF30088DE
:10136000744700BF0573000000B51EF0010F85B083
:10137000CDE90012029308BF0121034618BF0021E6
:10138000074A4FF4807008F0B7F805B05DF804EB39
:10139000714672467346F4468EF30088744700BF68
:1013A0006573000000B51EF0010F85B0CDE9001295
:1013B000029308BF0121034618BF0021074A4FF4DA
:1013C000807008F099F805B05DF804EB714672463C
:1013D0007346F4468EF30088744700BFB57300006F
:1013E00000B51EF0010F85B0CDE90012029308BFD1
:1013F0000121034618BF0021074A40F2011008F0FE
:101400007BF805B05DF804EB714672467346F4460E
:101410008EF30088744700BF515A000000B51EF0DB
:10142000010F85B0CDE90012029308BF01210346E8
:1014300018BF0021074A40F2011008F05DF805B01E
:101440005DF804EB714672467346F4468EF30088ED
:10145000744700BFB95A000000B51EF0010F85B0F7
:10146000CDE90012029308BF0121034618BF0021F5
:10147000074A40F2011008F03FF805B05DF804EBB0
:10148000714672467346F4468EF30088744700BF77
:10149000255B000000B51EF0010F85B0CDE90012FC
:1014A000029308BF0121034618BF0021074A40F2FA
:1014B000011008F021F805B05DF804EB71467246A2
:1014C0007346F4468EF30088744700BF755B0000D6
:1014D00000B51EF0010F85B0CDE90012029308BFE0
:1014E0000121034618BF0021074A4FF4817008F01C
:1014F00003F805B05DF804EB714672467346F44696
:101500008EF30088744700BFED35000000B51EF073
:10151000010F85B0CDE90012029308BF01210346F7
:1015200018BF0021074A4FF4817007F0E5FF05B0AE
:101530005DF804EB714672467346F4468EF30088FC
:10154000744700BF4934000000B51EF0010F85B09C
:10155000CDE90012029308BF0121034618BF002104
:10156000074A4FF4817007F0C7FF05B05DF804EB40
:10157000714672467346F4468EF30088744700BF86
:10158000A533000000B51EF0010F85B0CDE90012B3
:10159000029308BF0121034618BF0021074A4FF4F8
:1015A000817007F0A9FF05B05DF804EB7146724643
:1015B0007346F4468EF30088744700BFD9330000A9
:1015C00000B51EF0010F85B0CDE90012029308BFEF
:1015D0000121034618BF0021074A4FF4817007F02C
:1015E0008BFF05B05DF804EB714672467346F44616
:1015F0008EF30088744700BF3533000000B51EF03D
:10160000010F85B0CDE90012029308BF0121034606
:1016100018BF0021074A40F2031007F06DFF05B024
:101620005DF804EB714672467346F4468EF300880B
:10163000744700BF194C000000B51EF0010F85B0C3
:10164000CDE90012029308BF0121034618BF002113
:10165000074A40F2031007F04FFF05B05DF804EBB6
:10166000714672467346F4468EF30088744700BF95
:10167000494B000000B51EF0010F85B0CDE9001206
:10168000029308BF0121034618BF0021074A40F218
:10169000031007F031FF05B05DF804EB71467246A8
:1016A0007346F4468EF30088744700BFA14B0000D8
:1016B00000B51EF0010F85B0CDE90012029308BFFE
:1016C0000121034618BF0021074A40F2031007F02A
:1016D00013FF05B05DF804EB714672467346F4469D
:1016E0008EF30088744700BF814C000000B51EF0E7
:1016F000010F85B0CDE90012029308BF0121034616
:1017000018BF0021074A40F2031007F0F5FE05B0AC
:101710005DF804EB714672467346F4468EF300881A
:10172000744700BFD54A000000B51EF0010F85B018
:10173000CDE90012029308BF0121034618BF002122
:10174000074A40F2031007F0D7FE05B05DF804EB3E
:10175000714672467346F4468EF30088744700BFA4
:10176000DD4B000000B51EF0010F85B0CDE9001281
:10177000029308BF0121034618BF0021074A40F227
:10178000031007F0B9FE05B05DF804EB7146724630
:101790007346F4468EF30088744700BFE14C0000A6
:1017A00000B51EF0010F85B0CDE90012029308BF0D
:1017B0000121034618BF0021074A40F2031007F039
:1017C0009BFE05B05DF804EB714672467346F44625
:1017D0008EF30088744700BF314D000000B51EF045
:1017E000010F85B0CDE90012029308BF0121034625
:1017F00018BF0021074A40F2031007F07DFE05B034
:101800005DF804EB714672467346F4468EF3008829
:10181000744700BF814D000000B51EF0010F85B078
:10182000CDE90012029308BF0121034618BF002131
:10183000074A40F2031007F05FFE05B05DF804EBC5
:10184000714672467346F4468EF30088744700BFB3
:10185000BD4D000000B51EF0010F85B0CDE90012AE
:10186000029308BF0121034618BF0021074A40F236
:10187000031007F041FE05B05DF804EB71467246B7
:101880007346F4468EF30088744700BF3D3E000067
:1018900000B51EF0010F85B0CDE90012029308BF1C
:1018A0000121034618BF0021074A40F2031007F048
:1018B00023FE05B05DF804EB714672467346F446AC
:1018C0008EF30088744700BF813E000000B51EF013
:1018D000010F85B0CDE90012029308BF0121034634
:1018E00018BF0021074A40F2031007F005FE05B0BB
:1018F0005DF804EB714672467346F4468EF3008839
:10190000744700BF193C000000B51EF0010F85B000
:10191000CDE90012029308BF0121034618BF002140
:10192000074A40F2031007F0E7FD05B05DF804EB4D
:10193000714672467346F4468EF30088744700BFC2
:10194000793C000000B51EF0010F85B0CDE9001212
:10195000029308BF0121034618BF0021074A40F245
:10196000031007F0C9FD05B05DF804EB714672463F
:101970007346F4468EF30088744700BFC53C0000F0
:1019800000B51EF0010F85B0CDE90012029308BF2B
:101990000121034618BF0021074A40F2031007F057
:1019A000ABFD05B05DF804EB714672467346F44634
:1019B0008EF30088744700BF313D000000B51EF073
:1019C000010F85B0CDE90012029308BF0121034643
:1019D00018BF0021074A40F2031007F08DFD05B043
:1019E0005DF804EB714672467346F4468EF3008848
:1019F000744700BF8D3D000000B51EF0010F85B09B
:101A0000CDE90012029308BF0121034618BF00214F
:101A1000074A40F2031007F06FFD05B05DF804EBD4
:101A2000714672467346F4468EF30088744700BFD1
:101A3000E93D000000B51EF0010F85B0CDE90012B0
:101A4000029308BF0121034618BF0021074A40F254
:101A5000031007F051FD05B05DF804EB71467246C6
:101A60007346F4468EF30088744700BF214100009E
:101A700000B51EF0010F85B0CDE90012029308BF3A
:101A80000121034618BF0021074A40F2031007F066
:101A900033FD05B05DF804EB714672467346F446BB
:101AA0008EF30088744700BF8141000000B51EF02E
:101AB000010F85B0CDE90012029308BF0121034652
:101AC00018BF0021074A40F2031007F015FD05B0CA
:101AD0005DF804EB714672467346F4468EF3008857
:101AE000744700BFB53E000000B51EF0010F85B081
:101AF000CDE90012029308BF0121034618BF00215F
:101B0000074A40F2031007F0F7FC05B05DF804EB5C
:101B1000714672467346F4468EF30088744700BFE0
:101B2000313F000000B51EF0010F85B0CDE9001275
:101B3000029308BF0121034618BF0021074A40F263
:101B4000031007F0D9FC05B05DF804EB714672464E
:101B50007346F4468EF30088744700BFAD3F000023
:101B600000B51EF0010F85B0CDE90012029308BF49
:101B70000121034618BF0021074A40F2031007F075
:101B8000BBFC05B05DF804EB714672467346F44643
:101B90008EF30088744700BFF93F000000B51EF0C7
:101BA000010F85B0CDE90012029308BF0121034661
:101BB00018BF0021074A40F2031007F09DFC05B052
:101BC0005DF804EB714672467346F4468EF3008866
:101BD000744700BF6540000000B51EF0010F85B0DE
:101BE000CDE90012029308BF0121034618BF00216E
:101BF000074A40F2031007F07FFC05B05DF804EBE4
:101C0000714672467346F4468EF30088744700BFEF
:101C1000C540000000B51EF0010F85B0CDE90012EF
:101C2000029308BF0121034618BF0021074A40F272
:101C3000031007F061FC05B05DF804EB71467246D5
:101C40007346F4468EF30088744700BF593B00008A
:101C500000B51EF0010F85B0CDE90012029308BF58
:101C60000121034618BF0021074A40F2031007F084
:101C700043FC05B05DF804EB714672467346F446CA
:101C80008EF30088744700BFB93B000000B51EF01A
:101C9000010F85B0CDE90012029308BF0121034670
:101CA00018BF0021074A40F2031007F025FC05B0D9
:101CB0005DF804EB714672467346F4468EF3008875
:101CC000744700BF3539000000B51EF0010F85B024
:101CD000CDE90012029308BF0121034618BF00217D
:101CE000074A40F2031007F007FC05B05DF804EB6B
:101CF000714672467346F4468EF30088744700BFFF
:101D0000B139000000B51EF0010F85B0CDE9001219
:101D1000029308BF0121034618BF0021074A40F281
:101D2000031007F0E9FB05B05DF804EB714672465D
:101D30007346F4468EF30088744700BF8D38000068
:101D400000B51EF0010F85B0CDE90012029308BF67
:101D50000121034618BF0021074A40F2031007F093
:101D6000CBFB05B05DF804EB714672467346F44652
:101D70008EF30088744700BFE938000000B51EF0FC
:101D8000010F85B0CDE90012029308BF012103467F
:101D900018BF0021074A40F2031007F0ADFB05B061
:101DA0005DF804EB714672467346F4468EF3008884
:101DB000744700BF2D3A000000B51EF0010F85B03A
:101DC000CDE90012029308BF0121034618BF00218C
:101DD000074A40F2031007F08FFB05B05DF804EBF3
:101DE000714672467346F4468EF30088744700BF0E
:101DF0008D3A000000B51EF0010F85B0CDE900124C
:101E0000029308BF0121034618BF0021074A40F290
:101E1000031007F071FB05B05DF804EB71467246E4
:101E20007346F4468EF30088744700BFF93A000009
:101E300000B51EF0010F85B0CDE90012029308BF76
:101E40000121034618BF0021074A40F2031007F0A2
:101E500053FB05B05DF804EB714672467346F446D9
:101E60008EF30088744700BF9142000000B51EF059
:101E7000010F85B0CDE90012029308BF012103468E
:101E800018BF0021074A40F2031007F035FB05B0E8
:101E90005DF804EB714672467346F4468EF3008893
:101EA000744700BF1D43000000B51EF0010F85B050
:101EB000CDE90012029308BF0121034618BF00219B
:101EC000074A40F2031007F017FB05B05DF804EB7A
:101ED000714672467346F4468EF30088744700BF1D
:101EE000A943000000B51EF0010F85B0CDE9001236
:101EF000029308BF0121034618BF0021074A40F2A0
:101F0000031007F0F9FA05B05DF804EB714672466C
:101F10007346F4468EF30088744700BFB143000057
:101F200000B51EF0010F85B0CDE90012029308BF85
:101F30000121034618BF0021074A40F2031007F0B1
:101F4000DBFA05B05DF804EB714672467346F44661
:101F50008EF30088744700BFC943000000B51EF02F
:101F6000010F85B0CDE90012029308BF012103469D
:101F700018BF0021074A40F2031007F0BDFA05B070
:101F80005DF804EB714672467346F4468EF30088A2
:101F9000744700BFD143000000B51EF0010F85B0AB
:101FA000CDE90012029308BF0121034618BF0021AA
:101FB000074A40F2031007F09FFA05B05DF804EB02
:101FC000714672467346F4468EF30088744700BF2C
:101FD000D943000000B51EF0010F85B0CDE9001215
:101FE000029308BF0121034618BF0021074A40F2AF
:101FF000031007F081FA05B05DF804EB71467246F4
:102000007346F4468EF30088744700BFE94300002E
:1020100000B51EF0010F85B0CDE90012029308BF94
:102020000121034618BF0021074A40F2031007F0C0
:1020300063FA05B05DF804EB714672467346F446E8
:102040008EF30088744700BFE143000000B51EF026
:10205000010F85B0CDE90012029308BF01210346AC
:1020600018BF0021074A40F2031007F045FA05B0F7
:102070005DF804EB714672467346F4468EF30088B1
:10208000744700BFC143000000B51EF0010F85B0CA
:10209000CDE90012029308BF0121034618BF0021B9
:1020A000074A40F2031007F027FA05B05DF804EB89
:1020B000714672467346F4468EF30088744700BF3B
:1020C000F143000000B51EF0010F85B0CDE900120C
:1020D000029308BF0121034618BF0021074A40F2BE
:1020E000031007F009FA05B05DF804EB714672467B
:1020F0007346F4468EF30088744700BFB94300006E
:1021000000B51EF0010F85B0CDE90012029308BFA3
:102110000121034618BF0021074A40F2031007F0CF
:10212000EBF905B05DF804EB714672467346F44670
:102130008EF30088744700BFF943000000B51EF01D
:10214000010F85B0CDE90012029308BF01210346BB
:1021500018BF0021074A40F2031007F0CDF905B07F
:102160005DF804EB714672467346F4468EF30088C0
:10217000744700BF5944000000B51EF0010F85B040
:10218000CDE90012029308BF0121034618BF0021C8
:10219000074A40F2031007F0AFF905B05DF804EB11
:1021A000714672467346F4468EF30088744700BF4A
:1021B000B144000000B51EF0010F85B0CDE900125A
:1021C000029308BF0121034618BF0021074A40F2CD
:1021D000031007F091F905B05DF804EB7146724603
:1021E0007346F4468EF30088744700BF1145000023
:1021F00000B51EF0010F85B0CDE90012029308BFB3
:102200000121034618BF0021074A40F2031007F0DE
:1022100073F905B05DF804EB714672467346F446F7
:102220008EF30088744700BF6945000000B51EF0BA
:10223000010F85B0CDE90012029308BF01210346CA
:1022400018BF0021074A40F2031007F055F905B006
:102250005DF804EB714672467346F4468EF30088CF
:10226000744700BF2946000000B51EF0010F85B07D
:10227000CDE90012029308BF0121034618BF0021D7
:10228000074A40F2031007F037F905B05DF804EB98
:10229000714672467346F4468EF30088744700BF59
:1022A0009946000000B51EF0010F85B0CDE900127F
:1022B000029308BF0121034618BF0021074A40F2DC
:1022C000031007F019F905B05DF804EB714672468A
:1022D0007346F4468EF30088744700BF054700003C
:1022E00000B51EF0010F85B0CDE90012029308BFC2
:1022F0000121034618BF0021074A40F2031007F0EE
:10230000FBF805B05DF804EB714672467346F4467F
:102310008EF30088744700BF5147000000B51EF0DF
:10232000010F85B0CDE90012029308BF01210346D9
:1023300018BF0021074A40F2031007F0DDF805B08E
:102340005DF804EB714672467346F4468EF30088DE
:10235000744700BF8947000000B51EF0010F85B02B
:10236000CDE90012029308BF0121034618BF0021E6
:10237000074A40F2031007F0BFF805B05DF804EB20
:10238000714672467346F4468EF30088744700BF68
:102390006D48000000B51EF0010F85B0CDE90012B8
:1023A000029308BF0121034618BF0021074A40F2EB
:1023B000031007F0A1F805B05DF804EB7146724612
:1023C0007346F4468EF30088744700BF114A00003C
:1023D00000B51EF0010F85B0CDE90012029308BFD1
:1023E0000121034618BF0021074A40F2031007F0FD
:1023F00083F805B05DF804EB714672467346F44607
:102400008EF30088744700BF2948000000B51EF015
:10241000010F85B0CDE90012029308BF01210346E8
:1024200018BF0021074A40F2031007F065F805B015
:102430005DF804EB714672467346F4468EF30088ED
:10244000744700BFB948000000B51EF0010F85B009
:10245000CDE90012029308BF0121034618BF0021F5
:10246000074A40F2031007F047F805B05DF804EBA7
:10247000714672467346F4468EF30088744700BF77
:102480008549000000B51EF0010F85B0CDE90012AE
:10249000029308BF0121034618BF0021074A40F2FA
:1024A000031007F029F805B05DF804EB7146724699
:1024B0007346F4468EF30088744700BF754A0000E7
:1024C00000B51EF0010F85B0CDE90012029308BFE0
:1024D0000121034618BF0021074A40F2031007F00C
:1024E0000BF805B05DF804EB714672467346F4468E
:1024F0008EF30088744700BFA94E000000B51EF09F
:10250000010F85B0CDE90012029308BF01210346F7
:1025100018BF0021074A40F2031006F0EDFF05B096
:102520005DF804EB714672467346F4468EF30088FC
:10253000744700BF394E000000B51EF0010F85B092
:10254000CDE90012029308BF0121034618BF002104
:10255000074A4FF4827006F0CFFF05B05DF804EB38
:10256000714672467346F4468EF30088744700BF86
:10257000C56F000000B51EF0010F85B0CDE9001257
:10258000029308BF0121034618BF0021074A4FF4F8
:10259000827006F0B1FF05B05DF804EB714672463B
:1025A0007346F4468EF30088744700BFD16F000075
:1025B00000B51EF0010F85B0CDE90012029308BFEF
:1025C0000121034618BF0021074A4FF4827006F02C
:1025D00093FF05B05DF804EB714672467346F4460E
:1025E0008EF30088744700BF0170000000B51EF034
:1025F000010F85B0CDE90012029308BF0121034607
:1026000018BF0021074A4FF4827006F075FF05B02D
:102610005DF804EB714672467346F4468EF300880B
:10262000744700BF5970000000B51EF0010F85B05F
:10263000CDE90012029308BF0121034618BF002113
:10264000074A40F2051006F057FF05B05DF804EBAD
:10265000714672467346F4468EF30088744700BF95
:102660006152000000B51EF0010F85B0CDE90012E7
:10267000029308BF0121034618BF0021074A40F218
:10268000051006F039FF05B05DF804EB714672469F
:102690007346F4468EF30088744700BFBD520000B5
:1026A00000B51EF0010F85B0CDE90012029308BFFE
:1026B0000121034618BF0021074A4FF4837006F03A
:1026C0001BFF05B05DF804EB714672467346F44695
:1026D0008EF30088744700BF358100002DE9F05F5C
:1026E00002DF4FF00004254626462746A046A146B5
:1026F000A246A346F04703DFBDE8F09F2DE9F05F57
:1027000006DF4FF00004254626462746A046A14690
:10271000A246A346F04707DFBDE8F09FC3438B42C4
:102720006DD332F01F036AD1013902F01403014462
:1027300010B481EA0004142B0ED8DFE803F03F0D3B
:102740000D0D480D0D0D0D0D0D0D0D0D0D0D510D3A
:102750000D0D1000DC0200D4002010BC70471F2CAF
:1027600040E8C0F305D91C4641E8C0F10B469C4245
:10277000F2D122F01402013A0A2AEDD801A151F84F
:1027800022F000BFB7270000F9270000B1270000A2
:102790005927000059270000592700005927000039
:1027A000F3270000B727000055270000B1270000DD
:1027B0009B02D2D4D0E71A03CFD4CDE71F2C40E838
:1027C00000F3D6D91C4641E800F10B46CFE71F2C99
:1027D00040E840F3CDD91C4641E840F10B46C6E73E
:1027E0001F2C40E880F3C4D91C4641E880F10B4619
:1027F000BDE75B03B0D5B0E75902AED5ACE700202A
:10280000704700BF2DE9E04F2746A046A146A246EB
:10281000A346A446A2B02DEC000A84F30088254606
:102820002646A4473DEC000A22B0BDE8E08F000038
:1028300053B94AB9002908BF00281CBF4FF0FF3127
:102840004FF0FF3000F070B9ADF1080C6DE904CE27
:1028500000F006F8DDF804E0DDE9022304B070477B
:102860002DE9F047089E0D4604468A46002B7FD18D
:102870008A42174641D9B2FA82F24AB1C2F1200126
:1028800005FA02F39740944020FA01F141EA030A65
:102890004FEA17484FEA144C1FFA87F9BAFBF8FEC3
:1028A00008FB1EA30EFB09F14CEA0343994206D92B
:1028B000FB1802D2994200F224810EF1FF3E591A10
:1028C000A3B2B1FBF8F008FB101100FB09F943EAD1
:1028D0000144A14505D93C1902D2A14500F20E815F
:1028E0000138A4EB090440EA0E4000211EB1D44097
:1028F0000023C6E90043BDE8F08702B9FFDEB2FA63
:1029000082F2002A4FD1CB1B4FEA174E1FFA87F8ED
:102910000121250CB3FBFEFC0EFB1C302B4608FBF3
:102920000CF945EA0045A9450AD97D192CBF0123B8
:102930000023A94502D9002B00F0D9800CF1FF3CFF
:10294000A5EB0905A3B2B5FBFEF00EFB105508FB85
:1029500000F843EA0544A04505D93C1902D2A04538
:1029600000F2C9800138A4EB080440EA0C40BDE73E
:102970008B4208D9002E00F0B1800021C6E9000585
:102980000846BDE8F087B3FA83F1002946D1AB428F
:10299000C0F0A780824240F2A4800846002EAAD050
:1029A000C6E9004AA7E7C2F12000974001FA02F306
:1029B0004FEA174EC14024FA00F51FFA87F89440F9
:1029C0001D43B1FBFEF02B0C0EFB101100FB08FCAD
:1029D00043EA01439C4509D9FB182CBF0121002182
:1029E0009C4502D9002900F095800138A3EB0C0327
:1029F000ADB2B3FBFEF10EFB113301FB08FC45EA5F
:102A00000345AC4505D97D1902D2AC4500F2898059
:102A10000139A5EB0C0341EA00417AE7C1F120043A
:102A20008B4002FA01F705FA01FCE24020FA04F8B3
:102A3000E54000FA01FE134348EA0C024FEA13484E
:102A40004FEA124C1FFA83F9B5FBF8FA08FB1A5546
:102A50000AFB09F04CEA054C60450AD913EB0C0C53
:102A60002CBF01250025604501D9002D55D00AF164
:102A7000FF3AACEB000C92B2BCFBF8F008FB10CCB8
:102A800000FB09F942EA0C4CE14505D913EB0C0CAB
:102A900001D2E1453BD8013840EA0A40ACEB090CD1
:102AA000A0FB0789CC4545464A4602D306D1C64518
:102AB00004D20138B8EB070569EB03022EB3BEEB75
:102AC00005036CEB020C23FA01F20CFA04F42CFA65
:102AD00001F300211443C6E900430CE731463046B8
:102AE00009E7841A65EB030301209A4656E7ACF127
:102AF000020C3D4424E702383C4434E702383C44AD
:102B0000EFE6AEF1020E3B44D9E63146F3E6023879
:102B10009C44C1E702383B4468E7AAF1020A9C449E
:102B2000A7E702393D4474E7704700BF002A39D057
:102B3000F0B487070446CDB20AD001E09E0708D062
:102B40002346013A03F8015B1C46F7D1F0BC7047FD
:102B50000346032A27D90E0406F47F04A2F1040CCD
:102B600045EA0166090226432CF0030789B21C1DC1
:102B70000E434FEA9C0C274400E00434BC421E6024
:102B800021462346F9D1CCEB8C7C541F930704EBF0
:102B90008C04DBD062188A420D7001F10101FAD178
:102BA000F0BC704770471946541EF3E7AAB130B421
:102BB000531E0446002004E038B9013BA5EB020097
:102BC00009D325780A789542F6D1013B04F1010436
:102BD00001F10101F5D230BC70471046704700BFCB
:102BE000002A51D040EA0103DB0770B405460C46C9
:102BF00010D501E0F6070FD52346294613F8014BFF
:102C0000013A01F8014B0D461C4643EA0106F1D199
:102C100070BC70470B460146012A36D941EA0304CD
:102C2000A4070ED5D4185518A31A33F8026BA91AA5
:102C3000023A21F8026B012A43EA010616D9B607C7
:102C4000F2D4032A12D91D46161F26F003060433B8
:102C50001E444C1B29682B1D61519E4204EB05014B
:102C600001F104011D46F5D102F00302541E002AB1
:102C7000CED01A462344891A157893428D5402F116
:102C80000102F9D170BC704770470122EEE700BF26
:102C9000034659B10020013B02E00130814204D0DB
:102CA00013F8012F002AF8D1704770470846FBE758
:102CB00005DF70472DE9F0431546282295B00746F9
:102CC0000E460DEB020000211C46FFF72FFF4FF0D0
:102CD000040C4FF02C094FF014080DF1240E0123C1
:102CE00003210DEB0C0203A80597079608950194A4
:102CF000CDF824C0CDF808C0CDF81090CDF81880DC
:102D0000CDF80CE0FEF7F2FC15B0BDE8F08300BF93
:102D100070B58EB004462822002104A8FFF706FFF4
:102D2000002305202C2603901A46012103AD01A89B
:102D3000CDE901560594FEF7F7FC0EB070BD00BF5B
:102D4000F0B52C2691B005AF05460C463246384604
:102D50000021FFF7EBFE01234FF0140C194603AAE4
:102D600001A8CDE9017607950394CDF810C0FEF7D0
:102D700045FC11B0F0BD00BFF0B591B007460E465E
:102D800015460021282206A81C46FFF7CFFE012386
:102D90004FF0070E4FF02C0C1946079703AA05AF0A
:102DA00001A8CDE9017C03960495CDF814E0FEF767
:102DB000F7FC049B236011B0F0BD00BF70B590B06C
:102DC00004460D462822002106A8FFF7AFFE042680
:102DD00001230C222C20089525680394059202906B
:102DE000194605AC6A440DEB06000995049601945A
:102DF000FEF76CFD10B070BDF0B5044693B00E4602
:102E000015460021282208A8FFF790FE04270D2070
:102E10004FF02C0C216805960B910790012302219D
:102E200007AE0DEB070203A8CDE9027606950194E3
:102E3000CDF810C0FEF768FD13B0F0BDF0B5044644
:102E400093B00F4616460021282208A81D46FFF71A
:102E50006DFE4FF0040C0E204FF02C0E22680597EB
:102E60000B9207900223012107AF03AA0DEB0C0080
:102E700003940696CDF808E0CDF810C00197FEF750
:102E800061FD069B2B6013B0F0BD00BF2DE9F04142
:102E900094B080460E461446002124220AA81D46FE
:102EA0001A9FFFF743FE2323CDE90B861395099361
:102EB00047B32C221C9909AB05911D99102DCDE922
:102EC00006171B99CDE9033208911E9901911F99AC
:102ED00002911AD854B14DB1621E50190DF13B0345
:102EE00012F8011F824203F8011FF9D1012301AA40
:102EF000032103A8FEF79CFF029B209A136014B0E5
:102F0000BDE8F0811B9B002BD3D06FF08600F6E765
:102F10002DE9F0434FF0240980460E461D4695B03A
:102F20001C9F144600214A460AA8FFF7FFFDCDE981
:102F30000B861395CDF8249047B32C221E9909AB2C
:102F400005911F99102DCDE906171D99CDE9033282
:102F5000089120990191219902911AD854B14DB14B
:102F6000621E50190DF13B0312F8011F824203F853
:102F7000011FF9D1012301AA032103A8FEF776FF5F
:102F8000029B229A136015B0BDE8F0831D9B002BB5
:102F9000D3D06FF08600F6E72DE9F0471C46824655
:102FA0008946904631272C2692B02822002108A875
:102FB000FFF7BCFD06941A9C01AA01941B9C0123F7
:102FC000022107AD03A8CDE90356CDF824A0CDF822
:102FD0002890CDF8148002940797FFF7CDF8029B54
:102FE0001C9A136012B0BDE8F08700BF70B590B0B6
:102FF00004462822002106A8FFF798FD0425012396
:103000003D222C202668039405920290194605ACB7
:1030100003AA0DEB0500099604950194FFF714FA35
:1030200010B070BD30B591B005460C462822002185
:1030300006A8FFF77BFD3F212C2205ABCDE9035409
:10304000CDE90132059114B9204611B030BD0123FC
:1030500003AA194601A8FFF733FA11B030BD00BF2B
:1030600070B590B004460D462822002106A8FFF74F
:103070005DFD0426012335222C2008952568039444
:1030800005920290194605AC03AA0DEB06000995BE
:1030900004960194FFF7E8F810B070BDF0B507464C
:1030A00091B00E4615460021282206A81C46FFF7BF
:1030B0003DFD00234FF0380E4FF02C0C3968ADF871
:1030C000186009911A46022105AE01A8CDE9044E07
:1030D000CDE9016C0395FFF721F911B0F0BD00BFF8
:1030E000F0B50E4693B0054614460021282208A8E4
:1030F000FFF71CFD04273C212C204FF0140C3368F3
:1031000005950B93079104900123022107AD0DEB68
:10311000070203A8CDE902750194CDF818C0FFF7A6
:1031200075F913B0F0BD00BFF0B51F4608250023A8
:103130001646042489B0CDE900010EA806901A466F
:1031400003210DEB0500CDE9047603950794CDF836
:1031500008D0FEF745F9032808BF6FF0860009B0D4
:10316000F0BD00BFF0B5082704268BB0109D119C60
:10317000CDE9020105930DEB07010DEB060301926A
:10318000079709960495069108935CB101230221E3
:1031900004AA06A8FEF742F9032803D0059B236082
:1031A0000BB0F0BD6FF08600FAE700BF30B5012329
:1031B00008250C2487B0CDE900010492194604AA21
:1031C0000DEB050003950594CDF808D0FEF744F902
:1031D000032808BF6FF0860007B030BD10B500238C
:1031E000082484B0CDE900011A4601210DEB04004A
:1031F0000394CDF808D0FEF74DF904B010BD00BF20
:1032000030B50023042585B001901A4601210DEB4D
:10321000050402A8CDE90245FFF7E8F905B030BD85
:10322000F0B5012304250F46164687B001901946D4
:103230000DEB050404AA02A8CDE902450597049602
:10324000FFF7B6F907B0F0BD8142F8B5044603D3E5
:10325000FFF7C6FC2046F8BD13460244C8180D46C9
:1032600006461146002BF5D040EA020717F0010F81
:1032700002D10EE01A19E81810F8011C461E02F8D7
:10328000011C013B02F1FF3146EA0107E2D0F807D9
:10329000F0D4012B3FD9BA073AD51A46F01ACF1A03
:1032A000851835F8021CBB18023A23F8021C023DAF
:1032B000991E012A45EA01032FD99B07F0D4032A5E
:1032C00098BF2E4628D92846131F23F00303043D38
:1032D000ED1A0B1A50F8047C061F1918B54241F874
:1032E000047C3046A1F10401F4D102F00302501E27
:1032F000002AAFD03346013EC91A361A13F8010C22
:103300005A18013B9E4202F8010CF7D12046F8BD45
:1033100035461A46D3E7012235462E46501EE7E7CA
:103320000020034BC3E90000C3E90200704700BF5F
:10333000A8560020022928D13BBB4368042B24D186
:10334000036882681B68C06812BB184320D1134B06
:10335000996801B3012913D01A6830B402F110043E
:103360000F4DC4F309042D59DC6818352A44641B39
:103370000139C2F30902DC6099601A6030BC704701
:10338000C3E90000C3E9020070476FF08100704795
:103390006FF0850070476FF080007047A8560020DE
:1033A000A852002091B9022B10D15368042B0DD1E3
:1033B000D368042B0AD130B4064B94681268D3E961
:1033C000025308461560236030BC70476FF08100DF
:1033D000704700BFA856002001292AD1012B28D10F
:1033E0004368042B25D15368042B22D10168144B68
:1033F0000868996830B4814215681DD91B68B0B15E
:103400000021104C03F11002C2F30902A258183334
:10341000013113448842C3F30903F3D10020103370
:10342000C3F30903E35818332B6030BC7047054CD5
:10343000F4E76FF0810070476FF08000F5E700BFA0
:10344000A8560020A8520020012940F0B380002B8C
:1034500040F0B08043680246082B40F0AB802DE975
:10346000F04F83B001A8146806F06AF8002840F015
:10347000A480DDF80490B9F1000FC0F29E80D4F86A
:1034800000E01EF0030240F0A180BEF57A7F00F25A
:103490009780524FBD68002D4FD1DFF84CC10EF11F
:1034A0001806E04600204E4BD3E9001B11F1010A3B
:1034B000C3F800A0DFF82CA1CAF80010CAF80C90DD
:1034C0004BEB000104EB0E095960CAF804B0CAF8CE
:1034D00008000AF10F0109F10309631E13F8010F37
:1034E000994501F8010FF9D14FF00009012402209C
:1034F00003210EF11403A8EB0C080AF80390B8F5A9
:10350000806F53445C709870D9705CD2354908EB79
:10351000020311F8010B0132C3F30903B2420CF8A4
:103520000300F4D3D7E9022300200132C7E9015296
:103530003344FB6003B0BDE8F08FFB680EF1180662
:10354000C3F580618E42DFF8A0C0D7E9000A01D838
:1035500015E045B300F11008C8F309085CF80880CD
:10356000C3F5806108F11808414440448E4205F1DA
:10357000FF35C0F30900A3EB0803EAD84DB30AF105
:103580001001C1F309015CF801800AF118014144FE
:10359000C1F30901AB460D460CEB0108C7E9000A6F
:1035A000C7E902B37EE72B462846AA46AB46DFF8BA
:1035B0003880F3E76FF0810070476FF08400B9E75F
:1035C0006FF08C00B6E76FF08900B3E76FF085000D
:1035D000B0E7AB460CEB00080546DFE7A856002035
:1035E000A0520020B8560020A852002002295DD128
:1035F000012B5BD14368042B58D101688368F0B577
:10360000D2E9006C0F68C568002B52D1002D50D153
:103610002C4B99688F4251D21968C7B3AE460B46FE
:10362000294C03F11000C0F30900205818330EF1A3
:10363000010E03447745C3F30903F2D11033C3F3FA
:103640000903E35803F1180EF4452AD301F11003DE
:10365000C3F30903E358183101351944AF42C1F3EC
:103660000901F3D1BEF1000F0DD0731EC6F10106A2
:10367000314403EB0E05C818C0F30900205C03F8C1
:10368000010F9D42F7D10020C2F804E0F0BD0E4CBE
:1036900001F11003C3F30903E35803F1180EF445D5
:1036A000E0D200236FF089005360F0BD6FF081001D
:1036B000704700236FF085005360F0BD6FF080000D
:1036C0005560F0BDA8560020A852002008B505F0AE
:1036D00037FF002814BF6FF08400002008BD00BF32
:1036E00008B500F027F800B108BD0C4804F038FE1A
:1036F0000B4804F035FE0B4804F032FE0A4804F093
:103700002FFE0A4804F02CFE4FF40051084808F040
:1037100079F9BDE808400BF03DBE00BFB87000006D
:10372000CC700000F87000002071000040710000B3
:10373000B85A002008B54FF4925200210248FFF712
:10374000F5F9002008BD00BFB87A002000232DE95C
:10375000F04182B0804601A80F4616460193FFF75C
:10376000B5FF70B93B680BBB1EB3134A33601446F8
:10377000256804F512743DB10133082BF8D16FF0C0
:10378000840002B0BDE8F0814FF41274012504FBFF
:1037900003F4019915512B44151910342244C5E93D
:1037A00001183B60326002B0BDE8F0816FF0880024
:1037B000E7E76FF08600E4E7B87A0020F0B5002371
:1037C000054683B001A82E680193FFF77FFF0446EA
:1037D00038BB013E072E27D84FF4127303FB06F3C4
:1037E000134FF958FA1801291ED1506801998842DF
:1037F0001AD192681033013A032A07EB030096BFEF
:103800000C4B224653F822200021FFF78FF94FF48A
:103810001272002302FB06F6BA19C2E90133BB514A
:103820002B60204603B0F0BD6FF08604F9E700BFBF
:10383000B87A002048710000002370B582B00646B7
:1038400001A80C4615460193FFF740FFA8B9611E79
:10385000072914D84FF4127303FB01F10A4B5C588B
:103860005A18012C0BD19468B44208D15468019ABB
:10387000944204D110311944296002B070BD6FF038
:10388000880002B070BD00BFB87A00202DE9F04179
:103890000D46002182B0012D019122D1022B20D1B1
:1038A00043682C2B1DD153681446042B19D103688F
:1038B00017681E692846D2E9025831463E6001AABF
:1038C000FFF7BAFF10B102B0BDE8F08142462946C9
:1038D00001983E6004F10C030BF070FB02B0BDE8F0
:1038E000F0816FF08000EEE730B5002583B002294B
:1038F00001951CD1012B0446184618D163682C2B66
:1039000015D15368042B12D1216813680969D4E9D1
:10391000025401AA1960FFF78FFF08B103B030BD50
:103920002246294601980AF083FC03B030BD6FF0AF
:103930008000F3E72DE9F041002684B001290096CC
:1039400033D1012B054618462FD153681446042B5A
:103950002BD16B682C2B28D12B686A461D6901A9D5
:1039600026680195D3E90258FFF7F0FE044618B126
:10397000204604B0BDE8F081019B02AF28463946DD
:10398000336000F071FC044640B997E806004346F6
:1039900000980AF031FC04460028E9D03046FFF7D1
:1039A0000DFF204604B0BDE8F0816FF08004DFE732
:1039B0002DE9F041002684B00129009633D1012B76
:1039C000054618462FD153681446042B2BD16B683B
:1039D0002C2B28D12B686A461D6901A92668019500
:1039E000D3E90258FFF7B2FE044618B1204604B0EE
:1039F000BDE8F081019B02AF28463946336000F0F4
:103A000033FC044640B997E80600434600980AF0A4
:103A100001FC04460028E9D03046FFF7CFFE2046DF
:103A200004B0BDE8F0816FF08004DFE72DE9F043DA
:103A3000002585B00229039525D1022B23D14368A7
:103A40002C2B20D153681446042B1CD1D0E90267DB
:103A5000D4E902980268236811690120196003AA59
:103A6000E560FFF7E9FE10B105B0BDE8F0830C3466
:103A70004B463A463146CDE9008403980AF000FCF3
:103A800005B0BDE8F0836FF08000EDE72DE9F0436D
:103A9000002683B0012901962BD1022B29D143683E
:103AA0002C2B26D153681446042B22D1D2E902894B
:103AB0000D4603681768196928463960D66001AA5F
:103AC000FFF7BAFE054618B1284603B0BDE8F083FB
:103AD0004A464146019804F10C030AF0F3FB0546FF
:103AE0000028F1D13846FFF769FE284603B0BDE84B
:103AF000F0836FF08005E7E730B5002483B001293B
:103B0000019425D1012B0546184621D16B682C2B39
:103B10001ED15368042B1BD12B681568196901AAA3
:103B20002960FFF789FE10B1204603B030BD01982F
:103B30000AF0E2FB044628462CB9FFF73FFE044694
:103B4000204603B030BDFFF739FE204603B030BD3C
:103B50006FF08004E8E700BF022927D1012B25D1AF
:103B60002DE9F047436804462C2B86B021D1D4E9D7
:103B70000274D2E9008903680DF1100A5146986871
:103B80001546DE6800F070FB10B106B0BDE8F087A6
:103B900004359AE803003B463246CDE90295CDE96B
:103BA00000480BF041FA06B0BDE8F0876FF08000E6
:103BB00070476FF08000E8E7022927D1012B25D15B
:103BC0002DE9F047436804462C2B86B021D1D4E977
:103BD0000274D2E9008903680DF1100A5146986811
:103BE0001546DE6800F040FB10B106B0BDE8F08776
:103BF00004359AE803003B463246CDE90295CDE90B
:103C000000480AF081FB06B0BDE8F0876FF0800045
:103C100070476FF08000E8E770B5002482B001299A
:103C2000009426D1012B24D15368042B21D1436861
:103C30002C2B1ED101681568D1E903636A460193F4
:103C400003202B6001A9FFF781FD044610B1204637
:103C500002B070BD019B314600982B6009F0B0FDA9
:103C600004460028F3D02846FFF7A8FD204602B0FE
:103C700070BD6FF08004EAE730B5002483B00229FC
:103C800001941BD1012B19D143682C2B16D15368F9
:103C9000042B13D1D0E90245016813680969032098
:103CA000196001AAFFF7C8FD08B103B030BD2A466C
:103CB0002146019809F0A8FD03B030BD6FF08000E7
:103CC000F3E700BF2DE9F041002582B001290195FD
:103CD0002AD1022B28D143682C2B25D153681446B6
:103CE000042B21D1D2E902780368166819690320F0
:103CF000316001AAE560FFF79FFD054618B128462F
:103D000002B0BDE8F08142463946019804F10C0347
:103D100009F094FD05460028F1D13046FFF74EFD2D
:103D2000284602B0BDE8F0816FF08005E7E700BFEC
:103D3000F0B5002483B00229019424D1012B22D1B3
:103D400043682C2B1FD15368042B1CD1D0E9026788
:103D50000368156819690320296001AAFFF76CFD43
:103D6000044610B1204603B0F0BD3A4631460198F2
:103D700009F078FD04460028F4D12846FFF71EFD1F
:103D8000204603B0F0BD6FF08004EBE730B50024AF
:103D900083B00129019424D1012B22D143682C2B1B
:103DA0001FD15368042B1CD10368156819690320BF
:103DB00001AA2960FFF740FD10B1204603B030BDD5
:103DC000019809F0F7FC044628462CB9FFF7F6FCE9
:103DD0000446204603B030BDFFF7F0FC204603B098
:103DE00030BD6FF08004E8E730B5002583B00129CD
:103DF000CDE900551FD1012B1DD143682C2B1AD1C1
:103E000053681446042B16D103686A4603201969C7
:103E10002468FFF711FD08B103B030BD214603202F
:103E200001AAFFF793FC0028F6D1DDE9000109F0B3
:103E300087FD03B030BD6FF08000EDE7022918D197
:103E4000012B16D1F0B5436804462C2B83B013D157
:103E500016461546002703688168E268D868D5E9E8
:103E6000003446F8047FCDE9004609F029FD03B08F
:103E7000F0BD6FF0800070476FF08000F7E700BF83
:103E8000032914D19BB910B5436804462C2B82B08A
:103E90000AD103684269D86823690092D4E9021202
:103EA00009F01EFD02B010BD6FF08000FAE76FF060
:103EB000800070472DE9F041002484B0012900946E
:103EC00033D1012B31D15368042B2ED143682C2BD5
:103ED0002BD10368156819699E680191D3F80C808D
:103EE0006A462960022001A9FFF730FC044618B198
:103EF000204604B0BDE8F081019B02AF3046394650
:103F00002B6000F0B1F9044640B997E8060043463B
:103F1000009809F02FFD04460028E9D02846FFF755
:103F20004DFC204604B0BDE8F0816FF08004DFE76F
:103F30002DE9F041002484B00129009433D1012BF4
:103F400031D15368042B2ED143682C2B2BD103681D
:103F5000156819699E680191D3F80C806A4629603A
:103F6000022001A9FFF7F2FB044618B1204604B075
:103F7000BDE8F081019B02AF304639462B6000F06E
:103F800073F9044640B997E806004346009809F0E3
:103F9000FFFC04460028E9D02846FFF70FFC204626
:103FA00004B0BDE8F0816FF08004DFE730B504466F
:103FB0000846002183B0022801911AD1012B18D1A3
:103FC00063682C2B15D15368042B12D12168136818
:103FD0000969D4E9025401AA1960FFF72DFC08B160
:103FE00003B030BD22462946019809F0DFFC03B03A
:103FF00030BD6FF08000F3E72DE9F043002683B079
:10400000012901962BD1022B0546184627D16B6852
:104010002C2B24D153681446042B20D1D2E90289D9
:104020002B68176819693960D66001AAFFF704FC8C
:10403000054618B1284603B0BDE8F0834A4641461C
:10404000019804F10C0309F0BFFC05460028F1D1EA
:104050003846FFF7B3FB284603B0BDE8F0836FF0A6
:104060008005E7E7F0B504460846002183B0022842
:10407000019123D1012B21D163682C2B1ED15368D0
:10408000042B1BD1D4E9026723681568196901AABA
:104090002960FFF7D1FB044610B1204603B0F0BD04
:1040A0003A463146019809F0C1FD04460028F4D192
:1040B0002846FFF783FB204603B0F0BD6FF0800475
:1040C000EBE700BF30B5002483B00129019424D16F
:1040D000012B22D143682C2B1FD15368042B1CD1F8
:1040E000036815681969022001AA2960FFF7A4FB7B
:1040F00010B1204603B030BD019809F035FC0446EC
:1041000028462CB9FFF75AFB0446204603B030BDC1
:10411000FFF754FB204603B030BD6FF08004E8E7A2
:10412000022927D1012B25D12DE9F0474368044608
:104130002C2B86B021D1D4E90274D2E9008903681E
:104140000DF1100A514698681546DE6800F08CF8AB
:1041500010B106B0BDE8F08704359AE803003B468D
:104160003246CDE90295CDE9004809F081FD06B05F
:10417000BDE8F0876FF0800070476FF08000E8E7DF
:10418000032926D12BBB2DE9F043436804462C2B91
:1041900087B01BD1D4E90278D4E90494036804AD54
:1041A00029469868DE6800F05FF810B107B0BDE8F6
:1041B000F08395E803003B463246CDE90194CDF803
:1041C000008009F06BFD07B0BDE8F0836FF0800060
:1041D000ECE76FF08000704758B32DE9F0431646C6
:1041E0008BB04AB36C4635460746884628220021E4
:1041F0006846FEF79BFC0FCC0FC50FCC0FC594E8AB
:104200000300D7E90334B7F80090D7F804E085E855
:10421000030000207A88B968C6E90434A6F8009043
:10422000C6F804E07280B160C6F80C800BB0BDE83F
:10423000F0836FF0800070476FF08000F6E700BFFA
:1042400071B168B130B4D0E901530268D0E9040417
:104250004D60C1E9030430BC00200A608B607047E8
:104260006FF08000704700BF002230B583B0054674
:1042700001A80C460192FFF729FA18B924B1019B55
:10428000C4E9005303B030BD6FF08000FAE700BF0F
:1042900003293CD1012B3AD12DE9F04F4368074661
:1042A0002C2B8FB036D114460023D0F80080B9688B
:1042B000FE68D8F828200DF13009D4F804B00A912E
:1042C0000B96D8E90205D7E9046749466360D4F83C
:1042D00000A00992FFF7C8FF10B10FB0BDE8F08F42
:1042E000043499E803000A9B099ACDE906B40B9CB3
:1042F000CDE902730092CDF814A02A4604940196E9
:1043000008F118030AF07EF80FB0BDE8F08F6FF0E7
:10431000800070476FF08000DFE700BF03293CD1C9
:10432000012B3AD12DE9F04F436807462C2B8FB073
:1043300036D114460023D0F80080B968FE68D8F85A
:1043400028200DF13009D4F804B00A910B96D8E971
:104350000205D7E9046749466360D4F800A00992D2
:10436000FFF782FF10B10FB0BDE8F08F043499E879
:1043700003000A9B099ACDE906B40B9CCDE90273B0
:104380000092CDF814A02A460494019608F118036F
:104390000AF0BCF80FB0BDE8F08F6FF080007047F6
:1043A0006FF08000DFE700BF6FF08500704700BF4F
:1043B0006FF08500704700BF6FF08500704700BF49
:1043C0006FF08500704700BF6FF08500704700BF39
:1043D0006FF08500704700BF6FF08500704700BF29
:1043E0006FF08500704700BF6FF08500704700BF19
:1043F0006FF08500704700BF022927D1012B25D11E
:104400002DE9F047436804462C2B86B021D1D4E92E
:104410000274D2E9008903680DF1100A51469868C8
:104420001546DE68FFF720FF10B106B0BDE8F08743
:1044300004359AE803003B463246CDE90295CDE9C2
:10444000004809F0ABFC06B0BDE8F0876FF08000D3
:1044500070476FF08000E8E7032926D12BBB2DE9D8
:10446000F043436804462C2B87B01BD1D4E9027873
:10447000D4E90494036804AD29469868DE68FFF720
:10448000F3FE10B107B0BDE8F08395E803003B46AA
:104490003246CDE90194CDF8008009F0D9FC07B08F
:1044A000BDE8F0836FF08000ECE76FF080007047AC
:1044B000022927D1012B25D12DE9F0474368044675
:1044C0002C2B86B021D1D4E90274D2E9008903688B
:1044D0000DF1100A514698681546DE68FFF7C4FED4
:1044E00010B106B0BDE8F08704359AE803003B46FA
:1044F0003246CDE90295CDE9004809F0E7FC06B067
:10450000BDE8F0876FF0800070476FF08000E8E74B
:10451000032926D12BBB2DE9F043436804462C2BFD
:1045200087B01BD1D4E90278D4E90494036804ADC0
:1045300029469868DE68FFF797FE10B107B0BDE81E
:10454000F08395E803003B463246CDE90194CDF86F
:10455000008009F0FDFC07B0BDE8F0836FF080003B
:10456000ECE76FF080007047032956D1012B54D13E
:104570002DE9F04F436806462C2B97B050D1D6E971
:1045800002831446282207680793D7F808903369F6
:1045900000210DEB02050CA8D6F814A0FF680893C3
:1045A000D4E900B6FEF7C2FA48462946FFF75CFE9A
:1045B00010B117B0BDE8F08F0CAA95E8030008F021
:1045C000A3FE0028F5D1BDF832300CA89946BDF8FD
:1045D000303009930AF002FF44F20102099B23F4F0
:1045E0004053934211D095E80300089B0434019393
:1045F000079B3A460093CDE904644346CDE902ABFC
:1046000009F0BAFC17B0BDE8F08F4B460733B6EBA4
:10461000D30FE8D26FF08900CBE76FF080007047CE
:104620006FF08000C5E700BF03292ED1012B2CD1EC
:104630002DE9F04F436804462C2B8BB028D1D2E9EA
:1046400000AB03680DF1200898684146DE68154606
:10465000D4E90273D4E904940793FFF705FE10B17F
:104660000BB0BDE8F08F079B043598E80300324695
:104670000093CDE904B53B46CDE9024ACDF804905C
:1046800009F020FD0BB0BDE8F08F6FF0800070479F
:104690006FF08000E4E700BF70B5002682B001290A
:1046A000009629D1012B27D10546506814460428CD
:1046B00022D16B682C2B1FD12B686A461D6901A97A
:1046C00026680195DD68FFF741F8044630B90C4BC8
:1046D000019A9D42326004D1009B1D60204602B0C9
:1046E00070BD294600980AF07BFB04460028F5D0EF
:1046F0003046FFF763F8F1E76FF08004EEE700BFA4
:10470000000F00B0012920D1012B1ED170B54368E4
:1047100004462C2B82B015D150681546042811D1BF
:104720000026236801AA19692C680196FFF784F80E
:1047300010B1266002B070BD214601980AF0FAF867
:1047400002B070BD6FF08000F4E76FF0800070473A
:10475000012916D1ABB942682C2A12D110B50468D0
:1047600082B02169042001AA64690193FFF764F80B
:1047700008B102B010BD214601980AF0E5F802B078
:1047800010BD6FF0800070472DE9F041022982B022
:104790003ED1002B3CD1426804462C2A38D1D4E9C2
:1047A000028705686A4604202969AE880093FFF7EE
:1047B00043F8044658B9009D1A4B2A689A420AD019
:1047C0003B464246314628460AF02AFB044620462C
:1047D00002B0BDE8F08140F201239E421BD101A846
:1047E000FEF774FF04460028F1D13E1D314601203A
:1047F0002AF0F2FD286288B1042201A9FEF7F0F93F
:10480000286A3A4641460430FEF7EAF96E62DEE76E
:104810006FF08004DBE76FF08604D8E76FF08C045C
:10482000D5E700BF000F00B001291BD1012B19D122
:1048300043682C2B16D130B500231446016883B091
:104840000420D4E90054096901AA0193FEF7F4FF9A
:1048500008B103B030BD2246294601980AF082F81B
:1048600003B030BD6FF08000704700BF012920D138
:10487000FBB942682C2A1CD170B5046884B00420AE
:10488000216901AAA568A6880193FEF7D5FF08B1A2
:1048900004B070BD02AC28462146FFF7E5FC0028B5
:1048A000F6D194E80C00314601980AF0C3FA04B03E
:1048B00070BD6FF080007047022957D1012B55D190
:1048C000F0B5436804462C2B91B031D1C368142B4A
:1048D0002ED156681546042E2AD1002103682822BD
:1048E0001F6906A802912D68A468FEF71FF93946D2
:1048F000304602AAFEF7A0FF08B111B0F0BD03A830
:10490000FEF7E4FE0028F8D12046039906AAFFF737
:1049100063FC0028F1D10299194B0A689A420AD027
:1049200006A804AA0AF0AAF9049B2B6011B0F0BDF6
:104930006FF08000E1E7BDF81A300733B3F5027F6E
:104940004FEAD30618D2D1E90807002301F1680421
:104950001A463946CDE9004605F002FC48B9324610
:10496000214606A804AB08F041FEDDE76FF08000A9
:1049700070476FF09200D7E76FF08C00D4E700BF6C
:10498000000F00B070B5012982B03BD1012B39D1A5
:10499000436805462C2B35D15068042832D10024B9
:1049A0002B6816681D6901942946356001AAFEF737
:1049B00043FF68B9019C35602268144B9A420AD0C3
:1049C000204609F027FE0446A8B13046FEF7F6FE61
:1049D000204602B070BD236A3BB10146626A1846A8
:1049E000FEF7A4F8206A2AF0FDFC20464FF40E7270
:1049F0000021FEF79BF83046FEF7E0FE0446204615
:104A000002B070BD6FF08004E2E700BF000F00B09D
:104A100002292BD153BB2DE9F041426804462C2AD0
:104A200086B020D1D4E90278056803AA2969042058
:104A3000AE680393AD88FEF7FFFE10B106B0BDE887
:104A4000F08104AC30462146FFF70EFC0028F5D17A
:104A500094E80C002946CDE9007803980AF01CFA86
:104A600006B0BDE8F0816FF08000E7E76FF08000EE
:104A7000704700BF022927D1012B25D12DE9F0472E
:104A8000436804462C2B86B021D1D2E90089D4E9B1
:104A9000027403680DF1100A514698681546DE68E5
:104AA000FFF7E2FB10B106B0BDE8F08704359AE8E5
:104AB00006003B463046CDE90295CDE900480AF0B4
:104AC00039FB06B0BDE8F0876FF0800070476FF0EB
:104AD0008000E8E7032933D1012B31D1F0B54368D9
:104AE00004462C2B8FB028D1C368142B25D15368D2
:104AF0001546042B21D12822002104A82E68A56880
:104B0000D4E90474FEF712F8002301A80193FEF71C
:104B1000DDFD08B10FB0F0BD2846019904AAFFF7EA
:104B20005BFB0028F6D102AB2246394604A808F008
:104B30005DFD029B33600FB0F0BD6FF08000E9E7D0
:104B40006FF08000704700BF022925D1012B23D1CF
:104B500043682C2B20D1C368042B1DD15368042B30
:104B60001AD1002330B5816885B001A80C6815689A
:104B70000193FEF7ABFD08B105B030BD019B02AA61
:104B8000CDE9024392E803000BF02EF90028F3D19F
:104B9000029B2B6005B030BD6FF08000704700BFF6
:104BA000012918D1BBB942682C2A14D110B502686A
:104BB00084B001A894680193FEF788FD08B104B0A1
:104BC00010BD019BCDE9024304AB13E903000BF0D8
:104BD00033F904B010BD6FF080007047012918D17F
:104BE000BBB942682C2A14D110B5026884B001A860
:104BF00094680193FEF76AFD08B104B010BD019BF3
:104C0000CDE9024304AB13E9030008F04BFB04B009
:104C100010BD6FF08000704701292AD1012B28D1E7
:104C200043682C2B25D130B553681446142B8FB014
:104C300022D103682822002104A89D682468FDF77A
:104C400075FF002301A80193FEF740FD08B10FB0E6
:104C500030BD019B2846194604AACDE9025308F04D
:104C600053FB0028F3D1214604A8FFF7E9FA0FB05F
:104C700030BD6FF0800070476FF08000E7E700BF45
:104C8000012926D1012B24D143682C2B21D110B529
:104C900053681446142B8CB01ED12822002102A880
:104CA0002468FDF743FF01A8FEF710FD08B10CB022
:104CB00010BD2046019902AAFFF78EFA0028F6D10E
:104CC00002A80AF08BFB214602A8FFF7B9FA0CB044
:104CD00010BD6FF0800070476FF08000E7E700BF05
:104CE000012921D1012B1FD143682C2B1CD1F0B5F8
:104CF0000023144687B0026803A897680393D4E999
:104D00000056FEF7E3FC08B107B0F0BD039B043486
:104D100005930497009406AA12E9030033462A4635
:104D200008F0ACFB07B0F0BD6FF08000704700BF2B
:104D3000012921D1012B1FD143682C2B1CD1F0B5A7
:104D40000023144687B0026803A897680393D4E948
:104D50000056FEF7BBFC08B107B0F0BD039B04345E
:104D600005930497009406AA12E9030033462A46E5
:104D700008F0F8FB07B0F0BD6FF08000704700BF8F
:104D8000012918D1BBB942682C2A14D110B5026888
:104D900084B001A894680193FEF798FC08B104B0B0
:104DA00010BD019BCDE9024304AB13E903000BF0F6
:104DB00067F804B010BD6FF080007047022938D149
:104DC000012B36D170B5436804462C2B90B02DD101
:104DD00053681546042B29D1C368142B26D10368C8
:104DE0002822002106A89E682D68A468FDF79EFE73
:104DF000002301A80193FEF769FC08B110B070BD53
:104E00002046019906AAFFF7E7F90028F6D1019B91
:104E100030461946CDE9046306AA02AB08F044FC0B
:104E20000028EBD1029B2B6010B070BD6FF08000AA
:104E3000E4E76FF080007047022931D1012B2FD1B8
:104E400030B5436804462C2B8FB026D1C368142B91
:104E500023D153681546042B1FD12822002104A812
:104E60002D68A468FDF762FE002301A80193FEF7F8
:104E70002DFC08B10FB030BD2046019904AAFFF700
:104E8000ABF90028F6D104A802A90AF0E7F9002836
:104E9000F0D1029B2B600FB030BD6FF08000E9E7CE
:104EA0006FF08000704700BF012908D1012B06D1A7
:104EB00043682C2B03D1D2E900010AF063B86FF0EC
:104EC0008000704700F0B8B92DE9F0471E4C9846B5
:104ED00066881B6807468A46914682B0264483B39B
:104EE000042219460DEB0200FDF77AFEBDF806100C
:104EF000D8F8004004310C440FE0042221460DEBA9
:104F00000200FDF76DFEBDF80430C3F38512BA420E
:104F100009D0BDF8065004352C44A642EDD8002037
:104F200002B0BDE8F0870120BDF8062003F03F0382
:104F30008AF80030C8F80040A9F8002002B0BDE8A7
:104F4000F0870434E9E700BFF88C002000232DE946
:104F5000F04114460546884642F216070D4E82B0CF
:104F600013603388BB420FD12346424600200DF127
:104F70000701FFF7A9FF012803D19DF80730AB42D5
:104F8000EFD102B0BDE8F0814FF0FF3002B0BDE8D4
:104F9000F08100BFF88C00202DE9F04FCBB0074620
:104FA0000E46154600F0B8F9044628B100F0F8F9AD
:104FB00020464BB0BDE8F08F00966FF00603224606
:104FC000214610A800F03EFA064620B1012800F064
:104FD000BF800524EAE73A468B4910A800F0B6FAEC
:104FE000304605AA04A9CDE905660796FFF7AEFF8E
:104FF000012840F0AF80059BBDF810200433CDE9B7
:10500000063208AF814906AA10A800F09FFA384678
:1050100000F0DEF904460028C8D17D4910A83A46C0
:1050200000F094FA2023394605A8059305F094F979
:10503000002840F09980059B764906AA10A8CDE982
:10504000067300F083FA384600F0F2FC04460028AC
:10505000ACD13A687049D31710A800F067FA3A4605
:10506000022004A93C60FFF771FF012800F0858051
:1050700005F016F902460023684910A800F056FA18
:1050800010A800F051FA4FF0000B804642F2160AC9
:10509000DFF8A091B9F80030CDF818B0534563D1CE
:1050A00006AB304605AA04A9FFF70EFF431C5BD0F0
:1050B000012872D00136F6B2072EEBD1002C00F099
:1050C00087804046002204211AF02AFB202439461A
:1050D00005A8059405F0FEF800287FF47AAF059B3B
:1050E0004F4906AA10A8CDE9067300F045FA3946E3
:1050F00005A8059405F00CF9044600287FF469AF73
:10510000059B484906AA10A8CDE9067300F034FAB9
:10511000122301200DF10E0105AACDE906440594E4
:105120000493FFF713FF012859D1059BBDF80E200A
:105130000433CDE906323C4910A806AA00F01CFA57
:10514000294610A800F0C0F980B101287FF441AFD2
:1051500002242BE708AF3946202005F0F7F818B9EC
:105160002023CDE906734DE703241FE700F018F96B
:10517000044620464BB0BDE8F08FBDF810203B68D8
:10518000022A03F104011CD0042A16D0012A7FF45C
:1051900020AF1B790693069A6DE70134012C28D0C5
:1051A000069BBDF814200433C7E90032092197E8B3
:1051B0000C0040461AF044FA7CE706A8FDF710FD03
:1051C000E9E705A8FDF70CFDBDF814300693E2E70A
:1051D00001220023154910A800F0A8F976E7394606
:1051E00004A805F0CFF80028BED1049BCDE90673D2
:1051F000A1E740464FF0FF330D4A1AF01BFA042195
:1052000040461AF061FACBE700DBFEFF04DBFEFF4D
:10521000FFDAFEFF05DBFEFF07DBFEFF06DBFEFF1E
:10522000FEDAFEFF08DBFEFF03DBFEFF01DBFEFF15
:1052300002DBFEFFF88C002008B54FF4007206492F
:10524000012000F0FDFB052896BF044B6FF08300A2
:1052500053F8200008BD00BFF88C002058710000F2
:1052600030B5D0E9005387B0402B1446D2E9001284
:10527000CDE90053CDE9021207D023F01003202B13
:1052800003D06FF0860007B030BD002AF9D0684621
:1052900004AA02A9FFF780FE28B9DDE90423C4E9C6
:1052A000002307B030BD052888BF6FF08300EAD81F
:1052B000014B53F82000E6E75871000030B500219B
:1052C0006FF00044036850681B6887B00328CDE97D
:1052D0000013CDE90214156805D9402B07D023F03F
:1052E0001003202B03D06FF0860007B030BD684656
:1052F00004AA02A9FFF750FE18B9059B2B6007B05E
:1053000030BD052888BF6FF08300EED8014B53F8FD
:105310002000EAE758710000002370B51C4DA6B0CC
:105320002A68CDE90233CDE90933CDE90B33CDE964
:105330000433CDE9063308930D932ABB602108AAF4
:105340000DF107030EA804F027FF0446E0B9089901
:10535000D1B14FF480529DF807300E4E43F4E24332
:10536000ADF80C30069203A8099A02AB0796FDF738
:10537000A1FC48B9084B02981A6828602AB9412252
:105380000649FDF7F9FC00B10524204626B070BDA2
:10539000FC8E002009060006448F0020008F0020AC
:1053A00010B5054C206820B1FDF7B2FC08B92060AB
:1053B00010BD052010BD00BFFC8E0020034B1B68F4
:1053C00013B103600020704705207047FC8E002059
:1053D00070B5174D04462B6882B03BB134B3002042
:1053E0002A68144BC4E9003202B070BD124E01931A
:1053F0003368C3B1114901A8FDF7E0FC98B93268E0
:105400000F4901A8FDF7F8FC68B90A4E2B46202287
:1054100001A8711CFDF712FD28B901222B6832701A
:1054200013442B60DAE7032002B070BD0520DBE7F0
:105430006C8F0020488F0020448F0020090000025C
:10544000008F0020F0B50D4604461E4600F1A0076F
:1054500083B0C0F89810C0F89C200021384648223C
:10546000ED0FFDF763FBC4F8D850C4F8C06001A885
:10547000FFF7A4FF10BB0225089B93E80600019BE1
:10548000C4E93700C4F8D40084F8C8502046C4F8F2
:10549000D0301AF0B7F82146384600F083F80546B8
:1054A00028B103280ED0192814BF03250125204652
:1054B00005211AF009F9284603B0F0BD0E2528464B
:1054C00003B0F0BD0425F2E770B5044682B00D4686
:1054D000002205211AF024F9214604F1A00000F071
:1054E000E7F840B1032816D0192814BF032301237D
:1054F000184602B070BD6E46204631461AF016F9C5
:1055000001280346F4D050B996E8030085E803006B
:10551000184602B070BD0423184602B070BD0223C5
:10552000184602B070BD00BF704700BF70B5164688
:105530001D4604460A46CB171AF07CF832462B4625
:105540002046BDE870401AF075B800BF70B5D2E9CA
:105550000065044682B00A46CB171AF06BF8204665
:105560000221CDE9006502AB13E90C0002B0BDE8F1
:1055700070401AF065B800BF70B5D2E90065044606
:1055800082B00A46CB171AF055F820460321CDE920
:10559000006502AB13E90C0002B0BDE870401AF0E0
:1055A0004FB800BF2DE9F0410446AAB0006A0E468C
:1055B00000F000F900286FD0A36B9A0766D504218C
:1055C00030461AF081F8182304AD1A4621462846C1
:1055D000276ACDE900431AF015F8052128461AF08C
:1055E00073F82846012200231AF024F8FB173A46E4
:1055F00028461AF01FF82846002205211AF090F8D4
:10560000284602A91AF092F80746B8BBDDE9023233
:10561000C4E90632002B49D01146184685E803003C
:10562000022195E80C0030461AF00AF8A36BDB075C
:1056300037D4D4F8408005213046E46B1AF044F8A2
:10564000B8F1000F0DD064B104220023304619F0E8
:10565000F1FFCDE90448022195E80C00304619F02D
:10566000EFFF0022304605211AF05AF83046022199
:105670001AF02AF838462AB0BDE8F0810023022744
:10568000C4E9063338462AB0BDE8F081122200236F
:1056900030461AF00BF892E7012738462AB0BDE8E9
:1056A000F0811C2738462AB0BDE8F0810227E9E7DF
:1056B0002DE9F0430C4640212023ADB00DEB01064F
:1056C0000D911CA90F930C9114AB05463246204650
:1056D00002210E931AF024F8A37B33B1012319267B
:1056E000237430462DB0BDE8F083237C012B5FD0BE
:1056F000002B3ED1276867B3DDE90E010DF12009CB
:1057000002AFCDF8109087E8030096E80300EA693D
:105710008DE80300A969286A00F052F806460028BF
:10572000DFD1AB6BDB0729D50DF1280812AB98E868
:10573000030083E8030020460CCB022119F080FF10
:1057400020460022042119F0EBFF30462DB0BDE8C1
:10575000F083D5E90C018DE803000BAB0293286AB6
:10576000D5E90A230A9700F0E9F80DF12808064662
:10577000DCE7182630462DB0BDE8F08304AB0DF110
:105780002808CDF81880DDE90C0183E8030099E8CA
:10579000030087E80300D5E90C01EB6A8DE80300FC
:1057A000AA6A286A00F090F80028BFD0064698E759
:1057B000192696E7C31D0CBF6FF00F00002070473D
:1057C0002DE9F041BCB030246F4680460AA8029013
:1057D00087E806000394224602993A4C16A81E4612
:1057E00019F010FF042116A819F06EFF2046FAF7F1
:1057F00067FE0025CDE9084008AC032194E80C00C1
:1058000016A819F01DFF97E8030084E803000221A1
:1058100094E80C0016A819F013FFCDE908550221F1
:1058200094E80C0016A819F00BFF002E39D1CDE931
:105830000866022194E80C0016A819F001FF012562
:10584000042116A8002219F06BFF16A804A919F06C
:105850006DFF002831D118F1070F0CBF6FF00F0159
:10586000002106A800F092F8C0B9059B5D1B2ABF75
:10587000049BCDE90800CDE9083506A894E80600A8
:1058800000F0A2F842AB93E8060006A800F09CF8EE
:10589000DDE94412469B06A800F0A8F83CB0BDE83C
:1058A000F08142AB93E8030084E803000B2194E805
:1058B0000C0016A819F0C4FEC2E715203CB0BDE8E4
:1058C000F08100BF7071000082B010B586B008A9E9
:1058D000073081E80C0005D0012006B0BDE810407B
:1058E00002B0704705ABDDE90E420293CDE90042FC
:1058F000DDE90C2310490A98FDF74EFB70B110F159
:10590000950F14D010F1860FE6D010F18D0F10D046
:1059100010F1970F0CBF12201720DEE7059B109A9D
:10592000C2E9004306B0BDE8104002B070470D2048
:10593000D3E71020D1E700BF0906000682B010B5FA
:1059400086B008A9073081E80C0005D0012006B018
:10595000BDE8104002B0704700240A9801A9CDE9C3
:105960000144CDE903440594FDF7EAF940B9BDF8D7
:105970000620D308520718BF01330C9A5B0013604E
:10598000002006B0BDE8104002B0704738B54FF6B1
:10599000FF7300250B4A056011F1100F0CBF114673
:1059A00019460446FDF70AFA606038B110F1860F17
:1059B00005D010F18A0F0CBF0520042038BD03204C
:1059C00038BD00BF0900000210B5436882B00DF178
:1059D000080C0CE9060033B9009921B1019A04467C
:1059E000FDF70AFA606002B010BD00BFF0B5446870
:1059F00083B01E4602AB03E9060044B114F1860FE2
:105A000013D08A340CBF0520042003B0F0BD009FE2
:105A1000019A3946331D0546FDF710FA68600446C1
:105A200037600028EAD103B0F0BD032003B0F0BD19
:105A300008B503F085FD002814BF0320002008BD31
:105A400008B5FDF735F9003818BF012008BD00BFC3
:105A5000174A12782AB3032926D12BBBF0B5436825
:105A60000446082B85B018D14369042B15D1006872
:105A7000A26823690F49D0E9006703A81D68E4689C
:105A80000A6003F05DFD40B932463B46CDE9004572
:105A9000039800F041F905B0F0BD6FF0800005B04B
:105AA000F0BD6FF0830070476FF08000704700BF5B
:105AB000708F0020748F00202DE9F041174C86B0C4
:105AC000247844B3022921D1012B1FD14368082B2C
:105AD0001CD1C368042B19D1144615680368826869
:105AE0000F4905A80D6054F8048F1568D3E90067C5
