:020000021000EC
:1000000020840120613F0100E7F90100913F0100D8
:10001000913F0100913F0100913F0100913F01009C
:10002000000000000000000000000000593D010039
:10003000913F010000000000C13C0100DDF801001B
:10004000213F0100213F0100213F0100213F01002C
:10005000213F0100213F0100213F0100213F01001C
:10006000213F0100213F0100213F0100213F01000C
:10007000213F0100213F0100213F0100213F0100FC
:10008000213F0100213F0100213F0100213F0100EC
:10009000213F0100213F0100213F0100213F0100DC
:1000A000213F0100213F0100213F0100213F0100CC
:1000B0002D53010011020200213F0100213F0100E8
:1000C000213F0100213F0100213F0100213F0100AC
:1000D000213F0100213F0100213F0100213F01009C
:1000E000213F0100213F0100213F0100213F01008C
:1000F000213F0100213F0100213F0100213F01007C
:10010000213F0100213F0100213F0100213F01006B
:10011000213F0100213F0100213F0100213F01005B
:10012000213F0100213F0100213F0100213F01004B
:10013000213F0100213F0100213F0100213F01003B
:10014000213F01000000000000000000000000004E
:10015000000000000000000000000000000000009F
:10016000000000000000000000000000000000008F
:10017000000000000000000000000000000000007F
:10018000000000000000000000000000000000006F
:10019000000000000000000000000000000000005F
:1001A000000000000000000000000000000000004F
:1001B000000000000000000000000000000000003F
:1001C000000000000000000000000000000000002F
:1001D000000000000000000000000000000000001F
:1001E000000000000000000000000000000000000F
:1001F00000000000000000000000000000000000FF
:10020000DEE61E284CBBCE8F025B00003C000000E7
:10021000A0520100010000000000010000000100E8
:10022000FFFF02910000000000000000000000003D
:0C023000000000000000000000000000C2
:04023C00FFFFFFFFC2
:1002400081F0004102E000BF83F0004330B54FEA87
:1002500041044FEA430594EA050F08BF90EA020FF4
:100260001FBF54EA000C55EA020C7FEA645C7FEA87
:10027000655C00F0E2804FEA5454D4EB5555B8BFAA
:100280006D420CDD2C4480EA020281EA030382EA1B
:10029000000083EA010180EA020281EA0303362DAD
:1002A00088BF30BD11F0004F4FEA01314FF4801C80
:1002B0004CEA113102D0404261EB410113F0004F92
:1002C0004FEA03334CEA133302D0524263EB430349
:1002D00094EA050F00F0A780A4F10104D5F1200EE7
:1002E0000DDB02FA0EFC22FA05F2801841F1000142
:1002F00003FA0EF2801843FA05F359410EE0A5F116
:1003000020050EF1200E012A03FA0EFC28BF4CF046
:10031000020C43FA05F3C01851EBE37101F00045FC
:1003200007D54FF0000EDCF1000C7EEB00006EEB09
:100330000101B1F5801F1BD3B1F5001F0CD3490893
:100340005FEA30004FEA3C0C04F101044FEA4452EA
:1003500012F5800F80F09A80BCF1004F08BF5FEA71
:10036000500C50F1000041EB045141EA050130BD51
:100370005FEA4C0C404141EB0101013C28BFB1F563
:10038000801FE9D291F0000F04BF01460020B1FAAE
:1003900081F308BF2033A3F10B03B3F120020CDA81
:1003A0000C3208DD02F1140CC2F10C0201FA0CF05F
:1003B00021FA02F10CE002F11402D8BFC2F1200CC4
:1003C00001FA02F120FA0CFCDCBF41EA0C0190407A
:1003D000E41AA2BF01EB0451294330BD6FEA0404C3
:1003E0001F3C1CDA0C340EDC04F11404C4F12002AE
:1003F00020FA04F001FA02F340EA030021FA04F3C0
:1004000045EA030130BDC4F10C04C4F1200220FA16
:1004100002F001FA04F340EA0300294630BD21FA54
:1004200004F0294630BD94F0000F83F4801306BF1A
:1004300081F480110134013D4EE77FEA645C18BF0E
:100440007FEA655C29D094EA050F08BF90EA020FA5
:1004500005D054EA000C04BF1946104630BD91EA9D
:10046000030F1EBF0021002030BD5FEA545C05D1A0
:100470004000494128BF41F0004130BD14F58004DF
:100480003CBF01F5801130BD01F0004545F0FE4153
:1004900041F470014FF0000030BD7FEA645C1ABF88
:1004A000194610467FEA655C1CBF0B46024650EABF
:1004B000013406BF52EA033591EA030F41F40021EB
:1004C00030BD00BF90F0000F04BF0021704730B571
:1004D0004FF4806404F132044FF000054FF0000146
:1004E00050E700BF90F0000F04BF0021704730B507
:1004F0004FF4806404F1320410F0004548BF4042DC
:100500004FF000013EE700BF42004FEAE2014FEA30
:1005100031014FEA02701FBF12F07F4393F07F4F0B
:1005200081F06051704732F07F4208BF704793F00E
:100530007F4F04BF41F40021704730B54FF4607421
:1005400001F0004521F000411CE700BF50EA010224
:1005500008BF704730B54FF000050AE050EA0102CD
:1005600008BF704730B511F0004502D5404261EB3D
:1005700041014FF4806404F132045FEA915C3FF47E
:10058000D8AE4FF003025FEADC0C18BF03325FEA1B
:10059000DC0C18BF033202EBDC02C2F1200300FACC
:1005A00003FC20FA02F001FA03FE40EA0E0021FAF1
:1005B00002F11444BDE600BF70B54FF0FF0C4CF4DF
:1005C000E06C1CEA11541DBF1CEA135594EA0C0F91
:1005D00095EA0C0F00F0DEF82C4481EA030621EACC
:1005E0004C5123EA4C5350EA013518BF52EA033507
:1005F00041F4801143F4801338D0A0FB02CE4FF0B9
:100600000005E1FB02E506F00042E0FB03E54FF0E8
:100610000006E1FB03569CF0000F18BF4EF0010EE0
:10062000A4F1FF04B6F5007F64F5407404D25FEADC
:100630004E0E6D4146EB060642EAC62141EA55518F
:100640004FEAC52040EA5E504FEACE2EB4F1FD0CD1
:1006500088BFBCF5E06F1ED8BEF1004F08BF5FEA4F
:10066000500E50F1000041EB045170BD06F0004601
:1006700046EA010140EA020081EA0301B4EB5C04AE
:10068000C2BFD4EB0C0541EA045170BD41F48011A6
:100690004FF0000E013C00F3AB8014F1360FDEBFCB
:1006A000002001F0004170BDC4F10004203C35DAA7
:1006B0000C341BDC04F11404C4F1200500FA05F32A
:1006C00020FA04F001FA05F240EA020001F00042CB
:1006D00021F0004110EBD37021FA04F642EB060141
:1006E0005EEA430E08BF20EAD37070BDC4F10C046B
:1006F000C4F1200500FA04F320FA05F001FA04F22F
:1007000040EA020001F0004110EBD37041F100011A
:100710005EEA430E08BF20EAD37070BDC4F1200525
:1007200000FA05F24EEA020E20FA04F301FA05F28D
:1007300043EA020321FA04F001F0004121FA04F235
:1007400020EA020000EBD3705EEA430E08BF20EA05
:10075000D37070BD94F0000F0FD101F0004640003F
:1007600041EB010111F4801F08BF013CF7D041EAC1
:10077000060195F0000F18BF704703F000465200C5
:1007800043EB030313F4801F08BF013DF7D043EA96
:100790000603704794EA0C0F0CEA135518BF95EA4C
:1007A0000C0F0CD050EA410618BF52EA4306D1D1D3
:1007B00081EA030101F000414FF0000070BD50EAF2
:1007C000410606BF1046194652EA430619D094EA7C
:1007D0000C0F02D150EA013613D195EA0C0F05D166
:1007E00052EA03361CBF104619460AD181EA0301BA
:1007F00001F0004141F0FE4141F470014FF0000072
:1008000070BD41F0FE4141F4780170BD70B54FF00C
:10081000FF0C4CF4E06C1CEA11541DBF1CEA13558C
:1008200094EA0C0F95EA0C0F00F0A7F8A4EB05046E
:1008300081EA030E52EA03354FEA013100F0888065
:100840004FEA03334FF0805545EA131343EA12632E
:100850004FEA022245EA111545EA10654FEA0026E3
:100860000EF000419D4208BF964244F1FD0404F59C
:10087000407402D25B084FEA3202B61A65EB0305F8
:100880005B084FEA32024FF480104FF4002CB6EBB5
:10089000020E75EB030E22BFB61A754640EA0C0035
:1008A0005B084FEA3202B6EB020E75EB030E22BF75
:1008B000B61A754640EA5C005B084FEA3202B6EBB6
:1008C000020E75EB030E22BFB61A754640EA9C0075
:1008D0005B084FEA3202B6EB020E75EB030E22BF45
:1008E000B61A754640EADC0055EA060E18D04FEA03
:1008F000051545EA16754FEA06164FEAC30343EAA3
:1009000052734FEAC2025FEA1C1CC0D111F4801F6F
:100910000BD141EA00014FF000004FF0004CB6E768
:1009200011F4801F04BF01430020B4F1FD0C88BF07
:10093000BCF5E06F3FF6AFAEB5EB030C04BFB6EB12
:10094000020C5FEA500C50F1000041EB045170BD05
:100950000EF0004E4EEA113114EB5C04C2BFD4EB32
:100960000C0541EA045170BD41F480114FF0000EB6
:10097000013C90E645EA060E8DE60CEA135594EA32
:100980000C0F08BF95EA0C0F3FF43BAF94EA0C0F35
:100990000AD150EA01347FF434AF95EA0C0F7FF4AA
:1009A00025AF104619462CE795EA0C0F06D152EAFE
:1009B00003353FF4FDAE1046194622E750EA4106E2
:1009C00018BF52EA43067FF4C5AE50EA41047FF4F3
:1009D0000DAF52EA43057FF4EBAE12E74FF0FF3C58
:1009E00006E000BF4FF0010C02E000BF4FF0010C29
:1009F0004DF804CD4FEA410C7FEA6C5C4FEA430CA2
:100A000018BF7FEA6C5C1BD001B050EA410C0CBFF0
:100A100052EA430C91EA030F02BF90EA020F002052
:100A2000704710F1000F91EA030F58BF994208BFB9
:100A300090422CBFD8176FEAE37040F00100704776
:100A40004FEA410C7FEA6C5C02D150EA013C07D1CD
:100A50004FEA430C7FEA6C5CD6D152EA033CD3D018
:100A60005DF8040B704700BF8446104662468C4612
:100A70001946634600E000BF01B5FFF7B7FF002845
:100A800048BF10F1000F01BD4DF808EDFFF7F4FF6E
:100A90000CBF012000205DF808FB00BF4DF808EDF9
:100AA000FFF7EAFF34BF012000205DF808FB00BF1C
:100AB0004DF808EDFFF7E0FF94BF012000205DF83E
:100AC00008FB00BF4DF808EDFFF7CEFF94BF0120F3
:100AD00000205DF808FB00BF4DF808EDFFF7C4FFEC
:100AE00034BF012000205DF808FB00BF4FEA410C35
:100AF0007FEA6C5C02D150EA013C0AD14FEA430C18
:100B00007FEA6C5C02D152EA033C02D14FF0000054
:100B100070474FF0010070474FEA410212F5001292
:100B200015D211D56FF47873B3EB625212D94FEA34
:100B3000C12343F0004343EA505311F0004F23FA1E
:100B400002F018BF404270474FF00000704750EA73
:100B5000013005D111F0004008BF6FF00040704730
:100B60004FF00000704700BF53B94AB9002908BFD1
:100B700000281CBF4FF0FF314FF0FF3000F06CB980
:100B8000ADF1080C6DE904CE00F006F8DDF804E0E4
:100B9000DDE9022304B070472DE9F047089D0446C3
:100BA0008846002B7DD18A4217463FD9B2FA82F29D
:100BB00042B1C2F120009140974024FA00F09440E5
:100BC00040EA01084FEA174C230C1FFA87FEB8FBD6
:100BD000FCF60CFB168106FB0EF043EA014398423B
:100BE00005D9FB1802D2984200F22481013E191A5D
:100BF000A3B2B1FBFCF00CFB101100FB0EFE43EAAC
:100C00000144A64505D93C1902D2A64500F20F8140
:100C1000013840EA0640A4EB0E0400261DB1D44082
:100C20000023C5E900433146BDE8F08702B9FFDE85
:100C3000B2FA82F2002A50D1CB1B4FEA174E1FFAAC
:100C400087F80126210CB3FBFEFC0EFB1C300B4683
:100C500008FB0CF941EA004189450AD979182CBFF3
:100C600001230023894502D9002B00F0D9800CF123
:100C7000FF3CA1EB0901A3B2B1FBFEF00EFB10118A
:100C800008FB00F843EA0144A04505D93C1902D20B
:100C9000A04500F2C9800138A4EB080440EA0C40EA
:100CA000BCE78B4209D9002D00F0B1800026C5E9D0
:100CB000000130463146BDE8F087B3FA83F6002ED6
:100CC00046D18B42C0F0A680824240F2A3803046DB
:100CD000002DA8D0C5E90048A5E79740C2F1200340
:100CE00001FA02F04FEA174ED94024FA03F31FFA33
:100CF00087F894400343B1FBFEF01E0C0EFB10116D
:100D000000FB08FC46EA01418C4509D979182CBF43
:100D1000012600268C4502D9002E00F09380013870
:100D2000A1EB0C019BB2B1FBFEF60EFB161106FB0C
:100D300008FC43EA01418C4505D9791802D28C455B
:100D400000F28780013EA1EB0C0346EA004679E7FA
:100D5000C6F1200703FA06F402FA06FC01FA06FEC1
:100D6000FA4020FA07F8F94000FA06F3224348EA6D
:100D70000E044FEA12484FEA144E1FFA82F9B1FBF3
:100D8000F8FA08FB1A110AFB09F04EEA014E704509
:100D90000AD912EB0E0E2CBF01210021704501D99A
:100DA000002952D00AF1FF3AAEEB000EA4B2BEFB0E
:100DB000F8F008FB10EE00FB09F944EA0E4EF1458D
:100DC00005D912EB0E0E01D2F14538D8013840EAB0
:100DD0000A40AEEB090EA0FB0C89CE4541464C46BD
:100DE00002D306D1434504D20138B8EB0C0169EBBC
:100DF000020415B35A1A6EEB040EF2400EFA07F70E
:100E00002EFA06F300261743C5E900730BE72E46BA
:100E1000284608E7841A61EB03010120884657E75A
:100E2000ACF1020C394424E702383C4434E7023880
:100E30003C44EEE6023E3B44D9E62E46F3E6023859
:100E40009644C4E7023839446AE7AAF1020A964494
:100E5000AAE7023E394476E7704700BF10F8012B3D
:100E600011F8013B012A28BF9A42F7D0D01A7047E7
:100E7000034613F8012B002AFBD1181A01387047DA
:100E800070B555EC104B164810F03EF8064670B1A0
:100E90000823C360C0E906450FA3D3E90023204619
:100EA0002946FFF70FFE20B16FF000437361304613
:100EB00070BD00220B4B20462946FFF7F9FD18B103
:100EC0004FF000437361F2E720462946FFF724FE06
:100ED0007061ECE7AFF300800000C0FFFFFFDF416F
:100EE000784501200000E0C12DE9F04F456A044635
:100EF0002DED028B95B057EC106BDDF880800591DD
:100F000009920F93CDE902673DB910200BF0E6FD81
:100F100060620560C560C0E90155636A196851B136
:100F20005A680123204693404A608B6012F00FFB01
:100F3000636A00221A603B1EB7BF23F00043002300
:100F400001220393A8BFC8F80030DDF80C90B64B1F
:100F5000B8BFC8F8002033EA09031BD142F20F736F
:100F60000F9A1360C9F31303334300F07285219B7A
:100F700063B9AE4B25E0AE4B00930833219A136062
:100F8000009815B0BDEC028BBDE8F08FA74B009325
:100F90000333F3E79DED027B0022002351EC170B96
:100FA0008DED0A7BFFF770FD804660B101230F9A3B
:100FB0001360219B002B00F049859E4B219A136002
:100FC000013B0093DCE7C9F30A5512AA13A9204696
:100FD0009DED0A0B12F0FDFC8246002D7CD00B9B90
:100FE000A5F2FF35CDF84080C3F31303DDE90A67AE
:100FF00043F07F5747F4401700228F4B3046394665
:10100000FFF722F982A3D3E90023FFF7D5FA82A3E1
:10101000D3E90023FFF71AF906460F462846FFF7E3
:1010200061FA7FA3D3E90023FFF7C6FA02460B4615
:1010300030463946FFF70AF906460F46FFF76CFDC2
:1010400000228146002330463946FFF727FD48B18C
:101050004846FFF747FA32463B46FFF715FD08B909
:1010600009F1FF39B9F1160F55D8744B03EBC903D9
:10107000DDE90A01D3E90023FFF710FD00284CD079
:1010800009F1FF3900230E93129B5D1B6B1E049325
:1010900045BF0023C5F101084FF000080493B9F1E2
:1010A000000F3CDB049BCDF834904B4404930023A9
:1010B0000693059B092B00F29980052BC5BF043BC5
:1010C000002501250593059B023B032B00F29A8026
:1010D000DFE803F02D7E7C8ADDE912531D4405F222
:1010E0003243202BC6BFC3F1400305F21240C3F1C7
:1010F000200305F1FF35C5BF09FA03F326FA00F016
:1011000006FA03F01843FFF7DDF901230646A1F1C3
:10111000F877109370E70123B5E70E90B4E7C9F1B3
:101120000003A8EB0908069300230D93C1E70023F1
:101130000893099B002B00F385804FF0010B5B4661
:10114000CDF804B0CDF824B00022666A72600422A3
:1011500002F11400716898427AD9204612F0C3F95E
:10116000636A30601B680093019B0E2B00F2F580D0
:10117000002D00F0F280B9F1000F7DDD09F00F03C2
:101180002E4A19F4807F4FEA291702EBC30393ED2F
:10119000007BB0EE478AF0EE678A5DD0284B07F0FF
:1011A0000F070325D3E90823DDE90A01FFF72EFB2A
:1011B000CDE90201224E002F50D1DDE9020153ECAE
:1011C000182BFFF723FBCDE902016FE00123AFE706
:1011D00000230893099B09EB030B0BF10103012B7F
:1011E0000193B8BF0123AFE70123F2E701250023F4
:1011F000089505934FF0FF3B00221223CDF804B071
:101200000992A1E701230893F4E700BFAFF3008040
:1012100061436F63A787D23FB3C8608B288AC63FFC
:10122000FB799F501344D33F0000F07F4C4E0200E7
:10123000434E0200704E02000000F83FC041020021
:1012400098410200DDF824B05B46CDF804B07BE79E
:101250000131520071607BE70225ABE7F90708D541
:10126000013551EC180BD6E90023FFF7A5F941EC45
:10127000180B7F1008369EE700F0AB80C9F100061E
:10128000AA4BAB4F022506F00F02361103EBC20347
:10129000DDE90A01D3E90023FFF78EF90023CDE948
:1012A0000201002E40F08A80002B8CD10E9B002B77
:1012B00000F0918000229F4BDDE9026730463946FD
:1012C000FFF7ECFB002800F08680019B002B00F06C
:1012D0008280BBF1000F3CDD09F1FF3301350022B4
:1012E000304607933946944BFFF766F9CDF830B096
:1012F000CDE90201DDE902672846FFF7F3F832463F
:101300003B46FFF759F98D4B0022FEF79FFFA1F1F5
:101310005073CDE9020103930C9B002B60D1002296
:10132000874B30463946FEF78FFF06460F46DDE90C
:101330000223FFF7D1FB002840F097823046DDE919
:10134000022101F100433946FFF7A8FB002840F0D5
:101350008982DDE90A23CDE90223139B002BC0F229
:101360005B81B9F10E0F00F35781704B03EBC9039A
:1013700093ED007B099B002BB0EE478AF0EE678A65
:1013800080F2E280019B002B00F3DE8040F06A8255
:1013900000226B4B51EC170BFFF70EF9DDE902232E
:1013A000FFF790FB019E3746002840F04082009DE9
:1013B000312309F1010905F8013B3CE2F20705D5AB
:1013C0000135D7E90023FFF7F7F801237610083736
:1013D00067E702256AE7019BCDF81C900C9389E72B
:1013E00000990C980C9A0144504B9DED027B03EB45
:1013F000C20302910899B0EE478AF0EE678A53E97A
:101400000223002945D000204E49FFF7FFF953EC95
:10141000182BFEF719FF009D41EC180B394630469A
:10142000FFF77AFB0C90FFF75DF802460B4630465B
:101430003946FEF709FF0C9B06460F46303305F888
:10144000013B53EC182BFFF729FB002864D13246EF
:101450003B4600203749FEF7F7FE53EC182BFFF709
:101460001DFB002840F0B880029B9D423FF471AF05
:101470000022314B51EC180BFFF79EF800222E4B47
:1014800041EC180B30463946FFF796F806460F46F2
:10149000C4E751EC170BFFF78FF8029B009D0C93EC
:1014A00041EC180B39463046FFF736FB1190FFF739
:1014B00019F802460B4630463946FEF7C5FE119B29
:1014C00006460F463033002205F8013B029B9D4241
:1014D00025D11C4B51EC180BFEF7B8FE02460B460B
:1014E00030463946FFF7F8FA002875D10020154933
:1014F00053EC182BFEF7A8FE02460B463046394641
:10150000FFF7CCFA00283FF424AF0C9D6B1E0C9320
:1015100015F8013C302BF8D0DDF81C904AE0064B62
:10152000FFF74AF806460F46BCE700BFC04102007D
:10153000984102000000F03F0000244000001C40E1
:10154000000014400000E03FDDE90267009D3046E6
:10155000394653EC182BFFF759F9FFF7DDFA8046AF
:10156000FEF7C0FF53EC182BFFF726F80246304673
:1015700008F130060B463946FEF766FE05F8016BAA
:10158000009E0246019F0B46AE1BB74237D1FEF7C5
:101590005DFE06460F4653EC182BFFF79DFAC8B9BF
:1015A0003046394653EC182BFFF76EFA10B118F09D
:1015B000010F0FD12046514611F0C9FF002309F158
:1015C00001002B700F9B1860219B002B3FF4D8ACBF
:1015D0001D60D5E4CDF81C902B461D4613F8012D57
:1015E000392A08D1009A9A42F7D1079A0099013214
:1015F000079230220A701A7801321A708CE70022A2
:101600009C4BFEF7D9FF0022002306460F46FFF74A
:101610003BFA00289BD0CDE7089A002A00F0C4804E
:10162000059A012A00F3A980109A002A00F0A180EF
:1016300003F23343069E4546049A0121204698440E
:101640001A44049212F029F80746002D0BDD049B82
:10165000002B08DDAB42049AA8BF2B46A8EB030879
:10166000ED1AD31A0493069BFBB1089B002B00F0E4
:101670009F80002E11DD3946324620460BF0F4FFE4
:10168000524601460746204612F010F85146079090
:10169000204611F05CFF079B9A46069B9A1B04D0DC
:1016A000514620460BF0E0FF82460121204611F012
:1016B000F4FF0D9B0646002B7CDD1A4601462046B2
:1016C0000BF0D2FF059B0646012B76DD0023069327
:1016D000336906EB8303186911F08FFFC0F1200016
:1016E000049B184410F01F0000F08680C0F1200316
:1016F000042B7FDDC0F11C00049B8044054403449F
:101700000493B8F1000F05DD51464246204612F021
:1017100068F88246049B002B05DD31461A462046B8
:1017200012F05FF806460E9B002B67D031465046FC
:1017300012F0B6F8002861DA002351460A2220464A
:1017400011F01CFF089B09F1FF398246002B00F0C5
:101750008781394600230A22204611F00FFFBBF192
:10176000000F074600F38E80059B022B40F38A8012
:101770004CE0129BC3F136035CE7019B5E1E069BA7
:10178000B342B7BF069B9E1B0696F21ABFBF0D9BC6
:1017900000269B180D93019B002BB5BFA8EB0305FA
:1017A00045460023019B47E7069E4546089F4CE7B8
:1017B000069A75E7059B012B18DC029BB3B9039BC6
:1017C000C3F31303A3B9039B23F000431B0D1B05B5
:1017D0002BB1049B08F10108013304930123069304
:1017E0000D9B002B7FF474AF012079E70023F6E70F
:1017F000029BF4E785D018461C307DE7019B002B47
:101800003ADC059B022B37DDDDF804B0BBF1000F9D
:101810000DD131465B460522204611F0AFFE014650
:101820000646504612F03CF800283FF7C0AD099B31
:10183000009D6FEA03094FF000083146204611F081
:1018400086FE002F3FF4B6AEB8F1000F05D0B845C4
:1018500003D04146204611F07AFE3946204611F069
:1018600076FEA7E600263746E1E70C9EDDF81C90E1
:1018700037469CE500002440089BDDF804B0002BAF
:1018800000F0F580002D05DD39462A46204611F08E
:10189000A8FF0746069B002B55D07968204611F01B
:1018A00022FE3A69054607F10C0102320C30920023
:1018B00011F061FB01222946204611F092FF009BA6
:1018C000B846074601330193009B5B440793029B94
:1018D00003F001030693019B3146504603F1FF3BA1
:1018E00011F060FD034641460290504630330893A4
:1018F00011F0D6FF3A4604903146204611F0ECFF35
:10190000C2680546089B02BB0146504611F0C8FF5D
:10191000089B024629462046CDE9083211F017FE01
:10192000059B099A019D43EA0201069B0B43089B14
:101930000DD1392B27D0049A002A01DD029B3133C7
:101940008BF8003079E73846B9E70122E2E70499DD
:10195000002904DB059801430698014320D1002AA1
:10196000EEDD514601222046019311F03AFF314647
:10197000824611F095FF0028019B02DCE0D1DA07D6
:10198000DED5392BDAD139238BF800302B461D46B2
:10199000013B15F8012C392A50D001321A704CE75E
:1019A000002A03DD392BEED00133C9E7019A0799EC
:1019B00002F8013C8A422AD0514600230A222046DE
:1019C00011F0DCFDB84582464FF000034FF00A02EB
:1019D0004146204607D111F0D1FD80460746019BC4
:1019E0000133019377E711F0C9FD394680460023A2
:1019F0000A22204611F0C2FD0746F0E7BBF1000FB6
:101A0000009A4FF00008CCBF5D46012515445146B1
:101A100001222046019311F0E4FE3146824611F086
:101A20003FFF0028B2DC02D1019BDB07AED42B467E
:101A30001D4613F8012D302AFAD0FEE6009A9A428C
:101A4000A5D1312309F101091370F6E6124BFFF716
:101A5000B8BA219B002B7FF48EAA104BFFF7B1BAC6
:101A6000BBF1000F03DC059B022B3FF7CFAE009DBF
:101A70003146504611F096FC009A00F1300305F80B
:101A8000013BAA1A9345B9DD514600230A2220469C
:101A900011F074FD8246EBE76F4E0200434E0200E8
:101AA00038B5002423462246214600E001340B2CA1
:101AB0001ADC04EB440500EB8505B5F84250002D17
:101AC000F4D00131C9B204EB440500EB850595F86B
:101AD0004C5015F0020F01D00132D2B215F0080FB0
:101AE000E4D00133DBB2E1E701480CF03AFA38BD4B
:101AF0008842020010B50446D0E900230C480CF0DF
:101B000030FAD4E902230B480CF02BFA94F8273072
:101B100094F82620A18C08480CF023FA94F82A3077
:101B200094F8292094F8281004480CF01AFA10BDF3
:101B3000B0420200C4420200D8420200F442020055
:101B400000B583B0013805282DD8DFE800F0032C5C
:101B50000D2C292F0122D821164808F0A3F910BB1B
:101B6000154809F067FD1EE0532011F0BDF9019002
:101B700050B10222532108F095F9034640B193B1C8
:101B8000019811F0A8F90EE00C480CF0EAF90AE00F
:101B90000022002301A90A4809F0BCFB0346EEE736
:101BA000084B01221A7003B05DF804FB054B0022BC
:101BB0001A70F8E700490120C448012010430200D0
:101BC000644801207C6C012010B5002400E0013441
:101BD000032C0FDC084B53F824000378002BF6D0BD
:101BE00000231A46194604F049FA0028EFD04FF0B6
:101BF000FF3000E0002010BD0446020008B5FFF7EA
:101C0000E3FFB0B908F06CFAC8B91F4808F0FCFA55
:101C1000D8B91F2008F0DCFAE8B9002008F0BCFAB7
:101C2000F8B9012008F09CFA08BB08F077FA20BB4D
:101C300008BD16480CF095F94FF0FF30F8E714484E
:101C40000CF08FF94FF0FF30F2E712480CF089F9F1
:101C50004FF0FF30ECE710480CF083F94FF0FF3005
:101C6000E6E70E480CF07DF94FF0FF30E0E70C4856
:101C70000CF077F94FF0FF30DAE70A480CF071F911
:101C80004FF0FF30D4E700BF411B01003443020096
:101C900050430200784302009C430200BC43020010
:101CA000DC4302000044020008B5014601480CF084
:101CB00058F908BD1844020010B584B0124C4FF416
:101CC0007A232360114809F0DDF8216801AA0EF09B
:101CD00054F810F0FF0F0DD10B48029B83810323B2
:101CE000C3810A490DF02AFB10F0FF0F07D1012034
:101CF00004B010BD06480CF034F9FF20F8E70548A1
:101D00000CF02FF9FF20F3E7F859012040440200BE
:101D1000544402006C44020000B5A7B0FFF7CCFFAA
:101D2000094896236A4601880DF06DFC002806DB01
:101D3000694606480CF015F927B05DF804FB044825
:101D40000CF00FF9F8E700BFF859012094440200A5
:101D50008044020030B5A7B001469622684611F0D3
:101D60008CFA094C25686846FFF782F8431C6A46DE
:101D7000A9B220460DF029FB002801DB27B030BDB9
:101D800002480CF0EEF8F9E7F859012098440200F7
:101D900070B596B0044604F099FC504D286004F0EC
:101DA00067FCA38C4E4E009333460522002114A8F5
:101DB00011F022FA94F826300093334605220021D0
:101DC00012A811F019FA94F827300093334605222F
:101DD000002110A811F010FA94F82830009333462F
:101DE000052200210EA811F007FA94F8293000937B
:101DF0003346052200210CA811F0FEF994F82A3090
:101E000000933346052200210AA811F0F5F90F22AC
:101E100010A906A811F00CFA324E0F22314606A87E
:101E200011F006FA0F2212A906A811F001FA0F22EA
:101E3000314606A811F0FCF90F2214A906A811F0EA
:101E4000F7F90F220EA902A811F0F2F9264E0F227F
:101E5000314602A811F0ECF90F220CA902A811F0EA
:101E6000E7F90F22314602A811F0E2F90F220AA980
:101E700002A811F0DDF92E6894ED000BFFF700F8D1
:101E800002461A49304604F0FBFB2E6894ED020B23
:101E9000FEF7F6FF02461649304604F0F1FB2C68C7
:101EA00006A804F0F9FB02461249204604F0E8FBBC
:101EB0002C6802A804F0F0FB02460F49204604F00B
:101EC000DFFB286804F0D4FB044601460B480CF005
:101ED00048F82046FFF73EFF16B070BD285A012093
:101EE000AC440200B0440200BC440200B44402000E
:101EF000C0440200CC440200D4440200DC4402008E
:101F0000F0B583B061480CF02CF8FFF777FE18B1FC
:101F10004FF0FF3003B0F0BD5D480CF022F8002414
:101F20002546264689E038690022002309F0AAFBED
:101F3000002840F092800BF0ABFF002840F08D802D
:101F400054480CF00EF854480CF00BF85348FFF7C7
:101F5000A7FD534B1B7863BB52480CF002F84F4B64
:101F600093F8403013F0010F27D010F0E4FE4C013D
:101F7000430144EAD0621B1A62EB0102940044EA76
:101F800093749D0022462B1841EB0202D10041EAD6
:101F90005371D800C40B44EA4144CD0B3F4F38463F
:101FA000FFF7A8FD3846FFF7F3FE3F480BF0D9FFD7
:101FB00053E03E480BF0D5FFCEE710F0BCFE4F01DA
:101FC000430147EAD0621B1A62EB0102970047EA1D
:101FD00093774FEA830C3A461CEB000341EB020275
:101FE000D70047EA5377D900C80B40EA4740F90BBE
:101FF0004FF47A720023001B61EB0501FEF7B4FD7C
:1020000002460B462A480BF0ACFFFFF785FE731C17
:10201000DEB203F00303274AD15C27480BF0A1FF8F
:10202000C3E7019810F057FF244BDA686FF3523280
:10203000DA601A6A6FF352321A62204F4FF0FF32A1
:102040004FF0FF33022138460AF0E2F8FB6803F450
:10205000FC23B3F5804F3FF466AF184B1B6A03F4C3
:10206000FC23B3F5003FDFD1144B586A0022002354
:1020700001A909F0ADF90028D6D10BF009FF00281D
:10208000CFD101990E480BF06CFFCAE7E044020083
:10209000F8440200104502001845020000490120E2
:1020A0007C6C01204045020094450200204502005E
:1020B00064450200144602008445020000450120E8
:1020C0009444020030B4002494420FD20B5D43408C
:1020D0001809074D285680EA0310C3B2C0F3031055
:1020E000285680EA0310C0B20134EDE730BC7047D7
:1020F0001846020008B5032808D8400108300A4BEA
:102100001844D0E8AF3F43B1002008BD0DF019FDE1
:10211000092303604FF0FF30F7E70DF012FD0923AC
:1021200003604FF0FF30F0E72C5A012008B5002083
:10213000032809DC430103F10802074B1344D3E8E9
:10214000AF3F3BB10130F3E70DF0FBFC1723036019
:102150004FF0FF3008BD00BF2C5A012030B40246BA
:10216000530103F108010F4B0B44D3E8AF1F0C469A
:10217000A9B1481ED3E8EF5F8D4204D1C3E8EC0F4C
:10218000BCF1000FF6D1EBD1012C06D1054B51016A
:1021900003EB421200205850506030BC7047084694
:1021A000FBE700BF2C5A012040010830054B0344D7
:1021B000D3E8EF0F421CC3E8E12F0029F8D101302A
:1021C000704700BF2C5A012070B504460D461646D4
:1021D000FFF790FF00280FDB2DB1084B03EB4413F2
:1021E0005B68AB4203D16401044B185970BD0DF01C
:1021F000A8FC06600020F9E70020F7E72C5A012030
:1022000070B504460E461546FFF774FF002810DB34
:10221000094B03EB44135B68336035B1630103F191
:102220000802054B134404332B606401024B185918
:1022300070BD0020FCE700BF2C5A012010B54FF004
:10224000FF324FF0FF330E4809F026F9FFF76EFF1B
:10225000041E04DA0A4809F0A9F9204610BD2046F8
:10226000FFF7A2FF0748630100EB44110022C250B0
:102270004A6008331844043010F066FBEAE700BFF8
:10228000D04701202C5A012038B503461046094A90
:102290005D0102EB43145151606050B1C26842B11C
:1022A0002B460833034A1344043340F205120BF063
:1022B000F1FD38BD2C5A012008B50B6801330B60C5
:1022C000014B1B68984708BD28450120014B186049
:1022D000704700BF2845012000B583B002460B4679
:1022E0000021019101A9034800F068FB03B05DF8EB
:1022F00004FB00BFB922010010B584B00446019070
:1023000002910021039101A9054800F057FB039BAE
:10231000029A934201DA0022E254039804B010BDFD
:1023200031DF01002DE9F04383B00446084615462D
:10233000238B13F0080F05D103F007060023009349
:10234000019369E0012909D043F02003238385F339
:102350001188BFF36F8F03B0BDE8F08343F0100323
:102360002383F4E720460BF03FFE57E0D4F81490A7
:102370004A46694620460BF050FE00275AE0236982
:102380001F68062120460BF008FE4FF0000951E0BF
:1023900023695F68042120460BF0FFFD4FF0000920
:1023A00048E023699F68052120460BF0F6FD4FF0B9
:1023B00000093FE0002246E0002244E043F0080329
:1023C000238385F31188BFF36F8F002944D1009BCD
:1023D0002BB14B464246694620460BF094FE17B19E
:1023E00025492046B8474FF02003EFF3118583F3CA
:1023F0001188BFF36F8F238B23F008032383238B74
:1024000013F0100F2ED023F0100323830120268B0E
:1024100006F0070600289AD00228A3D0002896D0FC
:102420000128A3D00328AAD00428B1D00528B8D009
:102430000027B946238B03F00708B045BAD0A2683D
:10244000002AB9D001221146002AB7D1009A002AE9
:10245000B4D1002FB2D1D2E74A46414620460BF014
:10246000A4FDB4E713F0200F04D023F0200323834E
:102470000220CCE70020CAE735E1010010B4044691
:102480000268002013780849595C11F0040F06D047
:1024900000EB8000013203EB40003038F2E72260AD
:1024A0005DF8044B704700BF114D02002DE9F04F5D
:1024B00083B004460D4601929A46DDF83080D37809
:1024C000314A13F802B00BF0030B6F2B0FD006D973
:1024D000702B0FD0782B10D14FF0100923E0582B20
:1024E00002D04FF00A091EE04FF010091BE04FF038
:1024F000080918E04FF0100915E04FF00A0912E042
:10250000D2B23032D2B208F8012D32463B462046D4
:102510002946FEF729FBBD4208BFB44218D3D04577
:1025200016D904460D464E4600274A463B462046ED
:102530002946FEF719FB092AE2D9BBF1010F03D0A6
:10254000D2B25732D2B2DEE7D2B23732D2B2DAE703
:10255000019B1B7813F0200F05D0B9F1080F06D0AE
:10256000B9F1100F09D0404603B0BDE8F08F019AD1
:10257000937843F008039370F5E7019A937843F05A
:1025800010039370EFE700BF114D02002DE9F04FEB
:1025900089B092461D46002871F1000308DB9AF8C5
:1025A000003013F0080F14D02B23129A137002E09E
:1025B0002D23129A13709AF803B0C1F30A540246FD
:1025C000C1F3130364B952EA030130D14FF0000E96
:1025D00008E013F0100FEED02023129A1370EAE7F0
:1025E0004FF0000E40F2FF718C4223D0BBF1460F3A
:1025F00060D04FEAC32C4CEA525CD2022CF0004C63
:102600000692CDF81CC044EA0200E31743EA0C012D
:1026100050EA010308D0BEF1000F4FD1A4F2FE34FE
:10262000079B43F0004307934FF0000861E04FF031
:10263000010ED7E7134322D1AD4B1BF8033003F053
:102640000303012B11D06923139A13706E23537067
:102650000332662313998B709AF800306FF3861358
:102660008AF80030149B1A6092E14923139A137080
:102670004E2353700332462313998B70ECE79C4B27
:102680001BF8033003F00303012B09D06E23139AC8
:102690001370612213994A700A4603328B70DBE78C
:1026A0004E23139A1370412213994A700A4603323B
:1026B0008B70D1E74FF0660B9BE7013C069B079AB6
:1026C00013EB030842EB0209CDE90689B8F1000FCC
:1026D00079F10003F1DAA1E74FEA820C98004CEAA5
:1026E0009374C31844EB0202069307928C1C08F102
:1026F000FF3814F1020F26DA0799069B5B0843EABC
:10270000C1734A080693079221460134B2F1333F60
:10271000F2D2E1E7069B0233079A42F100020693E8
:10272000079206A80CF003F9013C08F10108069B8A
:10273000079ADE1842EB0207CDE90667013C002E3E
:1027400077F10003F3DA002CE4DCC4F10401079A0A
:102750001C34A1F12000069BCB4002FA04F4234371
:1027600022FA00F00343CA4006930792BBF1670FB9
:1027700012D0BBF1470F0FD00027BBF1660F29D055
:102780006C1C102305939C4200DD1C4600224FF078
:102790000063CDE9022328E018F1030F01DBA8450F
:1027A00011DDABF1020B5FFA8BFB002D00DD013D6B
:1027B0009AF80030C3F3401713F0200F08D1002D12
:1027C000DBDD0127D9E7A5EB08054FF0660BEFE746
:1027D0000027D2E718EB0504D3D510230593002476
:1027E000D4E702A80CF0C1F83446661E002CF8D1DC
:1027F000069B029A9B180093079A039B42EB0303E4
:102800000193DDE90023CDE90623B3F1805F08BF22
:10281000002A07D2BBF1660F45D1B8F1000F3DDDAC
:10282000139E0DE006A80CF0A0F808F10108F1E7EE
:1028300005A906A80CF0A5F806F8010B08F1FF3869
:10284000B8F1000F02DD059B002BF1DCCAF8048013
:10285000A0469AF8003013F0200F01D1002D02DDC0
:102860002E2306F8013BB8F1000F33DA002D31DDDD
:10287000C8F10003CAF804309D4201DACAF80450D6
:10288000DAF80430ED1A002BD4BF002301239AF8A4
:10289000022063F345128AF802201BE0139E3023C6
:1028A00006F8013BD5E705A906A80CF06AF8139EC7
:1028B00006F8010B302801D008F1FF389AF80030F3
:1028C00013F0200F01D1002D04DD139B9E1C2E233D
:1028D000139A5370002D0DDD059B002B0ADD05A911
:1028E00006A80CF04EF806F8010B013DF2E700BF18
:1028F000114D0200CAF8085057B10023CAF8083039
:1029000033461E4613F8012D302AFAD02E2A43D022
:10291000BBF1650F02D0BBF1450F2AD186F800B09C
:10292000B8F1000F3ADBB21C2B237370B8F1630FC0
:102930000DDD204981FB08314FEAE873C3EB6113D9
:1029400003F1300102F8011B642101FB13881A49CD
:1029500081FB08314FEAE873C3EBA10303F13001B7
:10296000164606F8021B03EB8303A8EB4303303340
:102970005370DAF80430002B16DD01249AF8023087
:1029800064F386138AF80230149B1E6000233370B0
:10299000139809B0BDE8F08F1E46B9E7C8F10008EA
:1029A000B21C2D237370C1E7DAF80830002BE5DD87
:1029B0000124E3E71F85EB51676666662DE9F04F5A
:1029C00099B006460D4617460593002400E00134F1
:1029D0003878002800F09385252807D0013729464C
:1029E000B0470028F3DA19B0BDE8F08F00230A934E
:1029F0000B930F930DF15D0208928DF81F300C932D
:102A00000D930E9307F101097B78252B02D04FF02F
:102A1000010831E007F102098DF83330AEE19DF88D
:102A2000303043F004038DF83030B8F1000F20D07F
:102A300009F101091DE09DF8303043F008038DF8DD
:102A40003030F2E79DF8303043F010038DF830302D
:102A5000EBE79DF8303043F020038DF83030E4E7A9
:102A60009DF8303043F040038DF83030DDE74FF013
:102A70000008B8F1000F29D099F80030203B102B46
:102A8000F5D801A252F823F0452A01006F2A01006F
:102A90006F2A0100532A01006F2A01006F2A0100EA
:102AA0006F2A01006F2A01006F2A01006F2A0100BE
:102AB0006F2A0100372A01006F2A01001F2A010036
:102AC0006F2A01006F2A0100612A01009DF8303051
:102AD00003F04403442B6DD0CDF824909DF83030A2
:102AE00043F080038DF8303099F800302A2B68D0FD
:102AF00009A8FFF7C3FC099B994512D09DF8303017
:102B000043F080038DF830300D90C3F3400300286C
:102B100060DB002213439DF8302063F341028DF8FF
:102B20003020099B09931B782E2B14BF002301230F
:102B30009DF8312063F341028DF83120002B4BD0FA
:102B4000099B5A1C09925B782A2B48D009A8FFF7E9
:102B500095FC0E909DF83030C3F34003002847DB0E
:102B6000002213439DF8302063F341028DF830209A
:102B7000DDF8249099F800304C3B2E2B00F2DC80DD
:102B8000DFE803F0CADADADADADADADADADADADA63
:102B9000DADADADADADADADADADADADADADADADA95
:102BA00038DA6ADA51DADADADADADADAC0DADADA3A
:102BB000DADAB6009DF830306FF386138DF83030D6
:102BC0008AE79DF8313043F001038DF831304B46F0
:102BD0000133A7E701229DE7DDF82490CAE79DF8BD
:102BE000313043F004038DF8313002F10109C1E7BF
:102BF0000122B6E709F1010299F80130682B08D0EB
:102C00009DF83130022161F3C6038DF831309146D1
:102C10002BE09DF83130012262F3C6038DF831308C
:102C200009F1020921E009F1010299F801306C2B48
:102C300008D09DF83130032161F3C6038DF831309F
:102C4000914612E09DF83130042262F3C6038DF8FC
:102C5000313009F1020908E09DF83130052262F3B4
:102C6000C6038DF8313009F1010919F8012B8DF8EF
:102C70003320A2F14103372B00F28581DFE813F006
:102C8000310183018301830131013101310183016C
:102C90008301830183018301830183018301830114
:102CA00083018301830183018301830183011C016B
:102CB00083018301830183018301830183018301F4
:102CC000310183011C0163003101310131018301B4
:102CD0006300830183018301830162011C0173018D
:102CE00083018301730183011C01830183011C01A2
:102CF0009DF83130062262F3C6038DF8313009F1B8
:102D00000109B2E79DF83130072262F3C6038DF85E
:102D1000313009F10109A8E79DF83130082262F34A
:102D2000C6038DF8313009F101099DF8303043F0C8
:102D300002038DF8303098E79DF831306FF3C60309
:102D40008DF8313091E79DF83230012161F30203B3
:102D50008DF832309DF8313003F07803402B00F0CD
:102D6000B380632A00F0B7809DF83030C3F340028F
:102D700048EA020868F341038DF830309DF831309D
:102D800013F0010F00F01281059B1A1D0592D3F874
:102D90000080B8F1000FC0F200819DF8313013F0CF
:102DA000040F00F01681059B1A1D0592D3F800A0B0
:102DB000BAF1000FC0F2048100230D930E939DF829
:102DC000323003F00703042B00F00C819DF8323001
:102DD00003F007039DF83110C1F3C301012B00F08C
:102DE0001181022B00F05681042B00F0A781032BE8
:102DF00000F0BE819DF8302012F0030F40F0BE813C
:102E00009DF83330253B532B00F2CB81DFE813F0E4
:102E1000C201C901C901C901C901C901C901C90169
:102E2000C901C901C901C901C901C901C901C90152
:102E3000C901C901C901C901C901C901C901C90142
:102E4000C901C901C901C9018A02C901C901C90170
:102E50008A028A028A02C901C901C901C901C901DC
:102E6000C901C901C901C901C901C901C901C90112
:102E7000C901C901C9012402C901C901C901C901A6
:102E8000C901C901C901C9018A02C9010E0216029C
:102E90008A028A028A02C9011602C901C901C9014E
:102EA000C901660224024E02C901C901CB01C90150
:102EB0002402C901C90124029DF83230022161F3C4
:102EC00002038DF8323045E79DF8301041F00101E2
:102ED0008DF8301045E7B3F1000818BF4FF0010836
:102EE00042E79DF83230042161F302038DF832305D
:102EF000612A1FD0412A1BD000229DF8313062F395
:102F0000C7138DF83130DAB213F0800F42D102F0DE
:102F10007802182A10D0002A3FF426AF402A3FF446
:102F200023AF9DF8303043F001038DF830301BE7BC
:102F30000122E2E70122E0E7DBB26FF3C6038DF87E
:102F4000313011E79DF83230032262F302038DF82D
:102F500032309DF8313003F07803402B7FF404AF1A
:102F60004FF0010800E79DF83230032262F30203BC
:102F70008DF832309DF8313013F0780F3FF4F4AE15
:102F80004FF00108F0E69DF8303043F001038DF872
:102F90003030E9E64FF00108E6E69DF8303043F0C6
:102FA00004038DF83030C8F10008F6E69DF93030A2
:102FB000002B02DB4FF0FF38EFE6DDF83480ECE663
:102FC0009DF831306FF341038DF831304FF0FF3A07
:102FD000F2E613F0020F02D0DDF838A0ECE64FF075
:102FE000FF3AE9E69DF8313013F0020F7FF4EEAEC0
:102FF0009DF93130002B02DB4FF0060AE6E64FF078
:103000000D0AE3E6CB1E042B04D8DFE803F00B1D0A
:1030100029353500059B1A1D05921A68D317CDE98D
:103020000A2306E0059B1A1D05921A68D317CDE9FD
:103030000A23012928D002297FF4DCAEBDF928201B
:10304000D317CDE90A23D5E6059B073323F0070301
:1030500003F108020592D3E90023CDE90A23E8E74A
:10306000059B073323F0070303F108020592D3E918
:103070000023CDE90A23DCE7059B1A1D05921A6897
:10308000D317CDE90A23D4E79DF828300A9300230B
:103090000B93AFE6CB1E042B04D8DFE803F00B1F25
:1030A00035414100059B1A1D05921B680A930023B8
:1030B0000B931EE09DF83330632B07D0059B1A1D40
:1030C00005921B680A9300230B9312E0059B1A1DBF
:1030D00005921B680A9300230B930AE0059B0733B4
:1030E00023F0070303F108020592D3E90023CDE999
:1030F0000A2301291CD002297FF47CAEBDF82830B8
:103100000A9300230B9375E6059B073323F007030F
:1031100003F108020592D3E90023CDE90A23E8E789
:10312000059B1A1D05921B680A9300230B93E0E789
:103130009DF828300A9300230B935BE608290BD0F7
:10314000059B073323F0070303F108020592D3E937
:103150000023CDE90A234DE6059B073323F007033F
:1031600003F108020592D3E90023CDE90A2341E6E1
:10317000059B1A1D05921B680A933BE64B463A468F
:10318000294630460BF019FC0028FFF62CAC04440D
:103190004F461DE429462520B0470028FFF623AC02
:1031A00001344F4614E40A9FBAF1000F3ADB51464E
:1031B000384610F0A3F838440890002FF1D0089B4F
:1031C000DB1B9DF81F0000B101339DF8321011F098
:1031D000100F00F0B68002330D9A134411F0400F27
:1031E00001D00E9A1344B8F1000F40F3C380A8EB4E
:1031F00003089DF8303013F0040F40F0BB8013F04B
:10320000400F00F0A480002800F0A4802946B047B9
:103210000028FFF6E8AB013400238DF81F304FF093
:10322000300A99E03846FDF723FEC4E70A9B8DF883
:1032300044300DF14503089311AFBEE712F0080FBB
:1032400024D02B238DF81F30DDE90A23002A73F1E7
:10325000000122DBCDE90A23089B009311AB0CAAE5
:10326000DDE90A01FFF722F90746BAF1000FA4DBF6
:10327000089BDB1B9DF830206FF386128DF8302001
:103280009A459AD9AAEB03030D9396E712F0100F13
:10329000DAD020238DF81F30D6E72D218DF81F10AE
:1032A000524263EB4303CDE90A23D5E70A9818B9E4
:1032B000944F0897053F80E7089B009311AB0CAA39
:1032C0000021FFF7F3F807469DF8323043F0100372
:1032D0008DF8323078238DF83330C6E70A9A9DF89E
:1032E0003130C3F3C303072B3FF65BAFDFE803F0D6
:1032F0000406080A0C111618146052E7147050E7FF
:1033000014804EE714604CE72046E117C2E9000143
:1033100047E72046E117C2E9000142E7146040E7B1
:1033200014603EE708AB029311AB01930DF11F034C
:10333000009353460CAADDE90A01FFF727F9074677
:103340003BE711F0080F3FF447AF013344E74FF07C
:10335000200A01E04FF0300A434603F1FF38002B0A
:1033600008DD29465046B0470028FFF63CAB013443
:103370004346F2E79DF81F0028B12946B0470028D0
:10338000FFF631AB01349DF8323013F0400F72D0AC
:103390009DF93130002B0DDB38785B4BC35C13F0AB
:1033A000040F12D001372946B0470028FFF61BABA7
:1033B0000134F1E73878702844D001372946B04706
:1033C0000028FFF610AB0134F4E7DDF834A09DF8D7
:1033D000323013F0200F10D038782E281DD03878D6
:1033E000494BC35C13F0040F2CD001372946B0477A
:1033F0000028FFF6F8AA0134F1E70AF1FF3BBAF121
:10340000000F08DD29463020B0470028FFF6EBAA60
:103410000134DA46F1E7DA46DEE701372946B047FC
:103420000028FFF6E0AA01340AF1FF3BBAF1000FD1
:10343000D5DD29463020B0470028FFF6D4AA013454
:10344000DA46F1E70E9B03F1FF3A002B08DD29462F
:103450003020B0470028FFF6C6AA01345346F2E7F1
:10346000089B3A46294630460BF0A7FA0028FFF69B
:10347000BAAA044433E09DF83230C3F30012C3F318
:10348000C003134306D029463020B0470028FFF67A
:10349000AAAA01349DF8323013F0100F07D0294644
:1034A0009DF83300B0470028FFF69DAA01340D9B1C
:1034B00003F1FF3A002B08DD29463020B0470028F1
:1034C000FFF691AA01345346F2E7089B3A46294693
:1034D00030460BF072FA0028FFF685AA0444B8F1D2
:1034E000000F09DD29462020B0470028FFF67BAAFF
:1034F000013408F1FF38F2E74F46FFF769BA20467A
:10350000FFF771BA2D460200114D02004FF0200264
:10351000EFF3118382F31188BFF36F8F044A012107
:10352000C2F8401583F31188BFF36F8F00207047F6
:103530000090034030B108B58001034B43F0010314
:10354000984708BD704700BF90410200F8B5054696
:103550000E4617460E4C0F4B9C4211D22368AB42CD
:1035600000D05BB963683A4631462846984728B18F
:10357000A3683A46314628469847F8BD0C34EAE736
:103580000CF0DFFA6A2303604FF0FF30F5E700BF6D
:10359000C8400200D4400200014B1860704700BFD1
:1035A000AC5A012008B54022002104480FF003FD69
:1035B00003480FF0C9F9002008BD00BFC45A01201C
:1035C000B05A01201B4B1B68002B32D130B585B09F
:1035D000184B01221A60184B93E8070004AB03E96B
:1035E0000700164B63B10BF016FA4FF02003EFF310
:1035F000118583F31188BFF36F8F114B1C680AE0AC
:10360000002383F31188BFF36F8FEEE723460CB1DD
:10361000236843B11C4634B1A368002BF6D0064A98
:1036200010789847F2E785F31188BFF36F8F05B0E4
:1036300030BD70472C4501200C5B012017EA0100CA
:10364000045B012070B588B006462A4C6D460146E1
:1036500028460CF067F895E8070084E80700207812
:10366000002845D0244B00221A60B6F1FF3F0CD150
:1036700008F0B0F84FF02003EFF3118583F31188C1
:10368000BFF36F8F1D4B1C6816E0A368590CD8035D
:103690001B4C1C4A002300194FF0000444EB0101AD
:1036A000FDF762FA0121301A0FF016FBE0E723461E
:1036B0000CB1236843B11C4634B16368002BF6D0CB
:1036C0000C4A10789847F2E785F31188BFF36F8FA3
:1036D000084B93E8070008AB03E907000A4B0BB15E
:1036E0000BF086F9FFF76EFF08F024F9014B18780C
:1036F00008B070BD0C5B01202C450120045B01204B
:103700003F420F0040420F00F1E9010010B50446AE
:103710000A2807D0074B1868E1B283685B689847AE
:10372000204610BD034B186883685B680D219847DD
:10373000F0E700BF185B012010B5044C204600F0F4
:1037400009FF2046FEF7C2FD10BD00BF0D37010086
:1037500008B5044807F096FB034B1860FFF7ECFF31
:10376000002008BD30460200185B01200048704769
:10377000705B0120034BC01A8010034B03FB00F069
:10378000704700BF305B0120B76DDBB638B505462A
:103790000C46FFF7EFFF0146402203480CF03FF8CC
:1037A00001462846A04738BD183E020030B583B018
:1037B00005460C46FFF7DEFF0146402300932346F3
:1037C000054A06480CF045F8011E01DB03B030BD88
:1037D0002846A047FAE700BF9BF80100183E020008
:1037E00008B510B101280DD008BD002108480BF024
:1037F0009EFF836813F0070FF6D1002104480BF0F9
:10380000FCFFF1E7012102480BF0F7FFECE700BFF6
:10381000183E020010B54FF02003EFF3118483F33C
:103820001188BFF36F8F134A136843F002031360CC
:1038300013F0010F08D1002384F31188BFF36F8FB9
:1038400093B90CF032F810BD0B4BD3F80C24D3F81D
:103850000C3412F0010F01D10023EDE7FFF786FFD2
:103860000BF0B8FF0123E7E7002104480BF0C5FF88
:10387000E9E700BF805B012000500040183E0200D5
:1038800008B5084BD3E8EF2F22F00201C3E8E01F90
:103890000028F7D112F0010F00D008BD0CF00FF88E
:1038A000FBE700BF805B012000B587B0CDF800D0FA
:1038B000CDF804D0002302930123039304AB0493B7
:1038C00005936B46064A0BF0E0FF002805DB4FF43A
:1038D00080420023684607F0D5FE07B05DF804FB80
:1038E000D3F8010070B5064600220121052000F042
:1038F00061FA052000F040FA114802F00BFF114B6D
:1039000098421AD10DF071FC002403E00123AB6052
:103910001C44E4B2012C0ED8214630460BF007FFC0
:103920000546214630460BF00DFF07490AF010FC12
:103930000028EBDA00E0002070BD6FF00400FBE728
:10394000E13701000000AD0B6446020070B505468A
:10395000012806D1324BD3F81C3403F00303022BA9
:103960003CD00EF091FF20B92E4B1B7893B1002371
:1039700000E001231C467BB14FF02003EFF31186DA
:1039800083F31188BFF36F8F94B9254B0222C3F8DC
:1039900008230DE00123EDE70026F5E7FCB13046F2
:1039A00000F082FA1E4BD3F81835DBB2012B1BD086
:1039B0001B4AD2F8183403F00303D2F8182412F487
:1039C000803F25D10022002AE8D0022B01D0012D12
:1039D000E4D1FCB186F31188BFF36F8F70BD212055
:1039E000002108F00BFADDE70F4B1B68002BDFD03E
:1039F0000D4B00221A601B68094B0222C3F81825E0
:103A00000A4B2022C3F88021094B01221A60CFE71C
:103A10000122D8E7024B0222C3F80423DEE700BFED
:103A200000500040D66E01200451004000E100E04B
:103A30000850004010B504460E4B0121D3E8EF2F8B
:103A4000C3E8E01F0028F9D11AB1631E012B0CD97D
:103A500010BD09480BF076FE084900234B60CB608F
:103A600001238B600AF090FBEFE72046FFF76EFF23
:103A7000EEE700BF845B0120183E0200205B0120BE
:103A800021F07F4100F5A870014B43F820107047EA
:103A90000050014000F5A870014B53F8200070471A
:103AA000005001404FF480338340024AC2F844334F
:103AB000704700BF005001404FF480338340024AFA
:103AC000C2F84833704700BF00500140014BD3F8A3
:103AD000040570470050014070B50024002C00DD43
:103AE00070BD4FF48033A340194AD2F80423134227
:103AF00009D004F150039B009BB203F1804303F50E
:103B0000A8331B680BB90134E8E720460BF0ECFE44
:103B10002046FFF7D1FF2046FFF7BCFF0546FFF721
:103B2000D5FF064629460BF0DBFEB0F5000F00D8A6
:103B30002E46084B53F83450002243F83420002D11
:103B4000E1D003EBC4035A6831462046A847DAE7C0
:103B5000005001408C5B012038B5044C44F8302003
:103B600004EBC00463600BF0CBFE38BD8C5B01201E
:103B700038B50846044D2C6821460BF0B1FE0444CC
:103B80002C6008F0C3FA38BD985B012008B500230B
:103B9000124AC2F80835002B18DD114B4FF4001201
:103BA000C3F8802100220121152000F003F915201F
:103BB00000F0E2F801230B4A1360083A13600A4A46
:103BC00013600220FFF736FF002008BD4FF480325B
:103BD0009A400249C1F804230133DCE70050014058
:103BE00000E100E008500140945B012038B5B0F1DD
:103BF000FF3F07D0441E002C07DD104B9C4205DD23
:103C00000F4C03E000F50000F4E70024FFF75EFF2F
:103C10000C4B1D6829460BF063FEB0F5000F00D376
:103C2000002421180131B1F5000F00D3044900230D
:103C3000054A29441846FFF78FFF38BDFEFF7F0075
:103C4000FFFF7F00985B0120713B010008B5FFF783
:103C50003DFF024B19680BF043FE08BD985B012045
:103C600008B507F0B7FD02480BF0EBFE08BD00BF3A
:103C70009C5B012008B507F05DFE02480BF0F8FEE2
:103C800008BD00BF9C5B01200A4A9368C3F8AC00E2
:103C900009490968C3F8B01008494B6843F08053DC
:103CA0004B60002383F31188BFF36F8F9368D3F8C1
:103CB000B0007047186C0120EC4A020000ED00E0F3
:103CC00023498A6882F8F5E04FF030001044EFF3A2
:103CD000098C80E8F01F1EF0100F03D102F1B40030
:103CE00080EC108A202080F31188BFF36F8F194F6A
:103CF0004FF000664A6A8A603E6092F9F5E0D2F8B9
:103D0000AC000023C2F8AC3080F311881EF0100F15
:103D100003D00023E1EE103A03E002F1B40090EC8E
:103D2000108AEFF3148323F0040383F31488BFF3A2
:103D30006F8F02F1300090E8F01F8CF3098802F1D8
:103D4000000004B50BF040FEBDE8044070470000E1
:103D5000186C012004ED00E01EF0040F0CBFEFF31F
:103D60000880EFF30980816911F8021C0229FFD055
:103D700001B50BF032FE01BD43B2002B08DB00F0B1
:103D80001F005B09012202FA00F0024A42F82300F8
:103D9000704700BF00E100E04209054B53F82220C4
:103DA00000F01F00012303FA00F01040704700BF2D
:103DB00000E100E0013143B2002B08DB4901C9B248
:103DC00003F1604303F5614383F80013704700F08B
:103DD0000F004901C9B2014B1954704714ED00E0BE
:103DE00008B572B6044B186A08B962B608BD00225D
:103DF0001A620EF081FDF8E7186C012010B4A2F1F0
:103E00002004104921F0010142F8081C42F8203C2E
:103E1000019B42F81C3C029B42F8183C039B42F871
:103E2000143C4FF0807342F8043C04650023C0F852
:103E3000AC30C0F8F430BC2380F8F5305DF8044BAA
:103E4000704700BF41E2010008B504460E46154622
:103E50000BF0AEFD094B9C60D4F89C3083F30B88CB
:103E6000284686F30988002163B681F31188BFF3E1
:103E70006F8F002200230AF0E3F900BF186C0120C5
:103E8000014910220A60704710ED00E072B6404010
:103E900080F31188BFF36F8FBFF34F8F30BF62B6CF
:103EA000BFF36F8F704700BF72B6494081F311882E
:103EB00020BF80F3118862B6704700BF30BFFFF7A4
:103EC000FDBF00BF08B5144B144A22F07F029A6070
:103ED000BFF34F8FBFF36F8FD3F8882022F47002A7
:103EE000C3F88820D3F8882042F4A002C3F88820C1
:103EF00003F50C734FF040425A60BFF34F8FBFF38E
:103F00006F8F0023E1EE103A07F08AF807F0F2FF16
:103F100000F056F907F0AAF800ED00E000000100FB
:103F200001B572B60B4A106A00281EBF002111624B
:103F30000EF0E2FC62B6EFF30580A0F110004FEA4C
:103F4000C0000549014409C99847BDE8014003493B
:103F500008470000186C0120C03E0200A541010086
:103F60000FF010FF202080F3118808484FF4006103
:103F7000401880F30988EFF314800221084380F38E
:103F80001488BFF36F8FFFF79DFF0000608501204D
:103F9000EFF30880EFF3098101B5724600F0A2F853
:103FA00001BD00BF10B51446134B9A6A9A6A9B6A0A
:103FB00013F0020F0BD0104B5A6B9B6A13F0800F5B
:103FC00005D021B10C4A936A23F0800393620A4B17
:103FD0009A6A9A6A9B6A13F0100F01D1064B9B6A8A
:103FE000054A936A43F0FF03936201210BF001FD40
:103FF0002070002010BD00BF00ED00E010B5144699
:10400000124B9A6A9A6A9B6A13F4007F0BD00F4B8B
:104010009A6B9B6A13F4004F05D021B10B4A936A47
:1040200023F400439362094B9A6A9B6A13F4807FDE
:1040300001D1064B9B6A054A936A43F47F4393621E
:1040400001210BF0D6FC2070002010BD00ED00E037
:104050000A4B9A6A9A6A986A10F480100BD1074B3F
:104060009A6A9A6A9A6A9A6A9A6A6FEA02426FEA46
:1040700012429A6270470220F1E700BF00ED00E0B3
:1040800000230B70144BDA6A12F0020221D110B532
:104090000446D86A10F0804010D028331B7843B90A
:1040A0000E4B1B785BB90E4B1B889BB26BB910464D
:1040B00004E00A4601212046FFF774FF10BD0A46BE
:1040C00001212046FFF79AFFF8E72046FFF7C0FFDF
:1040D000F4E70020704700BF00ED00E029ED00E0AC
:1040E0002AED00E070B59CB00C46274B5968C1F32F
:1040F0000801002383F31188BFF36F8F02F07F4321
:10410000B3F17F4F15D112F0010F1FD112F0400F04
:1041100005D112F0080F0AD1044601260BE012F077
:10412000040F01D0002606E00446002603E0002626
:1041300001E0002634460DF16F0220460BF05EFCD4
:1041400005469DF86F3023B11CB070BD0026344683
:10415000F1E76822214601A80EF00DFF4EB1089B41
:10416000C3F308025AB96FEA53236FEA4323089353
:1041700005E0089B23F4FF7323F00103089301A9D2
:1041800028460BF026FCDFE700ED00E0044B5A69FF
:1041900042F010025A615A6942F480625A617047D3
:1041A00000ED00E0044B9968586A884203D0034947
:1041B0004FF080520A607047186C012004ED00E057
:1041C000002206E002F00F01094B0B442021197672
:1041D0000132402A0ADC53B2002BF3DB03F16043C7
:1041E00003F56143202183F80013F1E7704700BF16
:1041F000FCEC00E008B5084B9B68834202D007F056
:104200003FFE08BDEFF30583002BF8D0034A536847
:1042100043F080535360F2E7186C012000ED00E09A
:1042200010B584B0094C2346094A012109480BF016
:1042300075FC00230393084B0193E41A02940121B7
:1042400001A80BF06FFC04B010BD00BF00000420FB
:10425000004501207C46020000490120014B024A32
:104260001A63704790ED00E0AAFF440010B40B6899
:1042700023F01F020C7A04F01F031A43CB6823F0CB
:104280001F03640943EA440343F0010303498860C0
:10429000CA600B615DF8044B704700BF90ED00E011
:1042A0002DE9F04F87B08146009101931446002715
:1042B00034E06FF0150653E0D84569D12946F0B2D5
:1042C0000BF011FC29E0584B9860D96801F01F01F0
:1042D00022F01F020A43DA602946E0B20BF003FC29
:1042E000044610F1160F00F09780013415E0013BF1
:1042F0004D4A9060116901F01F0123F01F030B4329
:1043000013612946E0B20BF0EEFB044610F1160FE4
:1043100000F08280013400E001340137009B9F42AD
:104320007ADA07EB47054FEA850A09EB8505D5F8E8
:104330000480B8F1000FF0D0019B23B128460BF0A8
:10434000B5FB002864D059F80AB058460BF0A4FB1E
:10435000064608EB0B0001380BF09EFB8642A8D105
:1043600016F1160F57D0631EB34259DB30462E4B61
:104370009E60D96821F01F019E601B6943F01F08F1
:1043800059F80A306A681A4402F1FF3B994293D007
:10439000994298D0D845AAD0013B23490646886067
:1043A0000A6902F01F0223F01F0313430B61294621
:1043B000E0B20BF098FB044610F1160F2CD0013040
:1043C000194B9E60D9689DF8102061F304028DF8A6
:1043D00010201B69C3F34203D2B263F347128DF876
:1043E000102059F80A306A681344029323F01F031F
:1043F000A8EB0B084344013B23F01F03059302A9DC
:10440000C0B20BF065FB044610F1160F84D103E037
:104410006FF0150400E03446204607B0BDE8F08F89
:104420006FF01504F8E700BF90ED00E010B5034C05
:1044300001232278FFF734FF207010BD7D6C01202E
:104440002DE9F84307468846002403E06FF0150580
:1044500017E00134A0453CDD04EB44039A0007EB70
:1044600083035E68002EF4D057F8029048460BF0A4
:1044700013FB054606EB090001380BF00DFB8542E6
:10448000E4D104EB8403164A42F8235015F1160FC9
:1044900020D0144B1B78AB421FDD04EB840302EBEE
:1044A0008303114A95609560D568187B65F3040015
:1044B00018731069C0F342001D7B60F347151D732C
:1044C000D16821F01F015960126922F01F021A61A0
:1044D000BFE700252846BDE8F8836FF01505F9E72A
:1044E000245C01207D6C012090ED00E0034B05224F
:1044F0005A60BFF34F8FBFF36F8F704790ED00E0AE
:10450000BFF35F8F014B00225A60704790ED00E0CF
:1045100038B50E4B1D68102D15D8FFF7F1FFFFF7CA
:104520009DFE0024A54208D9084B596801EB0411EF
:104530002046FFF79BFE0134F4E7054B1D70FFF7A3
:10454000D5FF002038BD4FF0FF30FBE7B846020032
:104550007D6C0120014B1860704700BF3045012081
:10456000F8B505460F46002404E0094B1B68307877
:1045700098470134BC4208DA2E192B5D0A2BF4D17E
:10458000034B1B680D209847EFE73846F8BD00BF86
:10459000304501200246084B1968084BC8180A44E8
:1045A000C3F1005303F580239A4202D2024B1A60F2
:1045B00070474FF0FF307047385C0120D0920120E7
:1045C00008B54FF0FF324FF0FF33024806F064FFAA
:1045D00008BD00BF3445012008B5024806F0E6FFDB
:1045E00008BD00BF3445012008B51D220449022042
:1045F0000BF0A1FA404080F311884FF0030002DF76
:104600008846020038B504464FF0FF324FF0FF33C2
:10461000204806F041FF34B123680C33D3E8AF3FA4
:1046200013F0010F32D123689A7EE2B934B33BB361
:104630005B683BB39B683BB3012120469847051E4E
:104640000CDB23680C33D3E8EF2F42F00102C3E800
:10465000E12F0029F7D120460BF082FA0D4806F031
:10466000A5FF284638BD0C33D3E8EF2F42F00102F6
:10467000C3E8E12F0029F7D10025EFE70025E0E7A7
:104680000025DEE70025DCE70025DAE76FF0770597
:10469000E4E700BFF847012010B54FF0FF324FF0BC
:1046A000FF330C4806F0F8FE0B4C00E004340B4BD3
:1046B0009C420AD223681B689B68002BF6D01B68BB
:1046C000002BF3D020469847F0E7024806F06EFF33
:1046D00010BD00BFF8470120DC480120E048012060
:1046E00010B50A4C03E02046FFF78CFF0434084B5A
:1046F0009C420AD2002CF6D023680C33D3E8AF3F9B
:10470000C3F3C003002BF1D1EDE710BDDC4801205D
:10471000E048012070B443685E68304B1340304875
:10472000834227D012D8062B26D004D9B3F5801F98
:1047300009D1012016E00BB3022B01D1042011E0B6
:104740006FF015003CE06FF0150039E0254883421A
:1047500016D0B3F5A00F01D1032003E0B3F5800F0D
:1047600039D1022012F0100F0CD112F0200F29D0F5
:10477000012408E00720F5E70620F3E70020F1E731
:104780000520EFE70324C2F3402312F4807F0CBF1F
:104790000125002512F4007F05D012F4006F13D01C
:1047A00001228A40B26001F01F0143EA450343EA57
:1047B000840343EA002380310B4A42F82130002071
:1047C00070BC70470024DEE712F4806FEBD001224A
:1047D0008A40F260E7E76FF01500F1E70600F000AD
:1047E000060010000200400000258440F0B4056976
:1047F0004668E9686A69AB69134321EA030101224B
:10480000002011E04FF0020C03F01F030F4F803324
:1048100057F8234024F4403444EA0C4447F823403A
:1048200021EA02010130520071B10A42FAD0347A11
:1048300000F01F0343EA44132C69C44014F0010F35
:10484000E0D14FF0030CDFE7F0BC70470025844057
:10485000F0B58E4603694168D8685A699C6922435D
:1048600020EA020C4A681269186950402CEA0000DC
:104870006446012200250DE003F01F03134F80332F
:1048800057F8236026F4403647F8236024EA0204F0
:1048900001355200CCB12242FAD00E7A05F01F0346
:1048A00043EA461312EA0C0FE6D103F01F068036E6
:1048B000064F57F82660C6F30146022EDCD1DEF81B
:1048C00000601643CEF80060D6E7F0BD00258440B6
:1048D00070B582B00023019300932E4B1C680CB975
:1048E00000210AE069462C48FFF7B2FF0190294BEE
:1048F00000221A601B68F3E70131072926D801F16D
:1049000040039B009AB201238B402448D0F8040353
:104910000342F1D002F1804303F544331B68002BBE
:10492000EAD001F5A2731D4850F82300C0F304201B
:10493000012303FA00F0019B0343019302F180433A
:1049400003F5443300221A601B68D5E7019E16B9AF
:10495000DCB902B070BD124B596819B10D4649B1AE
:104960000D6807E00D4605E06DB12B4605B12B68DB
:1049700029461D460029EBD08A683240F4D04B68A6
:1049800005489847F0E72B46F2E70348FFF72EFF6C
:10499000DFE700BF7C110340903E0200001003409F
:1049A000405C012010B5144BD3F80443E4B200235B
:1049B00000E00133072B1DD803F5A2720E4951F810
:1049C0002220C2F304229042F3D124FA03F212F01F
:1049D000010FEED00A4603F5A27051F8201021F025
:1049E000010142F8201001219940C2F80813D8B201
:1049F00001F0D8FF10BD00BF0010034070B582B0B9
:104A000004460D460DF1070001F0E8FF1C4B9842EB
:104A100032D19DF8073003F140029200194E03F5A0
:104A2000A27356F8231021F4473121F4407146F85F
:104A3000231056F82310240204F4F8542D0405F42E
:104A400040352C430C4346F8234002F1804303F5E4
:104A50004433002018601B689DF8071001F5A2730D
:104A600056F8232042F0010246F8232001238B4010
:104A7000C6F8043302B070BD6FF01200FAE700BF51
:104A80000000AD0B0010034070B50C46066943688A
:104A90001B7A01F01F0545EA43152846FFF782FF00
:104AA00005F01F021E4902F1800051F8203023F466
:104AB000403341F82030F368E34013F0010F2DD06C
:104AC0007369E34013F0010F13D0B369E34013F0AF
:104AD000010F07D1316921FA04F414F0010F06D057
:104AE000012100E003212846FFF788FF17E002219B
:104AF000F9E7316921FA04F414F0010F0CD1032015
:104B00000749803251F8223023F4403343EA00430E
:104B100041F82230002002E00220F1E7002070BDC1
:104B20000025844070B5046945682E7A01F01F05A0
:104B300045EA4615B2F5A03F25D0B2F5005F2ED06C
:104B4000E56801268E403543E560B2F5A03F2CD0E4
:104B5000626901258D4022EA05026261B3F5C02F2A
:104B600028D0A26901258D4022EA0502A261B3F591
:104B7000802F24D0236901228A4023EA0203236183
:104B8000FFF782FF70BD05F01F0580350E4E56F809
:104B9000255015F0010FD0D06FF08500F2E7E568E1
:104BA00001268E4025EA0605CEE7626901258D4083
:104BB0002A43D2E7A26901258D402A43D6E723691B
:104BC00001228A401343DAE70025844008B50B4BE5
:104BD0001B780BB1002008BD084B01221A7000227F
:104BE00005213120FFF7E6F83120FFF7C5F8044B27
:104BF0004FF00042C3F80423ECE700BF7E6C0120B5
:104C000000100340034BD3F8003413F0010FF9D028
:104C1000704700BF00900340024B0B6001231360FC
:104C2000704700BF605C01200048704730470200B9
:104C300070B50C4615460CF015FB06460CF00EFB45
:104C4000844225D2002C27DBA84228D36319834253
:104C500028D8B4FBF6F306FB134333BBB5FBF6F3DE
:104C600006FB135323BBB54201D2002412E0124EBF
:104C70004FF0FF324FF0FF33304606F003FD294678
:104C800020460AF0EDFF0446304606F0D3FC01E072
:104C90006FF01504204670BD6FF01504FAE76FF051
:104CA0001504F7E76FF01504F4E76FF01504F1E76A
:104CB0006FF01504EEE700BF685C0120F8B50C4604
:104CC00016461D460CF0CAFAA04221D9002C23DB5F
:104CD000A84224D36319834224D814F0030F24D1AB
:104CE00015F0030F24D10DB9002413E0124F4FF03B
:104CF000FF324FF0FF33384606F0C4FC2A463146F7
:104D000020460AF0CCFF0446384606F093FC01E04A
:104D10006FF015042046F8BD6FF01504FAE76FF048
:104D20001504F7E76FF01504F4E76FF01504F1E7E9
:104D30006FF01504EEE700BF685C012010B501229A
:104D4000114606480DF007FE0CF090FA044C206066
:104D50000CF088FA6060002010BD00BF685C012084
:104D6000605C012043681A68B1F5164F6FD03AD8DD
:104D7000B1F5165F6ED00AD9B1F5E14F75D024D9DF
:104D800047F6122399422BD14FF4000313E0B1F5FB
:104D9000966F61D007D9B1F5166F63D0B1F5965F04
:104DA00010D13C4B07E0B1F5967F58D0B1F5167F96
:104DB00005D14FF41C33C2F82435002070476FF042
:104DC000150070476FF015007047B1F5615F4ED068
:104DD000B1F5964F01D1304BEDE76FF015007047FC
:104DE0006FF015007047B1F5613F42D009D9B1F5B8
:104DF000612F46D01FD9294B994248D14FF080539B
:104E0000D9E7B1F5963F37D005D9B1F5E13F0FD1DC
:104E10004FF0EB73CFE74DF6C02399422ED0B1F59A
:104E2000614F02D14FF46B03C5E76FF01500704777
:104E30006FF0150070471A4B994225D0B1F5E12F5C
:104E400002D14FF0E863B6E76FF0150070474FF4FA
:104E50001D03B0E7134BAEE74FF49E23ABE74FF4CF
:104E6000A033A8E74FF41D23A5E70F4BA3E70F4B93
:104E7000A1E74FF06C739EE70D4B9CE74FF4650381
:104E800099E74FF0706396E74FF0806393E76FF018
:104E90001500704700B0130000A04E0040420F0004
:104EA00090D003000050270000C0750000F03A00C9
:104EB00000903A012DE9F04105460F46D0F81080E8
:104EC0000DF0E2FC20B9164B1B78ABB1002300E0DB
:104ED00001239BB14FF02003EFF3118483F311887A
:104EE000BFF36F8F264628460BF024F850B984F3A1
:104EF0001188BFF36F8FEDE70123EAE728460BF037
:104F000037F90646414601F8147F012228460BF086
:104F10002BF886F31188BFF36F8FBDE8F08100BFD7
:104F2000D66E012038B505460C4601F1160001F099
:104F3000E9FC0A4B98420ED1A37D43F00043C5F82B
:104F4000A031C5F88C30A27D01239340044AC2F8F9
:104F50000435002038BD6FF00400FBE70000AD0B06
:104F6000007001402DE9F04106460C4643681D687B
:104F700007690023C5F8003538600B6803F01F028D
:104F800001239340404A93600B6803F01F03803372
:104F9000032142F823106368B3F1FF3F05D003F00B
:104FA0001F0380330C2142F8231022686368C5F880
:104FB0000C25C5F81435A368B3F1FF3F06D003F004
:104FC0001F038033304A0C2142F82310E368B3F109
:104FD000FF3F0DD003F01F03012202FA03F32A4A18
:104FE0009360E36803F01F038033032142F823102A
:104FF000E268A368C5F80825C5F8103531690431A1
:1050000030460AF02AFF804698BB73685B6813F04D
:10501000080F31D10823C5F800356368B3F1FF3FAD
:105020000CD00023C5F81031D5F8103107F1150365
:10503000C5F834350123C5F838352B6073685B68D3
:1050400013F0080F03D14FF48073C5F8043373686D
:105050005B6813F0100F03D04FF48003C5F80433DE
:105060001437C5F844750023C5F848350123AB60F3
:10507000EB604046BDE8F08139462846FFF752FF15
:105080000028C7DA8046F4E70025844030B585B0B3
:1050900005460A4B6C460FCB84E80F000022012125
:1050A0000820FEF787FE0820FEF766FE0122214653
:1050B0002846FFF757FF05B030BD00BF5041020042
:1050C00010B51D4B1B78C3B1002211462A20FEF7F4
:1050D00071FE0021194805F0E1FD194B18604FF0F1
:1050E000FF324FF0FF33174806F0D6F9164B186819
:1050F000E0B1044678B104680DE0134B00221A6059
:105100005A6010480DF020FC0B4B01221A70DBE7AF
:10511000234620461C4648B1043006F08BFA002C8A
:10512000F6D02346002CF4D02368F2E7054806F0B9
:105130003DFA002010BD00BF7F6C0120A447020093
:10514000A85C0120B45C0120AC5C0120D0B588B023
:105150000122002102A80DF0FEFB4FF0FF324FF0BC
:10516000FF33244806F098F900230193224B5B6833
:10517000FBB101AA1A60204B5A601E4C204606F073
:1051800015FA4FF0FF364FF0FF3732463B4602A884
:1051900006F078FA32463B46204606F07DF9164B7B
:1051A0001B680021A3B101AA934207D019461B68CE
:1051B000F8E7114B01AA5A601A60DEE769B1019B5A
:1051C0000B600D4B5A6801AB9A4210D0002301933B
:1051D000084806F0EBF908B0D0BD019A064B1A60FA
:1051E000596801AB9942F1D1034B5A60EEE7024B8B
:1051F0005960EBE7B45C0120AC5C012030B404469C
:1052000000251148034600E008339BB10E4A934243
:1052100010D3503293420DD21A68A24211D042B13B
:105220000A4A12685968521A9542EDDA154618462C
:10523000EAE718460460054B1B68013B436030BC3D
:1052400070471846FBE700BF205D0120FC5C012091
:10525000014B1B6843607047FC5C012008B5426845
:10526000044B1B689A4201D1012008BDFFF7F0FFF3
:105270000020FAE7FC5C012038B504464FF020031B
:10528000EFF3118583F31188BFF36F8F06F0E2FD12
:10529000FFF7B4FFFFF7E2FF38B100232360074BAD
:1052A0005B683BB11C60054B5C6085F31188BFF304
:1052B0006F8F38BD014B5C601C60F6E7185D012004
:1052C00010B54FF02003EFF3118483F31188BFF37F
:1052D0006F8F0146144B1B6800226BB1994202D0BC
:1052E0001A461B68F9E792B1036813600E4B5B68BE
:1052F000984215D00023036006F0ACFDFFF77EFF57
:10530000FFF7A6FF84F31188BFF36F8F10BD02680B
:10531000054B1A605B689842ECD1034B5A60E9E791
:10532000014B5A60E6E700BF185D0120684620F097
:1053300007018D4619B5104BD3E8EF2F0132C3E8B2
:10534000E12F0029F8D101F025FE0C4B1C6800E08C
:105350001C4644B1201D06F06DF92346002CF7D001
:105360002368002BF4D1FEF73BFDFEF71BFFBDE8E1
:1053700019408546704700BFFC5C0120185D012084
:1053800008B50138802800F24581DFE810F081007F
:105390008600430143018B004301430190009500C7
:1053A000430143019A009F00A400430143014301CC
:1053B0004301430143014301A9004301AE004301FE
:1053C00043014301430143014301430143014301BD
:1053D0004301B3004301B800430143013901BD005B
:1053E000C200C700CC00D1004301D600DB0043015E
:1053F000E000E500EA003E01EF004301F400F9009F
:1054000043014301FE000301430143014301430102
:10541000430143014301430143014301430143016C
:10542000430143014301430143014301430143015C
:10543000430143014301430143014301430143014C
:10544000430143014301430143014301430143013C
:105450004301430143014301430143014301080167
:105460004301430143014301430143010D01430152
:105470001701120143014301430143014301430169
:105480004301430143011C01210127012D01330187
:105490000AF057FB0123036008BD0AF052FB022308
:1054A0000360F9E70AF04DFB05230360F4E70AF017
:1054B00048FB08230360EFE70AF043FB092303607E
:1054C000EAE70AF03EFB0C230360E5E70AF039FB4C
:1054D0000D230360E0E70AF034FB0E230360DBE7F3
:1054E0000AF02FFB16230360D6E70AF02AFB1823E5
:1054F0000360D1E70AF025FB0B230360CCE70AF039
:1055000020FB21230360C7E70AF01BFB6B2303602A
:10551000C2E70AF016FB6D230360BDE70AF011FB3A
:105520007B230360B8E70AF00CFB7C230360B3E73E
:105530000AF007FB5F230360AEE70AF002FB6A2371
:105540000360A9E70AF0FDFA70230360A4E70AF0FC
:10555000F8FA732303609FE70AF0F3FA72230360FB
:105560009AE70AF0EEFA7E23036095E70AF0E9FA7B
:105570006823036090E70AF0E4FA7F2303608BE777
:105580000AF0DFFA8023036086E70AF0DAFA742370
:10559000036081E70AF0D5FA6F2303607CE70AF025
:1055A000D0FA6923036077E70AF0CBFA752303602A
:1055B00072E70AF0C6FA772303606DE70AF0C1FAD2
:1055C0007823036068E70AF0BCFA8C23036063E782
:1055D0000AF0B7FA40F2D17303605DE70AF0B1FA5E
:1055E00040F2D273036057E70AF0ABFA40F2D3738C
:1055F000036051E70AF0A5FA40F2D47303604BE769
:105600000AF09FFA7A23036046E70AF09AFA7123B8
:10561000036041E70AF095FA014B03603CE700BFE5
:10562000ADBAADBA38B503682BB10A4CA34202D368
:105630003034A34209D3084C23785D1C257003EB5A
:105640004303044C04EBC303036000680DF083F9CB
:1056500038BD00BFCC5C0120806C0120024B4FF0B4
:105660008052C3F80021704700E100E0024B4FF088
:105670008052C3F88021704700E100E0024B4FF0F8
:105680000052C3F80021704700E100E0024B4FF0E8
:105690000052C3F88021704700E100E008B50146E0
:1056A0000022002301480DF0BBF808BD804701200F
:1056B00008B5014601480DF0BEF808BD804701203D
:1056C00008B501460022002301480DF0A9F808BDE5
:1056D000045D012008B5014601480DF0ACF808BD95
:1056E000045D012010B50D4B00241C605C600C4B68
:1056F000D3E8EF2FC3E8E14F0029F9D10AF041FECA
:105700000AF035FE074B1C60074B1C604FF400523B
:10571000064907480DF031F810BD00BF185D0120A3
:10572000FC5C0120C85C0120005D0120E804012030
:10573000045D0120002305E0044A4FF0FF3142F8E8
:1057400033100133072BF7DD00207047F85D01208F
:1057500038B50446084D4FF0FF324FF0FF3328466E
:1057600005F09AFE4FF0FF33236000236360284664
:1057700005F01CFF38BD00BFA847012038B504461E
:105780004FF0FF324FF0FF330C4805F085FE002349
:1057900000E00133072B0BDC094A52F83320B2F149
:1057A000FF3FF6D1064A02EBC30542F8334000E062
:1057B0000025024805F0FAFE284638BDA84701201A
:1057C000F85D01202DE9F04F83B071B1814692461A
:1057D0000D4600231946EA689A420DD9AA6802EBE1
:1057E000C302526811440133F5E70AF0AAF91623FF
:1057F00003604FF0FF343AE0802903D94FF0000BEB
:10580000D8463AE04FF0FF324FF0FF332C4805F016
:1058100043FE002427460FE0AB68E60003EBC4021A
:10582000526853F83410274838440DF0A4FBAB6895
:1058300033445B681F440134EB68A342ECD8002674
:105840003446B74210DD002C0EDB2B686A680192EB
:1058500000935346BA1B1B49314448460BF0DBF812
:10586000041EEEDD2644ECE7154805F09FFE2046B9
:1058700003B0BDE8F08F0BF1010BEB685B451DD960
:10588000AB684FEACB0703EBCB035B68002BF2D08E
:105890000026AB68DA195268B242ECD9D9592B68A4
:1058A0006868019000935346921B314448460BF0C0
:1058B000B2F8041EDBDB2644A044EAE74446D6E700
:1058C00020480120745D01202DE9F0438BB006468D
:1058D0000C461746FCF7B2FC05463068002D54DB39
:1058E0007CB38FB33B68082B25D0242300936A46F2
:1058F0000DF1040841460CF07BFE061E48DB3046E5
:10590000FFF73CFF814610B364B15FB1D8F80430B3
:10591000022B2FD00A2B1ED118233B6001A9204651
:105920000AF05BFF1C4A49462846FCF7ADFC2846B6
:105930000BB0BDE8F083102300936A460DF1040814
:10594000D8E72246A046D5E73A46B846D2E70AF05D
:10595000F8F80C230360B6F1FF3F12D1B9F1000F44
:1059600002D04846FFF7F4FE284608F0A3FA4FF0AD
:10597000FF35DCE708233B6001A920460AF016FD4D
:10598000D0E730460CF0CFFDE8E74FF0FF35CEE72B
:105990004FF0FF35CBE700BFE04702002DE9F043B1
:1059A00093B001920468A1F58173032B00F2B880D3
:1059B000DFE803F002BC08AF6FF01107384613B000
:1059C000BDE8F08301990A1D01920E6801F10803F8
:1059D0000193D1F8048001F10C030193D1F80890F0
:1059E0004022002102A80DF0E6FA0024274605E037
:1059F00012AB03EBC40343F8400C0134A04538DD7F
:105A0000002212AB03EBC40323F83C2C06EBC405C5
:105A1000EA8056F834009042EADB86224549FCF7DA
:105A2000D3FB10B3026812AB03EBC40343F8402C62
:105A3000B5F9043013F0010F08D012AB03EBC40228
:105A400032F83C3C43F0010322F83C3CB5F9043009
:105A500013F0040FD1D012AB03EBC40232F83C3C7C
:105A600043F0020322F83C3CC7E72023EB800137D8
:105A7000DEE7002FA2DC4A46414602A80CF016FEE3
:105A80000746002300E00133984597DD06EBC3028B
:105A900056F833100029F6DB12A901EBC30131F9E6
:105AA0003A1C11F0010F03D0D18841F00101D180DF
:105AB00012A901EBC30131F93A1C11F0020F03D016
:105AC000D18841F00401D18012A901EBC30131F961
