:10000000301E0020515E0000A5270100B15E0000F7
:10001000B15E0000B15E0000B15E0000B15E0000A4
:10002000000000000000000000000000F558000083
:10003000B15E0000000000009D580000814F0000EC
:10004000115E0000115E0000115E0000115E0000F4
:10005000115E0000115E0000115E0000115E0000E4
:10006000115E0000115E0000115E0000115E0000D4
:10007000115E0000115E0000115E0000115E0000C4
:10008000115E0000115E0000115E0000115E0000B4
:10009000115E0000115E0000115E0000115E0000A4
:1000A000115E0000115E0000115E0000115E000094
:1000B000115E0000115E0000115E0000115E000084
:1000C000115E0000115E0000115E0000115E000074
:1000D000115E0000115E0000115E0000115E000064
:1000E000115E0000115E0000115E0000115E000054
:1000F000115E0000115E0000115E0000115E000044
:10010000115E0000115E0000115E0000115E000033
:10011000115E0000115E0000115E0000115E000023
:10012000115E0000115E0000115E0000115E000013
:10013000115E0000115E0000115E0000115E000003
:04014000115E00004C
:1001440053B94AB9002908BF00281CBF4FF0FF313A
:100154004FF0FF3000F070B9ADF1080C6DE904CE3A
:1001640000F006F8DDF804E0DDE9022304B070478E
:100174002DE9F047089E0D4604468A46002B7FD1A0
:100184008A42174641D9B2FA82F24AB1C2F1200139
:1001940005FA02F39740944020FA01F141EA030A78
:1001A4004FEA17484FEA144C1FFA87F9BAFBF8FED6
:1001B40008FB1EA30EFB09F14CEA0343994206D93E
:1001C400FB1802D2994200F224810EF1FF3E591A23
:1001D400A3B2B1FBF8F008FB101100FB09F943EAE4
:1001E4000144A14505D93C1902D2A14500F20E8172
:1001F4000138A4EB090440EA0E4000211EB1D440AA
:100204000023C6E90043BDE8F08702B9FFDEB2FA75
:1002140082F2002A4FD1CB1B4FEA174E1FFA87F800
:100224000121250CB3FBFEFC0EFB1C302B4608FB06
:100234000CF945EA0045A9450AD97D192CBF0123CB
:100244000023A94502D9002B00F0D9800CF1FF3C12
:10025400A5EB0905A3B2B5FBFEF00EFB105508FB98
:1002640000F843EA0544A04505D93C1902D2A0454B
:1002740000F2C9800138A4EB080440EA0C40BDE751
:100284008B4208D9002E00F0B1800021C6E9000598
:100294000846BDE8F087B3FA83F1002946D1AB42A2
:1002A400C0F0A780824240F2A4800846002EAAD063
:1002B400C6E9004AA7E7C2F12000974001FA02F319
:1002C4004FEA174EC14024FA00F51FFA87F894400C
:1002D4001D43B1FBFEF02B0C0EFB101100FB08FCC0
:1002E40043EA01439C4509D9FB182CBF0121002195
:1002F4009C4502D9002900F095800138A3EB0C033A
:10030400ADB2B3FBFEF10EFB113301FB08FC45EA71
:100314000345AC4505D97D1902D2AC4500F289806C
:100324000139A5EB0C0341EA00417AE7C1F120044D
:100334008B4002FA01F705FA01FCE24020FA04F8C6
:10034400E54000FA01FE134348EA0C024FEA134861
:100354004FEA124C1FFA83F9B5FBF8FA08FB1A5559
:100364000AFB09F04CEA054C60450AD913EB0C0C66
:100374002CBF01250025604501D9002D55D00AF177
:10038400FF3AACEB000C92B2BCFBF8F008FB10CCCB
:1003940000FB09F942EA0C4CE14505D913EB0C0CBE
:1003A40001D2E1453BD8013840EA0A40ACEB090CE4
:1003B400A0FB0789CC4545464A4602D306D1C6452B
:1003C40004D20138B8EB070569EB03022EB3BEEB88
:1003D40005036CEB020C23FA01F20CFA04F42CFA78
:1003E40001F300211443C6E900430CE731463046CB
:1003F40009E7841A65EB030301209A4656E7ACF13A
:10040400020C3D4424E702383C4434E702383C44BF
:10041400EFE6AEF1020E3B44D9E63146F3E602388C
:100424009C44C1E702383B4468E7AAF1020A9C44B1
:10043400A7E702393D4474E7704700BF80B483B036
:1004440000AF78607B68044A9B1ADB0818460C37B7
:10045400BD4680BC704700BFBC70010080B58EB043
:1004640000AFF860B9607A607B687B63BB681B7817
:10047400062B00F2CC8001A252F823F011060000F2
:100484009D040000150500009D0500000306000002
:1004940011060000110600000323002B01D100BF48
:1004A400B5E00FF0A5F9034687F82B3000237B62F3
:1004B4000323002B07D0584B1B681846FFF7BEFFD9
:1004C40003469BB200E000233B8597F820300122CD
:1004D40062F3020387F8203097F820306FF3C503E6
:1004E40087F820303B8DC3F309039AB23B8C62F347
:1004F4008F133B8497F82B30002B04D04749388C5A
:1005040002F0BAFB83E0398C444810F0AEFC7EE084
:10051400BB685B68194642480FF0AAFB0323022B11
:1005240001D800BF73E00FF063F9034687F82F305A
:100534000023FB610323002B07D0374B1B681846AD
:10054400FFF77CFF03469BB200E00023BB853B7EA4
:10055400032262F302033B763B7E6FF3C5033B76D3
:10056400BB8DC3F309039AB23B8B62F38F133B83B6
:1005740097F82F30002B07D0BB68DB681A4629494F
:10058400388B02F079FB42E0BB68DB683A8B194692
:10059400244810F07FFC3AE04FF000024FF00003D3
:1005A40007F1140120480AF06FFE38633B6B002BFF
:1005B4000CD04D231D4A1E491E480FF059FB1E48FE
:1005C4000FF056FB4D2119480FF0AEFF7B69402216
:1005D4001946786B0FF0ABFA38633B6B002B0CD0E9
:1005E4005023124A124913480FF042FB13480FF0EC
:1005F4003FFB50210D480FF097FF00BF07E0BB6899
:100604000433194608480AF0E7FE00E000BF00BFC3
:100614003837BD4680BD00BFC80000205C710100B2
:10062400687101006C710100E00100208471010017
:10063400A0710100AC710100CC710100E8710100EE
:1006440080B586B000AF7860424A07F10C0392E8A7
:1006540003001860043319704FF000024FF00003D8
:1006640007F108013C480AF00FFE78617B69002B12
:100674000CD06723394A3A493A480FF0F9FA3A4814
:100684000FF0F6FA672135480FF04EFF7A683749C4
:1006940078680FF00CFA78617B69002B0CD06A2320
:1006A4002E4A2F492F480FF0E3FA31480FF0E0FAB1
:1006B4006A212A480FF038FFB9680A234022786873
:1006C4000FF06EFA78617B69002B0CD06D23234AFE
:1006D400234924480FF0CCFA26480FF0C9FA6D21BB
:1006E4001E480FF021FF07F10C010A230522786848
:1006F4000FF044FA78617B69002B0CD07123174A00
:10070400174918480FF0B4FA1B480FF0B1FA7121D9
:1007140012480FF009FF4FF4FA704FF000010FF088
:100724006EF802460B46104619460FF0A6F93B7BBD
:10073400194678680FF046FA4FF064004FF0000154
:100744000FF05DF802460B46104619460FF095F976
:10075400C9E700BF54710100E00100208471010069
:10076400A0710100AC710100087201006104000075
:10077400207201003C7201005472010080B582B005
:1007840000AF4FF47A700FF05EF90D480FF083F963
:1007940078607B68002B0CD181230A4A0A490B48F4
:1007A4000FF066FA0A480FF063FA812105480FF04A
:1007B400BBFE7868FFF744FF00BF0837BD4680BD25
:1007C400787201008471010080720100AC71010033
:1007D4008872010080B586B000AF7860396000236C
:1007E4003B6100237B6178680FF0FBF9F8607B685C
:1007F4003A689A60FB68032B09D0FB68032B0ED878
:10080400FB68012B16D0FB68022B04D007E07B6841
:100814001B687B610FE07B681B683B610BE0452331
:10082400094A0A490A480FF023FA452106480FF0FD
:100834007BFE00E000BF7B6800225A607B6918469B
:100844001837BD4680BD00BFA4720100C872010004
:10085400CC72010080B483B000AF7860034A7B6837
:10086400136000BF0C37BD4680BC7047CC0000202D
:1008740080B584B000AF786039603B68FB60FB688A
:100884001B685A1CFB681A60044B1B6878689847FD
:10089400034618461037BD4680BD00BFCC0000207B
:1008A40080B584B000AF786039600023FB6007F145
:1008B4000C013B687A68034800F0FEFE00BF103765
:1008C400BD4680BD7508000080B588B000AFF860F3
:1008D400B9607A603B60FB687B61BB68BB610023E5
:1008E400FB6107F114013B687A68094800F0E4FEF3
:1008F400FA69BB699A4205DAFB691A46FB68134434
:1009040000221A70FB6918462037BD4680BD00BF1F
:1009140099FC000080B588B000AF786039607B68CE
:100924001433FB614FF02003EFF3118283F311883A
:10093400BFF36F8FBA617B61BB69FB60F8690AF032
:10094400FFFF034683F00103DBB2002B0DD08123AC
:100954000E4A0F490F480FF08BF9F9690E480FF052
:1009640087F9812109480FF0DFFDF8690BF020F8C1
:10097400FB683B617B683A689A613A69012178684F
:1009840000F0BCF800BF2037BD4680BDEC7201000A
:10099400147301002C7301004C73010080B586B000
:1009A40000AFF860B9607A60FB689B8B03F00703C3
:1009B4003B617B68002B0EDABB68FA6892E803009F
:1009C40083E80300FB6818460FF0B5F90121F868C5
:1009D4000FF082FA85E03B69062B02D03B69052BB8
:1009E4005DD1BB68FA6892E8030083E80300FB6802
:1009F40018460FF0A0F93B69062B2FD1B8680FF009
:100A0400DBF90346002B04D0B8680FF0D5F9034690
:100A140000E000237B6119E0FB68DB8B01339AB2B1
:100A2400FB68DA837B69002B0ED07B6918460FF0D4
:100A3400F6F90346002B05D07B6918460FF0EFF951
:100A4400034602E0002300E000237B617B69002B66
:100A5400E2D10221F8680FF03FFA12E03B69052B5E
:100A64000BD040F20913214A214922480FF000F922
:100A740040F209111D480FF057FD0021F8680FF0EE
:100A84002BFAF8680FF017FB0346002B29D0FB68FC
:100A94009B8B43F020039AB2FB689A8321E03B6965
:100AA400042B11D10021F8680FF016FAF8680FF042
:100AB40002FB0346002B14D0FB689B8B43F02003FE
:100AC4009AB2FB689A830CE040F21B13074A0A4966
:100AD40008480FF0CDF840F21B1104480FF024FD34
:100AE400FFE700BF1837BD4680BD00BF6473010037
:100AF400887301002C730100B073010080B596B0B7
:100B040000AFF860B9607A60FB689B8B03F0070361
:100B14007B6500233B65FB689B8B03F00803002B7C
:100B240014BF0123002387F84B30BB68002B0BD183
:100B340040F23313924A934993480FF099F840F2E4
:100B440033118F480FF0F0FC97F84B30002B21D075
:100B5400BB68012B07D1FB689B8B43F010039AB24F
:100B6400FB689A83F6E1BB68022B0BD04FF49E73AB
:100B7400834A864984480FF07BF84FF49E7180487D
:100B84000FF0D2FCFB689B8B43F020039AB2FB6806
:100B94009A83DFE107F1200318460FF0CCF8002315
:100BA400FB64BB68022B03D1F8680FF084FAB860C9
:100BB400BB68002B00F0CD8100233B65BB68012B93
:100BC4000AD1FB689B693B6507F120033A6D19461E
:100BD400F868FFF7E3FEBFE0BB68032B39D17B6DF8
:100BE400002B0BD04FF4AB73654A694966480FF08C
:100BF4003FF84FF4AB7162480FF096FCFB6818465F
:100C04000FF0F0F80346002B0BD040F257135C4A68
:100C140060495D480FF02CF840F2571158480FF026
:100C240083FCFB681B691B68FB64FB6C002B0BD10A
:100C34004FF4AD73524A584953480FF019F84FF422
:100C4400AD714F480FF070FC0621F8680FF044F9BD
:100C540082E0BB68042B36D17B6D022B0BD040F2B3
:100C64005D13474A4D4948480FF002F840F25D11C0
:100C740043480FF059FCFB68DB8B002B0BD04FF47F
:100C8400AF733F4A464940480EF0F2FF4FF4AF714C
:100C94003B480FF049FCFB681B695B68FB64FB6C19
:100CA400002B0BD140F26113354A3B4936480EF014
:100CB400DFFF40F2611132480FF036FC0421F8687E
:100CC4000FF00AF948E0BB68052B39D17B6D012B85
:100CD4000BD04FF4B2732A4A32492B480EF0C8FFA6
:100CE4004FF4B27126480FF01FFCFB6818460FF052
:100CF40079F80346002B0BD040F26513204A2549AE
:100D040021480EF0B5FF40F265111D480FF00CFCB0
:100D1400FB681B699B68FB64FB6C002B0BD14FF4D5
:100D2400B473174A1C4918480EF0A2FF4FF4B4716B
:100D340013480FF0F9FB0521F8680FF0CDF80BE02C
:100D440040F26B130E4A18490F480EF091FF40F21F
:100D54006B110B480FF0E8FBFB689B8B03F0070358
:100D64007A6D9A4222D0FB68083318460FF03AF89D
:100D7400034683F00103DBB2002B17D0012316E0F6
:100D840064730100B47301002C730100C473010087
:100D9400D8730100E4730100087401002074010099
:100DA4003874010048740100B0730100002387F80F
:100DB4004A3097F84A3003F0010387F84A30002399
:100DC400BB6097F84A30002B0ED107F12003184678
:100DD4000FF008F8034683F00103DBB2002B03D1C4
:100DE400FB6C002B00F08C80FB689B8B43F00803AA
:100DF4009BB27B647B6C9AB2FB689A837B6C03F036
:100E040007037B65FB6814333B647B687B61386C48
:100E14000AF0B2FD034683F00103DBB2002B0DD0D0
:100E2400AC23614A614962480EF022FF396C614883
:100E34000EF01EFFAC215C480FF076FB7B69FB6370
:100E4400FB6B83F31188BFF36F8F00BF00BF97F86C
:100E54004A30002B04D03A6D796DF8680FF09EF893
:100E640007F1200318460EF0BDFF034683F001038B
:100E7400DBB2002B06D007F120013B6D7A6DF868D8
:100E84000FF0F7F8FB6C002B03D0FB6C4A49F868B1
:100E94009847FB681433BB634FF02003EFF31182D0
:100EA40083F31188BFF36F8F7A633B637B6BBB6102
:100EB400B86B0AF045FD034683F00103DBB2002B57
:100EC4000DD08123384A3D4939480EF0D1FEB96B23
:100ED4003B480EF0CDFE812133480FF025FBB86B63
:100EE4000AF066FDBB697B60FB689B8B23F00803FB
:100EF4009AB2FB689A83FB689B8B03F007037B65BC
:100F0400FB689B8B03F01003002B09D0FB689B8BC1
:100F140023F010039AB2FB689A830123BB600EE0AE
:100F2400FB689B8B03F02003002B08D0FB689B8B92
:100F340023F020039AB2FB689A830223BB60FB6808
:100F44009B8B03F007037B65BB68002B7FF427AE04
:100F540000E000BFFB681433FB627B68FB61F86A46
:100F64000AF00AFD034683F00103DBB2002B0DD027
:100F7400AC230D4A0D490E480EF07AFEF96A0D486D
:100F84000EF076FEAC2108480FF0CEFAFB69BB6286
:100F9400BB6A83F31188BFF36F8F00BF00BF00BF2C
:100FA4005837BD4680BD00BFEC720100607401007B
:100FB4002C730100787401001909000014730100F6
:100FC4004C73010080B58EB000AF786039600023A7
:100FD40087F83730002387F83630002387F8353018
:100FE400396878680EF090FF38633B6B002B01DAA8
:100FF4003B6BB9E07B681433BB624FF02003EFF323
:10100400118283F31188BFF36F8F7A623B627B6A2C
:10101400FB60B86A0AF094FC034683F00103DBB278
:10102400002B0DD08123524A524953480EF020FE22
:10103400B96A52480EF01CFE81214D480FF074FA33
:10104400B86A0AF0B5FCFB687B617B689B8B03F094
:101054000703FB627B68DB8B4FF6FF72934203D17D
:101064006FF00A033B633BE0FB6A3B63FB6A022BC2
:1010740009D1012387F835307B68DB8B01339AB2C1
:101084007B68DA832CE0FB6A002B05D0FB6A042B17
:1010940002D0FB6A062B0AD1FB6A002B0CBF01238A
:1010A400002387F83630012387F8373018E0FB6ACD
:1010B400052B03D16FF085033B6311E0FB6A012B21
:1010C4000BD040F2C9132E4A2E492B480EF0D0FD06
:1010D40040F2C9112A480FF027FA6FF004033B636A
:1010E40097F83730002B05D07B683A6811461846CC
:1010F4000EF0A6FE97F83630002B05D07A6902214F
:101104007868FFF7FBFC2EE07B681433FB617B6996
:101114003B61F8690AF030FC034683F00103DBB25B
:10112400002B0DD0AC23124A174913480EF0A0FD32
:10113400F96916480EF09CFDAC210D480FF0F4F946
:101144003B69BB61BB6983F31188BFF36F8F00BF39
:1011540000BF97F83530002B05D00023FA6A3968B0
:1011640078680EF06BFF3B6B18463837BD4680BD80
:10117400EC720100147301002C7301004C73010024
:101184006473010048740100607401007874010004
:1011940080B485B000AF786039600123FB733B688D
:1011A4001B78203B102B43D801A252F823F000BF38
:1011B4001112000035120000351200001D1200004B
:1011C40035120000351200003512000035120000FF
:1011D400351200003512000035120000051200001F
:1011E40035120000F911000035120000351200001C
:1011F400291200007A68137843F00403137019E08D
:101204007A68137843F00803137013E07A6813784C
:1012140043F0100313700DE07A68137843F0200351
:10122400137007E07A68137843F04003137001E009
:101234000023FB73FB7B002B02D03B6801333B6034
:10124400FB7B002BABD17B681B7803F04003DBB244
:10125400002B0BD07B681B7803F00403DBB2002B5C
:1012640004D07A6813786FF3861313703B681846BA
:101274001437BD4680BC704780B483B000AF78603B
:1012840039603B681B784C3B2E2B00F2BE8001A2D8
:1012940052F823F0F11300000F1400000F140000A3
:1012A4000F1400000F1400000F1400000F140000AE
:1012B4000F1400000F1400000F1400000F1400009E
:1012C4000F1400000F1400000F1400000F1400008E
:1012D4000F1400000F1400000F1400000F1400007E
:1012E4000F1400000F1400000F1400000F1400006E
:1012F4000F1400000F1400000F1400000F1400005E
:101304000F140000551300000F140000B513000063
:101314000F140000851300000F1400000F140000C8
:101324000F1400000F1400000F1400000F1400002D
:101334000F140000DD1300000F1400000F14000050
:101344000F1400000F1400000F140000C913000054
:101354003B6801333B603B681B78682B09D17A6892
:101364005378012161F3C60353703B6801333B603A
:1013740051E07A685378022161F3C60353704AE05E
:101384003B6801333B603B681B786C2B09D17A685E
:101394005378042161F3C60353703B6801333B6007
:1013A40039E07A685378032161F3C603537032E05D
:1013B4007A685378052161F3C60353703B6801339F
:1013C4003B6028E07A685378062161F3C6035370C2
:1013D4003B6801333B601EE07A685378072161F370
:1013E400C60353703B6801333B6014E07A6853785A
:1013F400082161F3C60353703B6801333B607A688C
:10140400137843F00203137005E07A6853786FF39E
:10141400C603537000BF3B6818460C37BD4680BCFA
:10142400704700BF80B485B000AF78603960002396
:10143400FB733B685A1C3A601A787B68DA707B68E5
:10144400DB78413B372B00F2C48001A252F823F031
:1014540085150000D7150000D7150000D71500002A
:10146400851500008515000085150000D7150000BE
:10147400D7150000D7150000D7150000D7150000B8
:10148400D7150000D7150000D7150000D7150000A8
:10149400D7150000D7150000D7150000D715000098
:1014A400D7150000D7150000D7150000431500001C
:1014B400D7150000D7150000D7150000D715000078
:1014C400D7150000D7150000D7150000D715000068
:1014D40085150000D71500004315000035150000E0
:1014E400851500008515000085150000D71500003E
:1014F40035150000D7150000D7150000D7150000DA
:10150400D71500009715000043150000B71500001B
:10151400D7150000D7150000B7150000D715000037
:1015240043150000D7150000D7150000431500002F
:101534007A689378012161F30203937005E07A6875
:101544009378022161F3020393707B685B7803F064
:101554007803DBB2402B04D17A68137843F001039B
:1015640013707B68DB78632B39D17B685B7803F07D
:101574007803DBB2002B14BF01230023FB732EE09E
:101584007A689378042161F3020393700123FB7357
:101594002AE07A689378032161F3020393707B68ED
:1015A4005B7803F07803DBB2402B1AD10123FB7381
:1015B40017E07A689378032161F3020393707B68E0
:1015C4005B7803F07803DBB2002B0CD00123FB73B0
:1015D40009E07A68137843F00103137004E000BF54
:1015E40002E000BF00E000BF7B681B78C3F3400348
:1015F400DAB2FB7B1343DBB2002B14BF01230023BD
:10160400D9B27A68137861F3410313703B681846C2
:101614001437BD4680BC704780B485B000AFF86015
:10162400B9607A60FB685B78C3F3C303DBB2072B52
:101634003CD801A252F823F05D16000065160000A4
:101644006F16000079160000811600009116000044
:10165400A1160000A9160000BB687A681A6026E08B
:101664007B685AB2BB681A7021E07B681AB2BB6807
:101674001A801CE0BB687A681A6018E07B681A4616
:101684004FEAE273B968C1E9002310E07B681A46A7
:101694004FEAE273B968C1E9002308E07A68BB68DD
:1016A4001A6004E0BB687A681A6000E000BF00BFFB
:1016B4001437BD4680BC704780B5B0B002AFF86047
:1016C400B9607A603B600023C7F8983000F0CDBC65
:1016D4007B681B78252B16D07B685A1C7A601B7894
:1016E4001A46FB68B96810469847B864BB6C002B6F
:1016F40002DABB6C00F0C0BCD7F898300133C7F8ED
:10170400983000F0B2BC07F1180300221A605A6046
:101714009A60DA601A615A6107F118030833C7F84E
:10172400943007F11803C7F890307B68C7F88C3001
:101734004FF0FF33C7F8A0304FF0FF33C7F89C30A9
:101744000023C7F8A83007F1300316337B61002368
:10175400FB74D7F88C10D7F894000EF0F7FD78607E
:10176400D7F894305B7803F00103DBB2002B15D07B
:101774003B681A1D3A601B68C7F8A030D7F8A03040
:10178400002B18DAD7F89420137843F0040313706D
:10179400D7F8A0305B42C7F8A0300CE0D7F89430FB
:1017A4001B7823F07F03DBB2002B04D0D7F89430EE
:1017B4005B68C7F8A030D7F894305B7803F0040373
:1017C400DBB2002B15D03B681A1D3A601B68C7F8C2
:1017D4008830D7F88830002B06DAD7F8942053786D
:1017E4006FF34103537011E0D7F88830C7F89C3089
:1017F4000CE0D7F894305B7803F00203DBB2002BE3
:1018040004D0D7F894309B68C7F89C30D7F894304C
:1018140000225A60D7F8943000229A60D7F89430A6
:101824009B78C3F30203DBB287F88730D7F8943090
:101834005B78C3F3C303DBB287F8863097F887304D
:10184400012B74D197F88630033B042B0CD801A2EA
:1018540052F823F0851800009D180000B918000004
:10186400D5180000D51800003B681A1D3A601B68A3
:101874001A464FEAE273D7F89010C1E9002333E027
:101884003B681A1D3A601B681A464FEAE273D7F8A0
:101894009010C1E9002327E03B68073323F00703D6
:1018A40003F108023A60D3E90023D7F89010C1E9A4
:1018B400002319E03B68073323F0070303F1080210
:1018C4003A60D3E90023D7F89010C1E900230BE074
:1018D4003B681A1D3A601B681A464FEAE273D7F850
:1018E4009010C1E9002300BF97F88630012B0CD17A
:1018F400D7F89030D3E90023D3B2DAB24FF0000323
:10190400D7F89010C1E90023CAE097F88630022B7B
:1019140040F0C680D7F89030D3E9002313B21AB24E
:101924004FEAE273D7F89010C1E90023B8E097F8C2
:101934008730022B40F0858097F88630033B042BD8
:101944000CD801A252F823F079190000B319000051
:10195400CF190000EB190000EB1900003B681A1DB9
:101964003A601B681A464FF00003D7F89010C1E99B
:10197400002344E0D7F89430DB78632B0BD13B6829
:101984001A1D3A601B681A464FF00003D7F89010EE
:10199400C1E9002333E03B681A1D3A601B681A460C
:1019A4004FF00003D7F89010C1E9002327E03B680B
:1019B400073323F0070303F108023A60D3E9002355
:1019C400D7F89010C1E9002319E03B68073323F0EE
:1019D400070303F108023A60D3E90023D7F8901013
:1019E400C1E900230BE03B681A1D3A601B681A46E4
:1019F4004FF00003D7F89010C1E9002300BF97F817
:101A04008630012B0CD1D7F89030D3E90023D3B220
:101A1400DAB24FF00003D7F89010C1E900233FE099
:101A240097F88630022B3BD1D7F89030D3E90023C6
:101A340093B29AB24FF00003D7F89010C1E9002393
:101A44002EE097F88730042B1FD197F88630082BA7
:101A54000DD13B68073323F0070303F108023A6012
:101A6400D3E90023D7F89010C1E9002318E03B68BC
:101A7400073323F0070303F108023A60D3E9002394
:101A8400D7F89010C1E900230AE097F88730032BB8
:101A940006D13B681A1D3A601A68D7F890301A606C
:101AA400D7F894301B7803F00103DBB2002B07D185
:101AB400D7F894301B7803F00203DBB2002B13D069
:101AC4007B68D7F88C20B968F8680EF001FDF864DB
:101AD400FB6C002B01DAFB6CCEE2FB6CD7F8982090
:101AE4001344C7F89830C0E2D7F89430DB78253B2C
:101AF400532B00F2818101A252F823F0511C000003
:101B0400FD1D0000FD1D0000FD1D0000FD1D000069
:101B1400FD1D0000FD1D0000FD1D0000FD1D000059
:101B2400FD1D0000FD1D0000FD1D0000FD1D000049
:101B3400FD1D0000FD1D0000FD1D0000FD1D000039
:101B4400FD1D0000FD1D0000FD1D0000FD1D000029
:101B5400FD1D0000FD1D0000FD1D0000FD1D000019
:101B6400FD1D0000FD1D0000FD1D0000FD1D000009
:101B7400FD1D0000FD1D0000FD1D0000FD1D0000F9
:101B8400FD1D0000FD1D0000FD1D0000FD1D0000E9
:101B9400FD1D0000FD1D0000FD1D0000FD1D0000D9
:101BA400FD1D0000FD1D0000FD1D0000FD1D0000C9
:101BB400FD1D0000FD1D0000FD1D0000FD1D0000B9
:101BC400FD1D0000FD1D00003F1D0000FD1D000067
:101BD400FD1D0000FD1D0000FD1D0000FD1D000099
:101BE400FD1D0000FD1D0000FD1D0000FD1D000089
:101BF400FD1D0000B91C0000D91C0000FD1D0000E3
:101C0400FD1D0000FD1D0000FD1D0000D91C00008D
:101C1400FD1D0000FD1D0000FD1D0000FD1D000058
:101C2400E71D00003F1D0000951D0000FD1D000084
:101C3400FD1D0000711C0000FD1D00003F1D000083
:101C4400FD1D0000FD1D00003F1D0000FB68B9687C
:101C54002520984738673B6F002B01DA3B6F0BE276
:101C6400D7F898300133C7F89830C8E0D7F89030E7
:101C74001B68C7F8A830D7F89C30002B09DBD7F8CD
:101C84009C301946D7F8A80010F0D2FEC7F8A4007B
:101C940005E0D7F8A80010F0B4FEC7F8A400D7F800
:101CA400A820D7F8A43013447B614FF0FF33C7F862
:101CB4009C30A4E007F13003C7F8A830D7F890307F
:101CC400D3E90023D3B287F8303007F1300301336E
:101CD4007B6194E0D7F894301B7803F00803DBB2FF
:101CE400002B02D02B23FB7409E0D7F894301B7827
:101CF40003F01003DBB2002B01D02023FB74D7F8D0
:101D04009030D3E90023C7E91E23D7E91E23002A14
:101D140073F100030BDA2D23FB74D7E91E2352421F
:101D240063EB4303D7F89010C1E9002305E0D7E93A
:101D34001E23D7F89010C1E90023D7F89030D3E9D7
:101D440000017B6907F1300200931346D7F8942011
:101D54000EF050FBC7F8A800D7F89C30002B4DDBE1
:101D64007A69D7F8A830D31A7B67D7F89420137808
:101D74006FF386131370D7F89C307A6F9A423DD272
:101D84007B6FD7F89C20D21AD7F894305A6035E08C
:101D9400D7F890301B68002B1BD0D7F890301B6805
:101DA40018464FF000017B6907F130020093134697
:101DB400D7F894200EF01EFBC7F8A800D7F894209B
:101DC400937843F010039370D7F894307822DA7044
:101DD400C2E7AB4BC7F8A830D7F8A83005337B610E
:101DE4000DE0D7F890301B68D7F898201946D7F83B
:101DF4009400FFF711FC02E000BF00E000BFD7F839
:101E0400A830002B00F030817A69D7F8A830D31AB3
:101E1400C7F8B4300023C7F8B030FB7C002B04D0E3
:101E2400D7F8B4300133C7F8B430D7F894309B787E
:101E340003F01003DBB2002B05D0D7F8B430023323
:101E4400C7F8B4300CE0D7F894309B7803F008035B
:101E5400DBB2002B04D0D7F8B4300133C7F8B43068
:101E6400D7F894305B681A46D7F8B4301344C7F8EF
:101E7400B430D7F894309B7803F04003DBB2002BE6
:101E840008D0D7F894309B681A46D7F8B430134476
:101E9400C7F8B430D7F8A030002B4EDDD7F8B430F3
:101EA400D7F8A020D31AC7F8A030D7F894301B78FD
:101EB400C3F38003DBB283F00103DBB2002B3CD01D
:101EC400202387F8AF30D7F894301B7803F0400311
:101ED400DBB2002B2AD0FB7C002B12D0FB7C1A46F1
:101EE400FB68B96810469847F866FB6E002B01DA68
:101EF400FB6EC1E0D7F898300133C7F8983000235F
:101F0400FB74302387F8AF3010E097F8AF20FB68FC
:101F1400B96810469847B866BB6E002B01DABB6EF1
:101F2400AAE0D7F898300133C7F89830D7F8A03032
:101F34005A1EC7F8A020002BE7DCFB7C002B10D036
:101F4400FB7C1A46FB68B9681046984778667B6E36
:101F5400002B01DA7B6E8FE0D7F898300133C7F895
:101F64009830D7F894309B78C3F30013DAB2D7F8DB
:101F740094309B78C3F3C003DBB21343DBB2002B72
:101F84000ED0FB68B9683020984738663B6E002B4A
:101F940001DA3B6E70E0D7F898300133C7F8983017
:101FA400D7F894309B7803F01003DBB2002B12D0E7
:101FB400D7F89430DB781A46FB68B968104698471E
:101FC400F865FB6D002B01DAFB6D55E0D7F898300E
:101FD4000133C7F89830D7F894305B68C7F8B0304D
:101FE4000EE0FB68B9683020984738653B6D002BDC
:101FF40001DA3B6D40E0D7F898300133C7F89830E8
:10200400D7F8B0305A1EC7F8B020002BE9DC7B6942
:10201400D7F8A820B968F8680EF05AFAB865BB6D0D
:10202400002B01DABB6D27E0BB6DD7F89820134471
:10203400C7F8983013E0FB68B968202098477865A2
:102044007B6D002B01DA7B6D16E0D7F898300133F5
:10205400C7F89830D7F8A030013BC7F8A030D7F8BC
:10206400A030002BE7DC00E000BF7B681B78002B6E
:102074007FF42EABD7F898301846B837BD4680BDEC
:102084001C75010080B584B000AF78607B68002BBC
:102094000AD0074B43F00103FB607B689B01BB60E4
:1020A400FB68B868984700E000BF1037BD4680BDA4
:1020B40060AA010080B487B000AF78604FF02003BD
:1020C400EFF3118283F31188BFF36F8FFA60BB6063
:1020D400FB687B61084B0122C3F840257B693B61A7
:1020E4003B6983F31188BFF36F8F00BF0023184649
:1020F4001C37BD4680BC70470090035080B483B049
:1021040000AF78607B68044A9B1ADB0818460C37DA
:10211400BD4680BC704700BFBC70010080B588B06C
:1021240000AF3B1D83E807003B79062B03D1214810
:102134000EF022FA3AE00323032B01D800BF34E067
:102144000EF013FA0346FB770023BB610323002B35
:1021540007D0194B1B681846FFF7D0FF03469BB204
:1021640000E00023BB833B7D042262F302033B7542
:102174003B7D6FF3C5033B75BB8BC3F309039AB275
:10218400BB8A62F38F13BB82FB7F002B06D03B79A3
:102194000A4A0B49B88A00F06FFD06E007493B790B
:1021A4001A46BB8A06480EF08CFE00BF00BF2037DB
:1021B400BD4680BD00400050D000002068AA010048
:1021C4002875010080B588B000AF3B1D83E8070087
:1021D4003B79062B3AD00323032B01D800BF36E00A
:1021E4000EF0C3F90346FB7700237B610323002B26
:1021F40007D01D4B1B681846FFF780FF03469BB2B0
:1022040000E00023BB833B7C042262F302033B74A3
:102214003B7C6FF3C5033B74BB8BC3F309039AB2D6
:102224003B8A62F38F133B82FB7F002B06D03B7902
:102234000E4A0F49388A00F01FFD08E00B493B792C
:102244001A463B8A0A480EF03CFE00E000BF002319
:10225400BB61BB6983F31188BFF36F8F00BF00BFFD
:102264002037BD4680BD00BFD00000207CAA0100FD
:102274002875010080B483B000AF7860044A7B689D
:1022840052F8333018460C37BD4680BC704700BF47
:10229400BC70010080B483B000AF78607B68044AEE
:1022A4009B1ADB0818460C37BD4680BC704700BF3C
:1022B400BC70010080B500AF0248FFF7EBFF034696
:1022C400184680BDFC70010080B582B000AF786014
:1022D40039607B68002B09D16B23104A10491148DF
:1022E4000DF0C6FC6B210D480EF01EF93B68002B67
:1022F40009D16C23094A0C490A480DF0B9FC6C2138
:1023040006480EF011F97B681B685B6839687868C9
:10231400984700BF0837BD4680BD00BF487501001F
:102324007C75010094750100B475010080B582B01C
:1023340000AF786039607B68002B09D1B4230C4A64
:102344000C490D480DF094FCB42109480EF0ECF84A
:102354007B681B681B69002B05D07B681B681B69A5
:1023640039687868984700BF0837BD4680BD00BF0C
:10237400487501007C7501009475010080B582B038
:1023840000AF78607B68002B09D1C223084A094951
:1023940009480DF06DFCC22105480EF0C5F87B68B4
:1023A4001B685B697868984700BF0837BD4680BDE5
:1023B400487501007C7501009475010080B582B0F8
:1023C40000AF78600B46FB707B68002B09D1D123EA
:1023D400084A094909480DF04BFCD12105480EF083
:1023E400A3F87B685B68FA781A7100BF0837BD46AA
:1023F40080BD00BF487501007C7501009475010023
:1024040080B483B000AF78607B681B01034A134437
:1024140018460C37BD4680BC704700BFFC700100F5
:1024240080B400AF034A044BD31A1B111846BD46AF
:1024340080BC70470C710100FC70010080B582B053
:1024440000AF786039607B68002B0BD14FF4817347
:102454000A4A0B490B480DF00BFC4FF481710748F5
:102464000EF062F87B685B683A681A607B685B68A8
:1024740001225A7100BF0837BD4680BD487501006E
:102484007C7501009475010080B582B000AF78605E
:102494007B68002B0BD140F21D13084A08490948F8
:1024A4000DF0E6FB40F21D1104480EF03DF87B6888
:1024B4005B685B7918460837BD4680BD48750100E6
:1024C4007C7501009475010080B586B000AF78601A
:1024D40039600023FB7500233B610023FB603B68EC
:1024E400202B35D98023234A234924480DF0C0FBEF
:1024F400802120480EF018F82AE0FB7A252B0ED113
:10250400FB7D002B14BF01230023DBB283F0010306
:10251400DBB2FB75FB7D03F00103FB7518E0FB7D6B
:10252400002B15D0FB7A18460EF086FC0346002BD0
:102534000ED0FB7A732B06D101223B6902FA03F316
:10254400FA681343FB600023FB753B6901333B616D
:102554007B685A1C7A601B78FB72FB7A002B03D0D1
:102564003A693B689A42C8D3FB6818461837BD4697
:1025740080BD00BFE8750100187601009475010064
:1025840080B483B000AF78607B68094A934205D376
:102594007B68084A934201D2012300E0002303F040
:1025A4000103DBB218460C37BD4680BC704700BF40
:1025B400E46D010060AE010080B58AB000AF7860C0
:1025C40078680EF0A0F8034683F00103DBB2002B19
:1025D40055D178680EF04BFF786278680EF0E7FE0C
:1025E40003461946786AFFF76FFF386243E03B6A97
:1025F400B3FA83F3C3F11F03FB61F96978680EF042
:102604000DFF0346BB61B869FFF7BAFF034683F0C9
:102614000103DBB2002B26D0B86900F0F5FA0346BB
:1026240083F00103DBB2002B1DD0174B1B68BA6982
:102634009A4218D078680EF058F8034619460020DC
:102644000EF0CAFC7861D123104A114911480DF0EB
:102654000FFB7B6A7A69F9690F480DF009FBD121F8
:102664000A480DF061FF0122FB6902FA03F3DB4320
:102674003A6A13403B623B6A002BB8D100E000BFCA
:102684002837BD4680BD00BFD4000020E875010096
:1026940030760100947501003476010080B586B06F
:1026A40002AF27480DF0EDFF264B1B78002B16D008
:1026B4004FF02003EFF3118283F31188BFF36F8F80
:1026C4007A603B607B68FB6000200EF0A7FBFB6830
:1026D400BB60BB6883F31188BFF36F8F2CE01A4B88
:1026E4001B68002B19D0164B1B68012B15D14FF416
:1026F4007A704FF000010EF0B3F802460B46104614
:1027040019464FF000024FF00003CDE900230246C2
:102714000B460E480EF040FB0EE0094B1B680A2BDB
:102724000AD1094B1B68002B06D008480EF047FB62
:1027340007480EF068FBFFE700BF1037BD4680BDB9
:1027440014050020680C00201C05002060020020F5
:102754005002002080B586B000AF786039807B6875
:102764003A885A81114B1B68984702467B68DA60A5
:102774004FF02003EFF3118283F31188BFF36F8FBF
:10278400FA60BB60FB687B61796809480DF010FF53
:102794007B693B613B6983F31188BFF36F8F00BF93
:1027A400FFF77CFF00BF1837BD4680BDD80000206E
:1027B4000805002080B582B000AF144B00221A70C7
:1027C4000EF046F80346124A934206DD114B124AB4
:1027D4001A604FF47A737B6006E00E4B0F4A1A605E
:1027E4000EF036F803467B60786801F087F900F054
:1027F400E1FA0B480DF0CDFE0423282209490A48CA
:1028040013F041F800BF0837BD4680BD680C0020B6
:1028140040420F00D80000206D0F01005F0F01003F
:102824000805002030200020E804002080B582B094
:1028340000AFFFF7F5FD0346092B0BD94FF41573D1
:102844001D4A1E491E480DF013FA4FF415711A481B
:102854000DF06AFE1B480DF014FF0346002B27D130
:1028640000237B601DE07B681846FFF7C9FD3860D4
:102874003B681B7B002B11D03B681B689B69002BBA
:1028840004D03B681B689B69386898473B685B6861
:102894001B6804221946386800F03EF97B6801334E
:1028A4007B60FFF7BDFD02467B689342DBDB00E003
:1028B40000BF0837BD4680BDE8750100847601007D
:1028C400947501001005002080B582B000AF7860D7
:1028D400074A7B6813607B68002B06D0054B1B6896
:1028E400092B02DD04480EF08EFA0837BD4680BD80
:1028F4001C050020140500205002002080B582B081
:1029040000AF174B1B78002B26D1FFF78FFF002356
:102914007B6010E07B681846FFF772FD386038680A
:10292400FFF7B2FD0346002B02D03868FFF726FDFF
:102934007B6801337B60FFF773FD02467B6893423B
:10294400E8DB00BF00200EF069FA0346002BF9D142
:10295400034B01221A7000E000BF0837BD4680BD5A
:10296400680C002080B584B000AF78600B46FB7023
:10297400FB7883F00103DBB2002B2DD01A4B1B78BC
:1029840083F00103DBB2002B03D07B681846FFF70A
:1029940013FE0023FB6019E0FB681846FFF730FDC7
:1029A400B860B868FFF770FD0346002B0BD0796858
:1029B400B8680EF0E0FA0346002B04D07B68194691
:1029C400B868FFF781FCFB680133FB60FFF728FD63
:1029D4000246FB689342DFDB7B6818460EF0D3FCAB
:1029E40000BF1037BD4680BD680C002080B586B09E
:1029F40000AF4FF02003EFF3118283F31188BFF38C
:102A04006F8FFA60BB60FB687B6109480DF0F7FDCE
:102A140003467B607B693B613B6983F31188BFF3A9
:102A24006F8F00BF7B6818461837BD4680BD00BF56
:102A34000805002080B500AF05480DF0D5FD03461C
:102A4400002B14BF01230023DBB2184680BD00BF56
:102A54000805002080B584B000AF0346FB71194B14
:102A64001B7883F00103DBB2002B07D0FB7983F0E2
:102A74000103DBB2002B01D000231EE0FFF7B6FFF9
:102A84000346FB60FB68002B07D00F480DF006FEE1
:102A9400FB791946F868FFF765FFFB7983F00103BA
:102AA400DBB2002B06D000F027F80346002B01D040
:102AB4000EF06CFAFFF7BEFF034618461037BD460A
:102AC40080BD00BF690C00201405002080B500AF54
:102AD40002480DF0D6FD00BF80BD00BF18050020E0
:102AE40080B500AF002103480DF0E5FD034618460C
:102AF40080BD00BF1805002080B400AF054B1B68E3
:102B0400002BCCBF01230023DBB21846BD4680BC9A
:102B1400704700BF1805002080B586B000AFF8608C
:102B2400B9607A6001237B610020FFF769FC0246EB
:102B3400FB689B1A1B111A467B6913447B617B69F2
:102B4400DBB21946F868FFF739FC7968F8680EF0CB
:102B540058FAB968F868FFF771FC084B1B7883F0E2
:102B64000103DBB2002B02D005480EF04CF9034BF5
:102B740001221A7000BF1837BD4680BD690C0020C1
:102B84005002002090B587B000AF78607868FFF7F6
:102B9400F7FC0346002B04D10DF0A0FD0346002BE7
:102BA40001D07B6828E04FF000004FF0000107F1EE
:102BB400100402460B462146114808F065FB786173
:102BC4007B69002B02D00F4B1B6815E03B69012188
:102BD40018460DF070FD3B6904331F2279681846CE
:102BE4000FF0DFFE3B697E2283F823203B6900223D
:102BF40083F824203B69043318461C37BD4690BD36
:102C0400E8040020D400002080B483B000AF7860D2
:102C14007B68002B09D07B68084A934205D37B6804
:102C2400074A934201D2012300E0002303F0010389
:102C3400DBB218460C37BD4680BC704730200020FC
:102C4400D020002080B584B000AF78607B68043B5E
:102C5400FB60FB6818460DF021FD0346012B05D1EE
:102C640007F10C031946034808F0B6FB00BF103700
:102C7400BD4680BDE80400200EB480B583B000AF2B
:102C8400B88040F20753084A084909480CF0F0FF9D
:102C940040F2075104480DF047FC00BF0C37BD4615
:102CA400BDE8804003B07047E8750100307601004C
:102CB4009475010080B582B000AF786003480EF0CF
:102CC400A2F800BF0837BD4680BD00BF50020020F7
:102CD40080B584B000AFF860B9607A60FFF7A0FBFC
:102CE4000346002B0BDC40F27453114A114912487D
:102CF4000CF0BEFF40F274510D480DF015FCFFF7C7
:102D040095FD0EF034F803461846FFF7DDFD00206C
:102D14000EF084F8034683F00103DBB2002BF6D0F7
:102D24004FF0FF324FF0FF3304480EF05CF8EEE74B
:102D3400E8750100C8760100947501005002002076
:102D440080B58AB008AF786000221449144813F0A3
:102D5400E7FF4FF000004FF000010DF081FD024647
:102D64000B46CDE90623002304930E23039300238B
:102D7400029300230193002300930A4B4FF48062D3
:102D840009490A480DF0D3FF094908480DF0F6FF38
:102D9400002318460837BD4680BD00BFB92C00008B
:102DA40060020020D52C0000300E00209802002084
:102DB400E476010080B500AF2023202202490348B5
:102DC40012F061FD00BF80BDD0200020200500204E
:102DD40080B582B000AF00233B600EF0C0FA03461A
:102DE400002B08D04FF000004FF000010EF059F90D
:102DF40002460B4603E04FF000024FF00003394651
:102E0400074808F041FA78607B68002B03D000F093
:102E140085F803463B603B6818460837BD4680BDCD
:102E24002005002080B584B000AF786009E07B689D
:102E34001B68FB603B1D1946064808F0CDFAFB6889
:102E44007B607B68002BF2D100BF00BF1037BD460A
:102E540080BD00BF2005002080B586B000AF78603B
:102E64007B6818460EF0A3FAF8607B6818460EF0EB
:102E74003CFA0346002B39D0FB68002B36D00023E4
:102E84003B6100237B612AE07B68796918460EF078
:102E9400C5FA0346BB60B868FFF7B6FE0346002BCD
:102EA4001AD03B69002B0CD17B6818460EF0DFFA70
:102EB4000346F9681846FFF707FB38613B69002BA6
:102EC40012D03A697B6922FA03F303F00103002B61
:102ED40002D0B868FFF7B6FE7B6901337B617A697B
:102EE400FB689A42D0D300E000BF00BF7B681B7A26
:102EF40003F00203DBB2002B04D07B685B69184645
:102F0400FFF790FF3B1D1946034808F065FA00BF20
:102F14001837BD4680BD00BF2005002080B584B0B1
:102F240000AF00237B6001200EF00BFA0346FB7315
:102F3400FFF7CCFD4FF000024FF00003391D0748A6
:102F440008F0A2F9B860BB68002B02D0FB7B002B11
:102F5400E9D17B6818461037BD4680BD20050020A6
:102F640080B586B000AFF860B9607A607B680E2BDC
:102F74000BD940F23B13144A144915480CF078FE5F
:102F840040F23B1110480DF0CFFA00237B617868C2
:102F94000EF078FA78617B69002B10D07B69FA68AF
:102FA4001A617B6803F00F03D9B27A69537A61F32B
:102FB400071353727A68B96878690EF0A6FA7B69C8
:102FC40018461837BD4680BDEC760100187701001D
:102FD4002477010080B584B000AF786039603B6825
:102FE400FB60FB685B681B68FA68D268934202D195
:102FF400F8680EF02DFCFB685B6818460EF0A4FB25
:10300400B8607968FB689A68BB681344CAB21A70DE
:10301400FB685B681B681A46FB68DB689A4209D93F
:103024007323074A074908480CF022FE7321044819
:103034000DF07AFA002318461037BD4680BD00BF54
:103044006477010094770100C47701000EB480B561
:1030540085B000AF78600023FB6007F12003BB60FC
:10306400BB68FA6979680648FEF726FBF860FB68D6
:1030740018461437BD46BDE8804003B0704700BF12
:10308400D92F000080B592B004AFF860B9607A60BF
:10309400BB6803F04403002B14BF0123002387F80B
:1030A400333097F8333083F00103DBB2002B06D0C2
:1030B4007A683849F868FFF7C9FF786365E0364BEA
:1030C4001B68002B5FD0354B1B687A68B2FBF3F3A7
:1030D4007B60314B1B687A68B2FBF3F3FB62FB6ADB
:1030E400BB62BB6A2E4AA2FB0323DB0A7B627B6AB8
:1030F4004FF4616202FB03F3BA6AD31ABB62BB6A80
:10310400284AA2FB03235B093B623A6A13461B016C
:103114009B1A9B001A46BB6A9B1ABB621E4B1A6819
:103124007B68B3FBF2F102FB01F29B1AFB61FB69C2
:103134004FF47A7202FB03F2174B1B68B2FBF3F3F2
:10314400BB61FB694FF47A7202FB03F2124B1B68FA
:10315400B96901FB03F3D31A4FF47A7202FB03F249
:103164000D4B1B68B2FBF3F37B617B690293BB6974
:103174000193BB6A00933B6A7A6A0B49F868FFF7CC
:1031840065FF786301E000237B637B6B1846383767
:10319400BD4680BDE47701004005002044050020C1
:1031A400C5B3A29189888888F077010080B586B07C
:1031B40000AFF8607B600B46FB721346BB72FB7A70
:1031C400002B14D0BB7A002B0AD00B4A7B6852F830
:1031D4002330002B04D0084A7B6852F8233000E0E7
:1031E400064B7B617A690649F868FFF72FFF00BF39
:1031F4001837BD4680BD00BFB0AA01000C7801009D
:103204001478010090B587B000AFF8607B600B467E
:10321400FB721346BB7200237B61FB7A002B0CD03C
:10322400194AFB6A52F823301A461849F868FFF71E
:103234000DFF02467B6913447B61B7F92830002BEC
:103244001DDBBB7A002B09D00122FB6A02FA03F3CF
:1032540003F01003002B01D00D4C00E00D4CB7F926
:103264002830194678680DF0B7FE03461A46214601
:10327400F868FFF7EBFE02467B6913447B617B69C8
:1032840018461C37BD4690BD9CAA01001878010061
:10329400207801002478010080B582B000AF786006
:1032A40039603B6803F01003002B0ED13B6803F038
:1032B4002003002B04D007497868FFF7C7FE05E018
:1032C40005497868FFF7C2FE00E000BF0837BD4635
:1032D40080BD00BF2C78010030780100F0B59DB0AE
:1032E4000EAF78623962786A0EF0C1F83863786A92
:1032F4000EF05DF8F862FB6A9B000733DB08DB0025
:10330400ADEB030D0EAB0733DB08DB00BB62002320
:103314007B630CE0796B7B6B9B00BA6AD418786A88
:103324000EF07CF8034623607B6B01337B637B6B7D
:10333400FA6A9A42EED8786A0EF039F803460F2BEF
:1033440000F28F8201A252F823F000BF91330000F3
:103354009B330000AB330000BF330000DD330000BB
:1033640005340000353400006D340000AD34000035
:10337400F73400004B350000AF3500002336000061
:10338400A73600003B370000CB370000396B386AA2
:10339400FFF75CFE66E2BB6A1B681A46396B386A43
:1033A400FFF754FE5EE2BB6A1A68BB6A04331B680B
:1033B400396B386AFFF74AFE54E2BB6A1A68BB6A83
:1033C40004331968BB6A08331B6800930B46396BD6
:1033D400386AFFF73BFE45E2BB6A1968BB6A0433EF
:1033E4001868BB6A08331B68BA6A0C321268019207
:1033F400009303460A46396B386AFFF727FE31E229
:10340400BB6A1868BB6A04331C68BB6A08331B6850
:10341400BA6A0C321268B96A1031096802910192D1
:10342400009323460246396B386AFFF70FFE19E210
:10343400BB6A1C68BB6A04331D68BB6A08331B681B
:10344400BA6A0C321268B96A10310968B86A143061
:10345400006803900291019200932B462246396B37
:10346400386AFFF7F3FDFDE1BB6A1D68BB6A0433EC
:103474001E68BB6A08331B68BA6A0C321268B96AE0
:1034840010310968B86A14300068BC6A18342468BA
:103494000494039002910192009333462A46396BB7
:1034A400386AFFF7D3FDDDE1BB6A1E68BB6A0433EB
:1034B4001B68FB61BB6A08331B68BA6A0C3212686A
:1034C400B96A10310968B86A14300068BC6A1834E3
:1034D4002468BD6A1C352D680595049403900291F7
:1034E40001920093FB693246396B386AFFF7AEFDEF
:1034F400B8E1BB6A1B68FB61BB6A04331968B96134
:10350400BB6A08331B68BA6A0C321268B96A103194
:103514000968B86A14300068BC6A18342468BD6A43
:103524001C352D68BE6A20363668069605950494C7
:103534000390029101920093BB69FA69396B386A6E
:10354400FFF784FD8EE1BB6A1B68FB61BB6A043331
:103554001968B961BB6A08331B68BA6A0C3212680D
:10356400B96A10310968B86A143000687861BC6AB5
:1035740018342468BD6A1C352D68BE6A2036366846
:10358400B86A00F1240CDCF8000007900696059553
:10359400049478690390029101920093BB69FA69DB
:1035A400396B386AFFF752FD5CE1BB6A1B68FB614B
:1035B400BB6A04331968B961BB6A08331B68BA6A09
:1035C4000C321268B96A10310968B86A143000689C
:1035D4007861BC6A18342468BD6A1C352D68BE6ADB
:1035E40020363668B86A00F1240CDCF80000386133
:1035F400B86A00F1280CDCF80000089038690790DC
:1036040006960595049478690390029101920093BB
:10361400BB69FA69396B386AFFF718FD22E1BB6AA6
:103624001B68FB61BB6A04331968B961BB6A083360
:103634001B68BA6A0C321268B96A10310968B86A30
:10364400143000687861BC6A18342468BD6A1C357B
:103654002D68BE6A20363668B86A00F1240CDCF89E
:1036640000003861B86A00F1280CDCF80000F8604A
:10367400B86A00F12C0CDCF800000990F868089096
:103684003869079006960595049478690390029129
:1036940001920093BB69FA69396B386AFFF7D6FC6B
:1036A400E0E0BB6A1B68FB61BB6A04331968B9615B
:1036B400BB6A08331B68BA6A0C321268B96A1031E3
:1036C4000968B86A143000687861BC6A18342468E0
:1036D400BD6A1C352D68BE6A20363668B86A00F1AA
:1036E400240CDCF800003861B86A00F1280CDCF81E
:1036F4000000F860B86A00F12C0CDCF80000B86037
:10370400B86A00F1300CDCF800000A90B86809903F
:10371400F8680890386907900696059504947869C6
:103724000390029101920093BB69FA69396B386A7C
:10373400FFF78CFC96E0BB6A1B68FB61BB6A043331
:103744001968B961BB6A08331A68BB6A0C33196813
:10375400BB6A10331868BB6A14331C68BB6A18331D
:103764001D68BB6A1C331E68BB6A20331B687B61FF
:10377400BB6A24331B683B61BB6A28331B68FB604C
:10378400BB6A2C331B68BB60BB6A30331B687B602D
:10379400BB6A34331B680B937B680A93BB68099339
:1037A400FB6808933B6907937B6906930596049528
:1037B4000394029001910092BB69FA69396B386AEB
:1037C400FFF744FC4EE0BB6A1B68FB61BB6A043331
:1037D4001968B961BB6A08331968BB6A0C33186885
:1037E400BB6A10331C68BB6A14331D68BB6A183388
:1037F4001E68BB6A1C331A687A61BB6A20331B6873
:103804003B61BB6A24331A68FA60BB6A28331B68BD
:10381400BB60BB6A2C331A687A60BB6A30331B689E
:103824003B60BB6A34331A68BB6A38331B680C9339
:103834000B923B680A937A680992BB680893FA680A
:1038440007923B6906937A6905920496039502945C
:1038540001900091BB69FA69396B386AFFF7F6FB8E
:1038640000E000BF00BF3C37BD46F0BD80B588B066
:1038740000AFF860B9607A603B60B96AF868FFF736
:103884000BFD0023FB6106E03649F868FFF7DEFB19
:10389400FB690133FB61FA693B689A42F4DB00235C
:1038A400BB6120E0BB69002B08DDBB6903F00703A3
:1038B400002B03D12B49F868FFF7C8FBBB697A6872
:1038C4009A4209D9BB69BA6813441B781A46264937
:1038D400F868FFF7BBFB03E02449F868FFF7B6FB81
:1038E400BB690133BB61BB690F2BDBDD2049F86881
:1038F400FFF7ACFB00237B612BE07B69002B08DD29
:103904007B6903F00703002B03D11649F868FFF71E
:103914009DFB7B697A689A4214D97B69BA6813441F
:103924001B78FB74FB7C18460DF063FF0346002BE9
:1039340001D0FB7C00E02E231A460E49F868FFF7FD
:1039440085FB03E00749F868FFF780FB7B690133D7
:103954007B617B690F2BD0DD00BF00BF2037BD46E4
:1039640080BD00BF34780100387801004078010040
:10397400447801004878010080B58CB002AFF8604B
:10398400B9607A603B6000237B62F8680DF06FFDDC
:1039940003461A461149B868FFF758FB10233B61E8
:1039A40007F1100207F114017B6AF8680DF0A3FE19
:1039B4003B69002B0DD03A6907F114013B68009371
:1039C4007B68B868FFF752FF3B697A6A13447B62ED
:1039D400E4E700BF00BF2837BD4680BD147801006E
:1039E40080B586B000AF786039603B68DB68002B37
:1039F4000BD140F2CF13204A204921480CF038F96A
:103A040040F2CF111C480CF08FFD00237B61002392
:103A1400FB743B68DB68FB603B68996807F10C0248
:103A24007B6978680DF067FEFA683B685B681A602A
:103A3400FB68002B0AD03B689A68FB68013B13447F
:103A44001B780A2B0CBF01230023FB7438680DF08C
:103A5400FFFEFB687A6913447B61FB68002BD8D1B5
:103A6400FB7C002B03D007493868FFF7EFFA00BF4F
:103A74001837BD4680BD00BF647701004C78010053
:103A8400C47701005C78010080B586B000AF78602F
:103A940039607B681B687B613B6842F20F7293421A
:103AA40028BF13463B6007F108003B68104A052114
:103AB4000CF029F938617B685B685B680B220D495F
:103AC40078690DF0A8FE3A697B685B685B6807F16A
:103AD400080178690DF09FFE7B685B685B681B22B8
:103AE400054978690DF097FE00BF1837BD4680BDC3
:103AF4006C780100C4AA0100D0AA010080B483B08C
:103B040000AF78600B4B01221A6007E07B685B080A
:103B14007B60084B1B685B00064A13607B68064A9F
:103B24009342F3D8054A7B68136000BF0C37BD4647
:103B340080BC70474405002040420F00400500202F
:103B440080B586B000AFF860B9607A6000237B610D
:103B54000BE00A4B1868FA687B6913441B78194612
:103B64000DF0E5FF7B6901337B617A69BB689A429A
:103B7400EFD3BB6818461837BD4680BD4805002002
:103B840080B584B000AF786039600023FB603A6888
:103B9400F96803480DF079FF00BF1037BD4680BDBA
:103BA400ECAA010080B582B000AF78600B480DF03C
:103BB4009FFF03460A4A1360094B1B68002B09D177
:103BC4004F23084A084909480CF052F84F21054888
:103BD4000CF0AAFC00BF0837BD4680BD7078010018
:103BE4004805002078780100B0780100C47801000D
:103BF40080B582B000AF786003480DF061FF00BF6C
:103C04000837BD4680BD00BFECAA010080B582B074
:103C140000AF78603960396803480DF05CFF00BF7D
:103C24000837BD4680BD00BFECAA01002DE9B04FA6
:103C34008CB000AF78607B681A464FF00003C7E988
:103C44000A238C4B7B624FF400433B620123FB77D6
:103C54000123BB7701237B7700233B77FB7F002B7A
:103C64000FD07A6A3B6A9A420BD23B6A7A6AB3FBF8
:103C7400F2F2796A01FB02F29B1A002B01D10123B3
:103C840000E00023FB76FB7E03F00103FB76FB7F61
:103C9400002B0FD07A6A3B6A9A420BD97B6A3A6A44
:103CA400B3FBF2F2396A01FB02F29B1A002B01D139
:103CB400012300E00023BB76BB7E03F00103BB7647
:103CC4007A6A3B6A9A420AD1BB7F002B04D0BB6A52
:103CD4001A464FF00003C7E0D7E90A23C4E04FF0C7
:103CE40000024FF00003C7E90423FB7E83F00103C5
:103CF400DBB2002B1DD0BB7E002B04D07A6A3B6A5A
:103D0400B2FBF3F300E07B6AFB607B7F002B06D001
:103D1400FB68013B1A464FF00003C7E904233B7FCD
:103D2400002B06D0FB685B081A464FF00003C7E976
:103D34000423BB7E002B2AD0D7E90A01D7E9042348
:103D4400841841EB0305C7E90A45BB7F002B10D05B
:103D5400D7E90A23012B08BF002A0AD2BA6A796A72
:103D64003B6AB1FBF3F3B2FBF3F31A464FF00003E3
:103D74007AE07A6A3B6AB2FBF3F31A464FF0000327
:103D8400D7E90A01FCF7DCF902460B466CE0FB7E3E
:103D9400002B21D0BB7F002B0AD0BB6A396A7A6A18
:103DA400B1FBF2F202FB03F31A464FF000035BE0AF
:103DB4003A6A7B6AB2FBF3F31A464FF00003B96A1E
:103DC40003FB01F0F96A02FB01F10144B86AA0FBAC
:103DD400022319440B4647E0BB7F002B24D03B6AE7
:103DE4001A464FF00003B96A03FB01F0F96A02FBBB
:103DF40001F10144B86AA0FB022319440B46D7E938
:103E0400040112EB000A43EB010B7B6A1A464FF0E4
:103E1400000350465946FCF793F902460B461346F5
:103E24001A464FF000031FE03B6A1A464FF00003A6
:103E3400B96A03FB01F0F96A02FB01F10144B86AB3
:103E4400A0FB022319440B46D7E9040112EB000836
:103E540043EB01097B6A1A464FF00003404649468A
:103E6400FCF76EF902460B46134618463037BD463A
:103E7400BDE8B08F40420F0080B483B000AF7860DB
:103E84007B68044A9B1ADB0818460C37BD4680BC85
:103E9400704700BFBC70010080B586B000AF3B1D09
:103EA40083E807000A4B002B05D03B1D93E807006D
:103EB400FEF788F907E000237B617B6983F31188AF
:103EC400BFF36F8F00BF00BF1837BD4680BD00BF72
:103ED400C921000080B584B000AF3B1D83E8070012
:103EE400054B002B04D03B1D93E80700FEF716F9A1
:103EF40000BF1037BD4680BD2121000080B58CB0C5
:103F040000AF0346FB71444B7B624FF02003EFF399
:103F1400118283F31188BFF36F8F3A62FB613B6AAE
:103F2400BB60786A07F00CFD034683F00103DBB243
:103F3400002B0DD08123394A39493A480BF098FEB9
:103F4400796A39480BF094FE812134480CF0ECFA7C
:103F5400786A07F02DFDBB683B6134480DF001FE23
:103F64000346002B04D031480DF0FBFD034600E06E
:103F74000023FB6225E0FB79002B03D0FB6A5B681E
:103F8400BB6202E0FB6A9B68BB62BB6A002B04D085
:103F9400274B1A78BB6A10469847FB6A002B0ED051
:103FA400FB6A18460DF0F4FD0346002B05D0FB6AAE
:103FB40018460DF0EDFD034602E0002300E0002367
:103FC400FB62FB6A002BD6D1134BBB613B69FB60E0
:103FD400B86907F0D1FC034683F00103DBB2002B80
:103FE4000DD0AC230D4A13490E480BF041FEB969BC
:103FF40011480BF03DFEAC2108480CF095FAFB6823
:104004007B617B6983F31188BFF36F8F00BF00BFAF
:1040140000BF3037BD4680BD740500200079010023
:104024002879010040790100607901006C050020C5
:1040340060050020787901009079010080B500AF17
:10404400084B1B68002B0AD1064B01221A60064B51
:1040540093E80700FFF720FF0020FFF74FFF00BFA2
:1040640080BD00BFE00000206005002090B58BB04B
:1040740000AF7861474C3B467969184600F002FA74
:104084003B4693E8070084E80700424B1B78002B6B
:104094003CD10323032B35D90DF08BFD034687F860
:1040A400273000233B620323002B07D03A4B1B68C5
:1040B4001846FFF7E1FE03469BB200E00023BB84F1
:1040C4003B7F042262F302033B773B7F6FF3C5031C
:1040D4003B77BB8CC3F309039AB2BB8B62F38F1398
:1040E400BB8397F82730002B05D02C4A2C49B88B7A
:1040F400FEF7C2FD07E0294BBA8B194628480CF09D
:10410400C9FE00E000BF234B1B783EE0254B002294
:104114001A607B69B3F1FF3F1ED01E4B5A681D4BDA
:104124009B689A420CD2CB231F4A204920480BF0AB
:104134009FFD20480BF09CFDCB211B480CF0F4F9AB
:104144007C69144B9B681846FFF770FD0346E31A1D
:10415400012118460AF036FE09F038FE0DF030FD54
:104164000120FFF7CBFE0B4B93E80700FFF7B2FEED
:104174000DF02CFD074B1B7818460DF02DFDFFF7B5
:104184005DFF09F091FE034B1B7818462C37BD46A2
:1041940090BD00BF60050020DC00002018AB0100CA
:1041A400247A0100E0000020A8790100407A01008F
:1041B40040790100807A010080B582B000AF0346E7
:1041C400FB71FB79062B0CD92F230E4A0E490F489D
:1041D4000BF04EFD0E480BF04BFD2F2109480CF05F
:1041E400A3F9FB799B000B4A134418460DF0FEFC1F
:1041F4000346002B0CBF01230023DBB2184608370B
:10420400BD4680BDA87A0100D07A0100047B01007C
:10421400247B0100780500202DE9B04F8CB000AF5D
:1042240078607B681A464FF00003C7E90A238C4B79
:104234007B624FF400433B620123FB770123BB778E
:1042440001237B7700233B77FB7F002B0FD07A6A17
:104254003B6A9A420BD23B6A7A6AB3FBF2F2796AFE
:1042640001FB02F29B1A002B01D1012300E0002381
:10427400FB76FB7E03F00103FB76FB7F002B0FD064
:104284007A6A3B6A9A420BD97B6A3A6AB3FBF2F2C6
:10429400396A01FB02F29B1A002B01D1012300E0D1
:1042A4000023BB76BB7E03F00103BB767A6A3B6ACC
:1042B4009A420AD1BB7F002B04D0BB6A1A464FF046
:1042C4000003C7E0D7E90A23C4E04FF000024FF02F
:1042D4000003C7E90423FB7E83F00103DBB2002B58
:1042E4001DD0BB7E002B04D07A6A3B6AB2FBF3F389
:1042F40000E07B6AFB607B7F002B06D0FB68013B00
:104304001A464FF00003C7E904233B7F002B06D075
:10431400FB685B081A464FF00003C7E90423BB7E21
:10432400002B2AD0D7E90A01D7E90423841841EBEA
:104334000305C7E90A45BB7F002B10D0D7E90A2340
:10434400012B08BF002A0AD2BA6A796A3B6AB1FB18
:10435400F3F3B2FBF3F31A464FF000037AE07A6A00
:104364003B6AB2FBF3F31A464FF00003D7E90A01A4
:10437400FBF7E6FE02460B466CE0FB7E002B21D0E9
:10438400BB7F002B0AD0BB6A396A7A6AB1FBF2F2AE
:1043940002FB03F31A464FF000035BE03A6A7B6AC0
:1043A400B2FBF3F31A464FF00003B96A03FB01F0C2
:1043B400F96A02FB01F10144B86AA0FB0223194423
:1043C4000B4647E0BB7F002B24D03B6A1A464FF0D4
:1043D4000003B96A03FB01F0F96A02FB01F101442D
:1043E400B86AA0FB022319440B46D7E9040112EB77
:1043F400000A43EB010B7B6A1A464FF00003504658
:104404005946FBF79DFE02460B4613461A464FF0EB
:1044140000031FE03B6A1A464FF00003B96A03FB2E
:1044240001F0F96A02FB01F10144B86AA0FB02231E
:1044340019440B46D7E9040112EB000843EB0109C8
:104444007B6A1A464FF0000340464946FBF778FE64
:1044540002460B46134618463037BD46BDE8B08FBA
:1044640040420F0080B483B000AF78607B68044A98
:104474009B1ADB0818460C37BD4680BC704700BF4A
:10448400BC70010080B594B002AF786039604FF021
:10449400FF337B64C3E087497A6C13465B001344A3
:1044A4009B000B441B781846FFF786FE034683F0F7
:1044B4000103DBB2002B40F0AE807E497A6C1346D8
:1044C4005B0013449B000B4404331B681846FFF73E
:1044D400A3FEF86377497A6C13465B0013449B0090
:1044E4000B4408331B681846FFF796FEB863FA6B53
:1044F400BB6B9A420CD822236F4A704970480BF068
:10450400B7FB70480BF0B4FB22216B480CF00CF89D
:104514003B68B3F1FF3F05D0FA6BBB6B1A443B68B1
:104524009A4279D80323032B67D90DF06BFB03461A
:1045340087F8373000237B620323002B07D0624BBC
:104544001B681846FFF78EFF03469BB200E000236A
:10455400BB8697F82030042262F3020387F82030E8
:1045640097F820306FF3C50387F82030BB8EC3F370
:1045740009039AB23B8C62F38F133B8497F837306C
:10458400002B1BD04B497A6C13465B0013449B00F1
:104594000B441B78184647497A6C13465B00134456
:1045A4009B000B4404331B6801933B680093034650
:1045B400464A4749388CFEF75FFB1FE0434B3B619B
:1045C4003C497A6C13465B0013449B000B441B78F4
:1045D4007B613B68BB6137497A6C13465B001344CB
:1045E4009B000B4404331B68FB6107F110013B8CF7
:1045F400042237480CF098FC00E000BF78682D498D
:104604007A6C13465B0013449B00CA18034607CA1E
:1046140083E8070049E000BF7B6C013B7B647B6C53
:10462400002BBFF638AF0323032B37D90DF0EAFA7A
:10463400034687F843300023FB600323002B07D095
:10464400214B1B681846FFF70DFF03469BB200E0A1
:104654000023A7F840303B7A042262F302033B7242
:104664003B7A6FF3C5033B72B7F84030C3F30903D9
:104674009AB23B8962F38F133B8197F84330002B46
:1046840005D0124A13493889FEF7F6FA07E00F4BB2
:104694003A8919460F480CF0FDFB00E000BF7B6827
:1046A4001A46002313605360936078684837BD4608
:1046B40080BD00BF2CAB0100A87B0100E07B0100A2
:1046C400007C0100207C0100E40000202CAB0100F0
:1046D400487C0100847C010080B582B000AF786022
:1046E4007B680A2B05D1094B1B680D2118460DF078
:1046F400AFFA064B1B687A68D2B2114618460DF021
:10470400A7FA7B6818460837BD4680BD940500208B
:1047140080B500AF034803F08BFC0248FCF79AF81D
:1047240000BF80BDDD46000080B582B000AF786078
:1047340006480DF06EFA0346054A1360FFF7E8FFDA
:10474400002318460837BD4680BD00BFA87C010081
:104754009405002080B483B000AF0346FB7197F941
:104764000730002B0CDBFB7903F01F02074997F994
:1047740007305B09012000FA02F2603341F823207C
:1047840000BF0C37BD4680BC704700BF00E100E0AD
:1047940080B400AF084B1B78002B14BF0123002307
:1047A400DBB283F00103DBB203F00103DBB2184692
:1047B400BD4680BC704700BF6D0C002080B586B03C
:1047C40000AF78607B68002B0BD14FF485730B4AE4
:1047D4000B490C480BF04CFA4FF4857107480BF069
:1047E400A3FE7B681A4600231360536093607B68C2
:1047F40001225A6000BF1837BD4680BDB07C01005D
:10480400D87C0100F07C010080B584B000AFF86072
:104814000B467A60FB72FB7A002B02D0012B15D079
:1048240029E07B68002B08D0FB68D3F81834DBB28E
:1048340003F00303DAB27B681A70FB68D3F8183408
:1048440003F48033002B24D0012326E07B68002B63
:1048540008D0FB68D3F80C34DBB203F00103DAB2FE
:104864007B681A70FB68D3F80C3403F48033002B94
:1048740011D0012311E04FF44F730A4A0A490B483F
:104884000BF0F6F94FF44F7106480BF04DFE002380
:1048940003E000BF00E000BF002318461037BD4608
:1048A40080BD00BF107D0100447D0100F07C01004B
:1048B40080B483B000AF78607B68044A9B1ADB083D
:1048C40018460C37BD4680BC704700BFBC70010061
:1048D40080B584B000AF786039603B68FB73FB7BC4
:1048E400012B09D97E230C4A0C490D480BF0C0F961
:1048F4007E2109480BF018FEFB7B194678680DF001
:1049040012FC03469B68DBB203F00703DBB21846D4
:104914001037BD4680BD00BF587D0100987D010061
:10492400F07C010090B589B000AF78600B46FB7055
:10493400FB78194678680DF0F6FBF861FB691B6893
:10494400BB61FB695B687B61FB6900221A60FB69E0
:10495400083318460DF093FC0323032B42D90DF0C2
:10496400BAF90346FB740023FB600323002B07D032
:10497400234B1B681846FFF79BFF03469BB200E0DE
:1049840000233B823B7A042262F302033B723B7AAC
:104994006FF3C5033B723B8AC3F309039AB23B89A5
:1049A40062F38F133B81FB7C002B0CD0FB78194600
:1049B40078680DF0CEFB03469B68124A1249388989
:1049C400FEF75AF90FE00F4CFB78194678680DF0A2
:1049D400C0FB03469B681A463B8921460A480CF0F3
:1049E40070FA00E000BFBB69002B05D0FB781946C4
:1049F400BB697A697868984700BF2437BD4690BD83
:104A0400E800002070AB0100BC7D010080B483B0DD
:104A140000AF044B7B607B68483318460C37BD46B7
:104A240080BC70479C05002080B586B000AF002391
:104A3400FB754FF02003EFF3118283F31188BFF36A
:104A44006F8FFA60BB60FB683B61194B1B6843F0D6
:104A540002031A46164B1A60154B1B6803F0010338
:104A6400002B0FD0FB1C194601200DF04AFBFB78EC
:104A7400012B07D10123FB75FFF7C8FF0346184636
:104A84000DF0FDFB3B697B607B6883F31188BFF30A
:104A94006F8F00BFFB7D002B04D000210548FFF77A
:104AA40041FF01E00DF01CFC1837BD4680BD00BF7E
:104AB400980500203C6E010080B500AF6FF0020144
:104AC40006480DF0E7F8034603F00103002B02D17A
:104AD4000DF00CFC00E000BF80BD00BF9805002075
:104AE40080B588B000AFF860B9607A60BB68FB77C6
:104AF400FB7F1946F8680DF016FBB861FB7F012BAC
:104B04000BD940F25313114A114912480BF0B0F873
:104B140040F253110D480BF007FDBB690833796867
:104B240018460DF03DFB78617B69002B01DA7B6947
:104B340008E0FB7F1946F8680DF00BFB03465B6841
:104B44009847002318462037BD4680BD587D010094
:104B5400987D0100F07C010090B589B000AF7860C9
:104B6400396007F10C03FB6007F10C033B61002380
:104B74007B610123BB6107F10C03104A3968786833
:104B84000DF0F7FBF861FB69002B01DAFB6911E01A
:104B94004FF4FA704FF000010DF0A4F802460B46F2
:104BA4001046194607F10C0402460B4620460DF048
:104BB400F0F9034618462437BD4690BD9F230100F3
:104BC40080B485B000AF7860064BFB60FB687A6800
:104BD400D31A5B11BB60BB6818461437BD4680BC52
:104BE400704700BF9C05002080B584B000AF78609A
:104BF40039607868FFF7E4FF034640221946064807
:104C0400FFF76EFFF8603B68F9687868984700BF63
:104C14001037BD4680BD00BF3C6E010080B586B034
:104C240002AF786039607868FFF7CAFF0146402315
:104C340000933B68074A08480DF06DFBF860FB6879
:104C4400002B03DA3B68F9687868984700BF10378F
:104C5400BD4680BDBD2301003C6E010080B588B017
:104C640000AF0346FB71FB79012B0BD14B4B1B7837
:104C7400022B07D14FF050200DF017FA0346022BF8
:104C840000F0888010F0AFFF0346002B04D1FFF73B
:104C94007FFD0346002B01D0012300E00023FB77B6
:104CA400FB7F03F00103FB77FB7F002B0BD04FF05E
:104CB4002003EFF3118283F31188BFF36F8F7A61BE
:104CC4003B617B6900E00023BB61FB7F83F0010350
:104CD400DBB2002B37D002214FF050200DF082F9C7
:104CE40031E0FB7F002B04D0BB6918460DF038F986
:104CF40002E001200DF01AF9284B1B78022B22D177
:104D04004FF050200DF0C4F90346012B1BD14FF492
:104D140082714FF050200DF098F90346002B12D009
:104D24004FF482714FF050200DF07AF902214FF0C8
:104D340050200DF09EF90520FFF70CFD08214FF0DF
:104D440050200DF05DF9164B1B7807F10B0211464C
:104D540018460DF0D6F9034683F00103DBB2002BAD
:104D6400BFD1FA7A0D4B1B789A4202D0FB79012B02
:104D7400B7D1FB7F002B07D0BB69FB60FB6883F3D3
:104D84001188BFF36F8F06E002214FF050200DF021
:104D94001BF900E000BF2037BD4680BD5CAE0100BA
:104DA4005DAE010080B584B000AF0346FB71012104
:104DB4001F480CF05CFF0346002B1BD101211D484A
:104DC4000DF0DCF9F8601C48FFF7F8FC1B49F868A3
:104DD400FCF7F8F8B860BB68002B0BDA40F2262326
:104DE400174A184918480AF043FF40F2262114488C
:104DF4000BF09AFBFB79002B16D0002B07DB013B51
:104E0400012B04D8FB791846FFF728FF0DE04FF477
:104E14000E730B4A0D490C480AF02AFF4FF40E7129
:104E240007480BF081FB00E000BF1037BD4680BD92
:104E3400F80500203C6E010000060020FC0500205F
:104E4400587D0100D47D0100F07C0100447D010007
:104E540080B584B000AF0346FB71204BFB60FB7947
:104E6400032B1BD0032B26DC002B02D0012B10D0EC
:104E740021E00021F8680DF056F9B860BB689B6822
:104E840003F00703002B23D10021F868FFF74AFD44
:104E94001EE00121F868FFF745FD1AE040F26623A1
:104EA4000F4A104910480AF0E3FE40F266210C480C
:104EB4000BF03AFB0DE040F26A23094A09490A481B
:104EC4000AF0D6FE40F26A2105480BF02DFB00E003
:104ED40000BF00BF1037BD4680BD00BF3C6E01005F
:104EE400587D0100447D0100F07C010080B586B04E
:104EF40000AF786000220121052000F08BFD052021
:104F04000DF0E7FB1A4804F0ADFB38613B69194A20
:104F1400934202D06FF0040326E00DF065FA04F02A
:104F240019FC0023FB751BE0FB7D194678680DF026
:104F3400FAF8F860FB7D194678680DF01FF903460E
:104F44000D4918460BF005F8B860BB68002B01DA70
:104F5400BB6809E0FB6801229A60FB7D0133FB75A5
:104F6400FB7D012BE0D9002318461837BD4680BDD0
:104F7400554E00000000AD0B84AB010080B582B03B
:104F840000AF78601723064A064907480AF070FE06
:104F9400172103480BF0C8FA00BF0837BD4680BD8F
:104FA400907E0100C47E0100C87E010080B483B0FD
:104FB40000AF0346FB7197F90730002B0CDBFB793C
:104FC40003F01F02074997F907305B09012000FA33
:104FD40002F2603341F8232000BF0C37BD4680BC89
:104FE400704700BF00E100E080B582B000AF786098
:104FF40039603B68B3F5805F0BD34FF4BC73094A47
:1050040009490A480AF034FE4FF4BC7105480BF014
:105014008BFA7B683A68C3F8082500BF0837BD4699
:1050240080BD00BFF47E0100287F0100507F010095
:1050340080B582B000AF7860396079683B6823F04E
:105044007F431A4603480DF0F9F900BF0837BD46FF
:1050540080BD00BF0050015080B582B000AF7860C1
:105064007B68194603480DF0FBF9034618460837D8
:10507400BD4680BD0050015080B582B000AF78605D
:105084007B689BB250339BB29B009BB2194603488A
:105094000DF027FA00BF0837BD4680BD005001500F
:1050A40080B582B000AF78604FF480327B6802FA3A
:1050B40003F3194603480DF046FA00BF0837BD460E
:1050C40080BD00BF0050015080B582B000AF786051
:1050D4004FF480327B6802FA03F3194603480DF05B
:1050E40040FA00BF0837BD4680BD00BF00500150E4
:1050F40080B500AF02480DF009FA0346184680BD9A
:105104000050015080B584B000AFF860B9607A6097
:105114003B600949FB687A6841F83320064AFB681A
:10512400DB0013443A685A60B968F8680DF036FA3F
:1051340000BF1037BD4680BD1806002090B587B06B
:1051440000AFF860B9607A60164B1B681946B868FE
:105154000DF015FA04460DF05EF90346002B02DA51
:1051640003F5FF437F33DB13B4FBF3F37B610DF0F3
:1051740052F90346002B02DA03F5FF437F33DB13B6
:105184001A467B6903FB02F2064B1B681344054A6B
:1051940013607B69184609F0B7FE00BF1C37BD4693
:1051A40090BD00BF1406002080B586B000AF7860C3
:1051B40000237B6148E04FF480327B6902FA03F3F9
:1051C400194625480DF06AF90346002B39D07B694E
:1051D4009BB250339BB29B009BB219461E480DF004
:1051E4006CF90346002B2CD07869FFF745FF7869EA
:1051F400FFF76AFF7869FFF72FFF3861FFF778FF41
:10520400F8603969F8680DF0BAF90346B3F5000F90
:1052140001D9FB683B61114A7B6952F83330BB60AA
:105224000E4A7B69002142F83310BB68002B08D07A
:105234000A4A7B69DB0013445A68BB683969786998
:1052440098477B6901337B617B69002BB3DD00BF29
:1052540000BF1837BD4680BD00500150180600201D
:1052640080B584B000AF786000211A48FFF7BCFE17
:105274000023FB600BE04FF48032FB6802FA03F377
:10528400194614480DF0FCF8FB680133FB60FB6819
:10529400002BF0DD1520FFF789FE002201211520E7
:1052A40000F0B8FB15200DF014FA082109480DF0A0
:1052B40039F9002107480DF035F9074B01221A602E
:1052C400064B1B781846FFF76DFD00231846103770
:1052D400BD4680BD00500150200600205EAE010096
:1052E400B0B584B000AF78600B46FB707B68B3F157
:1052F400FF3F16D10DF08FF80346002B02DA03F5B9
:10530400FF437F33DB13C3F500040DF084F8034639
:10531400002B02DA03F5FF437F33DB13B4FBF3F313
:1053240000E07B687B607B68013B002B33DD7B689E
:105334005C1E0DF070F80346002B02DA03F5FF4300
:105344007F33DB13C3F500050DF065F80346002B2E
:1053540002DA03F5FF437F33DB13B5FBF3F39C421F
:1053640002DA7B68013B17E00DF055F80346002B89
:1053740002DA03F5FF437F33DB13C3F500040DF0BA
:105384004AF80346002B02DA03F5FF437F33DB13AD
:10539400B4FBF3F300E000237B60FFF7A9FE0246B1
:1053A4004C4B1B68194610460DF0E9F8B860BB6811
:1053B400B3F5000F01D300237B600DF02CF80346F6
:1053C400002B02DA03F5FF437F33DB131A467B68B5
:1053D40003FB02F31A46BB6813440133FB600DF070
:1053E4001AF80346002B02DA03F5FF437F33DB137D
:1053F400013B1A46FB681344FB600DF00CF80346AE
:10540400002B02DA03F5FF437F33DB131A46FB68F4
:10541400B3FBF2F40CF0FFFF0346002B02DA03F5B2
:10542400FF437F33DB1303FB04F3FB600CF0F3FF58
:105434000346002B02DA03F5FF437F33DB13C3F586
:1054440000040CF0E8FF0346002B02DA03F5FF43E7
:105454007F33DB13B4FBF3F40CF0DDFF0346002BC6
:1054640002DA03F5FF437F33DB1303FB04F3FA682B
:105474009A4221D90CF0CFFF0346002B02DA03F540
:10548400FF437F33DB13C3F500040CF0C4FF034672
:10549400002B02DA03F5FF437F33DB13B4FBF3F491
:1054A4000CF0B9FF0346002B02DA03F5FF437F3308
:1054B400DB1303FB04F3FB60064B1B68FA6813441D
:1054C400FB600023044AF9680020FFF71BFE103735
:1054D400BD46B0BD140600204151000098B500AF90
:1054E400FFF706FE02460A4B1B68194610460DF0EC
:1054F40046F804460CF08FFF0346002B02DA03F54E
:10550400FF437F33DB13B4FBF3F3184698BD00BFAE
:105514001406002080B58AB000AF304BBB614FF059
:105524002003EFF3118283F31188BFF36F8F7A6145
:105534003B617B69BB60B86906F002FA034683F0FD
:105544000103DBB2002B0DD08123254A25492648CF
:105554000AF08EFBB96925480AF08AFB81212048AC
:105564000AF0E2FFB86906F023FABB68FB60FFF7B4
:10557400BFFD02461E4B1B68194610460CF0FFFF88
:1055840002461B4B1B6813447B62144B3B62FB6853
:105594007B60386A06F0F0F9034683F00103DBB25E
:1055A400002B0DD0AC230E4A12490F480AF060FBC1
:1055B400396A11480AF05CFBAC2109480AF0B4FFCF
:1055C4007B68FB61FB6983F31188BFF36F8F00BFB6
:1055D40000BF7B6A18462837BD4680BD10060020F0
:1055E400CC7F0100F47F0100507F01000C8001009A
:1055F40014060020248001003C80010080B500AF27
:10560400024809F05FFF00BF80BD00BF90AB0100FE
:1056140080B584B000AF78607B68002B03D1234B46
:105624005B68234898477B685B68042B39D07B68A8
:105634005B68082B35D07B685B68002B24D17B68C2
:105644001B68002B20D179684FF0FF324FF0FF33F5
:10565400184805F019FEF860FB68002B03D17B683D
:105664001B68002B03D1114B5B68134898477B6878
:105674001B681422002118460DF06CFA7B685B68E5
:1056840043F002027B685A607B681B68BB60B868A1
:105694000CF0F7FF7B685B6843F001027B685A609B
:1056A40000E000BF1037BD4680BD00BF8001002070
:1056B40054800100240600207C80010080B582B063
:1056C40000AF78607B68002B03D1184B5B681848E7
:1056D40098477B685B68042B21D07B685B68082B48
:1056E4001DD07B685B68002B1BD07B685B6803F074
:1056F4000203002B08D07B6819460E4805F06CFEA7
:105704007B6800221A6006E07B681B681422002173
:1057140018460DF01FFA7B6800225A6002E000BFB1
:1057240000E000BF0837BD4680BD00BF80010020F7
:10573400548001002406002080B584B000AF786056
:105744007B68002B02D16FF4E0432AE07B685B683E
:10575400042B0DD17B681B680122002118460CF034
:105764006EFF0346002B01D000231AE00F4B18E014
:105774007B685B68002B01D10D4B12E07B681B68D2
:10578400FB604FF0FF304FF0FF3102460B46F868E4
:105794000CF083FFB860BB68002B01D1002300E04C
:1057A400024B18461037BD4680BD00BFE98FFFFF8E
:1057B400EA8FFFFF80B584B000AF78607B68002B70
:1057C40002D16FF4E0431EE07B685B68042B0DD1CB
:1057D4007B681B680022012118460CF030FF034649
:1057E400002B01D000230EE0094B0CE07B685B68C2
:1057F400002B01D1074B06E07B681B68FB60F8684F
:105804000CF05BFF002318461037BD4680BD00BF77
:10581400E98FFFFFEA8FFFFF80B500AF402314221A
:105824000449054810F02FF80449054809F0A8FE7A
:1058340000BF80BD4406002024060020A8AB010060
:1058440098AB010080B485B000AF78600F4B9B68C3
:105854007A685A670E4B1A680C4B9B689A670D4B13
:105864005B680C4A43F0805353600023FB60FB6881
:1058740083F31188BFF36F8F00BF044B9B689B6F4A
:1058840018461437BD4680BC704700BF000C00208A
:1058940068AD010000ED00E013498A684FF0300064
:1058A4001044EFF3098C80E8F01F202080F3118866
:1058B400BFF36F8F0D4F4FF000664A6A8A603E60F7
:1058C400506F0023536780F3118802F1300090E891
:1058D400F01F8CF3098802F1000004B50CF01FFFDF
:1058E400BDE8044070470000000C002004ED00E017
:1058F4001EF0040F0CBFEFF30880EFF309808169F9
:1059040011F8021C0229FFD001B50CF03AFF01BDC9
:1059140080B483B000AF0346FB7197F90730002BC6
:105924000BDBFB7903F01F02064997F907305B098B
:10593400012000FA02F241F8232000BF0C37BD46D3
:1059440080BC704700E100E080B483B000AF034640
:10595400FB7197F90730002B12DBFB7903F01F0270
:105964000A4997F907305B09012000FA02F2203353
:1059740041F82320BFF34F8F00BFBFF36F8F00BFE9
:1059840000BF0C37BD4680BC704700BF00E100E09B
:1059940080B483B000AF03463960FB7197F90730D8
:1059A400002B0ADB3B68DAB20C4997F90730520145
:1059B400D2B20B4483F800230AE03B68DAB2084908
:1059C400FB7903F00F03043B5201D2B20B441A7665
:1059D40000BF0C37BD4680BC704700BF00E100E04B
:1059E40000ED00E080B483B000AF7860084A7B68C3
:1059F4005B0952F823207B6803F01F03012101FA9D
:105A040003F3134018460C37BD4680BC704700BFF3
:105A140000E100E080B584B000AFF860B9607A605E
:105A2400BB680133BB60BB68072B10D958230D4AF0
:105A34000D490E480AF01CF9BB68591E0723FA6881
:105A44000B480AF015F9582106480AF06DFDFB6869
:105A54005BB2B9681846FFF79BFF00BF1037BD461D
:105A640080BD00BFAC800100E48001000081010022
:105A74002081010080B487B000AFF860B9607A601B
:105A84003B607B68203B7B61114A7B699A617B693F
:105A94009B6923F001027B699A613A687B691A6009
:105AA4003A6A7B695A607A6A7B699A60BA6A7B69E6
:105AB400DA607B694FF08072DA617A69FB681A6593
:105AC400FB6800225A6700BF1C37BD4680BC704784
:105AD4005101010080B586B000AFF860B9607A600A
