:020000040000FA
:100000000008002045010000A7010000DD7D000080
:10001000DF7D0000E17D0000E57D0000E37D000064
:10002000000000000000000000000000B57D00009E
:10003000C301000000000000C7010000CB01000068
:10004000000000000000000000000000918C000093
:1000500000000000D30100000000000000000000CC
:10006000D7010000DB010000DF010000E301000018
:1000700000000000E7010000EB010000EF010000BC
:10008000F3010000F7010000000000000000000084
:10009000FB010000FF010000000000000000000064
:1000A0000302000000000000000000000702000042
:1000B0000B0200000F0200001302000017020000F4
:1000C0001B0200001F0200002302000027020000A4
:1000D0002B020000000000002F02000000000000C2
:1000E00033020000000000003702000000000000A2
:1000F0003B020000000000000000000000000000C3
:10010000000000003F0200000000000000000000AE
:1001100000000000000000000000000000000000DF
:10012000000000004302000000000000000000008A
:1001300000000000000000000000000000000000BF
:1001400047020000114C124DAC4209DA2168626886
:10015000A368043BA2BFC858D050FAE70C34F3E7B9
:100160000C4B0D4CA34208DA19685A680020043A77
:10017000A4BF8850FBE70833F4E772B60748084984
:10018000086007F08DFC07F02BFB00004C0200001C
:1001900070020000700200009002000000000000E9
:1001A00008ED00E0FEE7FFF7FEBF07F017BE07F01F
:1001B00016BE07F015BE07F015BE07F012BE07F019
:1001C000F9BDFFF7FEBFFFF7FEBFFFF7FEBF08F068
:1001D0005FBDFFF7FEBFFFF7FEBFFFF7FEBFFFF7F4
:1001E000FEBFFFF7FEBFFFF7FEBFFFF7FEBFFFF743
:1001F000FEBFFFF7FEBFFFF7FEBFFFF7FEBFFFF733
:10020000FEBFFFF7FEBFFFF7FEBFFFF7FEBFFFF722
:10021000FEBFFFF7FEBFFFF7FEBFFFF7FEBFFFF712
:10022000FEBFFFF7FEBFFFF7FEBFFFF7FEBFFFF702
:10023000FEBFFFF7FEBFFFF7FEBFFFF7FEBFFFF7F2
:10024000FEBFFFF7FEBFFFF7FEBF00BFC0510300B8
:10025000C0910020B40100008051030060520020D2
:10026000400000006051030000400020200000001A
:10027000749300202C1800000010002000200000C3
:10028000A0520020203F000020400020401200002B
:1002A00008B5074B044613B1002100E000BF054B21
:1002B0001868836A03B1984720462FF063FD00BF9A
:1002C000000000001C12000070B50D4D00260D4C02
:1002D000641BA410A64209D10B4D00260B4C2FF035
:1002E00053FD641BA410A64205D170BD55F8043B14
:1002F00001369847EEE755F8043B01369847F2E798
:100300006C9300206C9300206C930020709300206D
:10031000024B0146186800F003B800BF8892002025
:1003200038B50546002945D051F8043C0C1F002B78
:10033000B8BFE41800F0C4F91F4A1368104633B977
:10034000636014602846BDE8384000F0BFB9A3429E
:100350000BD921686218934202BF1A685B68521871
:10036000636008BF22600460ECE71A465B680BB16B
:10037000A342FAD911685018A0420BD12068014459
:10038000501811608342DDD118685B6801445360E6
:100390001160D7E702D90C232B60D3E7206821181E
:1003A0008B4202BF19685B680918636008BF21604F
:1003B0005460C7E738BD00BF2C9E0020F8B5CD1CA7
:1003C000064625F0030508350C2D38BF0C25002DF9
:1003D00001DBA94203D90C2333600020F8BD00F0F3
:1003E0006FF921490A6814469CB9204F3B6823B92C
:1003F0002146304600F054F838602946304600F077
:100400004FF8431C23D10C233046336000F05EF9D3
:10041000E3E723685B1B17D40B2B03D923601C4431
:10042000256004E06368A2420CBF0B605360304655
:1004300000F04CF904F10B00231D20F00700C21A54
:10044000CCD01B1AA350C9E722466468CCE7C41C71
:1004500024F00304A042E3D0211A304600F020F833
:100460000130DDD1CFE700BF2C9E0020309E002060
:100470000FB40A4B13B51C6824B1A36913B9204605
:1004800000F07EF805AB049AA1682046019300F0C5
:100490004BF902B0BDE8104004B0704788920020CC
:1004A00038B50023054D044608462B602FF05CFC50
:1004B000431C02D12B6803B1236038BDE0A90020A2
:1004C000034613F8012B002AFBD1181A0138704794
:1004D000002310B504468360818119464366C281BA
:1004E00008228361C0E90033C0E904335C3002F0C4
:1004F00055FA054B24626362044BA362044BE3622A
:10050000044B236310BD00BFB50C0000D70C0000E6
:100510000F0D0000330D0000014900F0AFB800BF1F
:100520000910000070B54A1E68250E46554305F1B6
:100530007401FFF743FF044640B1002105F1680252
:10054000C0E900160C30A06002F028FA204670BD09
:10055000014800F0B3B800BFDCA90020014800F05A
:10056000AEB800BFDCA90020014800F0A7B800BF6A
:10057000D7A90020014800F0A2B800BFD7A90020E9
:1005800010B50446FFF7F0FFA3691BB1BDE81040AA
:10059000FFF7F0BFC4E9123323652046124B134A1C
:1005A0001B68A262A34204BF0123A36100F020F8EC
:1005B0006060204600F01CF8A060204600F018F8AB
:1005C00000220421E0606068FFF782FF0122092118
:1005D000A068FFF77DFF02221221E068FFF778FF95
:1005E0000123A361D2E700BF1C120000190500001F
:1005F000F8B50746FFF7ACFF1E4B1E68B36913B989
:100600003046FFF7BDFF4836D6E90134013B03D53C
:1006100033680BB33668F7E7B4F90C50D5B9164B0D
:1006200004F158006566E36000F047F8FFF796FFB5
:100630000822294604F15C002560A561C4E9015542
:10064000C4E9045502F0AAF9C4E90D55C4E91255EC
:100650002046F8BD6834D9E704213846FFF762FF29
:10066000044630600028D5D1FFF778FF0C233B60AB
:10067000EEE700BF1C1200000100FFFF2DE9F84368
:100680000646884600F148040027D4E90195B9F1EF
:10069000010905D52468002CF7D13846BDE8F88358
:1006A000AB89012B07D9B5F90E30013303D02946A8
:1006B0003046C04707436835E9E7704770477047E1
:1006C0000148FFF7FBBF00BFD8A900200148FFF792
:1006D000F6BF00BFD8A900209368013B002B9360B0
:1006E00010B407DA9469A34201DB0A2902D110BCD5
:1006F00000F024BB1368581C10600846197010BC29
:100700007047F8B506460F461446D518AC4201D1DD
:10071000002007E03A4614F8011B3046FFF7DCFFE3
:10072000431CF3D1F8BD00002DE9F04F0D469DB0FC
:1007300014469846064618B183690BB9FFF720FFA7
:10074000894B9D421BD175686B6ED90705D4AB8967
:100750009A0502D4A86DFFF7B1FFAB891B0701D53D
:100760002B69EBB92946304600F04CFBC0B16B6EEB
:10077000DC070ED54FF0FF301DB0BDE8F08F7B4B8E
:100780009D4201D1B568DFE7794B9D4208BFF5680E
:10079000DAE7AB899805EDD4A86DFFF790FFE9E79C
:1007A0000023CDF80C804FF00109DFF8C8810993D0
:1007B00020238DF8293030238DF82A3023469A469D
:1007C00013F8012B0AB1252AF9D1BAEB040B0BD08F
:1007D0005B46224629463046FFF793FF013000F082
:1007E000AA80099A5A4409929AF80030002B00F026
:1007F000A28000234FF0FF320AF1010A049307930D
:100800008DF853301A93CDE90523544605225948F3
:1008100014F8011B00F0AAFC049AD8B9D10644BF11
:1008200020238DF85330130744BF2B238DF853300A
:100830009AF800302A2B15D0079A544600204FF022
:100840000A0C214611F8013B303B092B4ED9B0B1BF
:10085000079214E0A0EB0803A24609FA03F313433E
:100860000493D2E7039B191D1B68002B0391BBBFA8
:100870005B4242F0020207930793B8BF04922378C9
:100880002E2B0CD163782A2B35D1039B02341A1DF1
:100890001B68002B0392B8BF4FF0FF330593DFF8BE
:1008A000E4A003222178504600F060FC40B14023D0
:1008B000A0EB0A00013403FA00F0049B0343049305
:1008C00014F8011B06222C488DF8281000F04EFC6D
:1008D00000283FD0294B1BBB039B073323F00703A2
:1008E00008330393099B3B44099367E70CFB0232EF
:1008F0000C460120A5E7002301344FF00A0C1946ED
:100900000593204610F8012B303A092A03D9002B11
:10091000C5D00591C3E70CFB012104460123F0E794
:1009200003AB2A4604A930460093154B00E000BFF4
:100930000746781CD6D16B6ED90705D4AB899A05CA
:1009400002D4A86DFFF7BBFEAB895B063FF512AF83
:10095000099811E703AB2A4604A930460093084BD7
:1009600000F082F8E4E700BF4012000060120000CF
:1009700020120000801200008A1200000000000017
:1009800003070000861200002DE9F047164699463D
:100990008A6807460B690C46DDF820809342B8BF91
:1009A0001346336091F843200AB101333360236862
:1009B000990642BF336802333360256815F0060597
:1009C00006D104F1190AE36832689B1AAB4229DCAC
:1009D00094F84320131E226818BF012392062ED4D8
:1009E00004F1430249463846C047013021D023680C
:1009F0001A3454F80E5C03F0060332680026042B08
:100A000054F8123C08BFAD1A54F80A2C14BF002544
:100A100025EAE5759342C4BF9B1AED18B5421AD179
:100A2000002008E00123524649463846C0470130BD
:100A300003D14FF0FF30BDE8F0870135C3E7E1187F
:100A40005A1C30200233224481F8430094F84510A8
:100A500082F84310C4E70123224649463846C0477E
:100A60000130E6D00136D9E72DE9FF470C46914623
:100A700080469A46277E04F143020C99782F07D8C6
:100A8000622F0AD8002F00F0D880582F00F0A380E2
:100A900004F1420684F842703AE0A7F16303152B93
:100AA000F6D801A050F823F0010B0000150B000050
:100AB000910A0000910A0000910A0000910A0000CA
:100AC000150B0000910A0000910A0000910A000035
:100AD000910A0000210C0000450B0000030C0000EF
:100AE000910A0000910A0000430C0000910A0000E6
:100AF000450B0000910A0000910A00000B0C000059
:100B00000B6804F142061A1D1B680A6084F8423023
:100B10000123A3E0256808682E0600F104030AD526
:100B200005680B60002D03DA2D236D4284F84330F5
:100B30005E480A2319E015F0400F05680B6018BFE6
:100B40002DB2EFE70B682568181D0860280601D54F
:100B50001D6802E06906FBD51D886F2F53480CBF46
:100B600008230A23002184F843106668002EA6603B
:100B7000A2BF216821F0040121600DB9002E4DD0E3
:100B80001646B5FBF3F103FB1157C75D06F8017D6F
:100B90002F460D46BB42F4D9082B0BD12368DF0743
:100BA00008D5236961689942DEBF302306F8013C0D
:100BB00006F1FF36921B22614B4603AA21464046AE
:100BC000CDF800A0FFF7E0FE01304CD14FF0FF3030
:100BD00004B0BDE8F087354884F8457023680E6896
:100BE0001F0656F8045B0E6014D5D90744BF43F0C6
:100BF000200323601DB9236823F020032360102302
:100C0000B0E7236843F0200323607823284884F862
:100C10004530E3E75E0648BFADB2E6E71646BBE700
:100C20000B6826681D1D60690D6035061B6801D5BF
:100C3000186002E07106FBD5188000231646236178
:100C4000BAE70B681A1D0A6000211E686268304608
:100C500000F08CFA08B1801B606063682361002398
:100C600084F84330A8E72369324649464046D047D6
:100C70000130ABD023689B0713D4E068039B9842F4
:100C8000B8BF1846A4E70123324649464046D0473C
:100C900001309BD00135E36803995B1AAB42F2DC6B
:100CA000EBE7002504F11906F5E700BF91120000FB
:100CB000A212000010B50C46B1F90E1000F064FA53
:100CC0000028ABBF636DA3891B1823F48053ACBF0E
:100CD0006365A38110BD2DE9F0411F468B89054650
:100CE0000C46DB05164605D502230022B1F90E108D
:100CF00000F0C6F9A3893246B4F90E10284623F451
:100D00008053A3813B46BDE8F04100F069B810B5BF
:100D10000C46B1F90E1000F0B3F9431CA38915BFBE
:100D2000606523F4805343F48053A38118BFA381EB
:100D300010BDB1F90E1000F0D3B80000F8B50E46A2
:100D40001446054618B183690BB9FFF719FC214B0E
:100D50009C422BD16C68A369A360A3891A072FD585
:100D600023696BB32369F6B220683746C01A6369FA
:100D7000834204DC2146284600F046F930BBA368D4
:100D80000130013BA36023685A1C22601E70636916
:100D9000834204D0A389DB0706D50A2E04D121465D
:100DA000284600F031F988B93846F8BD0A4B9C4214
:100DB00001D1AC68CFE7094B9C4208BFEC68CAE799
:100DC0002146284600F01EF80028CBD04FF0FF3710
:100DD000EAE700BF4012000060120000201200008D
:100DE00038B50446064D0846114600222A601A46C8
:100DF00009F0FCF9431C02D12B6803B1236038BD14
:100E0000E0A90020324B70B51D6806460C4625B19E
:100E1000AB6913B92846FFF7B3FB2E4B9C420FD1A9
:100E20006C68A389B4F90C2019072CD4DD0611D401
:100E30000923336042F040034FF0FF30A3813EE0CE
:100E4000254B9C4201D1AC68EBE7244B9C4208BF88
:100E5000EC68E6E7580712D5616B41B104F1440331
:100E6000994202D03046FFF75BFA00236363A389FF
:100E700023F02403A3810023636023692360A389F3
:100E800043F00803A38123694BB9A38903F42073BA
:100E9000B3F5007F03D02146304600F027F9A08942
:100EA000B4F90C2010F001030AD00023A360636999
:100EB0005B42A361236943B910F08000BAD170BDD1
:100EC000810758BF6369A360F4E70020F7E700BF1C
:100ED00088920020401200006012000020120000E2
:100EE00038B50023054D044608462B602EF014FF4C
:100EF000431C02D12B6803B1236038BDE0A9002058
:100F00008A892DE9F041054610070C4658D44B68F4
:100F1000002B05DC0B6C002B02DC0020BDE8F0810F
:100F2000E66A002EF9D0002312F480522F682B605D
:100F300032D0606DA3895A0705D56368C01A636B08
:100F40000BB1236CC01A00230246E66A2846216AC8
:100F5000B047431CA38906D129681D292CD8294AEA
:100F6000CA40D60728D50022D904626022692260CF
:100F700004D5421C01D12B6803B96065616B2F60F9
:100F80000029CAD004F14403994202D02846FFF751
:100F9000C7F900206063C1E7216A01232846B047F2
:100FA000411CC7D12B68002BC4D01D2B01D0162BA0
:100FB00001D12F60B1E7A38943F04003A381ADE7DE
:100FC0000F69002FA9D093070E680F600CBF4B6903
:100FD0000023A6EB07088B60B8F1000F9DDD4346A8
:100FE0003A46216A2846A66AB047002806DCA3894B
:100FF0004FF0FF3043F04003A3818FE70744A8EB95
:101000000008E9E70100402038B50B6905460C46A9
:1010100013B90025284638BD18B183690BB9FFF70D
:10102000AFFA144B9C421BD16C68B4F90C30002B06
:10103000EFD0626ED00704D4990502D4A06DFFF7FB
:101040003DFB28462146FFF75BFF636E0546DA0746
:10105000E0D4A3899B05DDD4A06DFFF730FBD9E771
:10106000054B9C4201D1AC68DFE7044B9C4208BFB2
:10107000EC68DAE740120000601200002012000065
:1010800038B50446064D0846114600222A601A4625
:101090002EF05AFE431C02D12B6803B1236038BDE9
:1010A000E0A9002070B50E46B1F90E1096B01446B6
:1010B00000291D4607DA00232B60B3891A0610D4D5
:1010C0004FF480630EE06A4600F070F80028F2DB0F
:1010D000019A02F47042A2F500535A425A412A6022
:1010E000EEE740230020236016B070BD8B8973B5F6
:1010F0009D0706460C4607D504F14703236023618C
:101100000123636102B070BD01AB6A46FFF7CAFFFD
:10111000009905463046FFF751F948B9B4F90C304B
:101120009A05EFD423F0030343F00203A381E3E71E
:101130000D4BB362A389206043F080032061A3813B
:10114000009B6361019B5BB1B4F90E10304600F067
:101150003FF828B1A38923F0030343F00103A381DF
:10116000A0890543A581CDE719050000C9B2034652
:10117000024410B59342184601D1002003E00478E0
:1011800001338C42F6D110BD38B50446064D0846F1
:10119000114600222A601A462EF0DEFD431C02D1C1
:1011A0002B6803B1236038BDE0A9002038B50023C7
:1011B000064D0446084611462B602EF0B5FD431C33
:1011C00002D12B6803B1236038BD00BFE0A9002025
:1011D00038B50023054D044608462B602EF0ACFDC3
:1011E000431C02D12B6803B1236038BDE0A9002065
:1011F000024B0A460146186800F002B888920020A7
:1012000038B502FB01F52946FFF7D8F8044618B1B6
:101210002A46002101F0C2FB204638BD8C920020F6
:1012200000000000000000000000000000000000BE
:1012300000000000000000000000000000000000AE
:10124000000000000000000000000000000000009E
:10125000000000000000000000000000000000008E
:10126000000000000000000000000000000000007E
:10127000000000000000000000000000000000006E
:10128000232D302B2000686C4C006566674546476F
:1012900000303132333435363738394142434445F2
:1012A0004600303132333435363738396162636461
:1012B000656600001FB51EF0010FCDE90123009106
:1012C00003460CBF01210021074A4FF4807007F04C
:1012D0004BFB05B05DF804EB714672467346F4466D
:1012E0008EF30088744700BF256900001FB51EF00B
:1012F000010FCDE90123009103460CBF012100211C
:10130000074A4FF4807007F02FFB05B05DF804EB3F
:10131000714672467346F4468EF30088744700BFE8
:10132000896900001FB51EF0010FCDE9012300916E
:1013300003460CBF01210021074A4FF4807007F0DB
:1013400013FB05B05DF804EB714672467346F44634
:101350008EF30088744700BFF56900001FB51EF0CA
:10136000010FCDE90123009103460CBF01210021AB
:10137000074A4FF4807007F0F7FA05B05DF804EB08
:10138000714672467346F4468EF30088744700BF78
:10139000496A00001FB51EF0010FCDE9012300913D
:1013A00003460CBF01210021074A4FF4807007F06B
:1013B000DBFA05B05DF804EB714672467346F446FD
:1013C0008EF30088744700BF8F6A00001FB51EF0BF
:1013D000010FCDE90123009103460CBF012100213B
:1013E000074A40F2011007F0BFFA05B05DF804EBC0
:1013F000714672467346F4468EF30088744700BF08
:101400008D5300001FB51EF0010FCDE9012300919F
:1014100003460CBF01210021074A40F2011007F0EA
:10142000A3FA05B05DF804EB714672467346F446C4
:101430008EF30088744700BFED5300001FB51EF007
:10144000010FCDE90123009103460CBF01210021CA
:10145000074A40F2011007F087FA05B05DF804EB87
:10146000714672467346F4468EF30088744700BF97
:10147000595400001FB51EF0010FCDE90123009162
:1014800003460CBF01210021074A40F2011007F07A
:101490006BFA05B05DF804EB714672467346F4468C
:1014A0008EF30088744700BFA95400001FB51EF0DA
:1014B000010FCDE90123009103460CBF012100215A
:1014C000074A4FF4817007F04FFA05B05DF804EB5E
:1014D000714672467346F4468EF30088744700BF27
:1014E000B93200001FB51EF0010FCDE901230091B4
:1014F00003460CBF01210021074A4FF4817007F019
:1015000033FA05B05DF804EB714672467346F44653
:101510008EF30088744700BF553100001FB51EF0E0
:10152000010FCDE90123009103460CBF01210021E9
:10153000074A4FF4817007F017FA05B05DF804EB25
:10154000714672467346F4468EF30088744700BFB6
:10155000C53000001FB51EF0010FCDE90123009139
:1015600003460CBF01210021074A4FF4817007F0A8
:10157000FBF905B05DF804EB714672467346F4461C
:101580008EF30088744700BFF53000001FB51EF0D1
:10159000010FCDE90123009103460CBF0121002179
:1015A000074A4FF4817007F0DFF905B05DF804EBEE
:1015B000714672467346F4468EF30088744700BF46
:1015C000553000001FB51EF0010FCDE90123009139
:1015D00003460CBF01210021074A40F2031007F027
:1015E000C3F905B05DF804EB714672467346F446E4
:1015F0008EF30088744700BF3F4600001FB51EF001
:10160000010FCDE90123009103460CBF0121002108
:10161000074A40F2031007F0A7F905B05DF804EBA4
:10162000714672467346F4468EF30088744700BFD5
:10163000834500001FB51EF0010FCDE90123009185
:1016400003460CBF01210021074A40F2031007F0B6
:101650008BF905B05DF804EB714672467346F446AB
:101660008EF30088744700BFD34500001FB51EF0FD
:10167000010FCDE90123009103460CBF0121002198
:10168000074A40F2031007F06FF905B05DF804EB6C
:10169000714672467346F4468EF30088744700BF65
:1016A000974600001FB51EF0010FCDE90123009100
:1016B00003460CBF01210021074A40F2031007F046
:1016C00053F905B05DF804EB714672467346F44673
:1016D0008EF30088744700BF214500001FB51EF03F
:1016E000010FCDE90123009103460CBF0121002128
:1016F000074A40F2031007F037F905B05DF804EB34
:10170000714672467346F4468EF30088744700BFF4
:10171000094600001FB51EF0010FCDE9012300911D
:1017200003460CBF01210021074A40F2031007F0D5
:101730001BF905B05DF804EB714672467346F4463A
:101740008EF30088744700BFE74600001FB51EF007
:10175000010FCDE90123009103460CBF01210021B7
:10176000074A40F2031007F0FFF805B05DF804EBFC
:10177000714672467346F4468EF30088744700BF84
:10178000314700001FB51EF0010FCDE90123009184
:1017900003460CBF01210021074A40F2031007F065
:1017A000E3F805B05DF804EB714672467346F44603
:1017B0008EF30088744700BF7B4700001FB51EF002
:1017C000010FCDE90123009103460CBF0121002147
:1017D000074A40F2031007F0C7F805B05DF804EBC4
:1017E000714672467346F4468EF30088744700BF14
:1017F000B14700001FB51EF0010FCDE90123009194
:1018000003460CBF01210021074A40F2031007F0F4
:10181000ABF805B05DF804EB714672467346F446CA
:101820008EF30088744700BF213A00001FB51EF0F8
:10183000010FCDE90123009103460CBF01210021D6
:10184000074A40F2031007F08FF805B05DF804EB8B
:10185000714672467346F4468EF30088744700BFA3
:10186000593A00001FB51EF0010FCDE90123009188
:1018700003460CBF01210021074A40F2031007F084
:1018800073F805B05DF804EB714672467346F44692
:101890008EF30088744700BF3D3800001FB51EF06E
:1018A000010FCDE90123009103460CBF0121002166
:1018B000074A40F2031007F057F805B05DF804EB53
:1018C000714672467346F4468EF30088744700BF33
:1018D000933800001FB51EF0010FCDE901230091E0
:1018E00003460CBF01210021074A40F2031007F014
:1018F0003BF805B05DF804EB714672467346F4465A
:101900008EF30088744700BFD73800001FB51EF063
:10191000010FCDE90123009103460CBF01210021F5
:10192000074A40F2031007F01FF805B05DF804EB1A
:10193000714672467346F4468EF30088744700BFC2
:10194000353900001FB51EF0010FCDE901230091CC
:1019500003460CBF01210021074A40F2031007F0A3
:1019600003F805B05DF804EB714672467346F44621
:101970008EF30088744700BF873900001FB51EF042
:10198000010FCDE90123009103460CBF0121002185
:10199000074A40F2031006F0E7FF05B05DF804EBDC
:1019A000714672467346F4468EF30088744700BF52
:1019B000D73900001FB51EF0010FCDE901230091BA
:1019C00003460CBF01210021074A40F2031006F034
:1019D000CBFF05B05DF804EB714672467346F446E2
:1019E0008EF30088744700BFA93C00001FB51EF0AD
:1019F000010FCDE90123009103460CBF0121002115
:101A0000074A40F2031006F0AFFF05B05DF804EBA3
:101A1000714672467346F4468EF30088744700BFE1
:101A2000F93C00001FB51EF0010FCDE90123009124
:101A300003460CBF01210021074A40F2031006F0C3
:101A400093FF05B05DF804EB714672467346F446A9
:101A50008EF30088744700BF833A00001FB51EF064
:101A6000010FCDE90123009103460CBF01210021A4
:101A7000074A40F2031006F077FF05B05DF804EB6B
:101A8000714672467346F4468EF30088744700BF71
:101A9000F13A00001FB51EF0010FCDE901230091BE
:101AA00003460CBF01210021074A40F2031006F053
:101AB0005BFF05B05DF804EB714672467346F44671
:101AC0008EF30088744700BF5F3B00001FB51EF017
:101AD000010FCDE90123009103460CBF0121002134
:101AE000074A40F2031006F03FFF05B05DF804EB33
:101AF000714672467346F4468EF30088744700BF01
:101B0000A53B00001FB51EF0010FCDE90123009198
:101B100003460CBF01210021074A40F2031006F0E2
:101B200023FF05B05DF804EB714672467346F44638
:101B30008EF30088744700BF053C00001FB51EF0FF
:101B4000010FCDE90123009103460CBF01210021C3
:101B5000074A40F2031006F007FF05B05DF804EBFA
:101B6000714672467346F4468EF30088744700BF90
:101B7000593C00001FB51EF0010FCDE90123009173
:101B800003460CBF01210021074A40F2031006F072
:101B9000EBFE05B05DF804EB714672467346F44601
:101BA0008EF30088744700BF9D3700001FB51EF0FC
:101BB000010FCDE90123009103460CBF0121002153
:101BC000074A40F2031006F0CFFE05B05DF804EBC3
:101BD000714672467346F4468EF30088744700BF20
:101BE000ED3700001FB51EF0010FCDE90123009174
:101BF00003460CBF01210021074A40F2031006F002
:101C0000B3FE05B05DF804EB714672467346F446C8
:101C10008EF30088744700BFB73500001FB51EF073
:101C2000010FCDE90123009103460CBF01210021E2
:101C3000074A40F2031006F097FE05B05DF804EB8A
:101C4000714672467346F4468EF30088744700BFAF
:101C5000253600001FB51EF0010FCDE901230091CC
:101C600003460CBF01210021074A40F2031006F091
:101C70007BFE05B05DF804EB714672467346F44690
:101C80008EF30088744700BF1D3500001FB51EF09D
:101C9000010FCDE90123009103460CBF0121002172
:101CA000074A40F2031006F05FFE05B05DF804EB52
:101CB000714672467346F4468EF30088744700BF3F
:101CC000713500001FB51EF0010FCDE90123009111
:101CD00003460CBF01210021074A40F2031006F021
:101CE00043FE05B05DF804EB714672467346F44658
:101CF0008EF30088744700BF933600001FB51EF0B6
:101D0000010FCDE90123009103460CBF0121002101
:101D1000074A40F2031006F027FE05B05DF804EB19
:101D2000714672467346F4468EF30088744700BFCE
:101D3000EB3600001FB51EF0010FCDE90123009125
:101D400003460CBF01210021074A40F2031006F0B0
:101D50000BFE05B05DF804EB714672467346F4461F
:101D60008EF30088744700BF4B3700001FB51EF08C
:101D7000010FCDE90123009103460CBF0121002191
:101D8000074A40F2031006F0EFFD05B05DF804EBE2
:101D9000714672467346F4468EF30088744700BF5E
:101DA000E13D00001FB51EF0010FCDE901230091B8
:101DB00003460CBF01210021074A40F2031006F040
:101DC000D3FD05B05DF804EB714672467346F446E8
:101DD0008EF30088744700BF593E00001FB51EF007
:101DE000010FCDE90123009103460CBF0121002121
:101DF000074A40F2031006F0B7FD05B05DF804EBAA
:101E0000714672467346F4468EF30088744700BFED
:101E1000D13E00001FB51EF0010FCDE90123009156
:101E200003460CBF01210021074A40F2031006F0CF
:101E30009BFD05B05DF804EB714672467346F446AF
:101E40008EF30088744700BFD73E00001FB51EF018
:101E5000010FCDE90123009103460CBF01210021B0
:101E6000074A40F2031006F07FFD05B05DF804EB71
:101E7000714672467346F4468EF30088744700BF7D
:101E8000E93E00001FB51EF0010FCDE901230091CE
:101E900003460CBF01210021074A40F2031006F05F
:101EA00063FD05B05DF804EB714672467346F44677
:101EB0008EF30088744700BFEF3E00001FB51EF090
:101EC000010FCDE90123009103460CBF0121002140
:101ED000074A40F2031006F047FD05B05DF804EB39
:101EE000714672467346F4468EF30088744700BF0D
:101EF000F53E00001FB51EF0010FCDE90123009152
:101F000003460CBF01210021074A40F2031006F0EE
:101F10002BFD05B05DF804EB714672467346F4463E
:101F20008EF30088744700BF013F00001FB51EF00C
:101F3000010FCDE90123009103460CBF01210021CF
:101F4000074A40F2031006F00FFD05B05DF804EB00
:101F5000714672467346F4468EF30088744700BF9C
:101F6000FB3E00001FB51EF0010FCDE901230091DB
:101F700003460CBF01210021074A40F2031006F07E
:101F8000F3FC05B05DF804EB714672467346F44607
:101F90008EF30088744700BFE33E00001FB51EF0BB
:101FA000010FCDE90123009103460CBF012100215F
:101FB000074A40F2031006F0D7FC05B05DF804EBC9
:101FC000714672467346F4468EF30088744700BF2C
:101FD000073F00001FB51EF0010FCDE9012300915E
:101FE00003460CBF01210021074A40F2031006F00E
:101FF000BBFC05B05DF804EB714672467346F446CF
:102000008EF30088744700BFDD3E00001FB51EF050
:10201000010FCDE90123009103460CBF01210021EE
:10202000074A40F2031006F09FFC05B05DF804EB90
:10203000714672467346F4468EF30088744700BFBB
:102040000D3F00001FB51EF0010FCDE901230091E7
:1020500003460CBF01210021074A40F2031006F09D
:1020600083FC05B05DF804EB714672467346F44696
:102070008EF30088744700BF5D3F00001FB51EF05F
:10208000010FCDE90123009103460CBF012100217E
:10209000074A40F2031006F067FC05B05DF804EB58
:1020A000714672467346F4468EF30088744700BF4B
:1020B000A73F00001FB51EF0010FCDE901230091DD
:1020C00003460CBF01210021074A40F2031006F02D
:1020D0004BFC05B05DF804EB714672467346F4465E
:1020E0008EF30088744700BFF73F00001FB51EF055
:1020F000010FCDE90123009103460CBF012100210E
:10210000074A40F2031006F02FFC05B05DF804EB1F
:10211000714672467346F4468EF30088744700BFDA
:10212000414000001FB51EF0010FCDE901230091D1
:1021300003460CBF01210021074A40F2031006F0BC
:1021400013FC05B05DF804EB714672467346F44625
:102150008EF30088744700BFE94000001FB51EF0F1
:10216000010FCDE90123009103460CBF012100219D
:10217000074A40F2031006F0F7FB05B05DF804EBE8
:10218000714672467346F4468EF30088744700BF6A
:10219000494100001FB51EF0010FCDE90123009158
:1021A00003460CBF01210021074A40F2031006F04C
:1021B000DBFB05B05DF804EB714672467346F446EE
:1021C0008EF30088744700BFAD4100001FB51EF0BC
:1021D000010FCDE90123009103460CBF012100212D
:1021E000074A40F2031006F0BFFB05B05DF804EBB0
:1021F000714672467346F4468EF30088744700BFFA
:10220000ED4100001FB51EF0010FCDE90123009143
:1022100003460CBF01210021074A40F2031006F0DB
:10222000A3FB05B05DF804EB714672467346F446B5
:102230008EF30088744700BF214200001FB51EF0D6
:10224000010FCDE90123009103460CBF01210021BC
:10225000074A40F2031006F087FB05B05DF804EB77
:10226000714672467346F4468EF30088744700BF89
:10227000FB4200001FB51EF0010FCDE901230091C4
:1022800003460CBF01210021074A40F2031006F06B
:102290006BFB05B05DF804EB714672467346F4467D
:1022A0008EF30088744700BF7D4400001FB51EF008
:1022B000010FCDE90123009103460CBF012100214C
:1022C000074A40F2031006F04FFB05B05DF804EB3F
:1022D000714672467346F4468EF30088744700BF19
:1022E000C14200001FB51EF0010FCDE9012300918E
:1022F00003460CBF01210021074A40F2031006F0FB
:1023000033FB05B05DF804EB714672467346F44644
:102310008EF30088744700BF414300001FB51EF0D4
:10232000010FCDE90123009103460CBF01210021DB
:10233000074A40F2031006F017FB05B05DF804EB06
:10234000714672467346F4468EF30088744700BFA8
:10235000F94300001FB51EF0010FCDE901230091E4
:1023600003460CBF01210021074A40F2031006F08A
:10237000FBFA05B05DF804EB714672467346F4460D
:102380008EF30088744700BFD14400001FB51EF0D3
:10239000010FCDE90123009103460CBF012100216B
:1023A000074A40F2031006F0DFFA05B05DF804EBCF
:1023B000714672467346F4468EF30088744700BF38
:1023C000774800001FB51EF0010FCDE901230091F1
:1023D00003460CBF01210021074A40F2031006F01A
:1023E000C3FA05B05DF804EB714672467346F446D5
:1023F0008EF30088744700BF1B4800001FB51EF015
:10240000010FCDE90123009103460CBF01210021FA
:10241000074A4FF4827006F0A7FA05B05DF804EBA6
:10242000714672467346F4468EF30088744700BFC7
:10243000F76600001FB51EF0010FCDE901230091E2
:1024400003460CBF01210021074A4FF4827006F0B9
:102450008BFA05B05DF804EB714672467346F4469C
:102460008EF30088744700BF016700001FB51EF09F
:10247000010FCDE90123009103460CBF012100218A
:10248000074A4FF4827006F06FFA05B05DF804EB6E
:10249000714672467346F4468EF30088744700BF57
:1024A000316700001FB51EF0010FCDE90123009137
:1024B00003460CBF01210021074A4FF4827006F049
:1024C00053FA05B05DF804EB714672467346F44664
:1024D0008EF30088744700BF856700001FB51EF0AB
:1024E000010FCDE90123009103460CBF012100211A
:1024F000074A40F2051006F037FA05B05DF804EB24
:10250000714672467346F4468EF30088744700BFE6
:10251000154C00001FB51EF0010FCDE901230091FD
:1025200003460CBF01210021074A40F2051006F0C6
:102530001BFA05B05DF804EB714672467346F4462B
:102540008EF30088744700BF694C00002DE9F05FEE
:1025500002DF4FF00004254626462746A046A14646
:10256000A246A346F04703DFBDE8F09F2DE9F05FE8
:1025700006DF4FF00004254626462746A046A14622
:10258000A246A346F04707DFBDE8F09FC3438B4256
:102590006DD332F01F036AD1013902F014030144F4
:1025A00010B481EA0004142B0ED8DFE803F03F0DCD
:1025B0000D0D480D0D0D0D0D0D0D0D0D0D0D510DCC
:1025C0000D0D1000DC0200D4002010BC70471F2C41
:1025D00040E8C0F305D91C4641E8C0F10B469C42D7
:1025E000F2D122F01402013A0A2AEDD801A151F8E1
:1025F00022F000BF272600006926000021260000E7
:10260000C9250000C9250000C9250000C925000012
:102610006326000027260000C525000021260000B3
:102620009B02D2D4D0E71A03CFD4CDE71F2C40E8C9
:1026300000F3D6D91C4641E800F10B46CFE71F2C2A
:1026400040E840F3CDD91C4641E840F10B46C6E7CF
:102650001F2C40E880F3C4D91C4641E880F10B46AA
:10266000BDE75B03B0D5B0E75902AED5ACE70020BB
:10267000704700BF2DE9E04F2746A046A146A2467D
:10268000A346A446A2B02DEC000A84F30088254698
:102690002646A4473DEC000A22B0BDE8E08F0000CA
:1026A00053B94AB9002908BF00281CBF4FF0FF31B9
:1026B0004FF0FF3000F070B9ADF1080C6DE904CEB9
:1026C00000F006F8DDF804E0DDE9022304B070470D
:1026D0002DE9F047089E0D4604468A46002B7FD11F
:1026E0008A42174641D9B2FA82F24AB1C2F12001B8
:1026F00005FA02F39740944020FA01F141EA030AF7
:102700004FEA17484FEA144C1FFA87F9BAFBF8FE54
:1027100008FB1EA30EFB09F14CEA0343994206D9BC
:10272000FB1802D2994200F224810EF1FF3E591AA1
:10273000A3B2B1FBF8F008FB101100FB09F943EA62
:102740000144A14505D93C1902D2A14500F20E81F0
:102750000138A4EB090440EA0E4000211EB1D44028
:102760000023C6E90043BDE8F08702B9FFDEB2FAF4
:1027700082F2002A4FD1CB1B4FEA174E1FFA87F87F
:102780000121250CB3FBFEFC0EFB1C302B4608FB85
:102790000CF945EA0045A9450AD97D192CBF01234A
:1027A0000023A94502D9002B00F0D9800CF1FF3C91
:1027B000A5EB0905A3B2B5FBFEF00EFB105508FB17
:1027C00000F843EA0544A04505D93C1902D2A045CA
:1027D00000F2C9800138A4EB080440EA0C40BDE7D0
:1027E0008B4208D9002E00F0B1800021C6E9000517
:1027F0000846BDE8F087B3FA83F1002946D1AB4221
:10280000C0F0A780824240F2A4800846002EAAD0E1
:10281000C6E9004AA7E7C2F12000974001FA02F397
:102820004FEA174EC14024FA00F51FFA87F894408A
:102830001D43B1FBFEF02B0C0EFB101100FB08FC3E
:1028400043EA01439C4509D9FB182CBF0121002113
:102850009C4502D9002900F095800138A3EB0C03B8
:10286000ADB2B3FBFEF10EFB113301FB08FC45EAF0
:102870000345AC4505D97D1902D2AC4500F28980EB
:102880000139A5EB0C0341EA00417AE7C1F12004CC
:102890008B4002FA01F705FA01FCE24020FA04F845
:1028A000E54000FA01FE134348EA0C024FEA1348E0
:1028B0004FEA124C1FFA83F9B5FBF8FA08FB1A55D8
:1028C0000AFB09F04CEA054C60450AD913EB0C0CE5
:1028D0002CBF01250025604501D9002D55D00AF1F6
:1028E000FF3AACEB000C92B2BCFBF8F008FB10CC4A
:1028F00000FB09F942EA0C4CE14505D913EB0C0C3D
:1029000001D2E1453BD8013840EA0A40ACEB090C62
:10291000A0FB0789CC4545464A4602D306D1C645A9
:1029200004D20138B8EB070569EB03022EB3BEEB06
:1029300005036CEB020C23FA01F20CFA04F42CFAF6
:1029400001F300211443C6E900430CE73146304649
:1029500009E7841A65EB030301209A4656E7ACF1B8
:10296000020C3D4424E702383C4434E702383C443E
:10297000EFE6AEF1020E3B44D9E63146F3E602380B
:102980009C44C1E702383B4468E7AAF1020A9C4430
:10299000A7E702393D4474E7704700BF0346F0B52E
:1029A000CEB2C2B113F0030516D10F0446EA01649A
:1029B00007F47F0709023C4389B221431446D71824
:1029C000032C0DD86FF00301940801FB042203EBE4
:1029D0008403AA420AD1F0BD03F8016B013AE0E793
:1029E000A7EB040CCCF80010043CE9E7EE540135E9
:1029F000EFE70346002030B5013A00D230BD1D7824
:102A00000C78A54202D008B9281BF5E70133013143
:102A1000F2E70346F0B58AB343EA010515F0010574
:102A200013D1012A23D941EA030414F0020412D17C
:102A30001619032E15D86FF00304960804FB06221E
:102A400003EB860301EB860116E011F8014B013A16
:102A500003F8014BDFE731F8024B023A23F8024B4F
:102A6000DFE70E1B37681E1B3760043CE0E70024DD
:102A7000DEE76C5CEC5401359542FAD1F0BD0346BB
:102A80000020884200D170471A5C002AFBD0013038
:102A9000F7E705DF7047F0B51546282295B00746E1
:102AA0000E460DEB020000211C46FFF777FF09AA36
:102AB00003922C220423CDE904271422CDE90143FB
:102AC000CDE9062609930321012301AA03A808954D
:102AD000FEF7E8FD15B0F0BD10B58EB00446282213
:102AE000002104A8FFF75AFF0523039303AB0193CA
:102AF0002C230293002301211A4601A80594FEF716
:102B0000EDFD0EB010BD70B52C2690B005AB05469E
:102B10000C46324600211846FFF740FF1423049369
:102B20000123CDE90106194603AA01A807950394DC
:102B3000FEF748FD10B070BDF0B591B007460E46E7
:102B400015460021282206A81C46FFF727FF072369
:102B5000059305AB01932C23CDE90236012303AA8B
:102B6000194601A807970495FEF7F0FD049B236022
:102B700011B0F0BD30B591B004460D4628220021B9
:102B800006A8FFF70BFF0C230593236803AA0993FC
:102B900005AB01932C23CDE90234042304930123D4
:102BA00001A819460895FEF75DFE11B030BD70B55D
:102BB00092B004460E4615460021282208A8FFF7C9
:102BC000EDFE0D230793236802210B9307AB0393BC
:102BD0002C23CDE90436042301AA029303A8012380
:102BE00006950194FEF75AFE12B070BDF0B593B091
:102BF00004460F4616460021282208A81D46FFF766
:102C0000CDFE0E230793236801210B9307AB01939D
:102C10002C23CDE90234042303AACDE9043701A80B
:102C200002230696FEF756FE069B2B6013B0F0BDFE
:102C30002DE9F04395B00746DDE91C980E46144691
:102C4000002124220AA81D46FFF7A8FE2323CDE970
:102C50000B7609931395B9F1000F07D1B8F1000F66
:102C600004D06FF0860015B0BDE8F08309AB039384
:102C70002C2304931E9B102D05931F9BCDF82080C1
:102C8000CDE90639209B0193219B0293E9D824B119
:102C900022460FAB2544AA4209D1012301AA0321F0
:102CA00003A8FFF763F8229B029A1A60DBE712F889
:102CB000011B03F8011BEEE72DE9F0474FF0240A52
:102CC00007460E461D4694B01446DDE91C98524650
:102CD00000210AA8FFF762FECDE90B76CDF824A00B
:102CE0001395B9F1000F07D1B8F1000F04D06FF0C0
:102CF000860014B0BDE8F08709AB03932C2304933E
:102D00001E9B102D05931F9BCDF82080CDE9063921
:102D1000209B0193219B0293E9D824B122460FAB5B
:102D20002544AA4209D1012301AA032103A8FFF7E0
:102D300039F8229B029A1A60DBE712F8011B03F8AC
:102D4000011BEEE7F0B593B007460E46154600218D
:102D5000282208A81C46FFF721FE3123079307AB62
:102D600003932C23CDE90435189B01AA0193199BE9
:102D70000221029303A80123CDE909760694FFF707
:102D80007DF91A9B029A1A6013B0F0BD10B590B08D
:102D900004462822002106A8FFF700FE3D230593E4
:102DA000236803AA099305AB01932C23CDE90234D0
:102DB00004230493012301A81946FFF7AFFA10B0CA
:102DC00010BD30B591B005460C462822002106A85A
:102DD000FFF7E4FD3F23059305AB01932C230494F7
:102DE000CDE902353CB1012303AA194601A8FFF73A
:102DF000CDFA11B030BD2046FBE730B591B00446A6
:102E00000D462822002106A8FFF7C8FD35230593AB
:102E1000236803AA099305AB01932C23CDE902345F
:102E200004230493012301A819460895FFF796F996
:102E300011B030BDF0B591B006460F4615460021E1
:102E4000282206A81C46FFF7A9FD382305933368FE
:102E50000221099305AB01932C23CDE90235002310
:102E600001A81A46ADF818700494FFF7CBF911B019
:102E7000F0BD70B592B005460E46144600212822DA
:102E800008A8FFF78BFD3C230793336802210B93BF
:102E900007AB03932C23CDE90435142306930423B5
:102EA00001AA029303A801230194FFF71BFA12B0B1
:102EB00070BD00B589B0CDE900010821CDE903134B
:102EC0000AAB0693042307930023059203211A46B5
:102ED00002A8CDF808D0FEF779FA032808BF6FF0F2
:102EE000860009B05DF804FB10B58AB0019202AA11
:102EF00006920822079201AA089204220D9C0992C8
:102F00000C9ACDE90201CDE904231CB96FF08600CB
:102F10000AB010BD0123022104AA06A8FEF772FA26
:102F20000328F3D0059B2360F2E77FB50823CDE9A2
:102F300003320C2305930123CDE9000104AA1946AD
:102F400002A8CDF808D0FEF779FA032808BF6FF081
:102F5000860007B05DF804FB1FB508230393002328
:102F6000CDE900011A46012102A8CDF808D0FEF7EC
:102F700081FA05B05DF804FB1FB501AB0293042391
:102F80000393002301901A46012102A8FFF78AFA51
:102F900005B05DF804FB7FB501AB02930423CDE9D6
:102FA000033201230190059104AA194602A8FFF7F4
:102FB0005DFA07B05DF804FB8142F8B5054613469B
:102FC00003D3FFF726FD2846F8BD82181944002BCD
:102FD000F9D041EA020010F0010011D1012B23D9F0
:102FE00041EA020414F0020410D11E19032E13D872
:102FF0006FF003049E0874432344224421441CE0E0
:1030000011F8010D013B02F8010DE0E731F8024D26
:10301000023B22F8024DE1E70E1956F8047C16191E
:1030200046F8047C043CE0E70024DEE70C1A14F8C0
:10303000016C141A04F8016C01309842F6D1C2E711
:103040000020034BC3E90000C3E90200704700BF42
:10305000A85600200229024630B526D12BBB436872
:10306000042B22D103681868D2E9022302BB18435B
:103070001ED1124B9968F1B1012904D1C3E90000B6
:10308000C3E9020030BD1A680D4D02F11004C4F30B
:1030900009042C59013918342244C2F309021A6078
:1030A000DA689960141BDC60ECE76FF08100E9E7F7
:1030B0006FF08500E6E76FF08000E3E7A856002098
:1030C000A8520020084610B579B9022B0DD15368DB
:1030D000042B0AD1D368042B07D1054B91689C6857
:1030E0001268DB6814600B6010BD6FF08100FBE7B5
:1030F000A8560020012930B522D1012B20D14368E8
:10310000042B1DD15368042B1AD103681468186866
:103110000E4B9A68824216D900211B680C4D03F1B0
:103120001002C2F309028142AA5803D100201832CA
:10313000226030BD18331344C3F309030131EEE7B5
:103140006FF08100F5E76FF08000F2E7A8560020ED
:10315000A852002001292DE9F34740F09680002B6A
:1031600040F093804368082B40F08F80046801A8EA
:1031700005F01CFC002840F08B80DDF804C0BCF199
:10318000000FC0F28580216811F0030640F08380B3
:10319000B1F57A7F00F28280434B01F118059A68FD
:1031A000F2B11F68D3F80CE0DFF80881CEF580603B
:1031B000A84254D3D3F80480002A64D0DFF8F4A0E6
:1031C00008F11009C9F309095AF8099008F1180023
:1031D0004844C0F30900C3E9022E0246C3E900785F
:1031E0003248D0E9007E17F101094EF10008C0E92C
:1031F00000982F48C0E9007E0027C0E9027C671EC6
:103200000C4400F1100C033417F801EFA7420CF83E
:1032100001EBF9D1002714314754441801216170A2
:103220000221A1700321B2F5806F1046214FE17099
:1032300037D21F4C811914F801CB0136C1F30901B3
:10324000AE4207F801C0F5D3D8689968054400205C
:103250000131C3E90121DD6002B0BDE8F0876AB148
:1032600007F11000C0F3090058F80000013A1830C7
:103270000744AEEB000EC7F3090797E796461746DB
:1032800090461046A7E73846A5E76FF08100E3E7D0
:103290006FF08400E0E76FF08500DDE76FF08C00F1
:1032A000DAE76FF08900D7E7A8560020A052002087
:1032B000B8560020A85200200229F0B550D1012BA9
:1032C0004ED14368042B4BD10368C468D3F800C0C7
:1032D0008368576803B924B100236FF085005360F9
:1032E000F0BD214B99688C4503D36FF0800054608A
:1032F000F6E71B68DFF874E026461946754601F1CB
:103300001000C0F30900B4455EF8000009D100F1D7
:1033100018018F424FF0000013D250606FF0890007
:10332000DEE718310144C1F309010136E7E703F193
:103330001007C7F30907EF5918333B44C3F30903D8
:103340000130B042F3D116688C4202D300205160A4
:10335000C6E7E018C0F30900285C30550134F3E7F4
:103360006FF08100BCE700BFA8560020A8520020E3
:1033700008B505F01BFB002814BF6FF08400002087
:1033800008BD000008B500F027F8B8B90C4804F0F3
:10339000C9FA0C4804F0C6FA0B4804F0C3FA0B480B
:1033A00004F0C0FA0A4804F0BDFA4FF4005109488D
:1033B00007F056FCBDE808400AF070BE08BD00BF2B
:1033C000DE670000EF6700001B6800004168000036
:1033D00061680000B85A002008B54FF492520021ED
:1033E0000248FFF7DBFA002008BD00BFB87A0020D2
:1033F0000023F7B5074601A80E4615460193FFF7CF
:10340000B7FFD8B9336803BB15B34FF41272DFF8B6
:1034100048C02B6002FB03F454F80C109E460133A5
:1034200071B94FF0010E0CEB04014CF804E0019A65
:1034300010346444C1E9012733602C6003B0F0BD4F
:10344000082BE7D16FF08400F8E76FF08800F5E70C
:103450006FF08600F2E700BFB87A00200023F7B5CE
:103460000668074601A80193FFF782FF044620BBC8
:10347000013E072E24D84FF412737343124DE958BE
:10348000EA1801291CD150680199884218D11033DB
:10349000581993680021013B032B96BF0B4A224623
:1034A00032F81320FFF77AFA4FF412735E430023C9
:1034B000AA19C2E90133AB513B60204603B0F0BD0D
:1034C0006FF08604F9E700BFB87A00206868000052
:1034D000002373B5064601A80C4615460193FFF775
:1034E00047FFA0B9611E072913D84FF4127359433F
:1034F000094A54585318012C0BD19C68B44208D186
:103500005C68019B9C4204D110311144296002B0D7
:1035100070BD6FF08800FAE7B87A00202DE9F3411A
:103520001446002201290546019208461DD1022BAE
:103530001BD16B682C2B18D16368042B15D1D4E9EF
:1035400002782B6826681D6901AA29463560FFF7B5
:10355000BFFF38B9424639460198356004F10C0383
:103560000AF0B2FB02B0BDE8F0816FF08000F9E72D
:1035700037B50446184600230229019318D10128C3
:1035800016D163682C2B13D15368042B10D12368F8
:10359000D4E902541969136801AA1960FFF798FF6A
:1035A00020B922462946019809F088FD03B030BDB4
:1035B0006FF08000FAE72DE9FF410446184600232A
:1035C000012900932BD1012829D15368042B26D13E
:1035D00063682C2B23D12368166819696A46D3E9DE
:1035E0000287019101A9FFF703FF044698B9019BE7
:1035F00002AD29464046336000F0E0FB044638B98E
:1036000095E806003B46009809F040FD044610B1DD
:103610003046FFF723FF204604B0BDE8F0816FF08D
:103620008004F8E72DE9FF410446184600230129EC
:1036300000932BD1012829D15368042B26D163682C
:103640002C2B23D12368166819696A46D3E90287AF
:10365000019101A9FFF7CCFE044698B9019B02AD88
:1036600029464046336000F0A9FB044638B995E886
:1036700006003B46009809F015FD044610B130469F
:10368000FFF7ECFE204604B0BDE8F0816FF0800447
:10369000F8E72DE9FF41144600220229039221D1C7
:1036A000022B1FD143682C2B1CD16368042B19D12A
:1036B000D0E90256D4E90278036801201969236829
:1036C0001960E26003AAFFF703FF40B90C343B46E0
:1036D00032462946CDE90084039809F00DFD04B077
:1036E000BDE8F0816FF08000F9E72DE9F341154660
:1036F0000022012904460192084623D1022B21D140
:1037000063682C2B1ED16B68042B1BD1D5E9027882
:1037100023682E6819693160EA6001AAFFF7D8FEB4
:10372000044658B942463946019805F10C0309F0A0
:10373000FDFC044610B93046FFF790FE204602B06B
:10374000BDE8F0816FF08004F8E737B50024012967
:103750000546019418461ED1012B1CD16B682C2BF9
:1037600019D15368042B16D12B681568196901AA61
:103770002960FFF7ADFE38B9019809F0EBFB04466C
:10378000284624B1FFF76AFE204603B030BDFFF79C
:1037900065FE0446F8E76FF08004F5E72DE9F04791
:1037A0000229144686B01ED1012B1CD143682C2B54
:1037B00019D1D0E90278D2E9009A036804AD29460C
:1037C0009868DE6800F0FAFA50B90434CDE902A432
:1037D000CDE900893B4695E8030032460AF0A2FA9B
:1037E00006B0BDE8F0876FF08000F9E72DE9F047FB
:1037F0000229144686B01ED1012B1CD143682C2B04
:1038000019D1D0E90278D2E9009A036804AD2946BB
:103810009868DE6800F0D2FA50B90434CDE902A409
:10382000CDE900893B4695E80300324609F09AFC51
:1038300006B0BDE8F0876FF08000F9E773B50024AB
:103840000129009422D1012B20D15368042B1DD1D2
:1038500043682C2B1AD1016815680B69CE68019357
:103860006A4603202B6001A9FFF7C2FD044650B948
:10387000019B314600982B6008F09CFE044610B175
:103880002846FFF7EBFD204602B070BD6FF08004C4
:10389000F9E737B500240229019419D1012B17D17A
:1038A00043682C2B14D15368042B11D1D0E9024565
:1038B000036803201969136801AA1960FFF708FE5D
:1038C00020B92A462146019808F093FE03B030BD86
:1038D0006FF08000FAE72DE9F34115460022012937
:1038E000019224D1022B22D143682C2B1FD16B686B
:1038F000042B1CD1D5E9027803682E6819690320CE
:103900003160EA6001AAFFF7E3FD044658B9424678
:103910003946019805F10C0308F07FFE044610B902
:103920003046FFF79BFD204602B0BDE8F0816FF006
:103930008004F8E7F7B500240229019420D1012B77
:103940001ED143682C2B1BD15368042B18D1D0E90E
:1039500002670368156819690320296001AAFFF747
:10396000B7FD044648B93A463146019808F066FE6C
:10397000044610B92846FFF771FD204603B0F0BD9C
:103980006FF08004F9E737B50024012901941FD1B5
:10399000012B1DD143682C2B1AD15368042B17D14E
:1039A0000368156819690320296001AAFFF790FDD3
:1039B00038B9019808F0F3FD0446284624B1FFF712
:1039C0004DFD204603B030BDFFF748FD0446F8E743
:1039D0006FF08004F5E713B500240129CDE9004418
:1039E0001BD1012B19D143682C2B16D15368042B02
:1039F00013D10368146803206A461969FFF768FD4C
:103A000048B92146032001AAFFF7F2FC18B9DDE905
:103A1000000108F077FE02B010BD6FF08000FAE7F9
:103A2000022973B50546144613D1012B11D1436801
:103A30002C2B0ED1D5E9021200260368D868D4E9F0
:103A4000003544F8046FCDE9005408F01EFE02B0C2
:103A500070BD6FF08000FAE7032913B50ED16BB982
:103A600043682C2B0AD14369046800938168D0E92C
:103A70000323E06808F019FE02B010BD6FF080006B
:103A8000FAE72DE9FF410024012900942DD1012BF3
:103A90002BD15368042B28D143682C2B25D10368E4
:103AA00015681969D3E9028701916A4629600220E5
:103AB00001A9FFF79DFC044698B9019B02AE31466F
:103AC00040462B6000F07AF9044638B996E80600C3
:103AD0003B46009808F08BFE044610B12846FFF7DD
:103AE000BDFC204604B0BDE8F0816FF08004F8E72B
:103AF0002DE9FF410024012900942DD1012B2BD168
:103B00005368042B28D143682C2B25D103681568F2
:103B10001969D3E9028701916A462960022001A947
:103B2000FFF766FC044698B9019B02AE3146404659
:103B30002B6000F043F9044638B996E806003B468E
:103B4000009808F060FE044610B12846FFF786FC96
:103B5000204604B0BDE8F0816FF08004F8E737B587
:103B60000446084600210228019118D1012B16D1E4
:103B700063682C2B13D15368042B10D12368D4E92C
:103B800002541969136801AA1960FFF7A1FC20B952
:103B900022462946019808F042FE03B030BD6FF07E
:103BA0008000FAE72DE9F341044618460023012975
:103BB0001546019323D1022821D162682C2A1ED1F7
:103BC0006A68042A1BD1D5E9027822682E68116937
:103BD00001AA3160EB60FFF77BFC044658B942460E
:103BE0003946019805F10C0308F02BFE044610B984
:103BF0003046FFF733FC204602B0BDE8F0816FF09D
:103C00008004F8E7F7B50446084600210228019130
:103C10001FD1012B1DD163682C2B1AD15368042BA3
:103C200017D1D4E9026723681568196901AA2960C8
:103C3000FFF74EFC044648B93A463146019808F071
:103C4000DFFE044610B92846FFF708FC204603B003
:103C5000F0BD6FF08004F9E737B500240129019425
:103C60001FD1012B1DD143682C2B1AD15368042B73
:103C700017D10368156819690220296001AAFFF7A6
:103C800027FC38B9019808F04FFD0446284624B1B6
:103C9000FFF7E4FB204603B030BDFFF7DFFB04462F
:103CA000F8E76FF08004F5E72DE9F04702291446A4
:103CB00086B01ED1012B1CD143682C2B19D1D0E921
:103CC0000278D2E9009A036804AD29469868DE6854
:103CD00000F074F850B90434CDE902A4CDE90089AC
:103CE0003B4695E80300324608F0A4FE06B0BDE866
:103CF000F0876FF08000F9E72DE9F047032986B0DF
:103D00001CD1DBB943682C2B18D1D0E90278D0E95B
:103D1000049A056804AC2146A868EE6800F04EF8E5
:103D200048B9CDE9019ACDF800803B4694E80300FC
:103D3000324608F094FE06B0BDE8F0876FF08000D0
:103D4000F9E72DE9F0418846164607468AB000B3E8
:103D5000FAB135466C46282200216846FEF71EFE61
:103D60000FCC0FC50FCC0FC594E8030085E8030006
:103D700000203B8833807B687360FB6833613B695C
:103D800073617B887380BB68C6E902380AB0BDE8FE
:103D9000F0816FF08000F9E730B561B158B1D0E93A
:103DA00001230468D0E90405C1E903050020C1E945
:103DB00000428B6030BD6FF08000FBE7002337B519
:103DC000054601A80C460193FFF7D2FA18B924B1B1
:103DD000019B2560636003B030BD6FF08000FAE79F
:103DE0002DE9F04F0329844614468FB031D1012BC1
:103DF0002FD143682C2B2CD1DCE902AB136805686A
:103E00000B9353680022D5E9020609930DF130089F
:103E1000DCF81030AF6ADCF81490414662600A9317
:103E2000FFF7CCFF90B9099BCDE9029A06930B9B53
:103E30000434CDE904B30A9B0794CDE900733246FC
:103E400098E8030005F1180309F000FA0FB0BDE887
:103E5000F08F6FF08000F9E72DE9F04F03298446D9
:103E600014468FB031D1012B2FD143682C2B2CD18C
:103E7000DCE902AB136805680B9353680022D5E9AF
:103E8000020609930DF13008DCF81030AF6ADCF857
:103E90001490414662600A93FFF790FF90B9099B26
:103EA000CDE9029A06930B9B0434CDE904B30A9B37
:103EB0000794CDE90073324698E8030005F1180332
:103EC00009F046FA0FB0BDE8F08F6FF08000F9E717
:103ED0006FF0850070476FF0850070476FF08500C8
:103EE00070476FF0850070476FF0850070476FF086
:103EF000850070476FF0850070476FF08500704750
:103F00006FF0850070476FF0850070472DE9F0472E
:103F10000229144686B01ED1012B1CD143682C2BDC
:103F200019D1D0E90278D2E9009A036804AD294694
:103F30009868DE68FFF742FF50B90434CDE902A467
:103F4000CDE900893B4695E80300324608F002FEC1
:103F500006B0BDE8F0876FF08000F9E72DE9F04783
:103F6000032986B01CD1DBB943682C2B18D1D0E9CA
:103F70000278D0E9049A056804AC2146A868EE6886
:103F8000FFF71CFF48B9CDE9019ACDF800803B4608
:103F900094E80300324608F037FE06B0BDE8F0872B
:103FA0006FF08000F9E72DE9F0470229144686B04A
:103FB0001ED1012B1CD143682C2B19D1D0E90278DA
:103FC000D2E9009A036804AD29469868DE68FFF7D5
:103FD000F5FE50B90434CDE902A4CDE900893B4691
:103FE00095E80300324608F04DFE06B0BDE8F087C4
:103FF0006FF08000F9E72DE9F047032986B01CD166
:10400000DBB943682C2B18D1D0E90278D0E9049AA7
:10401000056804AC2146A868EE68FFF7CFFE48B9F2
:10402000CDE9019ACDF800803B4694E80300324682
:1040300008F06AFE06B0BDE8F0876FF08000F9E78F
:104040002DE9F04F0329144697B047D1012B45D1F4
:1040500043682C2B42D1D0E90283D4E900B6079300
:104060000369026808934369D2E902970021282274
:104070000CA80AAD0993FEF791FC29464846FFF7C4
:104080009DFE40BB95E803000CAA08F062F810BB47
:104090000CA8BDF830A0BDF832900AF01FF844F229
:1040A00001012AF440528A4204D109F10703B6EB18
:1040B000D30F16D3099B04340293089BCDE9046403
:1040C0000193079BCDF80CB000933A4695E80300A6
:1040D000434608F02DFE17B0BDE8F08F6FF080006A
:1040E000F9E76FF08900F6E72DE9F04F0329144650
:1040F0008BB025D1012B23D143682C2B20D1D0E9C3
:104100000278D0E9049AD4E900B3026808AD2946E0
:104110009068D6680793FFF751FE70B9079BCDE909
:10412000019ACDE903B304340594CDF800803B46F1
:1041300095E80300324608F089FE0BB0BDE8F08F29
:104140006FF08000F9E7000073B5044600200129F4
:10415000009026D1012B24D15068042821D1636816
:104160002C2B1ED12368166819696A46019101A992
:10417000DD68FFF73DF9044630B9019B00983360D4
:10418000094B9D4203D10560204602B070BD29460F
:1041900009F0BEFC04460028F6D03046FFF75EF971
:1041A000F2E76FF08004EFE7000F00B0012937B5A8
:1041B000044618D1012B16D143682C2B13D150681B
:1041C000042810D1002523681468196901AA0195F3
:1041D000FFF77EF910B1256003B030BD214601988C
:1041E00009F09AFAF8E76FF08000F5E7012913B5B6
:1041F00012D18BB942682C2A0ED1016801AA4C69F0
:10420000042009690193FFF763F918B92146019861
:1042100009F08BFA02B010BD6FF08000FAE70000E1
:1042200002292DE9F34146D1002B44D142682C2AC2
:1042300041D1D0E9026701686A46B1F804800420E0
:1042400009690093FFF744F9044610BB009D1B4B1E
:104250002A689A4227D140F2012398451DD101A82E
:10426000FFF786F80446A0B907F10408414601208B
:1042700029F046FA286298B104220DEB0201FEF7FC
:10428000C8FB286A3A4631460430FEF7C2FBC5F83F
:104290002480204602B0BDE8F0816FF08604F8E784
:1042A0006FF08C04F5E73B4632464146284609F05C
:1042B0004EFC0446EDE76FF08004EAE7000F00B023
:1042C000012937B516D1012B14D143682C2B11D1FC
:1042D000D2E900450022036801920420196901AA6D
:1042E000FFF7F6F820B92A462146019809F02CFA82
:1042F00003B030BD6FF08000FAE701297FB51BD114
:10430000D3B942682C2A17D1016801AA8E688D881A
:10431000042009690193FFF7DBF858B902AC214684
:104320003046FFF74BFD28B994E80C002946019868
:1043300009F016FC04B070BD6FF08000FAE70000D1
:10434000F0B5022991B052D1012B50D143682C2BEA
:104350004DD1C368142B4AD15568042D47D1002193
:10436000036886681F69146806A828220291FEF770
:1043700015FB3946284602AAFFF7AAF848BB03A84E
:10438000FEF7F6FF28BB3046039906AAFFF7D9FCD3
:10439000F8B90298174B02689A421CD1BDF81A303E
:1043A0000733B3F5027F4FEAD3061AD2002300F198
:1043B0006805CDE900561A46D0E9080105F0C4F8B1
:1043C00090B93246294604AB06A808F017F8049BBA
:1043D000236011B0F0BD014604AA06A809F018FB3D
:1043E000F5E76FF08C00F2E76FF09200EFE76FF007
:1043F0008000EEE7000F00B0012973B5044638D104
:10440000012B36D143682C2B33D15068042830D18E
:10441000236800241E6915683146019401AA2E60A4
:10442000FFF756F8014608BB019C2E602268124B2C
:104430009A4212D1206A28B1626AFEF7AFFA206A66
:1044400029F064F94FF40E7200212046FEF7A6FA17
:104450002846FFF703F8044608E0204608F0FAFF74
:1044600004460028F4D02846FEF7F8FF204602B0A4
:1044700070BD6FF08004F9E7000F00B02DE9F04146
:10448000022986B021D103BB42682C2A1DD1D0E974
:104490000267016803AAD1F808808D8804200969A1
:1044A0000393FFF715F868B904AC21464046FFF7BF
:1044B00085FC38B9CDE90067294694E80C000398DB
:1044C00009F080FB06B0BDE8F0816FF08000F9E7ED
:1044D0002DE9F0470229144686B01ED1012B1CD1CC
:1044E00043682C2B19D1D0E9027AD2E900890368FC
:1044F00004AD29469868DE68FFF760FC50B90434C3
:10450000CDE90294CDE900A83B4695E80600304687
:1045100009F084FC06B0BDE8F0876FF08000F9E791
:10452000F0B503298FB029D1012B27D143682C2B5B
:1045300024D1C368142B21D15368042B1ED1D0E998
:104540000456876814680021282204A8FEF726FA7A
:10455000002301A80193FEF70BFF68B938460199C3
:1045600004AAFFF7EEFB38B902AB3246294604A88D
:1045700007F044FF029B23600FB0F0BD6FF0800096
:10458000FAE730B5022985B020D1012B1ED143684E
:104590002C2B1BD1C368042B18D15368042B15D1C5
:1045A000836801A81D68002314680193FEF7E0FEEC
:1045B00050B9019B0295039302AA92E803000AF006
:1045C00012FA08B9029B236005B030BD6FF080007D
:1045D000FAE701291FB514D19BB942682C2A10D1E2
:1045E000026801A894680193FEF7C2FE38B9019BE6
:1045F0000294039304AB13E903000AF012FA04B027
:1046000010BD6FF08000FAE701291FB514D19BB9E6
:1046100042682C2A10D1026801A894680193FEF721
:10462000A7FE38B9019B0294039304AB13E903007E
:1046300007F064FD04B010BD6FF08000FAE730B5FC
:1046400001298FB024D1012B22D143682C2B1FD1FB
:104650005368142B1CD1036814680021282204A875
:104660009D68FEF79BF9002301A80193FEF780FEE9
:1046700060B9019B2846194604AA0295039307F0E6
:1046800068FD18B9214604A8FFF786FB0FB030BDBE
:104690006FF08000FAE710B501298CB020D1012B12
:1046A0001ED143682C2B1BD15368142B18D11468CE
:1046B0000021282202A8FEF771F901A8FEF758FE92
:1046C00060B92046019902AAFFF73BFB30B902A866
:1046D00009F004FD214602A8FFF75EFB0CB010BDF7
:1046E0006FF08000FAE7F0B50129144687B01CD1BD
:1046F000012B1AD143682C2B17D1D2E9005603683D
:1047000003A89F6800230393FEF732FE58B9039B6A
:10471000043405930497009406A9334611E9030075
:104720002A4607F0C1FD07B0F0BD6FF08000FAE740
:10473000F0B50129144687B01CD1012B1AD143686A
:104740002C2B17D1D2E90056036803A89F680023D9
:104750000393FEF70DFE58B9039B043405930497A9
:10476000009406A9334611E903002A4607F00BFE20
:1047700007B0F0BD6FF08000FAE701291FB514D132
:104780009BB942682C2A10D1026801A89468019351
:10479000FEF7EEFD38B9019B0294039304AB13E9D5
:1047A00003000AF05BF904B010BD6FF08000FAE777
:1047B00070B5022990B02DD1012B2BD143682C2B41
:1047C00028D15368042B25D1C368142B22D1036848
:1047D000146886682822002106A89D68FEF7DEF886
:1047E000002301A80193FEF7C3FD88B93046019963
:1047F00006AAFFF7A6FA58B9019B28460593059922
:1048000002AB06AA049507F04BFE08B9029B236091
:1048100010B070BD6FF08000FAE730B502298FB09C
:1048200026D1012B24D143682C2B21D1C368142B12
:104830001ED15368042B1BD11468856828220021DF
:1048400004A8FEF7ABF8002301A80193FEF790FD42
:1048500060B92846019904AAFFF773FA30B902A992
:1048600004A809F061FB08B9029B23600FB030BDBA
:104870006FF08000FAE7012908D1012B06D14368C7
:104880002C2B03D1D2E9000109F002BA6FF08000AD
:10489000704700F0ABB900002DE9F7431B4C884688
:1048A00066881968074691461D46264469B1042268
:1048B0000DEB0200FEF7ADF8BDF806102C680431D0
:1048C0000C44A64203D8002017E00434F9E7042280
:1048D00021460DEB0200FEF79CF8BDF80430C3F34F
:1048E0008512BA420CD1012003F03F0388F8003052
:1048F000BDF806302C60A9F8003003B0BDE8F083A5
:10490000BDF8063004331C44DBE700BFF88C002000
:1049100000232DE9F34105460E46144642F21608DF
:104920000B4F13603B8843450FD12346324600208E
:104930000DF10701FFF7B0FF012803D19DF8073003
:10494000AB42EFD102B0BDE8F0814FF0FF30F9E7A4
:10495000F88C00202DE9F04FCBB007460D461646E7
:1049600000F0AEF9044668B90246014600956FF0C2
:10497000060310A800F03EFA054630B1012800F009
:104980001A81052400F0E4F911E13A468B4910A898
:1049900000F0A5FA284605AA04A9CDE90655059513
:1049A000FFF7B6FF012840F0CD80059B0433069346
:1049B000BDF81030824906AA10A8079300F08FFABC
:1049C00008A800F0DDF904460028DBD17D4910A8D5
:1049D00008AA00F084FA202305A80DEB0301059333
:1049E00004F09DFE002840F0B28008AB0693059BC2
:1049F000754906AA10A8079300F071FA08A800F0FC
:104A0000B6FC04460028BDD1089A7049D31710A8F7
:104A100000F056FA022008AA04A90894FFF778FFCC
:104A2000012840F0A480BDF81020089B022A03F161
:104A3000040100F09280042A00F09580012AA0D1A0
:104A40001B790693069A0023614910A800F038FAF2
:104A500010A800F034FA4FF0000A07464FF0FF3973
:104A6000DFF880B1DFF8808142F21603BBF8002046
:104A7000CDF818A09A426AD106AB284605AA04A927
:104A8000FFF70AFF431C62D0012817D10134012C23
:104A900008D1384642464B4619F0A1FA042138465F
:104AA00019F0DCFA069ABDF814100432CDE9082199
:104AB00008AB09210CCB384619F0A9FA0135EDB243
:104AC000072DD1D1002C56D000220421384619F0F0
:104AD000E5FA20250DEB0504214605A8059504F00F
:104AE000E9FD00287FF44DAF059B3A4906AA10A8BE
:104AF0000793069400F007FA214605A8059504F0EF
:104B0000F1FD054600287FF43CAF059B324906AA1B
:104B100010A80793069400F0F6F91223012005AAC5
:104B20000DF10E01CDE9065504930595FFF7F0FE52
:104B3000012827D0214604A804F002FE38B9049BBE
:104B4000069424E0202008A904F0E4FD08B1032421
:104B500018E708AB069320232CE705A8FDF759FFBB
:104B6000BDF814306DE706A8FDF753FF6AE704F0BF
:104B70008DFD024667E701220023184910A800F0C6
:104B80009FF9A6E7059B04330693BDF80E30144940
:104B900010A806AA079300F0B6F9314610A800F055
:104BA00066F908B10128EAE600F0D2F8044620468A
:104BB0004BB0BDE8F08F0224E4E600BF00DBFEFF4F
:104BC00004DBFEFFFFDAFEFF05DBFEFF07DBFEFF77
:104BD00006DBFEFFFEDAFEFF08DBFEFF01DBFEFF69
:104BE00003DBFEFFF88C002002DBFEFF08B54FF46C
:104BF00000720649012000F0C2FB052896BF044B55
:104C00006FF0830033F9100008BD00BFF88C00205E
:104C10007068000010B51446036886B012680093EF
:104C2000436802926268402B0193039203D023F001
:104C30001003202B14D19AB1684604AA02A9FFF7E9
:104C400089FE40B9049B2360059B6360054B33F9E3
:104C5000100006B010BD0528F8D96FF08300F8E702
:104C60000420F3E770680000002110B5036886B0E7
:104C70001B680291CDE900136FF00041146852687F
:104C80000391032A17D9402B03D023F01003202BC4
:104C900011D1684604AA02A9FFF75CFE30B9059B52
:104CA0002360064B33F9100006B010BD0528F8D973
:104CB0006FF08300F8E70420F3E700BF706800009E
:104CC00030B5A7B01822002108A8FDF767FE002123
:104CD0001B4D142203A80291FDF760FE2B681BB147
:104CE0000524204627B030BD60210DF1070308AA36
:104CF0000EA804F043FC04460028F1D108990029CD
:104D0000EED04FF480520F4B03A8CDE906239DF857
:104D10000730099A43F4E243ADF80C3002ABFDF7DB
:104D2000BAFE0028DCD1084B02981A682860002AD5
:104D3000D7D141220549FDF7FFFE0028D1D0CFE7AA
:104D4000FC8E002009060006448F0020008F002002
:104D500010B5054C206808B9052010BDFDF7BCFE54
:104D60000028F9D12060F8E7FC8E0020034B1B6877
:104D700013B103600020704705207047FC8E0020AF
:104D800073B5174C064622680ABB164D01922B6874
:104D900013B9032002B070BD134901A8FDF7EAFE64
:104DA0000028F6D12A68114901A8FDF700FF002864
:104DB000EFD10F4D23462022691C01A8FDF716FFF5
:104DC0000028E6D101232B702368013323602EB124
:104DD000074B0020336023687360DBE70520D9E7C9
:104DE0006C8F0020448F002009000002008F0020FB
:104DF000488F00202DE9F3410E4604461F4600F17E
:104E0000A008C0E92612F60F482200214046089D5E
:104E1000FDF7C4FDC4F8C070C4F8D86001A8FFF75E
:104E2000A5FF10BB95E80600022384F8C830019B5B
:104E3000C4E93700C4E93430204619F0BAF82146F5
:104E4000404600F074F8054628B103280BD0192815
:104E500014BF032501250521204619F0FFF8284637
:104E600002B0BDE8F0810425F5E70E25F7E773B53C
:104E700004460D460022052119F010F9214604F1DF
:104E8000A00000F0C7F840B1032814D0192814BFBF
:104E900003230123184602B070BD6E4620463146FA
:104EA00019F03AF901280346F4D030B996E8030026
:104EB00085E80300EEE70423ECE70223EAE7704706
:104EC00070B5044616461D460A46CB1719F087F8FA
:104ED00032462B462046BDE8704019F080B873B5C5
:104EE000D2E9006504460A46CB1719F078F802218A
:104EF0002046CDE9006502AB13E90C0002B0BDE825
:104F0000704019F084B873B5D2E9006504460A46CA
:104F1000CB1719F064F803212046CDE9006502ABF8
:104F200013E90C0002B0BDE8704019F070B8F0B59C
:104F30000446ABB0006A0E4600F0E0F8002865D0E9
:104F4000A36B9A0704D412220023304619F083F889
:104F50000421304619F082F8182304AD1A46214680
:104F60002846276A0193009419F023F80521284662
:104F700019F074F801220023284619F030F83A4657
:104F80002846FB1719F02BF805212846002219F0B6
:104F900085F8284602A919F0BFF890BBDDE9023276
:104FA000C4E90632A3B31146184685E8030002217E
:104FB00095E80C00304619F02AF8A36BDB0723D4E0
:104FC000D4E90F740521304619F048F86CB167B187
:104FD00004220023304619F002F8CDE904740221BE
:104FE00095E80C00304619F012F8002205213046F1
:104FF00019F054F83046022119F030F800202BB097
:10500000F0BD00221346CBE71C20F8E70120F6E7AD
:105010000220F4E72DE9F041ACB01CAB0C93402327
:105020000E460D9314AB0E93202310AD04462A4672
:10503000022130460F9319F031F8B37B0BB10123F5
:105040003374337C012B55D0002B55D13268D4F802
:1050500020C0FAB9D4E90C010BAB8DE803000A9229
:1050600002936046D4E90A2300F008F90546DDE919
:105070000A0112AB83E8030002210CCB304618F082
:10508000C6FF00220421304619F008F828462CB04B
:10509000BDE8F0810DF1200802AFCDF81080DDE908
:1050A0000E0187E8030095E803008DE80300D4E9CA
:1050B0000612604600F028F805460028E6D1A36BEA
:1050C000DB07D4D4DDE90C010AAB069304AB83E81B
:1050D000030098E80300D4E90A2387E80300D4E931
:1050E0000C018DE80300206A00F0A2F80028BED071
:1050F0000546CBE71925C9E71825C7E7C31D0CBF2F
:105100006FF00F0000207047F0B5BDB01E460AAB2F
:105110006D460293302385E80600394C1A46029901
:10512000074616A8039318F044FF042116A818F0A8
:1051300095FF2046FBF7C4F9CDE9084008AC0321F0
:1051400094E80C0016A818F062FF95E8030000250B
:1051500084E80300022194E80C0016A818F057FF19
:10516000CDE90855022194E80C0016A818F04FFF6D
:10517000002E37D1CDE90866022194E80C0016A86C
:1051800018F045FF0125042116A8002218F086FF1B
:1051900004A916A818F0C0FF00282FD107370CBFAC
:1051A0006FF00F01002106A800F096F8C0B9059B2A
:1051B0005D1B2ABF049BCDE90800CDE9083506A890
:1051C00094E8060000F0A6F842AB93E8060006A8B3
:1051D00000F0A0F8DDE94523449906A800F0A9F8FD
:1051E0003DB0F0BD42AB93E8030084E803000B211F
:1051F00094E80C0016A818F00AFFC4E71520EFE7A2
:105200007C68000098B110F1950F0BD010F1860F5B
:105210000AD010F18D0F09D010F1970F0CBF12209A
:10522000172070470D2070470120704710207047ED
:1052300082B030B587B00AA9073081E80C00129D12
:1052400005D0012007B0BDE8304002B0704705AB83
:10525000109C0293119B0849CDE90043DDE90E2320
:105260000C98FDF76FFDFFF7CDFF0028EAD1059BF5
:105270002C606B60E6E700BF0906000682B010B53F
:1052800086B008A981E80C00124A52F8043B2BB9F9
:10529000012006B0BDE8104002B070479842F4D13A
:1052A0000A9C1422002101A8FDF778FB01A92046E1
:1052B000FDF729FCFFF7A6FF08B10020E9E7BDF8DC
:1052C0000620D308520718BF01330C9A5B00136005
:1052D000DFE700BF88680000002310B503604FF6C9
:1052E000FF730B4A044611F1100F0CBF114619460B
:1052F000FDF740FC606038B110F1860F05D010F169
:105300008A0F0CBF0520042010BD0320FCE700BF5E
:105310000900000213B502AB03E906004368044626
:105320002BB9009919B1019AFDF741FC606002B0F8
:1053300010BD73B502AD05E906001D46436804467D
:105340003BB9009E019A31462B1DFDF74FFC606072
:105350002E60606838B110F1860F06D010F18A0F08
:105360000CBF0520042002B070BD0320FBE708B588
:1053700003F01CFB002814BF0320002008BD08B563
:10538000FDF787FB003818BF012008BDF0B5154AAE
:1053900085B012781AB3032903D06FF0800005B0EE
:1053A000F0BD002BF9D14368082BF6D14369042BDB
:1053B000F3D103688268D3E900450B4B1A60D0E94A
:1053C000036303A81F6803F0F1FA0028E5D1224621
:1053D0002B46CDE90067039800F048F9DFE76FF04E
:1053E0008300DCE7708F0020748F00202DE9F041EE
:1053F0001446174A86B0127832B3022904D06FF0EF
:10540000800006B0BDE8F081012BF8D14368082B7D
:10541000F5D1C368042BF2D103682268D3E9006791
:10542000836805A81D680B4B54F8048F1A6003F0BD
:10543000BDFA0028E3D132463B46CDE90184059808
:10544000009500F069F9DCE76FF08300D9E700BF51
:10545000708F0020748F0020DFB51446114A127837
:10546000EAB1012903D06FF0800004B0D0BD012B58
:10547000F9D14368082BF6D163680C2BF3D103688C
:1054800003A82468D3E9006703F090FA0028EAD162
:1054900032463B460398009400F094F9E5E76FF03C
:1054A0008300E2E7708F002037B50F4A1278C2B14F
:1054B000012903D06FF0800003B030BD002BF9D17B
:1054C0004368082BF6D1036801A8D3E9004503F02F
:1054D0006DFA0028EED122462B46019800F09CF987
:1054E000EAE76FF08300E7E7708F002008B500F06F
:1054F0003BF818B90122034B1A7008BD6FF0830006
:10550000FBE700BF708F002038B50C46044D0A46FB
:105510002968FDF77EFA2B68204623442B6038BDAE
:10552000748F002038B50C46044D0A4601462868A1
:10553000FDF76FFA29682144296038BD748F002077
:105540001FB5084CCDE90023039003A9042220468F
:10555000FDF75FFA08226946201DFDF75AFA04B0EC
:1055600010BD00BFA891002070B5384B86B09E6A70
:10557000B0470369042B03D06FF0800006B070BD04
:10558000B047334C83682381B047037D6846237559
:1055900004F05AF80028EFD1009B228963609DF83F
:1055A00008305343019A9BB26381B2FBF3F3A381AA
:1055B000B0470369042BDFD1B047264D83682B81A8
:1055C000B047037D03A82B7504F030F80028D3D131
:1055D000039B2A896B609DF8143021465343049A3B
:1055E0009BB26B81B2FBF3F31B481C4AAB8100F00A
:1055F000EBF90028C2D1184800F026FAB8B9174ACA
:105600001449174800F0E0F90028B7D1144800F019
:105610001BFA0028B2D0134802F084F9104800F0B9
:105620002DFA0028AAD10E4800F00EFAA6E70E487F
:1056300002F078F9084800F021FA00289ED10648C7
:1056400000F002FA002899D1D9E700BF90000300CA
:10565000605200207852002078910020DC68000021
:1056600090910020B6680000906800002DE9FF4787
:105670009046DDE90C64994658EA090105463BD09D
:1056800034F007083BD1FFF75BFF1E4F1E481F4950
:10569000B5F5807F18BF07461D4D38462A4600F0F5
:1056A000EFF928B9AB68DB0705D56FF0840020E07F
:1056B00010F18C0F1DD144F4403ADFF85090154C96
:1056C000B6F5007F354628BF4FF4007511482946CE
:1056D000FFF71AFF3346524649463846CDE9018462
:1056E000009500F0F0F920B9761B2AF4403AA8445E
:1056F000E6D104B0BDE8F0876FF08600F9E76FF0FF
:105700008500F6E79091002078910020A891002074
:10571000B4910020788F00202DE9F74F92469B46E8
:105720005AEA0B0104460C9EDDF838903DD0FFF795
:1057300007FF1F4F1F482049B4F5807F18BF074659
:105740001E4C3846224600F09BF9054600BB2468F3
:10575000B4422AD30D9BA41B9C4228BF1C46DFF8F1
:105760006080DFF854A0C9F80040B4F5007FA3467C
:1057700028BF4FF4007B33465A4651463846CDF891
:10578000008000F0A4FA054630B10023C9F80030CB
:10579000284603B0BDE8F08F59464046FFF7C2FEE9
:1057A000B4EB0B045E44E0D1F2E76FF08605EFE75F
:1057B0009091002078910020A8910020B4910020C1
:1057C000788F00202DE970439046994658EA0901E8
:1057D0000646069C14D0FFF7B3FE0B4D0B480C4B4E
:1057E0002A46B6F5807F18BF18460A4900F048F9E6
:1057F00020B92B68C4E90033AB68A360BDE87083AF
:105800006FF08600FAE700BFB4910020909100206D
:1058100078910020A8910020F8B516461F4656EA58
:105820000701054617D0FFF78BFE0E4C0E480F49B7
:10583000B5F5807F18BF04460D4D20462A4600F07E
:105840001FF950B9AB68DB0708D42046BDE8F84023
:10585000064900F02DBA6FF08600F8BD6FF08400A5
:10586000FBE700BF9091002078910020A8910020D4
:10587000B491002008B5036800209B689847002871
:1058800018BF6FF0910008BD70B50E461146426812
:1058900045891344026806FB05305469049AA04701
:1058A000002818BF6FF0910070BD70B50E4611460C
:1058B000426845891344026806FB05309469049ADE
:1058C000A047002818BF6FF0910070BD00207047FE
:1058D00070B504460E4600256089A84201D8002014
:1058E00070BD636806FB003023682844DB69984775
:1058F00010B923891D44EFE76FF09100F0E72DE91F
:10590000F04F03688BB002AA04460E465D8900F092
:1059100005FC30BB07A800F0E1FE0146002850D18D
:10592000DDE9027A202202A8DDF81490FDF736F8AE
:105930003146204602AA00F035FD90B983468046E4
:1059400023685B8A5B450FD82B464A46394620467A
:10595000CDE900A800F0EAF918B957BB204600F0DD
:10596000C8FB0BB0BDE8F08FB3451FD059462046A9
:1059700002AA00F0D3FB0028F3D1029BBB420ED158
:1059800007A800F0ABFE50B9039B534507D99D42D1
:1059900028BF1D46A3EB09030393059B9844594672
:1059A000204602AA00F0FEFC0028DAD10BF1010B20
:1059B000C6E7204600F02DFE0028CFD06FF0830010
:1059C000CFE76FF08B00CCE7F8B50D4617460646DB
:1059D000B8B3B1B3AAB38B89B1F810C0012B4A890F
:1059E000498A28D9032B29D00024022B07D1A2F100
:1059F0001400A0EB4110844588BF6FF086049445E5
:105A000088BF6FF08604022B08BF01234FF00C0003
:105A10004FEA411118BF023B083100FB03139A42C1
:105A20000FD334B9182221463046FCF7B7FFC6E938
:105A300000572046F8BD6FF08604D6E76FF0860465
:105A4000DDE76FF08604F4E737B5054600F089FD21
:105A5000044658B94FF08071284601AA00F0BEFBF9
:105A600038B928460199FFF74AFF0446204603B09B
:105A700030BD10F18C0F18BF0446F7E700F0A0BC52
:105A800070B58AB0144601AA06460D4600F085FBA3
:105A900018B16FF08B000AB070BD3046019902AAB0
:105AA00000F03CFB0028F6D10C22284607A9FCF7A1
:105AB000A0FF0028EDD1059B6360049B2360BDF827
:105AC0001830A360E7E72DE9F04390464FF6FF72E8
:105AD00093B018F07F4F0446DDE91A658946CDE999
:105AE000052204D06FF0860013B0BDE8F083026891
