:020000021000EC
:1000000078170120F59A0100D17E0300099A0100BA
:10001000099A0100099A0100099A0100099A010050
:100020000000000000000000000000009D830100AF
:10003000099A01000000000009830100099A0100EB
:1000400079840100798401007984010079840100B8
:1000500079840100798401007984010079840100A8
:100060007984010079840100798401007984010098
:100070007984010079840100798401007984010088
:100080007984010079840100798401007984010078
:100090007984010079840100798401007984010068
:1000A0007984010079840100798401007984010058
:1000B00047CC030079840100798401007984010030
:1000C0007984010079840100798401007984010038
:1000D0007984010079840100798401007984010028
:1000E0007984010079840100798401007984010018
:1000F0007984010079840100798401007984010008
:1001000079840100798401007984010079840100F7
:1001100079840100798401007984010079840100E7
:1001200079840100798401007984010079840100D7
:1001300079840100798401007984010079840100C7
:1001400079840100000000000000000000000000B1
:10015000000000000000000000000000000000009F
:10016000000000000000000000000000000000008F
:10017000000000000000000000000000000000007F
:10018000000000000000000000000000000000006F
:10019000000000000000000000000000000000005F
:1001A000000000000000000000000000000000004F
:1001B000000000000000000000000000000000003F
:1001C000000000000000000000000000000000002F
:1001D000000000000000000000000000000000001F
:1001E000000000000000000000000000000000000F
:1001F00000000000000000000000000000000000FF
:10020000DEE61E284CBBCE8F025B00003C000000E7
:10021000E8CF030001000000000001000000010021
:10022000FFFF02910000000000000000000000003D
:0C023000000000000000000000000000C2
:04023C00FFFFFFFFC2
:1002400081F0004102E000BF83F0004330B54FEA87
:1002500041044FEA430594EA050F08BF90EA020FF4
:100260001FBF54EA000C55EA020C7FEA645C7FEA87
:10027000655C00F0E2804FEA5454D4EB5555B8BFAA
:100280006D420CDD2C4480EA020281EA030382EA1B
:10029000000083EA010180EA020281EA0303362DAD
:1002A00088BF30BD11F0004F4FEA01314FF4801C80
:1002B0004CEA113102D0404261EB410113F0004F92
:1002C0004FEA03334CEA133302D0524263EB430349
:1002D00094EA050F00F0A780A4F10104D5F1200EE7
:1002E0000DDB02FA0EFC22FA05F2801841F1000142
:1002F00003FA0EF2801843FA05F359410EE0A5F116
:1003000020050EF1200E012A03FA0EFC28BF4CF046
:10031000020C43FA05F3C01851EBE37101F00045FC
:1003200007D54FF0000EDCF1000C7EEB00006EEB09
:100330000101B1F5801F1BD3B1F5001F0CD3490893
:100340005FEA30004FEA3C0C04F101044FEA4452EA
:1003500012F5800F80F09A80BCF1004F08BF5FEA71
:10036000500C50F1000041EB045141EA050130BD51
:100370005FEA4C0C404141EB0101013C28BFB1F563
:10038000801FE9D291F0000F04BF01460020B1FAAE
:1003900081F308BF2033A3F10B03B3F120020CDA81
:1003A0000C3208DD02F1140CC2F10C0201FA0CF05F
:1003B00021FA02F10CE002F11402D8BFC2F1200CC4
:1003C00001FA02F120FA0CFCDCBF41EA0C0190407A
:1003D000E41AA2BF01EB0451294330BD6FEA0404C3
:1003E0001F3C1CDA0C340EDC04F11404C4F12002AE
:1003F00020FA04F001FA02F340EA030021FA04F3C0
:1004000045EA030130BDC4F10C04C4F1200220FA16
:1004100002F001FA04F340EA0300294630BD21FA54
:1004200004F0294630BD94F0000F83F4801306BF1A
:1004300081F480110134013D4EE77FEA645C18BF0E
:100440007FEA655C29D094EA050F08BF90EA020FA5
:1004500005D054EA000C04BF1946104630BD91EA9D
:10046000030F1EBF0021002030BD5FEA545C05D1A0
:100470004000494128BF41F0004130BD14F58004DF
:100480003CBF01F5801130BD01F0004545F0FE4153
:1004900041F470014FF0000030BD7FEA645C1ABF88
:1004A000194610467FEA655C1CBF0B46024650EABF
:1004B000013406BF52EA033591EA030F41F40021EB
:1004C00030BD00BF90F0000F04BF0021704730B571
:1004D0004FF4806404F132044FF000054FF0000146
:1004E00050E700BF90F0000F04BF0021704730B507
:1004F0004FF4806404F1320410F0004548BF4042DC
:100500004FF000013EE700BF42004FEAE2014FEA30
:1005100031014FEA02701FBF12F07F4393F07F4F0B
:1005200081F06051704732F07F4208BF704793F00E
:100530007F4F04BF41F40021704730B54FF4607421
:1005400001F0004521F000411CE700BF50EA010224
:1005500008BF704730B54FF000050AE050EA0102CD
:1005600008BF704730B511F0004502D5404261EB3D
:1005700041014FF4806404F132045FEA915C3FF47E
:10058000D8AE4FF003025FEADC0C18BF03325FEA1B
:10059000DC0C18BF033202EBDC02C2F1200300FACC
:1005A00003FC20FA02F001FA03FE40EA0E0021FAF1
:1005B00002F11444BDE600BF70B54FF0FF0C4CF4DF
:1005C000E06C1CEA11541DBF1CEA135594EA0C0F91
:1005D00095EA0C0F00F0DEF82C4481EA030621EACC
:1005E0004C5123EA4C5350EA013518BF52EA033507
:1005F00041F4801143F4801338D0A0FB02CE4FF0B9
:100600000005E1FB02E506F00042E0FB03E54FF0E8
:100610000006E1FB03569CF0000F18BF4EF0010EE0
:10062000A4F1FF04B6F5007F64F5407404D25FEADC
:100630004E0E6D4146EB060642EAC62141EA55518F
:100640004FEAC52040EA5E504FEACE2EB4F1FD0CD1
:1006500088BFBCF5E06F1ED8BEF1004F08BF5FEA4F
:10066000500E50F1000041EB045170BD06F0004601
:1006700046EA010140EA020081EA0301B4EB5C04AE
:10068000C2BFD4EB0C0541EA045170BD41F48011A6
:100690004FF0000E013C00F3AB8014F1360FDEBFCB
:1006A000002001F0004170BDC4F10004203C35DAA7
:1006B0000C341BDC04F11404C4F1200500FA05F32A
:1006C00020FA04F001FA05F240EA020001F00042CB
:1006D00021F0004110EBD37021FA04F642EB060141
:1006E0005EEA430E08BF20EAD37070BDC4F10C046B
:1006F000C4F1200500FA04F320FA05F001FA04F22F
:1007000040EA020001F0004110EBD37041F100011A
:100710005EEA430E08BF20EAD37070BDC4F1200525
:1007200000FA05F24EEA020E20FA04F301FA05F28D
:1007300043EA020321FA04F001F0004121FA04F235
:1007400020EA020000EBD3705EEA430E08BF20EA05
:10075000D37070BD94F0000F0FD101F0004640003F
:1007600041EB010111F4801F08BF013CF7D041EAC1
:10077000060195F0000F18BF704703F000465200C5
:1007800043EB030313F4801F08BF013DF7D043EA96
:100790000603704794EA0C0F0CEA135518BF95EA4C
:1007A0000C0F0CD050EA410618BF52EA4306D1D1D3
:1007B00081EA030101F000414FF0000070BD50EAF2
:1007C000410606BF1046194652EA430619D094EA7C
:1007D0000C0F02D150EA013613D195EA0C0F05D166
:1007E00052EA03361CBF104619460AD181EA0301BA
:1007F00001F0004141F0FE4141F470014FF0000072
:1008000070BD41F0FE4141F4780170BD70B54FF00C
:10081000FF0C4CF4E06C1CEA11541DBF1CEA13558C
:1008200094EA0C0F95EA0C0F00F0A7F8A4EB05046E
:1008300081EA030E52EA03354FEA013100F0888065
:100840004FEA03334FF0805545EA131343EA12632E
:100850004FEA022245EA111545EA10654FEA0026E3
:100860000EF000419D4208BF964244F1FD0404F59C
:10087000407402D25B084FEA3202B61A65EB0305F8
:100880005B084FEA32024FF480104FF4002CB6EBB5
:10089000020E75EB030E22BFB61A754640EA0C0035
:1008A0005B084FEA3202B6EB020E75EB030E22BF75
:1008B000B61A754640EA5C005B084FEA3202B6EBB6
:1008C000020E75EB030E22BFB61A754640EA9C0075
:1008D0005B084FEA3202B6EB020E75EB030E22BF45
:1008E000B61A754640EADC0055EA060E18D04FEA03
:1008F000051545EA16754FEA06164FEAC30343EAA3
:1009000052734FEAC2025FEA1C1CC0D111F4801F6F
:100910000BD141EA00014FF000004FF0004CB6E768
:1009200011F4801F04BF01430020B4F1FD0C88BF07
:10093000BCF5E06F3FF6AFAEB5EB030C04BFB6EB12
:10094000020C5FEA500C50F1000041EB045170BD05
:100950000EF0004E4EEA113114EB5C04C2BFD4EB32
:100960000C0541EA045170BD41F480114FF0000EB6
:10097000013C90E645EA060E8DE60CEA135594EA32
:100980000C0F08BF95EA0C0F3FF43BAF94EA0C0F35
:100990000AD150EA01347FF434AF95EA0C0F7FF4AA
:1009A00025AF104619462CE795EA0C0F06D152EAFE
:1009B00003353FF4FDAE1046194622E750EA4106E2
:1009C00018BF52EA43067FF4C5AE50EA41047FF4F3
:1009D0000DAF52EA43057FF4EBAE12E74FF0FF3C58
:1009E00006E000BF4FF0010C02E000BF4FF0010C29
:1009F0004DF804CD4FEA410C7FEA6C5C4FEA430CA2
:100A000018BF7FEA6C5C1BD001B050EA410C0CBFF0
:100A100052EA430C91EA030F02BF90EA020F002052
:100A2000704710F1000F91EA030F58BF994208BFB9
:100A300090422CBFD8176FEAE37040F00100704776
:100A40004FEA410C7FEA6C5C02D150EA013C07D1CD
:100A50004FEA430C7FEA6C5CD6D152EA033CD3D018
:100A60005DF8040B704700BF8446104662468C4612
:100A70001946634600E000BF01B5FFF7B7FF002845
:100A800048BF10F1000F01BD4DF808EDFFF7F4FF6E
:100A90000CBF012000205DF808FB00BF4DF808EDF9
:100AA000FFF7EAFF34BF012000205DF808FB00BF1C
:100AB0004DF808EDFFF7E0FF94BF012000205DF83E
:100AC00008FB00BF4DF808EDFFF7CEFF94BF0120F3
:100AD00000205DF808FB00BF4DF808EDFFF7C4FFEC
:100AE00034BF012000205DF808FB00BF4FEA410C35
:100AF0007FEA6C5C02D150EA013C0AD14FEA430C18
:100B00007FEA6C5C02D152EA033C02D14FF0000054
:100B100070474FF0010070474FEA4102B2F1E043E5
:100B200024BFB3F5001CDCF1FE5C0DD901F0004CD4
:100B30004FEAC0024CEA5070B2F1004F40EB830024
:100B400008BF20F00100704711F0804F21D113F150
:100B50003872BCBF01F00040704741F480114FEA89
:100B60005252C2F11802C2F1200C10FA0CF320FA12
:100B700002F018BF40F001004FEAC1234FEAD3232F
:100B800003FA0CFC40EA0C0023FA02F34FEA430399
:100B9000CCE77FEA625307D150EA01331EBF4FF022
:100BA000FE4040F44000704701F0004040F0FE403D
:100BB00040F40000704700BF7BB972B90029BEBF86
:100BC00000204FF0004106E008BF00281CBF6FF076
:100BD00000414FF0FF3000F0EDB9ADF1080C6DE9C8
:100BE00004CE002909DB002B1ADB00F083F8DDF8C6
:100BF00004E0DDE9022304B07047404261EB4101AB
:100C0000002B1BDB00F076F8DDF804E0DDE90223C1
:100C100004B0404261EB4101524263EB4303704731
:100C2000524263EB430300F065F8DDF804E0DDE9D0
:100C3000022304B0404261EB41017047524263EB32
:100C4000430300F057F8DDF804E0DDE9022304B0C7
:100C5000524263EB4303704753B94AB9002908BFB6
:100C600000281CBF4FF0FF314FF0FF3000F0A2B959
:100C7000ADF1080C6DE904CE00F03CF8DDF804E0BD
:100C8000DDE9022304B0704738B500220023044692
:100C90000D46FFF703FF28B920462946BDE8384036
:100CA00000F00AB8204605F1004100F005F8404286
:100CB00061EB410138BD00BFD0B500220B4B0646A9
:100CC0000F46FFF779FC00F077F90446FFF7FAFBCF
:100CD0000022074BFFF770FC02460B4630463946B0
:100CE000FFF7B2FA00F068F92146D0BD0000F03DF0
:100CF0000000F0412DE9F047089D04468846002B8E
:100D00007DD18A4217463FD9B2FA82F242B1C2F18E
:100D100020009140974024FA00F0944040EA0108F6
:100D20004FEA174C230C1FFA87FEB8FBFCF60CFBAE
:100D3000168106FB0EF043EA0143984205D9FB18E1
:100D400002D2984200F22481013E191AA3B2B1FBEB
:100D5000FCF00CFB101100FB0EFE43EA0144A6451B
:100D600005D93C1902D2A64500F20F81013840EAAC
:100D70000640A4EB0E0400261DB1D4400023C5E9B3
:100D800000433146BDE8F08702B9FFDEB2FA82F2D5
:100D9000002A50D1CB1B4FEA174E1FFA87F80126C5
:100DA000210CB3FBFEFC0EFB1C300B4608FB0CF9C0
:100DB00041EA004189450AD979182CBF0123002353
:100DC000894502D9002B00F0D9800CF1FF3CA1EB42
:100DD0000901A3B2B1FBFEF00EFB101108FB00F8F5
:100DE00043EA0144A04505D93C1902D2A04500F2CE
:100DF000C9800138A4EB080440EA0C40BCE78B42F0
:100E000009D9002D00F0B1800026C5E90001304667
:100E10003146BDE8F087B3FA83F6002E46D18B4207
:100E2000C0F0A680824240F2A3803046002DA8D0B8
:100E3000C5E90048A5E79740C2F1200301FA02F096
:100E40004FEA174ED94024FA03F31FFA87F894406B
:100E50000343B1FBFEF01E0C0EFB101100FB08FC5F
:100E600046EA01418C4509D979182CBF0126002694
:100E70008C4502D9002E00F093800138A1EB0C01C3
:100E80009BB2B1FBFEF60EFB161106FB08FC43EA13
:100E900001418C4505D9791802D28C4500F2878032
:100EA000013EA1EB0C0346EA004679E7C6F12007B4
:100EB00003FA06F402FA06FC01FA06FEFA4020FAEA
:100EC00007F8F94000FA06F3224348EA0E044FEA15
:100ED00012484FEA144E1FFA82F9B1FBF8FA08FBE8
:100EE0001A110AFB09F04EEA014E70450AD912EBBD
:100EF0000E0E2CBF01210021704501D9002952D0CE
:100F00000AF1FF3AAEEB000EA4B2BEFBF8F008FB0C
:100F100010EE00FB09F944EA0E4EF14505D912EB3B
:100F20000E0E01D2F14538D8013840EA0A40AEEB46
:100F3000090EA0FB0C89CE4541464C4602D306D192
:100F4000434504D20138B8EB0C0169EB020415B338
:100F50005A1A6EEB040EF2400EFA07F72EFA06F359
:100F600000261743C5E900730BE72E46284608E71D
:100F7000841A61EB03010120884657E7ACF1020CAB
:100F8000394424E702383C4434E702383C44EEE676
:100F9000023E3B44D9E62E46F3E602389644C4E7C7
:100FA000023839446AE7AAF1020A9644AAE7023EE7
:100FB000394476E7704700BF4A0011D212F500129B
:100FC00011D20DD56FF47873B3EB62520ED44FEAA1
:100FD000C12343F0004343EA505323FA02F0704721
:100FE0004FF00000704750EA013002D14FF0FF305F
:100FF00070474FF00000704710F8012B11F8013BCB
:10100000012A28BF9A42F7D0D01A7047034613F836
:10101000012B002AFBD1181A01387047000000008C
:1010200080B584B000AF03463A60FB710B46BB71DC
:101030000023FB813B68002B02D0BB790F2B02D928
:101040006FF015032CE0FB79072B02D0092B06D09B
:101050000BE0BB79164A32F81330FB8108E0BB790C
:10106000144A32F81330FB8102E06FF07F0317E07F
:10107000FB89002B10D0FB891846FFF733FA0AA32F
:10108000D3E90023FFF798FA02460B4610461946AB
:10109000FFF742FD034600E0074B3A681360002368
:1010A00018461037BD4680BD7B14AE47E17A244018
:1010B000D0C50400F0C504000AD7A34080B588B0AD
:1010C00000AFF860B9607A607B68BB61BB681B7871
:1010D000062B00F2998001A252F823F007120100BA
:1010E00007120100F910010083110100E91101004C
:1010F000F7110100FF11010023F006FC02460B4628
:10110000434B1A6023F00FFC0346DB0B414A13608C
:101110003F4B1A68404B1B68D31AB3F5967F08D92A
:101120003E48FFF773FF03461A4600213B4832F062
:10113000AEF80023FB610EE0BB685A68BB68996893
:10114000FB690B44134401221946344832F0BEF8BF
:10115000FB690133FB61BB68DB68FA699A42EBD338
:101160002E492F4824F08FF823F0CEFB02460B4681
:10117000294B1A60264B1B6819462A4824F083F82D
:1011800042E04FF000024FF0000307F11001264843
:101190001CF080F978617B69002B0CD04523234A31
:1011A0002349244824F06FF8234824F06CF84521A3
:1011B0001E4825F0ECF93B690A221946B86923F06C
:1011C000F3FB78617B69002B0CD04823174A184940
:1011D000184824F058F8194824F055F848211348C5
:1011E00025F0D5F900BF0FE0BB68043319460E485F
:1011F0001CF0F8F908E0124824F045F804E0114822
:1012000024F041F800E000BF00BF2037BD4680BD9C
:10121000FCD0002000D10020F8D00020ECD4002029
:10122000E03B0400E43B040018C80020F43B040049
:10123000103C04001C3C04003C3C0400583C0400EE
:10124000783C0400843C040080B586B000AF786030
:10125000294A07F10C0392E803001860043319705F
:101260004FF000024FF0000307F1080123481CF083
:1012700011F978617B69002B0CD06223204A214947
:10128000214824F000F8214823F0FDFF62211C488A
:1012900025F07DF97A681E49786823F054FB78615F
:1012A0007B69002B0CD06523154A1649164823F09C
:1012B000EAFF184823F0E7FF6521114825F067F998
:1012C000B96842F210730A22786823F081FB7861D2
:1012D0007B69002B0CD06823094A0A490A4823F08D
:1012E000D2FF0D4823F0CFFF6821054825F04FF9C4
:1012F00000BF1837BD4680BDD83C040018C8002088
:10130000F43B0400103C04001C3C04008C3C040032
:10131000BD100100A43C0400C03C040080B483B0B4
:1013200000AF78607B68044A9B1ADB0818460C37CC
:10133000BD465DF8047B7047103B040080B586B065
:1013400000AF78600323002B01D100BF31E023F010
:1013500051FB0346FB7500233B610323002B07D0A1
:10136000164B1B681846FFF7D9FF03469BB200E0F7
:101370000023BB823B7B012262F302033B733B7B76
:101380006FF3C5033B73BB8AC3F309039AB2BB89EE
:1013900062F38F13BB81FB7D002B05D07A6808496F
:1013A000B88904F0EBFC04E0BA897968044825F0B8
:1013B000A8FD00BF1837BD4680BD00BFD8C50020BE
:1013C000EC3C040080B588B000AF78607B68012BEE
:1013D00003D07B68032B0DD069E00122E821364859
:1013E0001AF08CFEF861FB69002B5DD1334823F0C5
:1013F00055FC59E0532031F0E4FE03467B617B69E4
:10140000002B35D10323002B01D100BF4FE023F087
:10141000F1FA0346FB7600233B610323002B07D040
:10142000274B1B681846FFF779FF03469BB200E085
:1014300000233B833B7B012262F302033B733B7B34
:101440006FF3C5033B733B8BC3F309039AB2BB89AC
:1014500062F38F13BB81FB7E002B04D01949B8893E
:1014600004F08CFC23E0B989164825F035FD1EE018
:101470007B690222532118461AF040FEF861FB698D
:10148000002B09D14FF000024FF0000307F11401C7
:101490000D4823F00EFCF861FB69002B06D07B6938
:1014A000184631F076FE01E000BF00E000BF00BF4B
:1014B0002037BD4680BD00BFC8C9002058C90020E4
:1014C000D8C50020103D04000CC9002080B58CB0A8
:1014D00000AF8948FFF79AFD0346002B40D08649AC
:1014E00086481AF09BFB0346002B39D00323002BC0
:1014F00032D023F07FFA034687F82F300023FB61B8
:101500000323002B07D07E4B1B681846FFF706FF0E
:1015100003469BB200E00023BB853B7E012262F3C1
:1015200002033B763B7E6FF3C5033B76BB8DC3F373
:1015300009039AB23B8B62F38F133B8397F82F30EA
:10154000002B04D06F49388B04F018FC05E0398B70
:101550006C4825F0C1FC00E000BF4FF0FF33C6E04F
:101560006948FFF753FD0346002B40D066496348A6
:101570001AF054FB0346002B39D00323002B32D042
:1015800023F038FA034687F82B3000237B610323CE
:10159000002B07D05A4B1B681846FFF7BFFE0346C7
:1015A0009BB200E000233B853B7C012262F30203F7
:1015B0003B743B7C6FF3C5033B743B8DC3F3090362
:1015C0009AB23B8A62F38F133B8297F82B30002B41
:1015D00004D04E49388A04F0D1FB05E0398A4B48E3
:1015E00025F07AFC00E000BF4FF0FF337FE02DF0E4
:1015F00065F80346002B39D00323002B32D023F0AB
:10160000F9F9034687F823300023FB600323002BFE
:1016100007D03B4B1B681846FFF780FE03469BB282
:1016200000E000233B843B7A012262F302033B7219
:101630003B7A6FF3C5033B723B8CC3F309039AB249
:101640003B8962F38F133B8197F82330002B04D042
:101650002F49388904F092FB05E039892C4825F0A0
:101660003BFC00E000BF4FF0FF3340E01F2012F0D2
:10167000E1FB0346002B39D00323002B32D023F0AB
:10168000B9F9034687F8273000237B600323002B3A
:1016900007D01B4B1B681846FFF740FE03469BB262
:1016A00000E00023BB843B78012262F302033B701D
:1016B0003B786FF3C5033B70BB8CC3F309039AB24D
:1016C0003B8862F38F133B8097F82730002B04D0C0
:1016D0001049388804F052FB05E039880D4825F0A0
:1016E000FBFB00E000BF4FF0FF3300E00023184693
:1016F0003037BD4680BD00BF343D0400543D04007A
:10170000D8C50020583D04007C3D0400943D0400F1
:10171000B83D0400E43D040080B594B000AFBF487C
:101720001AF048FF0346002B3DD00323002B36D090
:1017300023F060F9034687F833300023FB6203236C
:10174000002B07D0B64B1B681846FFF7E7FD034692
:101750009BB200E000233B8697F82830012262F319
:10176000020387F8283097F828306FF3C50387F80D
:1017700028303B8EC3F309039AB23B8D62F38F137B
:101780003B8597F83330002B04D0A649388D04F000
:10179000F5FA05E0398DA34825F09EFB00E000BF77
:1017A0004FF0FF3370E11F23A7F84E30B7F84E30EB
:1017B00018461AF0E1FE0346002B3DD00323002B10
:1017C00036D023F017F9034687F8373000237B62C1
:1017D0000323002B07D0924B1B681846FFF79EFD92
:1017E00003469BB200E00023BB8697F8203001221D
:1017F00062F3020387F8203097F820306FF3C503B7
:1018000087F82030BB8EC3F309039AB23B8C62F396
:101810008F133B8497F83730002B04D08249388CE3
:1018200004F0ACFA05E0398C7F4825F055FB00E068
:1018300000BF4FF0FF3327E1012387F84D3097F8C1
:101840004D3018461AF03EFE0346002B39D00323D4
:10185000002B32D023F0CEF8034687F83B3000232C
:10186000FB610323002B07D06D4B1B681846FFF765
:1018700055FD03469BB200E000233B873B7E0122DF
:1018800062F302033B763B7E6FF3C5033B763B8FEF
:10189000C3F309039AB23B8B62F38F133B8397F830
:1018A0003B30002B04D06149388B04F067FA05E027
:1018B000398B5E4825F010FB00E000BF4FF0FF338E
:1018C000E2E00023A7F84A300123A7F848301E239E
:1018D000A7F84A300A23A7F84830B7F84A30184624
:1018E0001AF02CFE0346002B39D00323002B32D0F4
:1018F00023F080F8034687F83F3000237B61032301
:10190000002B07D0464B1B681846FFF707FD034620
:101910009BB200E00023BB873B7C012262F3020301
:101920003B743B7C6FF3C5033B74BB8FC3F309036C
:101930009AB23B8A62F38F133B8297F83F30002BB9
:1019400004D03B49388A04F019FA05E0398A38484E
:1019500025F0C2FA00E000BF4FF0FF3394E0B7F883
:10196000483018461AF0CCFD0346002B3BD0032329
:10197000002B34D023F03EF8034687F84330002391
:10198000FB600323002B07D0254B1B681846FFF78D
:10199000C5FC03469BB200E00023A7F840303B7A29
:1019A000012262F302033B723B7A6FF3C5033B7281
:1019B000B7F84030C3F309039AB23B8962F38F133F
:1019C0003B8197F84330002B04D01A49388904F042
:1019D000D5F905E03989174825F07EFA00E000BF07
:1019E0004FF0FF3350E01AF019FD0346002B4AD0A8
:1019F0000323002B43D022F0FDFF034687F8473036
:101A000000237B600323002B16D0054B1B68184670
:101A1000FFF784FC03469BB20FE000BFC513010033
:101A2000D8C50020FC3D0400203E0400403E0400D8
:101A30005C3E04007C3E04000023A7F844303B7861
:101A4000012262F302033B703B786FF3C5033B70E6
:101A5000B7F84430C3F309039AB23B8862F38F139B
:101A60003B8097F84730002B04D00949388804F0B0
:101A700085F905E03988064825F02EFA00E000BF18
:101A80004FF0FF3300E0002318465037BD4680BDBD
:101A90009C3E040080B483B000AF78607B68D3E9DB
:101AA00000231649C1E900237B68D3E902231449C6
:101AB000C1E900237B6893F83820124B1A707B68C9
:101AC00093F83920104B1A707B6893F83A200F4B2B
:101AD0001A707B689A8E0E4B1A807B6893F83620BA
:101AE0000C4B1A707B6893F837200B4B1A7000BFB1
:101AF0000C37BD465DF8047B704700BFB8C90020B5
:101B0000C0C9002029F100202AF100202BF100207B
:101B100018F100202CF100202DF1002080B58CB0B0
:101B200000AF0323022B32D922F064FF034687F86B
:101B30002F300023FB610323002B07D0784B1B6859
:101B40001846FFF7EBFB03469BB200E00023BB8582
:101B50003B7E032262F302033B763B7E6FF3C503B9
:101B60003B76BB8DC3F309039AB23B8B62F38F13B1
:101B70003B8397F82F30002B04D06A49388B04F050
:101B8000FDF805E0398B674825F0A6F900E000BFB5
:101B9000FFF79CFC0346002B39D00323002B32D0E7
:101BA00022F028FF034687F8233000237B610323BC
:101BB000002B07D05A4B1B681846FFF7AFFB0346B4
:101BC0009BB200E000233B843B7C012262F30203D2
:101BD0003B743B7C6FF3C5033B743B8CC3F309033D
:101BE0009AB23B8A62F38F133B8297F82330002B23
:101BF00004D04D49388A04F0C1F805E0398A4A48D2
:101C000025F06AF900E000BF4FF0FF3384E023F0D5
:101C100086F80346002B39D00323002B32D022F064
:101C2000E9FE034687F827300023FB600323002BDF
:101C300007D03B4B1B681846FFF770FB03469BB26F
:101C400000E00023BB843B7A012262F302033B7273
:101C50003B7A6FF3C5033B72BB8CC3F309039AB2A3
:101C60003B8962F38F133B8197F82730002B04D018
:101C70002E49388904F082F805E039892B4825F08F
:101C80002BF900E000BF4FF0FF3345E0FFF744FDC4
:101C90000346002B39D00323002B32D022F0AAFEBA
:101CA000034687F82B3000237B600323002B07D0EB
:101CB0001B4B1B681846FFF731FB03469BB200E045
:101CC00000233B853B78012262F302033B703B78A3
:101CD0006FF3C5033B703B8DC3F309039AB23B8896
:101CE00062F38F133B8097F82B30002B04D0104900
:101CF000388804F043F805E039880D4825F0ECF801
:101D000000E000BF4FF0FF3306E022F09FFF0246E5
:101D10000B460849C1E9002318463037BD4680BD4F
:101D2000D8C50020DC3E0400F43E0400103F04004F
:101D30002C3F0400B0C90020B0B500AF4FF0FF3217
:101D40004FF0FF330221514822F0D7FF4F4BDB68A1
:101D500003F4FC23B3F5804F70D14C4B19694FF05D
:101D600000024FF00003084622F088FF0346002BD4
:101D700064D122F0E0FF034683F00103DBB2002BC5
:101D80005CD0434B93F8503003F00803002B02D093
:101D9000404823F078FA3E4B93F8503003F010039C
:101DA000002B02D03C4823F06EFA394B93F85030A8
:101DB00003F00403002B02D0384823F064FA3848BB
:101DC00023F061FA324B93F8503003F00103002BFB
:101DD0000BD022F03BFF02460B463249C1E90023FB
:101DE0002B48FFF757FE01214DE022F02FFF02465E
:101DF0000B46104619462B4BD3E90023841A61EB9E
:101E000003054FF47A724FF0000320462946FEF78F
:101E100023FF02460B46244823F035FA234B1B7858
:101E20000133DAB2214B1A70204B1B7803F0030305
:101E30001F4AD35C19461F4823F025FA134B1B6A2F
:101E400003F4FC23B3F5003F12D1104B586A4FF056
:101E500000024FF00003184922F03DFF0346002B1B
:101E600006D122F068FF144B1B68184631F091F937
:101E7000064AD3686FF35233D360044A136A6FF390
:101E80005233136200210B461846B0BDDCC500205A
:101E9000C8C90020503F0400703F0400903F040078
:101EA000BC3F0400B0C90020E43F040028F100203A
:101EB00088C0040004400400D4D8002080B582B05B
:101EC00000AF00F081F84FF47A7023F067F80F4804
:101ED00023F093F878607B68002B0CD114230C4A14
:101EE0000C490D4823F0CFF90C4823F0CCF914210C
:101EF000074824F04CFB7868FFF7A6F9FFF70EFEC1
:101F000000F00EF800BF0837BD4680BD1440040045
:101F10001C400400384004004040040060400400BD
:101F200080B582B000AF00237B60FFF705FF7860CB
:101F30007B68012B27D123F04BF80346DB0B154AB6
:101F40001360154BD3E90023144823F09CF9144B7C
:101F5000D3E90023134823F096F9134B1B88194645
:101F6000124B1B781A46124B1B78124823F08BF940
:101F7000114B1B781946114B1B781A46104B1B78D6
:101F8000104823F080F900F04BF84FF47A7023F0FA
:101F900005F8CAE7D8D80020B8C900207C40040062
:101FA000C0C900209840040018F100202CF1002046
:101FB0002DF10020B440040029F100202AF1002076
:101FC0002BF10020D440040080B582B000AF15F0A2
:101FD000A3F903460E4A136015F08AF903460D4A29
:101FE00013600B4B1B680B4A12680B49184615F01F
:101FF00043F9074B1B68184615F022F8786079689A
:10200000064823F040F900BF0837BD4680BD00BF39
:10201000DCD80020E0D80020FC4004000841040087
:1020200090B589B000AF504823F02DF94F4822F009
:10203000F0FF0346002B00F093804C494C48FEF71C
:10204000DBFF0346002B00F08B8000233B6107F190
:10205000140300221A609A8000237B6007F10803B2
:1020600000221A609A80434B93ED007B07F1100326
:102070001846B0EE470AF0EE670A00F091F83E4BC2
:1020800093ED007B3B1D1846B0EE470AF0EE670A61
:1020900000F086F807F110031946384823F0F3F8EA
:1020A000344BD3E90023364823F0EDF8354B1C6858
:1020B00015F032F90346344A1360334B1B68194656
:1020C00020462CF054FF304B1C68284815F0EAF8E5
:1020D00003461A462D49204615F0CEF82A4B1C68B7
:1020E00007F11003184615F0DDF803461A46284993
:1020F000204615F0C1F8244B1C683B1D184615F00E
:10210000D1F803461A462349204615F0B5F8224B6C
:102110001B68184614F094FFF861F9691F4823F012
:10212000B2F84FF47A720021114831F0B0F80F493B
:102130000F4831F0C3F84FF47A7200210B4831F0A8
:10214000A6F80C494FF000024FF00003C1E900234C
:1021500009494FF000024FF00003C1E9002300E0FD
:1021600000BF2437BD4690BD0C410400ECD40020D4
:1021700004D10020B8C90020C0C9002020410400BB
:102180007C400400E0D80020E4D800203441040062
:102190003C41040048410400DCD800200841040010
:1021A0002DE9F04F9BB000AF87ED0A0B78624FF03E
:1021B000FF324FF0FF33C7E90E234FF000024FF01C
:1021C0000003D7E90A01FEF769FC0346002B0BD098
:1021D0004FF02D024FF00003C7E90E23BB6ABB622C
:1021E000FB6A83F00043FB62D7E90A23C7E90C23AB
:1021F000D7E90A01FEF748FD02460B46C7E912235C
:102200004FF000024FF00003C7E918234FF000021F
:102210004FF00003C7E9162323E0BB6D01331946D5
:102220000A2022F007FF03461846FEF75BF9024634
:102230000B46D7E90A01FEF7BFF902460B46C7E98C
:102240000C23D7E90C01FEF71FFD02460B46C7E938
:102250001223D7E9162312F1010843F10009C7E957
:102260001689D7E91201FEF779F902460B46D7E93C
:102270000C01FDF7E9FF02460B46104619464FF0E8
:1022800000024FF00003FEF7FFFB0346002B20D1B6
:10229000D7E91201FEF762F902460B46D7E90C01B5
:1022A000FDF7D2FF02460B461046194601231E4693
:1022B0004FF000024FF00003FEF7F0FB0346002B47
:1022C00001D100231E46F3B283F00103DBB2002BE1
:1022D000A3D101231E464FF00002674BD7E90A0144
:1022E000FEF7FAFB0346002B01D100231E46F3B292
:1022F00083F00103DBB21A464FEAE273C7E9182301
:1023000012E04FF000025D4BD7E90A01FEF77EFABA
:1023100002460B46C7E90A23D7E9182312F1010A3E
:1023200043F1000BC7E918AB4FF00002524BD7E95D
:102330000A01FEF7D1FB0346002BE2D1D7E91823AF
:10234000C7E91023D7E91801D7E91623841841EB10
:102350000305631CBB6145F10003FB61D7E906344B
:10236000C7E91834D7E90C01FEF78EFC02460B468C
:10237000C7E91223D7E90E23002B08BF2D2A15D158
:10238000D7E91823511C396143F100037B61D7E978
:102390000434C7E91834D7E91023511CB96043F15C
:1023A0000003FB60D7E90234C7E91034D7E91823EA
:1023B000C7E9142353E0D7E91401D7E91823994258
:1023C00008BF904205D13B6D7A6A134400221A700F
:1023D00039E0D7E91401D7E91023994208BF9042A8
:1023E00005D13B6D7A6A13442E221A702BE0D7E98F
:1023F0000E23002B08BF2D2A09D1D7E9142313433C
:1024000005D13B6D7A6A13442D221A701BE0D7E97F
:1024100012014FF00A024FF00003FEF7CDFB53B25A
:10242000303359B23B6D7A6A1344CAB21A70D7E995
:1024300012014FF00A024FF00003FEF7BDFB024607
:102440000B46C7E91223D7E9142312F1FF31396093
:1024500043F1FF337B60D7E90034C7E91434D7E98F
:102460001423002A73F10003A5DA00BF00BF6C3704
:10247000BD46BDE8F08F00BF0000F03F00002440E3
:1024800080B582B000AF78607B685B010833054A95
:102490001344184622F020FE03460133184608373D
:1024A000BD4680BDE8D8002080B584B000AF78601C
:1024B0007B685B0108331A4A1344184622F019FE60
:1024C000F860FB68002B01D1002324E07B685B01EE
:1024D0000833134A9818FB68013B1A46F96822F042
:1024E000C2FD034683F00103DBB2002BE0D1FB68A1
:1024F000012B02D0FB68013B0DE0094A7B685B01C0
:10250000134400221A60064A7B685B0113440433BB
:1025100000221A60002318461037BD4680BD00BF58
:10252000E8D8002080B582B000AF00237B600FE0C8
:102530007B685B0108330D4A1344184622F0D9FD2D
:102540000346002B01D17B680CE07B6801337B6084
:102550007B68032BECDD25F061FE034617221A6031
:102560004FF0FF3318460837BD4680BDE8D800203D
:1025700080B582B000AF78607B68002B02DB7B689F
:10258000032B07DD25F04AFE034609221A604FF0AF
:10259000FF331AE07B680421184622F0F7FD03465A
:1025A0007B607B685B0108330A4A1344184622F0BB
:1025B000A0FD0346002B07D125F030FE034609227B
:1025C0001A604FF0FF3300E0002318460837BD467D
:1025D00080BD00BFE8D8002080B586B000AFF860AD
:1025E000B9607A60F868FFF7C3FF0346002B01DA91
:1025F000002315E0FB685B010B4A13447B61BB6859
:10260000002B0BD07B695B68BA689A4206D025F034
:1026100005FE02467B681360002301E07B691B68AE
:1026200018461837BD4680BDE8D8002080B582B076
:1026300000AF4FF0FF324FF0FF33154822F072FD2C
:10264000FFF770FF78607B68002B18DB7868FFF776
:1026500017FF104A7B685B01134400221A600D4A81
:102660007B685B011344043300221A607B685B01C2
:102670000833084A13440433184622F047FD04483F
:1026800022F060FD79680B4618460837BD4680BDCC
:10269000A8C80020E8D8002080B584B000AFF8605A
:1026A000B9607A60114AFB685B011344BA681A602A
:1026B0000E4AFB685B01134404337A681A607B6836
:1026C000002B0FD07B68DB68002B0BD0FB685B0115
:1026D0000833064A1344043340F20512B968786897
:1026E00022F03CFD00BF1037BD4680BDE8D8002079
:1026F00080B586B000AF7860396000237B6100232D
:102700003B61786822F067FDF8607B683A689A6000
:10271000FB68032B09D0FB68032B0ED8FB68012B49
:1027200016D0FB68022B04D007E07B681B683B6176
:102730000FE07B681B687B610BE045230C4A0D4969
:102740000D4822F0A0FD4521094823F020FF00E0BC
:1027500000BF7B6800225A607B69002B03D0396878
:10276000786922F02AFD3B6918461837BD4680BDBE
:1027700054410400784104007C41040080B483B0DB
:1027800000AF7860044A7B68136000BF0C37BD4619
:102790005DF8047B704700BF04C6002080B584B09C
:1027A00000AF786039603B68FB60FB681B685A1CAF
:1027B000FB681A60044B1B68786898470346184604
:1027C0001037BD4680BD00BF04C6002080B584B070
:1027D00000AF786039600023FB6007F10C013B68B3
:1027E0007A68034801F0F4FE00BF1037BD4680BD93
:1027F0009D27010080B588B000AFF860B9607A60AD
:102800003B60FB687B61BB68BB610023FB6107F138
:1028100014013B687A68094801F0DAFEFA69BB697D
:102820009A4205DAFB691A46FB68134400221A70C3
:10283000FB6918462037BD4680BD00BFAB52030080
:1028400080B588B000AF786039607B681433FB6175
:102850004FF02003EFF3118283F31288BFF36F8FE1
:10286000BA617B61BB69FB60F8691BF071F90346D3
:1028700083F00103DBB2002B0DD081230E4A0F49F8
:102880000F4822F000FDF9690E4822F0FCFC81217E
:10289000094823F07CFEF8691BF092F9FB683B6164
:1028A0007B683A689A613A690121786800F0BCF85F
:1028B00000BF2037BD4680BD9C410400C4410400D8
:1028C000DC410400FC41040080B586B000AFF86034
:1028D000B9607A60FB689B8B03F007033B617B6800
:1028E000002B0EDABB68FA6892E8030083E8030065
:1028F000FB68184622F02BFD0121F86822F060FEEB
:1029000085E03B69062B02D03B69052B5DD1BB6896
:10291000FA6892E8030083E80300FB68184622F097
:1029200016FD3B69062B2FD1B86822F056FD0346F1
:10293000002B04D0B86822F050FD034600E00023CD
:102940007B6119E0FB68DB8B01339AB2FB68DA83A9
:102950007B69002B0ED07B69184622F073FD03467D
:10296000002B05D07B69184622F06CFD034602E07F
:10297000002300E000237B617B69002BE2D1022170
:10298000F86822F01DFE12E03B69052B0BD040F2E7
:102990000913214A2149224822F075FC40F209110D
:1029A0001D4823F0F4FD0021F86822F009FEF868C4
:1029B00022F0F6FE0346002B29D0FB689B8B43F0E8
:1029C00020039AB2FB689A8321E03B69042B11D162
:1029D0000021F86822F0F4FDF86822F0E1FE0346D9
:1029E000002B14D0FB689B8B43F020039AB2FB684A
:1029F0009A830CE040F21B13074A0A49084822F068
:102A000042FC40F21B11044823F0C1FDFFE700BF68
:102A10001837BD4680BD00BF144204003842040090
:102A2000DC4104006042040080B596B000AFF8605D
:102A3000B9607A60FB689B8B03F007037B6500231A
:102A40003B65FB689B8B03F00803002B14BF01233D
:102A5000002387F84B30BB68002B0BD140F23313B7
:102A6000924A9349934822F00EFC40F233118F486A
:102A700023F08DFD97F84B30002B21D0BB68012B44
:102A800007D1FB689B8B43F010039AB2FB689A83D3
:102A9000F6E1BB68022B0BD04FF49E73834A864944
:102AA000844822F0F0FB4FF49E71804823F06FFDC4
:102AB000FB689B8B43F020039AB2FB689A83DFE1AB
:102AC00007F12003184622F042FC0023FB64BB6898
:102AD000022B03D1F86822F063FEB860BB68002BBC
:102AE00000F0CD8100233B65BB68012B0AD1FB6858
:102AF0009B693B6507F120033A6D1946F868FFF7BB
:102B0000E3FEBFE0BB68032B39D17B6D002B0BD0FC
:102B10004FF4AB73654A6949664822F0B4FB4FF441
:102B2000AB71624823F033FDFB68184622F06DFC60
:102B30000346002B0BD040F257135C4A60495D48B6
:102B400022F0A1FB40F25711584823F020FDFB680A
:102B50001B691B68FB64FB6C002B0BD14FF4AD733E
:102B6000524A5849534822F08EFB4FF4AD714F48FA
:102B700023F00DFD0621F86822F022FD82E0BB68FB
:102B8000042B36D17B6D022B0BD040F25D13474AEC
:102B90004D49484822F077FB40F25D11434823F04D
:102BA000F6FCFB68DB8B002B0BD04FF4AF733F4A76
:102BB0004649404822F067FB4FF4AF713B4823F091
:102BC000E6FCFB681B695B68FB64FB6C002B0BD1AC
:102BD00040F26113354A3B49364822F054FB40F23B
:102BE0006111324823F0D3FC0421F86822F0E8FC9C
:102BF00048E0BB68052B39D17B6D012B0BD04FF41E
:102C0000B2732A4A32492B4822F03DFB4FF4B2718D
:102C1000264823F0BCFCFB68184622F0F6FB03466E
:102C2000002B0BD040F26513204A2549214822F0A1
:102C30002AFB40F265111D4823F0A9FCFB681B69C3
:102C40009B68FB64FB6C002B0BD14FF4B473174AE9
:102C50001C49184822F017FB4FF4B471134823F0B5
:102C600096FC0521F86822F0ABFC0BE040F26B13F8
:102C70000E4A18490F4822F006FB40F26B110B4830
:102C800023F085FCFB689B8B03F007037A6D9A4267
:102C900022D0FB680833184622F0B7FB034683F0C6
:102CA0000103DBB2002B17D0012316E0144204000D
:102CB00064420400DC4104007442040088420400C1
:102CC00094420400B8420400D0420400E8420400E8
:102CD000F842040060420400002387F84A3097F865
:102CE0004A3003F0010387F84A300023BB6097F8AD
:102CF0004A30002B0ED107F12003184622F085FB45
:102D0000034683F00103DBB2002B03D1FB6C002BE5
:102D100000F08C80FB689B8B43F008039BB27B64C4
:102D20007B6C9AB2FB689A837B6C03F007037B652C
:102D3000FB6814333B647B687B61386C1AF024FFBA
:102D4000034683F00103DBB2002B0DD0AC23614AB4
:102D50006149624822F097FA396C614822F093FA8F
:102D6000AC215C4823F013FC7B69FB63FB6B83F3B2
:102D70001188BFF36F8F00BF00BF97F84A30002B58
:102D800004D03A6D796DF86822F07DFC07F12003DC
:102D9000184622F03AFB034683F00103DBB2002B16
:102DA00006D007F120013B6D7A6DF86822F0D6FC61
:102DB000FB6C002B03D0FB6C4A49F8689847FB6812
:102DC0001433BB634FF02003EFF3118283F31288B7
:102DD000BFF36F8F7A633B637B6BBB61B86B1AF099
:102DE000B7FE034683F00103DBB2002B0DD0812335
:102DF000384A3D49394822F046FAB96B3B4822F03F
:102E000042FA8121334823F0C2FBB86B1AF0D8FE96
:102E1000BB697B60FB689B8B23F008039AB2FB685D
:102E20009A83FB689B8B03F007037B65FB689B8B96
:102E300003F01003002B09D0FB689B8B23F01003D9
:102E40009AB2FB689A830123BB600EE0FB689B8B00
:102E500003F02003002B08D0FB689B8B23F020039A
:102E60009AB2FB689A830223BB60FB689B8B03F0DA
:102E700007037B65BB68002B7FF427AE00E000BF33
:102E8000FB681433FB627B68FB61F86A1AF07CFE16
:102E9000034683F00103DBB2002B0DD0AC230D4AB7
:102EA0000D490E4822F0EFF9F96A0D4822F0EBF9CE
:102EB000AC21084823F06BFBFB69BB62BB6A83F360
:102EC0001188BFF36F8F00BF00BF00BF5837BD46EA
:102ED00080BD00BF9C41040010430400DC4104009D
:102EE0002843040041280100C4410400FC410400BF
:102EF00080B58EB000AF78603960002387F8373036
:102F0000002387F83630002387F835303968786831
:102F100022F06FFB38633B6B002B01DA3B6BB9E0AF
:102F20007B681433BB624FF02003EFF3118283F30D
:102F30001288BFF36F8F7A623B627B6AFB60B86A6C
:102F40001AF006FE034683F00103DBB2002B0DD01E
:102F50008123524A5249534822F095F9B96A52489E
:102F600022F091F981214D4823F011FBB86A1AF043
:102F700027FEFB687B617B689B8B03F00703FB628A
:102F80007B68DB8B4FF6FF72934203D16FF00A032D
:102F90003B633BE0FB6A3B63FB6A022B09D10123E5
:102FA00087F835307B68DB8B01339AB27B68DA8334
:102FB0002CE0FB6A002B05D0FB6A042B02D0FB6AD5
:102FC000062B0AD1FB6A002B0CBF0123002387F8D4
:102FD0003630012387F8373018E0FB6A052B03D120
:102FE0006FF085033B6311E0FB6A012B0BD040F2CD
:102FF000C9132E4A2E492B4822F045F940F2C91137
:103000002A4823F0C4FA6FF004033B6397F8373083
:10301000002B05D07B683A681146184622F023FA47
:1030200097F83630002B05D07A6902217868FFF7CF
:10303000FBFC2EE07B681433FB617B693B61F86924
:103040001AF0A2FD034683F00103DBB2002B0DD082
:10305000AC23124A1749134822F015F9F9691648AA
:1030600022F011F9AC210D4823F091FA3B69BB61C4
:10307000BB6983F31188BFF36F8F00BF00BF97F860
:103080003530002B05D00023FA6A3968786822F0C1
:103090004AFB3B6B18463837BD4680BD9C41040057
:1030A000C4410400DC410400FC410400144204005B
:1030B000F8420400104304002843040080B58EB099
:1030C00000AF7860002387F837307B681433BB6229
:1030D0004FF02003EFF3118283F31288BFF36F8F59
:1030E0007A623B627B6AFB60B86A1AF031FD034684
:1030F00083F00103DBB2002B0DD081233C4A3D4914
:103100003D4822F0C0F8B96A3C4822F0BCF8812161
:10311000374823F03CFAB86A1AF052FDFB687B612D
:103120007B689B8B03F00703FB62FB6A3B63FB6AD4
:10313000022B0AD0FB6A012B03D16FF004033B631F
:1031400021E06FF085033B631DE07B68DB8B002B88
:103150000BD14FF4F8732A4A2A49274822F093F8F2
:103160004FF4F871264823F012FA7B68DB8B013BA1
:103170009AB27B68DA837B68DB8B002B0CBF012360
:10318000002387F8373097F83730002B05D07A695D
:1031900002217868FFF748FC24E07B681433FB6168
:1031A0007B693B61F8691AF0EFFC034683F0010389
:1031B000DBB2002B0DD0AC230D4A13490E4822F090
:1031C00062F8F969114822F05EF8AC21084823F052
:1031D000DEF93B69BB61BB6983F31188BFF36F8F75
:1031E00000BF00BF3B6B18463837BD4680BD00BFEF
:1031F0009C410400C4410400DC410400FC41040083
:103200001442040040430400104304002843040017
:1032100080B58CB000AF786039607B68002B02D03D
:103220003B68002B02D16FF0150378E06FF0770355
:10323000FB627B6814337B624FF02003EFF3118253
:1032400083F31288BFF36F8F3A62FB613B6ABB6006
:10325000786A1AF07DFC034683F00103DBB2002B91
:103260000DD08123304A3149314822F00CF8796A77
:10327000304822F008F881212B4823F088F9786A39
:103280001AF09EFCBB683B617B689B8B03F00703D5
:10329000BB627B683A681146184622F06CF9034617
:1032A000002B16D0BB6A062B11D0BB6A042B0ED0A4
:1032B000BB6A052B0BD040F22E231F4A1F491C4826
:1032C00021F0E1FF40F22E211B4823F060F9BB6A98
:1032D000FB627B681433BB613B69FB60B8691AF021
:1032E00053FC034683F00103DBB2002B0DD0AC236B
:1032F0000D4A13490E4821F0C6FFB969114821F063
:10330000C2FFAC21084823F042F9FB687B617B696E
:1033100083F31188BFF36F8F00BF00BFFB6A1846AD
:103320003037BD4680BD00BF9C410400C44104004D
:10333000DC410400FC41040014420400504304003A
:10334000104304002843040080B584B000AF7860C7
:1033500039603B68002B44D07B681B68FB60396890
:10336000F86822F00CFEB860B968F86822F0FCFA40
:10337000034683F00103DBB2002B0DD0A3231B4ACD
:103380001B491C4821F07FFF39681B4821F07BFF57
:10339000A321164823F0FBF8B968F86822F0AFFBC8
:1033A00003461946F86822F099FB0246BB6893422F
:1033B0000DD0AB230D4A11490E4821F064FF396846
:1033C0000F4821F060FFAB21084823F0E0F800220D
:1033D000B968F86822F0EEFAB968F86822F079FD69
:1033E00000E000BF1037BD4680BD00BFCC430400E5
:1033F000F043040004440400244404005C4404003A
:103400008444040080B58EB000AFF860B9607A6083
:10341000FB681B68FB62BB685B42BA6813403B6396
:10342000BA683B6B9A4212D0BA683B6BD31ABB6046
:10343000F86A22F0A0FB02463B6B934204D3F86A81
:1034400022F099FB034600E03B6B7B6312E0F86AD5
:1034500022F091FB0246BB68934205D87968F86870
:1034600022F008FE034684E000233B63F86A22F062
:1034700082FB7863BB685A1EBB681340002B0ED0DA
:1034800040F227133D4A3E493E4821F0FCFE3E48AB
:1034900021F0F9FE40F22711384823F078F87B68D4
:1034A000002B06D07968F86A22F0CAFB0346002B8D
:1034B00001D000235DE07A68BB681A447B6BD31AA5
:1034C0001946F86A22F086FBB862B96AF86A22F0F7
:1034D0006FFD78627B6A002B01D1002349E0796A95
:1034E000F86A22F0C1FB38623A6A3B6B13441A4611
:1034F000BB6813445A1EBB685B421A403B6BD31A2D
:103500003B623A6A7B681344073323F00703FB618D
:10351000396AF86A22F033FDB861F86A22F0CBF913
:103520000246FB699B1ADB107B61BA697B6A9A428F
:1035300008D9BA69796AF86A22F076FC796AF86A79
:1035400022F050FCB969F86A22F0D9FA02467B6988
:10355000934208D27A69B969F86A22F065FC796900
:10356000F86A22F03FFC0122B969F86A22F022FAD7
:103570003B6A18463837BD4680BD00BFCC430400C7
:10358000C044040004440400DC44040080B58CB052
:1035900000AFF860B9607A607B68B3F5802F0ED316
:1035A00040F2A513634A6449644821F06CFE644804
:1035B00021F069FE40F2A5115E4822F0E8FF78682C
:1035C00022F0EAFA02467B6893420ED84FF4D67393
:1035D000584A5C49594821F056FE5B4821F053FE99
:1035E0004FF4D671534822F0D2FF786822F0D4FA13
:1035F00002467B689B1A7B60BB68073323F0070396
:10360000BB62BA687B68134423F007037B627A6A63
:10361000BB6AD31ADB083B62102022F0CEFA0246C6
:103620003B6A93420ED840F2B513424A4749434899
:1036300021F029FE444821F026FE40F2B5113D4814
:1036400022F0A5FFBB6AFB61FB68FA691A60FB699F
:103650003A6A9A60FB690022DA60396AF86922F0F6
:10366000D9FA03460133BB61BB6904339B0018469A
:1036700022F0A3FA7861F86922F0BFFA02467B696A
:1036800013443A6A9A420ED240F2C513294A30498D
:103690002A4821F0F8FD2C4821F0F5FD40F2C51133
:1036A000244822F074FF0023FB6208E0FB69FA6AF9
:1036B0000432002143F82210FB6A0133FB62FA6AEC
:1036C000BB699A42F2DB7A690021F86922F0B7F906
:1036D00000220021F86922F022FA01220021F86973
:1036E00022F068F93A6A7B69D31A1A467969F8694F
:1036F00022F0A5F97A697969F86922F010FA0022B6
:10370000396AF86922F09BF93A6A7B69D31A1A463A
:10371000396AF86922F003FA0122396AF86922F05D
:1037200049F97969F86922F05DFB00BF3037BD4681
:1037300080BD00BFCC430400FC44040004440400EA
:10374000144504002C450400504504006C45040059
:103750009845040080B485B000AF78607B681B6832
:10376000FB600023BB600CE0BA6813469B00134467
:103770005B001946FB685A1CFA601B780B44303B0F
:10378000BB60FB681B780133084A13441B7803F0C5
:103790000403002BE8D17B68FA681A60BB681846FE
:1037A0001437BD465DF8047B704700BFCEC90400E6
:1037B00080B485B000AF786039600123FB733B684B
:1037C0001B78203B102B43D801A252F823F000BFF6
:1037D0002D380100513801005138010039380100FD
:1037E00051380100513801005138010051380100B1
:1037F00051380100513801005138010021380100D1
:1038000051380100153801005138010051380100CC
:10381000453801007A68137843F00403137019E007
:103820007A68137843F00803137013E07A6813780A
:1038300043F0100313700DE07A68137843F020030F
:10384000137007E07A68137843F04003137001E0C7
:103850000023FB73FB7B002B02D03B6801333B60F2
:10386000FB7B002BABD17B681B7803F04003DBB202
:10387000002B0BD07B681B7803F00403DBB2002B1A
:1038800004D07A6813786FF3861313703B68184678
:103890001437BD465DF8047B704700BF80B483B029
:1038A00000AF786039603B681B784C3B2E2B00F2F0
:1038B000BE8001A252F823F0113A01002F3A010014
:1038C0002F3A01002F3A01002F3A01002F3A010050
:1038D0002F3A01002F3A01002F3A01002F3A010040
:1038E0002F3A01002F3A01002F3A01002F3A010030
:1038F0002F3A01002F3A01002F3A01002F3A010020
:103900002F3A01002F3A01002F3A01002F3A01000F
:103910002F3A01002F3A01002F3A01002F3A0100FF
:103920002F3A01002F3A0100753901002F3A0100AA
:10393000D53901002F3A0100A53901002F3A0100C5
:103940002F3A01002F3A01002F3A01002F3A0100CF
:103950002F3A01002F3A0100FD3901002F3A0100F2
:103960002F3A01002F3A01002F3A01002F3A0100AF
:10397000E93901003B6801333B603B681B78682BE9
:1039800009D17A685378012161F3C60353703B680B
:1039900001333B6051E07A685378022161F3C6033A
:1039A00053704AE03B6801333B603B681B786C2BEB
:1039B00009D17A685378042161F3C60353703B68D8
:1039C00001333B6039E07A685378032161F3C60321
:1039D000537032E07A685378052161F3C60353705F
:1039E0003B6801333B6028E07A685378062161F335
:1039F000C60353703B6801333B601EE07A6853781E
:103A0000072161F3C60353703B6801333B6014E048
:103A10007A685378082161F3C60353703B68013319
:103A20003B607A68137843F00203137005E07A680C
:103A300053786FF3C603537000BF3B6818460C37CA
:103A4000BD465DF8047B704780B485B000AF7860F8
:103A500039600023FB733B685A1C3A601A787B6814
:103A6000DA707B68DB78413B372B00F2FF8001A2E4
:103A700052F823F0A53B01006D3C01006D3C0100B4
:103A80006D3C0100A53B0100A53B0100A53B0100E9
:103A90006D3C01006D3C01006D3C01006D3C01007E
:103AA0006D3C01006D3C01006D3C01006D3C01006E
:103AB0006D3C01006D3C01006D3C01006D3C01005E
:103AC0006D3C01006D3C01006D3C01006D3C01004E
:103AD000633B01006D3C01006D3C01006D3C010049
:103AE0006D3C01006D3C01006D3C01006D3C01002E
:103AF0006D3C0100A53B01006D3C0100633B0100F2
:103B0000553B0100A53B0100A53B0100A53B010081
:103B10006D3C0100553B01006D3C01006D3C010016
:103B20006D3C01006D3C01002D3C0100633B010038
:103B30004D3C01006D3C01006D3C01004D3C01001D
:103B40006D3C0100633B01006D3C01006D3C0100D8
:103B5000633B01007A689378012161F3020393705B
:103B600005E07A689378022161F3020393707B6821
:103B70005B7803F07803DBB2402B04D17A681378CA
:103B800043F0010313707B68DB78632B74D17B688F
:103B90005B7803F07803DBB2002B14BF0123002312
:103BA000FB7369E07A689378042161F302039370F0
:103BB0007B68DB78612B03D07B68DB78412B01D1FC
:103BC000012300E0002303F00103D9B27A6853789F
:103BD00061F3C71353707B685B7823F07F03DBB21C
:103BE000002B02D00123FB734DE07B685B7803F070
:103BF0007803DBB2182B05D17A6853786FF3C603CC
:103C000053703BE07B685B7803F07803DBB2002BFA
:103C100034D07B685B7803F07803DBB2402B2DD087
:103C20007A68137843F00103137027E07A68937879
:103C3000032161F3020393707B685B7803F07803E0
:103C4000DBB2402B1CD10123FB7319E07A68937817
:103C5000032161F3020393707B685B7803F07803C0
:103C6000DBB2002B0ED00123FB730BE07A681378D4
:103C700043F00103137006E000BF04E000BF02E060
:103C800000BF00E000BF7B681B78C3F34003DAB2DB
:103C9000FB7B1343DBB2002B14BF01230023D9B2FB
:103CA0007A68137861F3410313703B681846143740
:103CB000BD465DF8047B704780B588B000AFC7E9AA
:103CC00002017A603B607B68DB780133324A13443F
:103CD0001B7803F00303012B0CBF01230023FB76A9
:103CE0007B68DB78184622F009FC7861BB6AFB61CF
:103CF0007B691A464FF00003D7E90201FCF7ACFFDD
:103D000013463B613B69092B04D83B69DBB2303376
:103D1000DBB20BE0FB7E002B04D03B69DBB2373318
:103D2000DBB203E03B69DBB25733DBB2FA69013A3D
:103D3000FA61FA6913707B691A464FF00003D7E9FC
:103D40000201FCF789FF02460B46C7E90223D7E9C7
:103D50000223134303D03A68FB699A42C8D37B68B5
:103D60001B7803F02003DBB2002B10D07B69082BFB
:103D700005D17A68937843F00803937007E07B6974
:103D8000102B04D17A68937843F010039370FB6989
:103D900018462037BD4680BDCEC904002DE9B04F7E
:103DA000A6B000AF87ED120B78643964FA63BB6389
:103DB000D7E91223C7E91E23002387F88630BB6B9F
:103DC000C7F88830D7E91E23002A73F1000303DA0D
:103DD000FA6B2D23137014E07B6C1B7803F008033F
:103DE000DBB2002B03D0FA6B2B23137009E07B6C42
:103DF0001B7803F01003DBB2002B02D0FA6B2023F8
:103E000013707B6CDB7887F88730D7E91E234FF07F
:103E100000004FF00001180D00210346C3F30A0310
:103E2000C7F88C30D7E91E014FF0FF32D44B00EABF
:103E3000020401EA0305C7E91C45D7F88C30002BC2
:103E400005D1D7E91C23134301D0012300E000234F
:103E500087F8853097F8853003F0010387F88530BF
:103E6000D7F88C2040F2FF739A427AD1D7E91C230D
:103E7000134335D197F887300133C24A13441B7876
:103E800003F00303012B15D1D7F888305A1CC7F86B
:103E9000882049221A70D7F888305A1CC7F8882021
:103EA0004E221A70D7F888305A1CC7F8882046224C
:103EB0001A704AE0D7F888305A1CC7F8882069225F
:103EC0001A70D7F888305A1CC7F888206E221A70EA
:103ED000D7F888305A1CC7F8882066221A7034E058
:103EE00097F887300133A74A13441B7803F0030384
:103EF000012B15D1D7F888305A1CC7F888204E22DC
:103F00001A70D7F888305A1CC7F8882041221A70D6
:103F1000D7F888305A1CC7F888204E221A7014E04F
:103F2000D7F888305A1CC7F888206E221A70D7F844
:103F300088305A1CC7F8882061221A70D7F8883058
:103F40005A1CC7F888206E221A707A6C13786FF3A7
:103F500086131370D7F8B830D7F888201A60BB6B77
:103F6000DBE297F88730462B02D1662387F887304B
:103F7000D7E91C234FF000004FF00001D90241EABD
:103F80005251D002C7E91C01D7E91C014FF0FF32A2
:103F90006FF0004300EA020A01EA030BC7E91CAB19
:103FA000D7F88C3018464FEAE071D7E91C2340EA75
:103FB00002043C630B437B63D7E90C3423432ED0CC
:103FC00097F88530002B15D004E0D7F88C30013BF2
:103FD000C7F88C30D7E91C239118B9605B41FB60AE
:103FE000D7E90223C7E91C23D7E91C23002A73F170
:103FF0000003EADAD7F88C30A3F2FE33C7F88C302E
:10400000D7E91C014FF000024FF0004340EA0204E0
:10401000BC620B43FB62D7E90A34C7E91C340023B6
:10402000C7F890303CE0D7E91C014FF000024FF098
:104030000003420842EAC1724B08C7E91C23D7F8C3
:104040008C300133C7F88C30D7E91C014FF00002E7
:104050004FF000030A0000231346B3F1333FE2D2CE
:10406000D7E91C4522462B464FF000004FF00001D7
:10407000990041EA9271900002460B46111939628B
:104080006B417B62D7E90834C7E91C34D7F88C3020
:104090000133C7F88C30D7F89030013BC7F8903027
:1040A000D7F88C3013F1020FBDDB2EE0D7E91C23CB
:1040B000911CB96143F10003FB61D7E90634C7E9FC
:1040C0001C3407F17003184622F0FBF8D7F88C3047
:1040D000013BC7F88C30D7F890300133C7F89030E7
:1040E000D7E91C23911839605B417B60D7E9002335
:1040F000C7E91C23D7F88C30013BC7F88C30D7E9CF
:104100001C23002A73F10003EADAD7F88C30002B65
:10411000CCDCD7E91C23D7F88C10C1F10401C1F124
:104120002004A1F1200022FA01F803FA04F448EA7D
:10413000040823FA00F048EA000823FA01F9C7E965
:104140001C8997F88730672B03D097F88730472B67
:1041500032D1D7F8903013F1030F04DBD7F8902059
:104160003B6C9A4210DD97F98730023B5BB287F8CF
:1041700087303B6C002B0FDD3B6C013B3B640BE05D
:10418000FFFF0F00CEC90400662387F887303A6C22
:10419000D7F89030D31A3B647B6C1B78C3F3401381
:1041A000DBB283F00103DBB2002B05D03B6C002BAC
:1041B00002DD012387F8863097F88730662B0DD112
:1041C0003A6CD7F890301344C7F89430D7F894304D
:1041D000002B07DA0023C7F8943003E03B6C01336F
:1041E000C7F894301023FB66D7F89430102B02DD0B
:1041F0001023C7F894304FF000024FF00063C7E976
:10420000182304E007F16003184622F010F9D7F8EC
:1042100094305A1EC7F89420002BF3D1D7E91C0123
:10422000D7E9182384183C6141EB03037B61D7E98C
:104230000434C7E91C34D7E91C234FF0FF306FF07A
:104240007041994208BF904209D207F170031846A5
:1042500022F0EDF8D7F890300133C7F8903097F896
:104260008730662B65D1D7F89030002B23DD13E023
:10427000D7F88840631CC7F8883007F16C0207F153
:1042800070031146184622F0EBF803462370D7F866
:104290009030013BC7F89030D7F89030002B02DD0A
:1042A000FB6E002BE4DC7B6CD7F890205A60002377
:1042B000C7F8903006E0D7F888305A1CC7F8882035
:1042C00030221A707B6C1B7803F02003DBB2002BCA
:1042D00002D13B6C002B06DDD7F888305A1CC7F89A
:1042E00088202E221A70D7F89030002B5FDA3B6CB2
:1042F000002B5CDDD7F890305A427B6C5A607B6CA7
:104300005B683A6C9A4202DA7B6C3A6C5A607B6C5E
:104310005B683A6CD31A3B647B6C5B68002BCCBF48
:1043200001230023D9B27A6C937861F3451393701B
:104330003DE007F16C0207F170031146184622F0C8
:104340008FF803461A46D7F888301A70D7F88830A5
:104350005A1CC7F888201B78302B04D0D7F890302F
:10436000013BC7F890307B6C1B7803F02003DBB275
:10437000002B02D13B6C002B19DDD7F888305A1C7A
:10438000C7F888202E221A7011E0D7F88840631CE5
:10439000C7F8883007F16C0207F170031146184620
:1043A00022F05EF8034623703B6C013B3B643B6CA0
:1043B000002B02DDFB6E002BE7DC7B6C3A6C9A6015
:1043C00097F88630002B16D07B6C00229A60D7F8C5
:1043D0008830013BC7F88830D7F888301B78302BFD
:1043E000F5D0D7F888301B782E2B04D0D7F888303A
:1043F0000133C7F8883097F88730652B03D097F8DA
:104400008730452B6CD1D7F888305A1CC7F88820E4
:1044100097F887201A70D7F89030002B0CDAD7F86D
:1044200090305B42C7F89030D7F888305A1CC7F8F4
:1044300088202D221A7006E0D7F888305A1CC7F859
:1044400088202B221A70D7F89030632B1FDDD7F805
:104450009030344A82FB03125211DB17D31A5BB23D
:10446000303359B2D7F888305A1CC7F88820CAB2FE
:104470001A70D7F890302B4A82FB03125111DA17C9
:104480008A1A642101FB02F29B1AC7F89030D7F810
:104490009030254A82FB03129210DB17D31A5BB2CD
:1044A000303359B2D7F888305A1CC7F88820CAB2BE
:1044B0001A70D7F890201C4B83FB02139910D31766
:1044C000C91A0B469B000B445B00D11A4BB2303328
:1044D00059B2D7F888305A1CC7F88820CAB21A7067
:1044E0007B6C5B68002B03DC7B6C9B68002B01DD25
:1044F000012300E0002303F00103D9B27A6C937822
:1045000061F386139370D7F8B830D7F888201A6013
:10451000D7F8883000221A70BB6B18469837BD4612
:10452000BDE8B08F1F85EB516766666680B485B0C5
:1045300000AFF860B9607A60FB685B78C3F3C303CF
:10454000DBB2072B3CD801A252F823F06D450100E5
:10455000754501007F450100894501009145010035
:10456000A1450100B1450100B9450100BB687A6869
:104570001A6026E07B685AB2BB681A7021E07B683B
:104580001AB2BB681A801CE0BB687A681A6018E02F
:104590007B681A464FEAE273B968C1E9002310E06C
:1045A0007B681A464FEAE273B968C1E9002308E064
:1045B0007A68BB681A6004E0BB687A681A6000E039
:1045C00000BF00BF1437BD465DF8047B704700BFD5
:1045D00080B5BAB002AFF860B9607A603B60002382
:1045E000C7F8DC3000F026BE7B681B78252B16D080
:1045F0007B685A1C7A601B781A46FB68B9681046BB
:10460000984738653B6D002B02DA3B6D00F019BE10
:10461000D7F8DC300133C7F8DC3000F00BBE07F10F
:10462000180300221A605A609A60DA601A615A61AF
:1046300007F118030833C7F8B83007F11803C7F8B3
:10464000B4307B68C7F8B0304FF0FF33C7F8D830CC
:104650004FF0FF33C7F8D4300023C7F8D03007F14C
:10466000340319337B610023FB74D7F8B010D7F8FB
:10467000B80021F0EEFD7860D7F8B8305B7803F031
:104680000103DBB2002B15D03B681A1D3A601B6892
:10469000C7F8D830D7F8D830002B18DAD7F8B820B8
:1046A000137843F004031370D7F8D8305B42C7F88F
:1046B000D8300CE0D7F8B8301B7823F07F03DBB29A
:1046C000002B04D0D7F8B8305B68C7F8D830D7F8DB
:1046D000B8305B7803F00403DBB2002B15D03B68E5
:1046E0001A1D3A601B68C7F8AC30D7F8AC30002B05
:1046F00006DAD7F8B82053786FF34103537011E00E
:10470000D7F8AC30C7F8D4300CE0D7F8B8305B78C5
:1047100003F00203DBB2002B04D0D7F8B8309B685B
:10472000C7F8D430D7F8B83000225A60D7F8B8307C
:1047300000229A60D7F8B8309B7803F00703DBB209
:10474000042B19D1D7F8B8305B78C3F34003DBB240
:1047500083F00103DBB2002B0ED0D7F8B8305B78C2
:1047600023F07F03DBB2002B03D00D23C7F8D43036
:1047700002E00623C7F8D430D7F8B8309B78C3F3EB
:104780000203DBB287F8AB30D7F8B8305B78C3F3FD
:10479000C303DBB287F8AA3097F8AB30012B74D192
:1047A00097F8AA30033B042B0CD801A252F823F04F
:1047B000DD470100F5470100114801002D480100C7
:1047C0002D4801003B681A1D3A601B681A464FEAE3
:1047D000E273D7F8B410C1E9002333E03B681A1D37
:1047E0003A601B681A464FEAE273D7F8B410C1E981
:1047F000002327E03B68073323F0070303F1080297
:104800003A60D3E90023D7F8B410C1E9002319E0D6
:104810003B68073323F0070303F108023A60D3E94A
:104820000023D7F8B410C1E900230BE03B681A1D40
:104830003A601B681A464FEAE273D7F8B410C1E930
:10484000002300BF97F8AA30012B0CD1D7F8B43061
:10485000D3E90023D3B2DAB24FF00003D7F8B41093
:10486000C1E90023CAE097F8AA30022B40F0C680C5
:10487000D7F8B430D3E9002313B21AB24FEAE27387
:10488000D7F8B410C1E90023B8E097F8AB30022B99
:1048900040F0858097F8AA30033B042B0CD801A286
:1048A00052F823F0D14801000B49010027490100CB
:1048B00043490100434901003B681A1D3A601B68E7
:1048C0001A464FF00003D7F8B410C1E9002344E0C2
:1048D000D7F8B830DB78632B0BD13B681A1D3A60F0
:1048E0001B681A464FF00003D7F8B410C1E9002343
:1048F00033E03B681A1D3A601B681A464FF000030C
:10490000D7F8B410C1E9002327E03B68073323F050
:10491000070303F108023A60D3E90023D7F8B41083
:10492000C1E9002319E03B68073323F0070303F1D3
:1049300008023A60D3E90023D7F8B410C1E9002394
:104940000BE03B681A1D3A601B681A464FF00003E3
:10495000D7F8B410C1E9002300BF97F8AA30012BA3
:104960000CD1D7F8B430D3E90023D3B2DAB24FF088
:104970000003D7F8B410C1E900233FE097F8AA304C
:10498000022B3BD1D7F8B430D3E9002393B29AB2CB
:104990004FF00003D7F8B410C1E900232EE097F8D8
:1049A000AB30042B1FD197F8AA30082B0DD13B68F0
:1049B000073323F0070303F108023A60D3E9002329
:1049C000D7F8B410C1E9002318E03B68073323F09F
:1049D000070303F108023A60D3E90023D7F8B410C3
:1049E000C1E900230AE097F8AB30032B06D13B68FE
:1049F0001A1D3A601A68D7F8B4301A60D7F8B83080
:104A00001B7803F00103DBB2002B07D1D7F8B830D5
:104A10001B7803F00203DBB2002B14D07B68D7F8BD
:104A2000B020B968F86821F086FD78657B6D002BB1
:104A300002DA7B6D00F005BC7B6DD7F8DC201344F7
:104A4000C7F8DC30F6E3D7F8B830DB78253B532BDA
:104A500000F2A18101A252F823F000BFAD4B01008A
:104A6000974D0100974D0100974D0100974D0100B2
:104A7000974D0100974D0100974D0100974D0100A2
:104A8000974D0100974D0100974D0100974D010092
:104A9000974D0100974D0100974D0100974D010082
:104AA000974D0100974D0100974D0100974D010072
:104AB000974D0100974D0100974D0100974D010062
:104AC000974D0100974D0100974D0100654D010084
:104AD000974D0100974D0100974D0100654D010074
:104AE000654D0100654D0100974D0100974D010096
:104AF000974D0100974D0100974D0100974D010022
:104B0000974D0100974D0100974D0100974D010011
:104B1000974D0100974D0100974D0100974D010001
:104B2000974D0100974D0100A14C0100974D0100E8
:104B3000974D0100974D0100974D0100974D0100E1
:104B4000974D0100974D0100974D0100654D010003
:104B5000974D01001B4C01003B4C0100654D0100CD
:104B6000654D0100654D0100974D01003B4C010072
:104B7000974D0100974D0100974D0100974D0100A1
:104B80004F4D0100A14C0100FD4C0100974D01006B
:104B9000974D0100D34B0100974D0100A14C01003E
:104BA000974D0100974D0100A14C0100FB68B968C9
:104BB00025209847C7F89800D7F89830002B02DADC
:104BC000D7F898303DE3D7F8DC300133C7F8DC3054
:104BD000E4E0D7F8B4301B68C7F8D030D7F8D43049
:104BE000002B09DBD7F8D4301946D7F8D0002EF0C7
:104BF000A5FBC7F8CC0005E0D7F8D000FCF706FA13
:104C0000C7F8CC00D7F8D020D7F8CC3013447B615C
:104C10004FF0FF33C7F8D430C0E007F13403C7F8D2
:104C2000D030D7F8B430D3E90023D3B287F834308A
:104C300007F1340301337B61B0E0D7F8B8301B785B
:104C400003F00803DBB2002B02D02B23FB7409E036
:104C5000D7F8B8301B7803F01003DBB2002B01D07B
:104C60002023FB74D7F8B430D3E90023C7E9282305
:104C7000D7E92823002A73F100030BDA2D23FB74F4
:104C8000D7E92823524263EB4303D7F8B410C1E9B4
:104C9000002305E0D7E92823D7F8B410C1E90023A1
:104CA000D7F8B430D3E900017B6907F134020093EF
:104CB0001346D7F8B820FEF7FFFFC7F8D000D7F8A3
:104CC000D430002B69DB7A69D7F8D030D31AC7F813
:104CD0009C30D7F8B82013786FF386131370D7F889
:104CE000D430D7F89C209A4257D2D7F89C30D7F8C6
:104CF000D420D21AD7F8B8305A604EE0D7F8B43082
:104D00001B68002B1BD0D7F8B4301B6818464FF037
:104D100000017B6907F1340200931346D7F8B820ED
:104D2000FEF7CAFFC7F8D000D7F8B820937843F051
:104D300010039370D7F8B8307822DA70BFE7C04B11
:104D4000C7F8D030D7F8D03005337B6126E0D7F8EC
:104D5000B4301B68D7F8DC201946D7F8B800FFF745
:104D6000E5FB1BE0D7F8B43093ED007B07F134018D
:104D700007F1130207F1140300930B46D7F8D41080
:104D8000D7F8B800B0EE470AF0EE670AFFF706F86A
:104D9000C7F8D00002E000BF00E000BFD7F8D03075
:104DA000002B00F046827A69D7F8D030D31AC7F8C2
:104DB000C8300023C7F8C430FB7C002B04D0D7F8E0
:104DC000C8300133C7F8C830D7F8B8309B7803F043
:104DD0001003DBB2002B05D0D7F8C8300233C7F878
:104DE000C8300CE0D7F8B8309B7803F00803DBB28A
:104DF000002B04D0D7F8C8300133C7F8C830D7F833
:104E0000B8305B681A46D7F8C8301344C7F8C830C2
:104E1000D7F8B8309B7803F04003DBB2002B08D002
:104E2000D7F8B8309B681A46D7F8C8301344C7F88B
:104E3000C830D7F8D830002B54DDD7F8C830D7F8B1
:104E4000D820D31AC7F8D830D7F8B8301B78C3F3B6
:104E50008003DBB283F00103DBB2002B42D02023BE
:104E600087F8C330D7F8B8301B7803F04003DBB2C3
:104E7000002B30D0FB7C002B15D0FB7C1A46FB6846
:104E8000B96810469847C7F89400D7F89430002BBB
:104E900002DAD7F89430D4E1D7F8DC300133C7F820
:104EA000DC300023FB74302387F8C33013E097F81D
:104EB000C320FB68B96810469847C7F89000D7F838
:104EC0009030002B02DAD7F89030BAE1D7F8DC3016
:104ED0000133C7F8DC30D7F8D8305A1EC7F8D820CD
:104EE000002BE4DCFB7C002B13D0FB7C1A46FB6818
:104EF000B96810469847C7F88C00D7F88C30002B5B
:104F000002DAD7F88C309CE1D7F8DC300133C7F8EF
:104F1000DC30D7F8B8309B7803F04003DBB2002BCD
:104F200000F0FA80D7F8D030C7F8BC30D7F8B830E6
:104F30005B7823F07F03DBB2002B32D015E0D7F88B
:104F4000BC305A1CC7F8BC201B781A46FB68B968ED
:104F50001046984778667B6E002B01DA7B6E70E115
:104F6000D7F8DC300133C7F8DC30D7F8BC301B7819
:104F7000702BE4D1A0E0D7F8BC305A1CC7F8BC2095
:104F80001B781A46FB68B96810469847B866BB6E2E
:104F9000002B01DABB6E54E1D7F8DC300133C7F8DF
:104FA000DC30D7F8BC301B780133264A13441B7819
:104FB00003F00403002BDED1D7F8B8305B68C7F8E4
:104FC000C430D7F8B8309B78C3F34013DBB283F01A
:104FD0000103DBB2002B16D00EE0FB68B96830206D
:104FE0009847B867BB6F002B01DABB6F29E1D7F890
:104FF000DC300133C7F8DC30D7F8C4305A1EC7F8AC
:10500000C420002BE9DCD7F8BC301B782E2B48D10C
:10501000D7F8BC305A1CC7F8BC201B781A46FB686E
:10502000B9681046984778677B6F002B01DA7B6F71
:1050300007E1D7F8DC300133C7F8DC3013E000BFFC
:10504000C4450400CEC90400FB68B9683020984705
:1050500038673B6F002B01DA3B6FF2E0D7F8DC30AA
:105060000133C7F8DC30D7F8C4305A1EC7F8C42063
:10507000002BE9DC15E0D7F8BC305A1CC7F8BC207F
:105080001B781A46FB68B96810469847F866FB6EAD
:10509000002B01DAFB6ED4E0D7F8DC300133C7F81F
:1050A000DC30D7F8BC301B780133684A13441B78D6
:1050B00003F00403002BDED1D7F8B8309B68C7F8A3
:1050C000C4300EE0FB68B96830209847F865FB6D86
:1050D000002B01DAFB6DB4E0D7F8DC300133C7F800
:1050E000DC30D7F8C4305A1EC7F8C420002BE9DCE6
:1050F0007B69D7F8BC20B968F86821F01CFA3866DB
:105100003B6E002B01DA3B6E9BE03B6ED7F8DC2058
:105110001344C7F8DC3087E0D7F8B8309B78C3F386
:105120000013DAB2D7F8B8309B78C3F3C003DBB210
:105130001343DBB2002B11D0FB68B96830209847CD
:10514000C7F88800D7F88830002B02DAD7F8883003
:1051500077E0D7F8DC300133C7F8DC30D7F8B83067
:105160009B7803F01003DBB2002B15D0D7F8B830D2
:10517000DB781A46FB68B96810469847C7F8840080
:10518000D7F88430002B02DAD7F8843059E0D7F80A
:10519000DC300133C7F8DC30D7F8B8305B68C7F8CB
:1051A000C4300EE0FB68B96830209847F867FB6FA1
:1051B000002B01DAFB6F44E0D7F8DC300133C7F88D
:1051C000DC30D7F8C4305A1EC7F8C420002BE9DC05
:1051D0007B69D7F8D020B968F86821F0ACF9C7F836
:1051E0008000D7F88030002B02DAD7F8803028E032
:1051F000D7F88030D7F8DC201344C7F8DC3013E050
:10520000FB68B96820209847B865BB6D002B01DAB0
:10521000BB6D16E0D7F8DC300133C7F8DC30D7F8C7
:10522000D830013BC7F8D830D7F8D830002BE7DCAE
:1052300000E000BF7B681B78002B7FF4D5A9D7F86E
:10524000DC301846E037BD4680BD00BFCEC9040043
:1052500080B584B000AF78607B68002B0AD0074B24
:1052600043F00103FB607B689B01BB60FB68B8688F
:10527000984700E000BF1037BD4680BD80C00400E5
:1052800080B487B000AF78604FF02003EFF3118255
:1052900083F31288BFF36F8FFA60BB60FB687B619A
:1052A000094B0122C3F840257B693B613B6983F3CD
:1052B0001188BFF36F8F00BF002318461C37BD460F
:1052C0005DF8047B704700BF0090034080B483B05A
:1052D00000AF78607B68044A9B1ADB0818460C37DD
:1052E000BD465DF8047B7047103B040080B588B074
:1052F00000AF3B1D83E807003B79062B04D14FF03C
:10530000402021F06FF93AE00323032B01D800BFBE
:1053100034E021F05FF90346FB770023BB610323F0
:10532000002B07D0184B1B681846FFF7CFFF03462A
:105330009BB200E00023BB833B7D042262F30203A7
:105340003B753B7D6FF3C5033B75BB8BC3F3090313
:105350009AB2BB8A62F38F13BB82FB7F002B06D00D
:105360003B790A4A0A49B88A00F008FD06E0074975
:105370003B791A46BB8A064821F0DAFD00BF00BF20
:105380002037BD4680BD00BF08C600208CC0040089
:10539000D045040080B588B000AF3B1D83E807000E
:1053A0003B79062B3AD00323032B01D800BF36E00C
:1053B00021F010F90346FB7700237B610323002BC8
:1053C00007D01D4B1B681846FFF780FF03469BB2B2
:1053D00000E00023BB833B7C042262F302033B74A6
:1053E0003B7C6FF3C5033B74BB8BC3F309039AB2D9
:1053F0003B8A62F38F133B82FB7F002B06D03B7905
:105400000E4A0F49388A00F0B9FC08E00B493B7995
:105410001A463B8A0A4821F08BFD00E000BF0023BA
:10542000BB61BB6983F31188BFF36F8F00BF00BFFF
:105430002037BD4680BD00BF08C60020A0C00400C4
:10544000D045040080B582B000AF786039607B68D9
:10545000002B09D16B23104A104911481FF013FF8C
:105460006B210D4821F093F83B68002B09D16C2388
:10547000094A0C490A481FF006FF6C21064821F032
:1054800086F87B681B685B6839687868984700BF56
:105490000837BD4680BD00BFF04504002446040027
:1054A0003C4604005C46040080B582B000AF7860E2
:1054B00039607B68002B09D1B4230C4A0C490D4894
:1054C0001FF0E1FEB421094821F061F87B681B68F8
:1054D0001B69002B05D07B681B681B6939687868DD
:1054E000984700BF0837BD4680BD00BFF0450400A7
:1054F000244604003C46040080B582B000AF7860CA
:105500007B68002B09D1C223084A094909481FF0CA
:10551000BAFEC221054821F03AF87B681B685B6936
:105520007868984700BF0837BD4680BDF045040045
:10553000244604003C46040080B483B000AF786089
:105540007B681B01034A134418460C37BD465DF8BF
:10555000047B7047983B040080B400AF044A054BBD
:10556000D31A1B111846BD465DF8047B704700BF77
:10557000A83B0400983B040080B582B000AF78607F
:105580007B68002B0BD140F21D13084A08490948DB
:105590001FF079FE40F21D11044820F0F8FF7B68EF
:1055A0005B685B7918460837BD4680BDF04504004E
:1055B000244604003C46040080B586B000AF786005
:1055C00039600023FB7500233B610023FB603B68CF
:1055D000202B37D98723244A244925481FF053FE1E
:1055E0008721214820F0D3FF2CE0FB7A252B0ED118
:1055F000FB7D002B14BF01230023DBB283F00103EA
:10560000DBB2FB75FB7D03F00103FB751AE0FB7D4C
:10561000002B17D0FB7A0133164A13441B7803F092
:105620000303002B0ED0FB7A732B06D101223B69BA
:1056300002FA03F3FA681343FB600023FB753B692E
:1056400001333B617B685A1C7A601B78FB72FB7AE2
:10565000002B03D03A693B689A42C6D3FB681846D0
:105660001837BD4680BD00BF90460400C046040008
:105670003C460400CEC9040080B483B000AF78601B
:105680007B68094A934205D37B68084A934201D25A
:10569000012300E0002303F00103DBB218460C37BE
:1056A000BD465DF8047B7047AC37040024CB040092
:1056B00080B58AB000AF7860786821F063F803465F
:1056C00083F00103DBB2002B55D1786821F03DFF58
:1056D0007862786821F0D7FE03461946786AFFF7AA
:1056E0006BFF386243E03B6AB3FA83F3C3F11F03F5
:1056F000FB61F969786821F0FFFE0346BB61B86978
:10570000FFF7BAFF034683F00103DBB2002B26D07C
:10571000B86900F0F9FA034683F00103DBB2002B0D
:105720001DD0174B1B68BA699A4218D0786821F0CF
:105730001AF803461946002021F08EFC7861D82320
:10574000104A114911481FF09EFD7B6A7A69F96978
:105750000F481FF098FDD8210A4820F018FF0122B9
:10576000FB6902FA03F3DB433A6A13403B623B6A8C
:10577000002BB8D100E000BF2837BD4680BD00BF78
:105780000CC6002090460400D84604003C460400A5
:10579000DC46040080B588B002AF274820F0ADFF9A
:1057A0007861264B1B78002B16D04FF02003EFF3C7
:1057B000118283F31288BFF36F8FBA607B60BB687E
:1057C0003B61002021F072FB3B69FB60FB6883F3C7
:1057D0001188BFF36F8F2AE0194B1B68002B18D07C
:1057E0007B69002B15D14FF47A704FF0000121F046
:1057F00078F802460B46104619464FF000024FF06B
:105800000003CDE9002302460B460E4821F00CFBB5
:105810000DE07B690A2B0AD1094B1B68002B06D0CF
:10582000084821F014FB084821F035FBFFE700BFD2
:105830001837BD4680BD00BF94D900202EF100204E
:105840009CD90020B0CA002040C9002080B586B095
:1058500000AF786039807B683A885A81114B1B68A9
:10586000984702467B68DA604FF02003EFF311821D
:1058700083F31288BFF36F8FFA60BB60FB687B61B4
:105880007968094820F0CBFE7B693B613B6983F373
:105890001188BFF36F8F00BFFFF77CFF00BF183781
:1058A000BD4680BD10C6002088D9002080B582B0DA
:1058B00000AF154B00221A70144B00221A6021F021
:1058C00007F80346124A934205DD124B3B604FF442
:1058D0007A737B6005E0104B3B6020F0F9FF0346D4
:1058E0007B607968386800F087F800F067FB0B4848
:1058F00020F085FE0423342209490A482BF007FAD8
:1059000000BF0837BD4680BD2EF1002098D9002089
:1059100040420F00D76F0300C96F030088D90020F1
:105920000465012068D9002080B582B000AFFFF780
:1059300013FE0346092B0BD940F24A231D4A1E4988
:105940001E481FF0A0FC40F24A211A4820F01FFE1A
:105950001B4820F0D2FE0346002B27D100237B609A
:105960001DE07B681846FFF7E7FD38603B681B7B4E
:10597000002B11D03B681B689B69002B04D03B684F
:105980001B689B69386898473B685B681B68042202
:105990001946386821F080FB7B6801337B60FFF794
:1059A000DBFD02467B689342DBDB00E000BF08378B
:1059B000BD4680BD904604002C4704003C460400D0
:1059C00090D9002080B582B000AF7860074A7B682C
:1059D00013607B68002B06D0054B1B68092B02DD8A
:1059E000044821F058FA0837BD4680BD9CD90020F4
:1059F00094D9002040C9002080B582B000AF786003
:105A000039607B68002B02D16FF0150306E0054A70
:105A10007B681360386801F0D9F90023184608370D
:105A2000BD4680BD10C6002080B582B000AF174BC8
:105A30001B78002B26D1FFF777FF00237B6010E057
:105A40007B681846FFF778FD38603868FFF794FDEB
:105A50000346002B02D03868FFF74EFD7B68013308
:105A60007B60FFF779FD02467B689342E8DB00BF6D
:105A7000002021F01BFA0346002BF9D1034B012231
:105A80001A7000E000BF0837BD4680BD2EF100202F
:105A900080B584B000AF78600B46FB70FB7883F074
:105AA0000103DBB2002B2DD01A4B1B7883F00103CE
:105AB000DBB2002B03D07B681846FFF7F9FD00230B
:105AC000FB6019E0FB681846FFF736FDB860B86860
