:020000024000BC
:10000000E05D022001DB0400F715070015DA0400AB
:1000100015DA040015DA040015DA040015DA040014
:10002000000000000000000000000000A9C3040060
:1000300015DA04000000000015C3040015DA0400FE
:1000400085C4040085C4040085C4040085C404007C
:1000500085C4040085C4040085C4040085C404006C
:1000600085C4040085C4040085C4040085C404005C
:1000700085C4040085C4040085C4040085C404004C
:1000800085C4040085C4040085C4040085C404003C
:1000900085C4040085C4040085C4040085C404002C
:1000A00085C4040085C4040085C4040085C404001C
:1000B000F565070085C4040085C4040085C40400F8
:1000C00085C4040085C4040085C4040085C40400FC
:1000D00085C4040085C4040085C4040085C40400EC
:1000E00085C4040085C4040085C4040085C40400DC
:1000F00085C4040085C4040085C4040085C40400CC
:1001000085C4040085C4040085C4040085C40400BB
:1001100085C4040085C4040085C4040085C40400AB
:1001200085C4040085C4040085C4040085C404009B
:1001300085C4040085C4040085C4040085C404008B
:0401400085C404006E
:04014400FFFFFFFFBB
:1001480081F0004102E000BF83F0004330B54FEA80
:1001580041044FEA430594EA050F08BF90EA020FED
:100168001FBF54EA000C55EA020C7FEA645C7FEA80
:10017800655C00F0E2804FEA5454D4EB5555B8BFA3
:100188006D420CDD2C4480EA020281EA030382EA14
:10019800000083EA010180EA020281EA0303362DA6
:1001A80088BF30BD11F0004F4FEA01314FF4801C79
:1001B8004CEA113102D0404261EB410113F0004F8B
:1001C8004FEA03334CEA133302D0524263EB430342
:1001D80094EA050F00F0A780A4F10104D5F1200EE0
:1001E8000DDB02FA0EFC22FA05F2801841F100013B
:1001F80003FA0EF2801843FA05F359410EE0A5F10F
:1002080020050EF1200E012A03FA0EFC28BF4CF03F
:10021800020C43FA05F3C01851EBE37101F00045F5
:1002280007D54FF0000EDCF1000C7EEB00006EEB02
:100238000101B1F5801F1BD3B1F5001F0CD349088C
:100248005FEA30004FEA3C0C04F101044FEA4452E3
:1002580012F5800F80F09A80BCF1004F08BF5FEA6A
:10026800500C50F1000041EB045141EA050130BD4A
:100278005FEA4C0C404141EB0101013C28BFB1F55C
:10028800801FE9D291F0000F04BF01460020B1FAA7
:1002980081F308BF2033A3F10B03B3F120020CDA7A
:1002A8000C3208DD02F1140CC2F10C0201FA0CF058
:1002B80021FA02F10CE002F11402D8BFC2F1200CBD
:1002C80001FA02F120FA0CFCDCBF41EA0C01904073
:1002D800E41AA2BF01EB0451294330BD6FEA0404BC
:1002E8001F3C1CDA0C340EDC04F11404C4F12002A7
:1002F80020FA04F001FA02F340EA030021FA04F3B9
:1003080045EA030130BDC4F10C04C4F1200220FA0F
:1003180002F001FA04F340EA0300294630BD21FA4D
:1003280004F0294630BD94F0000F83F4801306BF13
:1003380081F480110134013D4EE77FEA645C18BF07
:100348007FEA655C29D094EA050F08BF90EA020F9E
:1003580005D054EA000C04BF1946104630BD91EA96
:10036800030F1EBF0021002030BD5FEA545C05D199
:100378004000494128BF41F0004130BD14F58004D8
:100388003CBF01F5801130BD01F0004545F0FE414C
:1003980041F470014FF0000030BD7FEA645C1ABF81
:1003A800194610467FEA655C1CBF0B46024650EAB8
:1003B800013406BF52EA033591EA030F41F40021E4
:1003C80030BD00BF90F0000F04BF0021704730B56A
:1003D8004FF4806404F132044FF000054FF000013F
:1003E80050E700BF90F0000F04BF0021704730B500
:1003F8004FF4806404F1320410F0004548BF4042D5
:100408004FF000013EE700BF42004FEAE2014FEA29
:1004180031014FEA02701FBF12F07F4393F07F4F04
:1004280081F06051704732F07F4208BF704793F007
:100438007F4F04BF41F40021704730B54FF460741A
:1004480001F0004521F000411CE700BF50EA01021D
:1004580008BF704730B54FF000050AE050EA0102C6
:1004680008BF704730B511F0004502D5404261EB36
:1004780041014FF4806404F132045FEA915C3FF477
:10048800D8AE4FF003025FEADC0C18BF03325FEA14
:10049800DC0C18BF033202EBDC02C2F1200300FAC5
:1004A80003FC20FA02F001FA03FE40EA0E0021FAEA
:1004B80002F11444BDE600BF70B54FF0FF0C4CF4D8
:1004C800E06C1CEA11541DBF1CEA135594EA0C0F8A
:1004D80095EA0C0F00F0DEF82C4481EA030621EAC5
:1004E8004C5123EA4C5350EA013518BF52EA033500
:1004F80041F4801143F4801338D0A0FB02CE4FF0B2
:100508000005E1FB02E506F00042E0FB03E54FF0E1
:100518000006E1FB03569CF0000F18BF4EF0010ED9
:10052800A4F1FF04B6F5007F64F5407404D25FEAD5
:100538004E0E6D4146EB060642EAC62141EA555188
:100548004FEAC52040EA5E504FEACE2EB4F1FD0CCA
:1005580088BFBCF5E06F1ED8BEF1004F08BF5FEA48
:10056800500E50F1000041EB045170BD06F00046FA
:1005780046EA010140EA020081EA0301B4EB5C04A7
:10058800C2BFD4EB0C0541EA045170BD41F480119F
:100598004FF0000E013C00F3AB8014F1360FDEBFC4
:1005A800002001F0004170BDC4F10004203C35DAA0
:1005B8000C341BDC04F11404C4F1200500FA05F323
:1005C80020FA04F001FA05F240EA020001F00042C4
:1005D80021F0004110EBD37021FA04F642EB06013A
:1005E8005EEA430E08BF20EAD37070BDC4F10C0464
:1005F800C4F1200500FA04F320FA05F001FA04F228
:1006080040EA020001F0004110EBD37041F1000113
:100618005EEA430E08BF20EAD37070BDC4F120051E
:1006280000FA05F24EEA020E20FA04F301FA05F286
:1006380043EA020321FA04F001F0004121FA04F22E
:1006480020EA020000EBD3705EEA430E08BF20EAFE
:10065800D37070BD94F0000F0FD101F00046400038
:1006680041EB010111F4801F08BF013CF7D041EABA
:10067800060195F0000F18BF704703F000465200BE
:1006880043EB030313F4801F08BF013DF7D043EA8F
:100698000603704794EA0C0F0CEA135518BF95EA45
:1006A8000C0F0CD050EA410618BF52EA4306D1D1CC
:1006B80081EA030101F000414FF0000070BD50EAEB
:1006C800410606BF1046194652EA430619D094EA75
:1006D8000C0F02D150EA013613D195EA0C0F05D15F
:1006E80052EA03361CBF104619460AD181EA0301B3
:1006F80001F0004141F0FE4141F470014FF000006B
:1007080070BD41F0FE4141F4780170BD70B54FF005
:10071800FF0C4CF4E06C1CEA11541DBF1CEA135585
:1007280094EA0C0F95EA0C0F00F0A7F8A4EB050467
:1007380081EA030E52EA03354FEA013100F088805E
:100748004FEA03334FF0805545EA131343EA126327
:100758004FEA022245EA111545EA10654FEA0026DC
:100768000EF000419D4208BF964244F1FD0404F595
:10077800407402D25B084FEA3202B61A65EB0305F1
:100788005B084FEA32024FF480104FF4002CB6EBAE
:10079800020E75EB030E22BFB61A754640EA0C002E
:1007A8005B084FEA3202B6EB020E75EB030E22BF6E
:1007B800B61A754640EA5C005B084FEA3202B6EBAF
:1007C800020E75EB030E22BFB61A754640EA9C006E
:1007D8005B084FEA3202B6EB020E75EB030E22BF3E
:1007E800B61A754640EADC0055EA060E18D04FEAFC
:1007F800051545EA16754FEA06164FEAC30343EA9C
:1008080052734FEAC2025FEA1C1CC0D111F4801F68
:100818000BD141EA00014FF000004FF0004CB6E761
:1008280011F4801F04BF01430020B4F1FD0C88BF00
:10083800BCF5E06F3FF6AFAEB5EB030C04BFB6EB0B
:10084800020C5FEA500C50F1000041EB045170BDFE
:100858000EF0004E4EEA113114EB5C04C2BFD4EB2B
:100868000C0541EA045170BD41F480114FF0000EAF
:10087800013C90E645EA060E8DE60CEA135594EA2B
:100888000C0F08BF95EA0C0F3FF43BAF94EA0C0F2E
:100898000AD150EA01347FF434AF95EA0C0F7FF4A3
:1008A80025AF104619462CE795EA0C0F06D152EAF7
:1008B80003353FF4FDAE1046194622E750EA4106DB
:1008C80018BF52EA43067FF4C5AE50EA41047FF4EC
:1008D8000DAF52EA43057FF4EBAE12E74FF0FF3C51
:1008E80006E000BF4FF0010C02E000BF4FF0010C22
:1008F8004DF804CD4FEA410C7FEA6C5C4FEA430C9B
:1009080018BF7FEA6C5C1BD001B050EA410C0CBFE9
:1009180052EA430C91EA030F02BF90EA020F00204B
:10092800704710F1000F91EA030F58BF994208BFB2
:1009380090422CBFD8176FEAE37040F0010070476F
:100948004FEA410C7FEA6C5C02D150EA013C07D1C6
:100958004FEA430C7FEA6C5CD6D152EA033CD3D011
:100968005DF8040B704700BF8446104662468C460B
:100978001946634600E000BF01B5FFF7B7FF00283E
:1009880048BF10F1000F01BD4DF808EDFFF7F4FF67
:100998000CBF012000205DF808FB00BF4DF808EDF2
:1009A800FFF7EAFF34BF012000205DF808FB00BF15
:1009B8004DF808EDFFF7E0FF94BF012000205DF837
:1009C80008FB00BF4DF808EDFFF7CEFF94BF0120EC
:1009D80000205DF808FB00BF4DF808EDFFF7C4FFE5
:1009E80034BF012000205DF808FB00BF4FEA410C2E
:1009F8007FEA6C5C02D150EA013C0AD14FEA430C11
:100A08007FEA6C5C02D152EA033C02D14FF000004D
:100A180070474FF0010070474FEA410212F500128B
:100A280015D211D56FF47873B3EB625212D94FEA2D
:100A3800C12343F0004343EA505311F0004F23FA17
:100A480002F018BF404270474FF00000704750EA6C
:100A5800013005D111F0004008BF6FF00040704729
:100A68004FF00000704700BF4FEA4102B2F1E04387
:100A780024BFB3F5001CDCF1FE5C0DD901F0004C7D
:100A88004FEAC0024CEA5070B2F1004F40EB8300CD
:100A980008BF20F00100704711F0804F21D113F1F9
:100AA8003872BCBF01F00040704741F480114FEA32
:100AB8005252C2F11802C2F1200C10FA0CF320FABB
:100AC80002F018BF40F001004FEAC1234FEAD323D8
:100AD80003FA0CFC40EA0C0023FA02F34FEA430342
:100AE800CCE77FEA625307D150EA01331EBF4FF0CB
:100AF800FE4040F44000704701F0004040F0FE40E6
:100B080040F40000704700BF53B94AB9002908BF34
:100B180000281CBF4FF0FF314FF0FF3000F0A2B9A2
:100B2800ADF1080C6DE904CE00F03CF8DDF804E006
:100B3800DDE9022304B0704738B5002200230446DB
:100B48000D46FFF72BFF28B920462946BDE8384057
:100B580000F00AB8204605F1004100F005F84042CF
:100B680061EB410138BD00BFD0B500220B4B0646F2
:100B78000F46FFF7A1FC00F077F90446FFF722FCC7
:100B88000022074BFFF798FC02460B4630463946D1
:100B9800FFF7DAFA00F068F92146D0BD0000F03D11
:100BA8000000F0412DE9F047089D04468846002BD7
:100BB8007DD18A4217463FD9B2FA82F242B1C2F1D8
:100BC80020009140974024FA00F0944040EA010840
:100BD8004FEA174C230C1FFA87FEB8FBFCF60CFBF8
:100BE800168106FB0EF043EA0143984205D9FB182B
:100BF80002D2984200F22481013E191AA3B2B1FB35
:100C0800FCF00CFB101100FB0EFE43EA0144A64564
:100C180005D93C1902D2A64500F20F81013840EAF5
:100C28000640A4EB0E0400261DB1D4400023C5E9FC
:100C380000433146BDE8F08702B9FFDEB2FA82F21E
:100C4800002A50D1CB1B4FEA174E1FFA87F801260E
:100C5800210CB3FBFEFC0EFB1C300B4608FB0CF909
:100C680041EA004189450AD979182CBF012300239C
:100C7800894502D9002B00F0D9800CF1FF3CA1EB8B
:100C88000901A3B2B1FBFEF00EFB101108FB00F83E
:100C980043EA0144A04505D93C1902D2A04500F217
:100CA800C9800138A4EB080440EA0C40BCE78B4239
:100CB80009D9002D00F0B1800026C5E900013046B1
:100CC8003146BDE8F087B3FA83F6002E46D18B4251
:100CD800C0F0A680824240F2A3803046002DA8D002
:100CE800C5E90048A5E79740C2F1200301FA02F0E0
:100CF8004FEA174ED94024FA03F31FFA87F89440B5
:100D08000343B1FBFEF01E0C0EFB101100FB08FCA8
:100D180046EA01418C4509D979182CBF01260026DD
:100D28008C4502D9002E00F093800138A1EB0C010C
:100D38009BB2B1FBFEF60EFB161106FB08FC43EA5C
:100D480001418C4505D9791802D28C4500F287807B
:100D5800013EA1EB0C0346EA004679E7C6F12007FD
:100D680003FA06F402FA06FC01FA06FEFA4020FA33
:100D780007F8F94000FA06F3224348EA0E044FEA5E
:100D880012484FEA144E1FFA82F9B1FBF8FA08FB31
:100D98001A110AFB09F04EEA014E70450AD912EB06
:100DA8000E0E2CBF01210021704501D9002952D017
:100DB8000AF1FF3AAEEB000EA4B2BEFBF8F008FB56
:100DC80010EE00FB09F944EA0E4EF14505D912EB85
:100DD8000E0E01D2F14538D8013840EA0A40AEEB90
:100DE800090EA0FB0C89CE4541464C4602D306D1DC
:100DF800434504D20138B8EB0C0169EB020415B382
:100E08005A1A6EEB040EF2400EFA07F72EFA06F3A2
:100E180000261743C5E900730BE72E46284608E766
:100E2800841A61EB03010120884657E7ACF1020CF4
:100E3800394424E702383C4434E702383C44EEE6BF
:100E4800023E3B44D9E62E46F3E602389644C4E710
:100E5800023839446AE7AAF1020A9644AAE7023E30
:100E6800394476E7704700BF4A0011D212F50012E4
:100E780011D20DD56FF47873B3EB62520ED44FEAEA
:100E8800C12343F0004343EA505323FA02F070476A
:100E98004FF00000704750EA013002D14FF0FF30A8
:100EA80070474FF000007047844641EA000313F092
:100EB800030349D1403A23D30B6803604B6843606E
:100EC8008B688360CB68C3600B6903614B694361BE
:100ED8008B698361CB69C3610B6A03624B6A4362A6
:100EE8008B6A8362CB6AC3620B6B03634B6B43638E
:100EF8008B6B8363CB6BC36340304031403ADBD2AA
:100F080030320BD30B6803604B6843608B68836097
:100F1800CB68C36010301031103AF3D20C3205D3CD
:100F280051F8043B40F8043B043AF9D2043208D0A3
:100F3800D2071CBF11F8013B00F8013B01D30B8815
:100F480003806046704700BF082A13D38B07B1D0CF
:100F580010F00303AED0C3F10403D21ADB071CBFA1
:100F680011F8013B00F8013BA4D331F8023B20F80B
:100F7800023B9FE7043AD9D3013A11F8013B00F844
:100F8800013BF9D20B7803704B7843708B788370F0
:100F98006046704780EA010C1CF0030F37D110F04F
:100FA800030C20F0030021F0030150F8042B08BFC4
:100FB80051F8043B0ED08CF0030C6FF07F434FEADE
:100FC800CC0C23FA0CFC51F8043B42EA0C0243EA2D
:100FD8000C0300BFA2F1013C9A4201BF2CEA020CAB
:100FE8001CF0803F50F8042B51F8043BF2D04FEA34
:100FF80002604FEA1222012828BFB0EB036F08BF36
:101008001B0AF4D003F0FF03000EC01A704710F05B
:10101800030F0AD010F8012B11F8013B012A28BF51
:101028009A42F4D0A2EB030070474DF8045D50F8E3
:10103800042B01F0030521F0030151F8043B022DB4
:1010480026D04DD822F07F45B5EB132FA2F1013CF5
:101058002CEA020C0DD11CF0803C08BF51F8043B6F
:101068000AD185EA0205B5EB036F0CD150F8042BC1
:10107800E8E74FEA13235BE03CF07F4C54D10B7850
:101088004FEA126554E04FEA126503F0FF034FE0A0
:101098004FEA0245A2F1013C4FEA15452CEA020C41
:1010A800B5EB134F18D11CF0803C08BF51F8043B36
:1010B80007D185EA0205B5EB034F09D150F8042B97
:1010C800E6E75FEA0C4C2FD10B884FEA12452FE078
:1010D8004FEA03434FEA12454FEA134328E000BFA3
:1010E80002F0FF05B5EB136FA2F1013C2CEA020CEC
:1010F8000DD11CF0803C08BF51F8043B0AD185EAA9
:101108000205B5EB032F0AD150F8042BE8E74FEAA4
:1011180013630DE012F0FF0F06D051F8043B4FEABD
:10112800122523F07F4303E04FF0000020BC7047F6
:1011380005F0FF0203F0FF00012828BF904204BF1A
:101148002D0A1B0AF4D0A2EB000020BC704700BF98
:1011580080B584B000AF03463A60FB710B46BB71A3
:101168000023FB813B68002B02D0BB790F2B02D9EF
:101178006FF015032CE0FB79072B02D0092B06D062
:101188000BE0BB79164A32F81330FB8108E0BB79D3
:10119800144A32F81330FB8102E06FF07F0317E046
:1011A800FB89002B10D0FB891846FFF71BF90AA30F
:1011B800D3E90023FFF780F902460B46104619468B
:1011C800FFF752FC034600E0074B3A681360002320
:1011D80018461037BD4680BD7B14AE47E17A2440DF
:1011E80084670800A46708000AD7A340000000002D
:1011F80080B598B000AF786039604FF000024FF0CA
:101208000003C7E914230023BB6437F095F80346AD
:1012180087F84F300023FB653B68002B03D03B6801
:101228001B68002B01D10023C6E00023FB6563E0A7
:101238003B681A683B689968FB6D0B4413441B783C
:10124800452B3DDC2B2B66DB2B3B1A2B63D801A2ED
:1012580052F823F0CD1204001F130400CD1204002D
:10126800EB1204001F130400CD120400CD12040079
:10127800CD120400CD120400CD120400CD120400DA
:10128800CD120400CD120400CD120400CD120400CA
:101298001F1304001F1304001F1304001F1304006E
:1012A8001F1304001F1304001F1304001F1304005E
:1012B8001F1304001F1304001F130400CD120400A1
:1012C800652B28D13B681A683B689968FB6D0B440D
:1012D8001344197807F10802FB6D13440A461A7083
:1012E80007E007F10802FB6D134497F84F201A70C6
:1012F80000BFFB6D0133FB65FB6D3E2B0DD83B68D2
:10130800002B0AD03B689A68FB6D1A443B685B68FF
:101318009A428DD301E000BF00E000BF07F1080248
:10132800FB6D134400221A7007F1480207F1080305
:101338001146184629F082F8C7E91401BA6C07F17A
:1013480008039A4201D1002336E07968D7E91423CB
:10135800C1E906231BA3D3E90023D7E91401FFF74A
:1013680031FB0346002B04D07B686FF000425A61C2
:1013780015E04FF00002124BD7E91401FFF718FBF4
:101388000346002B04D07B684FF000425A6106E008
:10139800D7E91401FFF740FB02467B685A617B6876
:1013A8000822DA603B689B68B96C07F108028A1A60
:1013B8001A443B689A60012318466037BD4680BDD1
:1013C8000000E0C10000C0FFFFFFDF410000000097
:1013D8002DE9F04F254C0F460025834624682DED56
:1013E800028BA3B0204608941C4607921E9528F04D
:1013F80003FD002100223B4680461D97CDE90412DB
:101408009A4613F8016B2D2E32D8DFE816F0DC016E
:10141800310031003100310031003100310031003C
:10142800EA01EA01EA01EA01EA013100310031008A
:10143800310031003100310031003100310031001C
:101448003100310031003100310031003100EA0152
:1014580031003100310031003100310031003100FC
:1014680031003100180431000C0400BF386D080049
:1014780000230A93302E00F0C18100230B93A6F1BC
:101488003003092B00F2548400255046A9462C4607
:1014980005EB8503013009EB8902082C06EB4303B1
:1014A8001D9006EB42020678C8BFA3F1300504F18F
:1014B8000104A6F13003D8BFA2F13009092BE7D9FE
:1014C8000899424628F0F4FC002800F0A48226F08F
:1014D8002006452E00F0BA810023A0460D930893FC
:1014E80048464646FEF76EFF02460B46002C08BFEC
:1014F8004446102ECDE904230D9BA8BF1026089A58
:10150800B8F1090FA3EB02030C9313DDCA4B03EBED
:10151800C60353E91223FEF7CFFF41EC180B284608
:10152800FEF750FF02460B4651EC180BFEF70EFE75
:10153800CDE90401B8F10F0F00F3FC810C9B002BDF
:1015480000F03D840C9B40F3BA83162B40F35D8575
:10155800C8F125030C9A934280F2AD85A8EB0603E7
:101568000C9A9D1815F00F030AD0B34901EBC3017B
:10157800DDE90423D1E90001FEF79EFFCDE904016E
:1015880035F00F0340F0748300230B934346224643
:1015980051465846CDF800902BF0A8FB149000282F
:1015A80000F0F5840D9A0021089B0F468A469B1A85
:1015B8000C9A002A22EAE272A8BF0B4611920D93F8
:1015C800149C584661682BF01DFB8146002800F0EA
:1015D8008282226904F10C010C3002329200FFF77A
:1015E80063FC20AA1FAB58469DED047BCDE9003271
:1015F80053EC172B8DED087B2BF0C6FE1E900028B0
:1016080000F05982012158462BF010FC07460028AB
:1016180000F061821F9B002BC0F250820D9A119D31
:101628009E180B9A209C9B1A844A2344C4F13604C2
:10163800013B934280F20682D21A1F2AA4EB0204CD
:1016480000F3748201230021934015910E932544E1
:1016580034440B9BA6421D443346A8BF2346AB42E5
:10166800A8BF2B46002B02DDE41AED1AF61A0D9BD3
:10167800002B00F30082002C00F314820C9B002B3B
:1016880000F32082002D00F34782002E08DD394642
:10169800324658462BF0C6FC0746002800F01B824D
:1016A8004A461E9958462BF043FD8246002800F012
:1016B80012820023C2683946C36010922BF01AFDCB
:1016C8000028C0F2328500F0B584394650462BF028
:1016D800B5FE00224FF0804304460D46FFF768F937
:1016E800002800F0B481109B002B00F02C82059B91
:1016F8000024534D98469FED4C7B8DED0E7B514E4B
:10170800514B08EA06069E4200F05A820B9B13B31F
:10171800B6F1D46F1FD846A3D3E90023DDE90E0143
:10172800FFF746F9A0B1DDE90E01FFF79DFB01289F
:1017380038BF0120FEF746FE109BCDE90E01002BB5
:1017480000F091829DED0E7B8DED167BDDE916454F
:1017580005F1D6639D1BDDE908012BF089FD0246E2
:101768000B4620462946FEF7A7FEDDE90823FEF7CB
:10177800EDFC03460C460D46CDE90434314B2B40B5
:10178800B34203D10B9B002B00F0AB821E99584645
:101798002BF05EFA494658462BF05AFA3946584615
:1017A8002BF056FA514658462BF052FA08E74FF0FC
:1017B800010C26F02003452B40F0B68044EA0003D4
:1017C8000B9A134346D1079B6BB14FF000084FF0BB
:1017D80000091F604046494623B0BDEC028BBDE8B6
:1017E800F08F1D930CE64FF000084FF000094046BB
:1017F800494623B0BDEC028BBDE8F08F9AF8013062
:1018080003F0DF03582B00F0EF82534601331D939A
:101818001E78302EFAD09A46002E00F0E68001237A
:101828000B932CE6AFF30080000000000000F03FAF
:101838000000C0FFFFFFDF412861080002FCFFFF36
:101848000000F03F0000F07F0000E07F0020A64687
:10185800844608901D9F7B1C1D937E782B2E00F0DC
:1018680064822D2E00F092814FF00008A6F130031B
:10187800092B00F29181302E05D11D9B01331D9358
:101888001E78302EFAD0A6F13103082B4CD81D99BA
:10189800A6F130034A1C0C911D924E78A6F1300136
:1018A800092900F2FF82013203EB83031D9206EB44
:1018B80043031678303BA6F130010929F3D90C9976
:1018C800521A082A40F3EE8244F61F630D93B8F1CA
:1018D800000F02D00D9B5B420D93002C40F0CD828F
:1018E8000B9B034340F08180BCF1000F7FF46BAF8A
:1018F800692E00F0CB811ADC492E00F0C7814E2EEC
:101908007FF461AFA6491DA82BF03EF800283FF4EC
:101918005AAF1D9B1B78282B00F0F483A1482BF0AD
:1019280049FE8046894664E000230D93D5E76E2E74
:10193800E8D048E7A8EB06030C9A9D18002D3FF75E
:1019480011AE3FF421AE6D4215F00F020AD0964B4E
:1019580003EBC203DDE90401D3E90023FEF7D6FE59
:10196800CDE904012D113FF40FAE1F2D3ADC15F01F
:1019780010038E4E4FF0000718BF6A230B93DDE962
:10198800042315F0010F1046194606D00127D6E9A1
:101998000023FEF791FD02460B466D1006F108067E
:1019A800EFD10FB1CDE904230B9B93B1DDE904120C
:1019B800C2F30A53C3F16B03002B0ADD1F2B40F35C
:1019C80052840021342B049140F359844FF05C7306
:1019D800059300220023DDE90401FEF7D5FF002866
:1019E8003FF4D4AD2223CBF800304FF000084FF07D
:1019F8000009079A0AB11D9B13600A9B002B3FF44C
:101A0800E9AE09F1004340469946494623B0BDEC8A
:101A1800028BBDE8F08F1D9BA646089003EB0802D9
:101A28001D9213F80860A6F13002092A3FF6BFAEEE
:101A380001309046002A40F0F6811D994B1C1D93F9
:101A48004E78F0E70023159301230E93FFE5584BDA
:101A5800204629460022FEF72FFD109BCDE90E01F6
:101A6800002B6BD101F1004312901393059BDDE924
:101A78001245984643E639461A4658462BF082FAEC
:101A8800074640B301461E9A58462BF0D9F910B3C1
:101A9800109058461E992BF0DBF8109B002C1E93D3
:101AA8007FF7ECAD22461E9958462BF0BBFA1E90E4
:101AB80000287FF4E3AD5646CA460FE0119A0D9E02
:101AC800D51AAEE54946119A58462BF05BFA81467D
:101AD80000287FF4D7AD5646CA461E98354B0022DB
:101AE800059322230492CBF80030DDE904890146EE
:101AF80058462BF0ADF8514658462BF0A9F8394610
:101B080058462BF0A5F8149958462BF0A1F8314601
:101B180058462BF09DF86CE749462A4658462BF064
:101B280081FA814600287FF4B0ADD4E7224901222A
:101B3800CB1A0E9202FA03F3159388E59DED0E7BFE
:101B48008DED127B92E7DDE9041200297AD1C2F308
:101B580013039046002B7BD10022184B20462946C0
:101B6800FEF71CFF002840F05C820022104B204644
:101B78002946FEF7A1FC0A4601461A9002F10043E5
:101B8800CDE90E121B93DDE91A45B8E54FF00108BF
:101B9800BB1C1D93BE7869E600231D970D939CE638
:101BA800686B0800C86B080028610800D860080046
:101BB8000000E03F0000F07FE2FBFFFF0000F03F85
:101BC800A8F1547305939DED047BB0EE478AF0EEBF
:101BD800678A51EC170B2BF04BFB02460B4620464D
:101BE8002946FEF769FC53EC182BFEF7AFFABA4A00
:101BF8000D46DFF800C32A40CDE90401DDE90801FC
:101C0800624503460C46CDE9183428D9B34A9142B7
:101C180003D1B0F1FF3F3FF45EAF4FF0FF33AF4960
:101C2800CDE90431B2E501230A930AF101031D93BA
:101C38009AF80160002E3FF4C6AD9A461AE40023D4
:101C48000A93F2E7DDE90412012900F01A819046AF
:101C58000024A34D9FED987B8DED0E7B4FE505F19C
:101C6800547505958AE501F10043169017936DE5C3
:101C7800B3F59A7F40F34081974B002205932223C6
:101C88000492CBF80030DDE90489B2E695491DA835
:101C98002AF07AFE00283FF496AD1D9B1DA89249B4
:101CA800013B1D932AF070FE10B91D9B01331D9353
:101CB80000238948CDE90430DDE9048999E6163323
:101CC800FFF638AE089B0D9A9A1A884B03EBC203AD
:101CD800DDE90401D3E90023FEF718FD80468946B3
:101CE80087E6DDE90E01FEF727FFFEF7B7FB0B4697
:101CF8000246DDE90E01FEF727FA049C109EC5F3A3
:101D0800130C0D462643044656EA0C035AD16CA31D
:101D1800D3E90023FEF742FE00283FF437AD5646CC
:101D28001E98CA46DDE90489E1E64FF000082FE76E
:101D380008994246504628F0BBF88646002840F0ED
:101D4800B5821D9A02EB08031D9312F80860302E25
:101D580040F05981C3F10102981801331D931E7890
:101D6800302EF9D0A6F13103082B0FD81D994FF06A
:101D78000009431CA6F130088A464D460124089301
:101D880009EB8909002008EB490957E600234FF0C1
:101D9800010C1C4699461D4608930AE5DDE9201307
:101DA8001F9A23F48013049102F2334243EA025348
:101DB8000593240703D5059B43F000430593DDE90C
:101DC800048916E640A3D3E90023FEF7E7FD0028BF
:101DD800A5D1204629463EA3D3E90023FEF7FCFD02
:101DE80000283FF4D3AC9AE70A9B1EAA02941DA9C7
:101DF8000193584600921FAB3D4A2AF01BFB10F096
:101E0800070504463FF4F1AD062D40F0CA80079A55
:101E18000AF10103002A3FF4E6AC4FF000084FF046
:101E280000091360D6E4089B01281D9904F10106F6
:101E38000344089300F03782204400F1FF3C04E09B
:101E48004FEA460963451C460BD0082C04F10103F0
:101E580009EB8906F4DD05EB8504102BD8BF650076
:101E6800F0E70446082B8BDD102C00F33B8105EBD3
:101E78008505002002EB4505E0E5A0467446FFF71E
:101E88002FBBDDE904129046002A7FF4E1AE5646E6
:101E9800CA4622231E984FF000084FF00009CBF8DD
:101EA800003024E644F61F629342A8BF13460D9300
:101EB8000DE500BFAFF30080000000000000F03F18
:101EC8009535A094FFFFCF3F9535A094FFFFDF3FE6
:101ED80035E5AF350000E03F0000F07FFFFFEF7F02
:101EE8000000F0BF5C6B0800606B08002861080008
:101EF8006C6B0800FFFF9F7C102B4FEA231540F303
:101F08005C81B54B4FF0000C1E460B936746DDE92C
:101F1800042315F0010F104619464FEA650507F12D
:101F2800010707D0D6E90023FEF7C6FA4FF0010CE7
:101F380002460B46012D06F10806EAD1BCF1000F56
:101F480001D0CDE90423059BA44DA3F15473A44EFD
:101F580005930B9B03EBC707DDE90423D7E90001D1
:101F6800FEF7AAFA01EA05030A46B342CDE90401DD
:101F780000F2C1809B498B4240F2B6809A4B059390
:101F880000230B934FF0FF330493FFF7FFBA934BF3
:101F9800149A059322230492CBF80030DDE90489D2
:101FA80027E51E9A3AB1352120A82BF077FA584632
:101FB8001E992AF04DFE013D052D3FF6FAAE01A30C
:101FC80053F825F0A51D040005200400FB1F04009C
:101FD800ED1F0400A51D0400E51F04000023CDE942
:101FE8000433E6E64FF0FF336FF00045CDE90435E2
:101FF800DFE60023794ECDE90436DAE6209B049328
:10200800219B0593D5E67046ACE6784901EBC30100
:10201800DDE90423D1E90001FEF74EFA804689463E
:10202800E7E49FED697B8DED1A7B9FED697B8DED74
:102038000E7BA8E5109B5646CA46DDE90889002BA9
:1020480000F0AC806A4BDDE90445C5F313012A466C
:10205800994200F0D380159B002B00F0A880059AC8
:10206800134210D0109B0B9ADDE90401002B00F0FD
:10207800E88028F0BBF902460B4640464946FEF781
:1020880065F8804689460B9B9BB10023594A404618
:102098004946CDE91832DDE91823FEF70DFA034663
:1020A800804689460B4304D122231E98CBF8003082
:1020B8001DE51E981BE5C8F10F084C4C04EBC80140
:1020C800DDE90423D1E90001FEF7F6F90C9BA3EB47
:1020D800080804EBC804D4E90023FEF7EDF98046AC
:1020E800894686E40020A9E402F15473059300238D
:1020F8000B93FFF74BBA2223002205950492CBF8E5
:1021080000305CE61DA820AA3B492AF057FC0528A8
:102118007FF404AC219B43F0FF4343F4E0030593B1
:10212800209B0493DDE9048963E4109B50465646DE
:10213800CA46DDE90445DDE908892343A3D1C5F38F
:1021480013032C46002B9ED125F000431B0D1B05C5
:10215800B3F1D66F97D9436913B90369012B92DD9F
:102168003146012258462AF05DFF394606462AF0D4
:10217800C1FF002887DD0B9B002B40F08980174B9F
:102188002340A3F580136FEA13536FEA03530593B3
:102198004FF0FF330493DDE9048974E7DDE90412A5
:1021A800C2F3130314460B437FF455AFE3E70E9BCA
:1021B800049A13423FF467AF54E7074B00270B9389
:1021C800C1E600BFAFF30080000000000000E0BFE0
:1021D800000000000000E03F006108000000F07F00
:1021E8000000A07C0000907CFFFFEF7F28610800C2
:1021F800FFFF0F0000005039806B08000B9B04990B
:10220800002B39D02F4B2B40B3F1D46F34D81B0D92
:102218004FF0FF30C3F16B0300FA03F399427FF4E8
:102228001AAF294B9A4202D101313FF456AC254BE3
:10223800134003F58013059300230493DDE9048913
:1022480021E728F0D3F802460B4640464946FDF7F9
:102258007BFF0022002380468946FEF795FB002875
:102268003FF411AF15E64FF0FF3202FA03F3049A78
:102278001A400492FFF7ADBB4FF0FF33CEE7203B87
:102288004FF0FF3101FA03F313400593FFF7A1BBA9
:102298000C4B2340B3F1D66F3FF773AFB3F15C7FBC
:1022A8003FF7F3AEF5E523463446DBE54FF0000E85
:1022B8007546F14670467446F446CDF820E0FFF7BF
:1022C80078BA00BF0000F07FFFFFEF7F000000003A
:1022D8002DE9F04F2DED088BD5B08B46174681467A
:1022E8000D932AF051FC03681846159327F084FDD6
:1022F800BBF80C3014901C0604D5DBF81030002B0A
:1023080000F0F08700230DF1AC0809EE109A09EEF1
:1023180090BA10932A93169318931B9309932993B1
:10232800CDF8A0809FED9C7BCDE919338DED127B14
:102338003B783C46E3B1252B1AD0254614F8013FDB
:102348000BB1252BF9D1E61B12D0C8F80070C8F8DC
:102358000460DDE9293201333244072BCDE9293203
:1023680000F30B8108F10808099B334409936B7843
:10237800002B01F09C810023671C94F801904FF01A
:10238800FF3A2B240A938DF8833007930137A9F17C
:1023980020035A2B00F20481DFE813F06A000201DF
:1023A800020182020201020102015E02020102012F
:1023B8002602380202013102440202013D025B009A
:1023C8005B005B005B005B005B005B005B005B002D
:1023D8000201020102010201020102010201890156
:1023E8000201F101790089018901890102010201D3
:1023F80002010201990202010201A7000201020181
:10240800020101020201890202010201820702019E
:102418000201020102010201020102010201890115
:102428000201F1017D00890189018901D4027D0041
:1024380072000201C9020201B202AB00A0027200DE
:10244800020101026F007E07020102015D0702011D
:102458006F00A9F13003002202EB820217F8019BFA
:1024680003EB4202A9F13003092BF5D90A928EE752
:102478009DF88330002B00F02B8697F8009085E7B5
:10248800079B97F8009043F0200307937EE7079B8C
:1024980043F010030793079B980640F15F810D9B5B
:1024A800073323F007031946F1E8022314461D46B3
:1024B8000D91002A73F10003C0F2C985BAF1FF3FFC
:1024C80000F09684079B23F080030793BAF1000F6E
:1024D80040F08E8454EA050314BF0123002340F022
:1024E80087849A4654AE0B9336E0079B43F010035B
:1024F8000793079B9D0640F122810D9B073323F02C
:102508000703F3E802450D93079B23F4806B002330
:1025180000228DF88320BAF1FF3F00F019832BF0D9
:102528008002079254EA050240F01083BAF10002D3
:1025380018BF0122BAF1000F40F00883002B40F0C9
:1025480052841BF001020B9200F0048530229A4657
:102558000DF24F168DF84F210B9900239DF883201B
:1025680051450C931193B8BF5146CDE90E330891EC
:1025780052B3089B0133089326E028AA19EE901A53
:1025880019EE100A2BF02CF9002841F0EA830DF11E
:10259800AC08E9E6AFF3008000000000000000008E
:1025A800B9F1000F01F08380012200233BAE8DF8C2
:1025B800EC90114608921A468DF883300B9192469A
:1025C8000C921192CDE90E22079B13F0020302D060
:1025D800089902310891079911F0840B05D10A99DD
:1025E80008980D1A002D00F356832A9C82B1299A67
:1025F800012101340DF183000A44C8F804102A941B
:10260800072AC8F80000299200F38F8308F1080808
:102618007BB1299B023421A9022201332A94C8F8EC
:102628000010072B2993C8F8042000F38E8308F1C3
:102638000808BBF1800F00F0F9810B9BAAEB030A95
:10264800BAF1000F00F34182079BD80500F18E8193
:10265800299B0B9A0133C8F800601444C8F8042079
:10266800072B29932A9400F3098308F10808079B8C
:10267800590705D50A9B089A9D1A002D00F3738304
:102688000899DDE909328A42ACBF9B185B180993A7
:10269800002C40F09782002329930C9B23B10C99BE
:1026A80019EE100A29F06AFD0DF1AC0840E60D9B01
:1026B8004FF0FF32073323F00703B3EC027B8DEDB5
:1026C800127BDDE912450D9325F000430AEE104A0E
:1026D8000AEE903AA14BB0EE4A8AF0EE6A8A51ECC3
:1026E800180BFEF783F9002840F009854FF0FF32F8
:1026F8009A4B51EC180BFEF75BF9002840F0FF8469
:102708000022002320462946FEF748F9002841F018
:10271800DC809DF883200321914E924B0891079C01
:102728000020B9F1470FC8BF1E460B9124F0800462
:1027380082460C9007941190CDE90E0018E7079B8C
:10274800DC0600F1D584079B580640F1ED870D9B08
:10275800002553F8044BA4B20D93D5E6079BD90680
:1027680000F1BD84079B5A0640F1D0870D9B53F8B2
:10277800044B24B20D93E51722462B4699E6012215
:102788000D9B00213BAE144653F8040B08920A46F1
:102798008DF883100B948DF8EC000D930FE70D9CCA
:1027A800002554F8046B8DF88350002E00F08F87B5
:1027B800BAF1FF3F00F0A68552462946304626F07A
:1027C8005BFE0C90002801F0EA810C9BAA469DF85C
:1027D80083209B1B0D940C950B9323EAE3731195AF
:1027E8000893CDE90E55C3E60D9B53F8042B002A38
:1027F8000A9280F25C840A9A0D9352420A92079BCD
:1028080097F8009043F004030793BFE597F800900A
:102818008DF88340BAE5079B97F8009043F0800352
:102828000793B3E53A4612F8019BB9F12A0F01F074
:10283800D282A9F1300317464FF0000A092B3FF660
:10284800A6AD0AEB8A0A17F8019B03EB4A0AA9F11D
:102858003003092BF5D99AE519EE100A2AF094F9F4
:10286800436818461A9327F0C7FA034619EE100A68
:102878001D4619932AF088F982681B92002D3FF4AF
:10288800FCAD002A3FF4F9AD1B9B1B78002B3FF4ED
:10289800F4AD079B97F8009043F48063079375E5C0
:1028A800079B97F8009043F0010307936EE5079B99
:1028B80043F0100B1BF0200F0D9A00F0B283073283
:1028C800012322F00702F2E802450D9220E6079B59
:1028D80097F8009043F00803079357E50D9A47F6D9
:1028E8003001079B4FF0780952F8044B002543F05C
:1028F800020B1D4BADF88410169302230D9207E6C8
:10290800079B990600F1D883079BDA0600F1C78672
:10291800079B5B0601F10780079B9E0540F1BF8678
:102928000D9B099953F8042B11700D9300E597F846
:102938000090079BB9F16C0F00F0B58443F01003C9
:10294800079323E597F80090079BB9F1680F00F00B
:10295800B28443F04003079318E500BFFFFFEF7F01
:10296800946B0800986B0800A46B0800B9F1650F18
:1029780040F3378100220023DDE91201FEF704F855
:10298800002800F04782299B01220134CA491344D8
:10299800C8F804202A94072BC8F80010299300F3DC
:1029A800FC8508F10808229B109A934280F27A83EA
:1029B800299B149A013315991444C8F80420072B4D
:1029C800C8F800102A94299300F37D8408F10808B8
:1029D800109B5E1E002E7FF74AAE102E299B40F3F7
:1029E800ED854FF01009B54D19EE10AA19EE90BA01
:1029F80003E0103E102E40F3E28501331034C8F88E
:102A0800005008F10808072B48F8049CCDE9293440
:102A1800EFDD28AA594650460DF1AC082AF0E0FE31
:102A2800002841F04D80DDE92934E2E70A9B089A45
:102A3800A3EB020BBBF1000F7FF7FFADBBF1100F4B
:102A4800299A41F317812046179610239B4D19EEBA
:102A5800104A19EE906A04E0ABF1100BBBF1100FAD
:102A68001DDD01321030C8F8005008F10808072AA7
:102A780048F8043CCDE92920EEDD28AA3146204655
:102A88000DF1AC082AF0ACFE002840F04C82ABF106
:102A9800100B1023BBF1100FDDE92920E1DC179E94
:102AA800044601325C44C8F80050072AC8F804B04C
:102AB800CDE9292400F3D6850B9B08F10808AAEB79
:102AC800030ABAF1000F7FF7BFADBAF1100F299BC7
:102AD80040F34186224617964FF0100B774D19EEBA
:102AE800104A19EE906A04E0AAF1100ABAF1100F20
:102AF8001CDD01331032C8F8005008F10808072B14
:102B080048F804BCCDE92932EEDD28AA3146204632
:102B18000DF1AC082AF064FE002840F00482AAF106
:102B2800100ABAF1100FDDE92932E2DC179E1446CB
:102B380001335444C8F80050072BC8F804A0CDE965
:102B4800293400F35F8208F108087DE5DDF81CB040
:102B5800012B00F04F81022B54AE14D11698230993
:102B680004F00F012A0943EA057315461C46435C25
:102B780006F8013D54EA0503F1D154ABCDF81CB079
:102B88009B1B0B93E8E4E20804F00703E90842EA18
:102B9800457230330D461446324606F8013D54EA74
:102BA8000501F0D1302BE8D01BF0010FE5D0302320
:102BB800023ACDF81CB006F8013C54AB16469B1AF5
:102BC8000B93C9E428AA19EE901A19EE100A2AF0F4
:102BD80007FE00283FF45FAD19EE109A19EE90BA7F
:102BE800A3E1109B012B40F3B981299B01220134F9
:102BF800C8F800601344C8F804202A94072B2993C6
:102C080000F3418208F1080803F10109149A159BA1
:102C18001444B9F1070FC8F80030C8F80420CDE90A
:102C2800299400F3208208F1080800230022DDE936
:102C38001201FDF7A9FE109B002840F0B381013B6B
:102C480009F1010901361C44B9F1070FC8F8006001
:102C5800C8F80430CDE9299400F3948108F10808F4
:102C6800189909F1010324AA0C44072BC8F8041089
:102C7800C8F80020CDE929347FF7F7AC28AA19EE67
:102C8800901A19EE100A2AF0ABFD0028A4D12A9C4C
:102C98000DF1AC08EBE4102D2A9940F39F871C96A0
:102CA80010242E461D97299A084619EE105A19EE37
:102CB800907A179307E000BFD46B0800E86B080010
:102CC800103E102E1BDD01321030BE4B08F10808F3
:102CD800072A48F8044C48F8083CCDE92920EFDDDC
:102CE80028AA394628460DF1AC082AF079FD0028B3
:102CF80040F04584103E102EDDE92920E3DC3546FE
:102D0800179B1C9E01461D9F01326C18AD49072A6E
:102D1800C8F80450C8F80010CDE9292400F31C8431
:102D280008F108089DF8832060E428AA19EE901A93
:102D380019EE100A17932AF053FD00287FF44CAFC0
:102D48002A9C0DF1AC08179B62E428AA19EE901A88
:102D580019EE100A2AF044FD00287FF43DAF2A9CA2
:102D68000DF1AC0865E4102D299B24DD102619EE21
:102D7800109A19EE90AA02E0103D102D1BDD0133C8
:102D88001034904A08F10808072B48F8046C48F8F2
:102D9800082CCDE92934EFDD28AA514648460DF123
:102DA800AC082AF01DFD002840F00684103D102DC7
:102DB800DDE92934E3DC01332C44824A072BC8F8C7
:102DC8000450C8F80020CDE929347FF759AC28AA67
:102DD80019EE901A19EE100A2AF002FD00287FF465
:102DE800FBAE2A9C4CE4924654AE0B92FFF7B4BB60
:102DF800DDF81CB0002D08BF0A2C80F0ED833034BC
:102E080001230DF24F16CDF81CB00B938DF84F41EE
:102E1800FFF7A2BB2299002940F369830E9B109A01
:102E28009342A8BF1346002B1D460DDD299B2C4459
:102E3800C8F8006001332A94C8F80450072B299376
:102E480000F32F8608F108080E9B002DA8BF5B1B16
:102E5800002B994600F367820E9B33449B46079BE1
:102E68005B0500F18D82229B109A934203DB079A3F
:102E7800D50740F14E85299A1499013215980C44CA
:102E8800C8F80410072AC8F800002A94299200F309
:102E98001D8608F10808109A1644D31AA6EB0B06EB
:102EA8009E42A8BF1E46002E0DDD299A3444C8F85C
:102EB80000B001322A94C8F80460072A299200F366
:102EC8007B8608F10808002EACBF9E1B1E46002E0C
:102ED8007FF7CDAB102E299B40F370834FF010097C
:102EE800394D19EE10AA19EE90BA03E0103E102ED3
:102EF80040F3658301331034C8F8005008F108081E
:102F0800072B48F8049CCDE92934EFDD28AA594657
:102F180050460DF1AC082AF063FC002840F0D0853B
:102F2800DDE92934E2E7A146B3460C9B1BB10C99B5
:102F3800484629F023F9BBF80C3013F0400F099BE1
:102F480018BF4FF0FF330993099855B0BDEC088BB3
:102F5800BDE8F08F9A4654AEFFF7FEBA079BD80734
:102F68003FF543AE299A01230134C8F8006002EB0B
:102F78000309C8F804302A94B9F1070FCDF8A490D2
:102F88007FF76CAE28AA19EE901A19EE100A2AF0EB
:102F980027FC00287FF420AE2A9C0DF1AC08DDF850
:102FA800A4905DE65E1E002E7FF75AAE102E064DE9
:102FB80040F39E834B464FF0100A19EE109A19EE13
:102FC80090BA07E0D86B0800E86B0800103E102E96
:102FD80040F38D8301331034C8F8005008F1080815
:102FE800072B48F804ACCDE92934EFDD28AA594667
:102FF80048460DF1AC082AF0F3FB002895D1DDE92D
:103008002934E3E728AA19EE901A19EE100A2AF0D3
:10301800E7FB00287FF4E0AD2A9C0DF1AC08FFF730
:1030280013BB52F8044B1BF0100F4FF001030D9225
:103038000AD11BF0400F03D0A4B20025FFF768BAED
:103048001BF4007F18BFE4B20025FFF761BA2D22F8
:103058006442DDF81CB04FF0010365EB45058DF8BF
:103068008320FFF758BA28AA19EE901A19EE100A09
:103078002AF0B6FB00287FF4AFAD2A9C0DF1AC080E
:10308800DDF8A490D1E528AA19EE901A19EE100AD5
:103098002AF0A6FB00287FF49FAD2A9C0DF1AC080E
:1030A800299BB1E5079BD9077FF5E1AA80E497F84A
:1030B80000900D93FFF76AB90D9B53F8041B0D930D
:1030C800099BDD171A462B46C1E90023FFF730B9E3
:1030D800202397F800908DF88330FFF757B90D9BA0
:1030E80053F8044BE5170D9322462B46FFF7E1B939
:1030F8000D9B002553F8044B0D93FFF705BADDE946
:10310800120102460B46FDF771FC002840F0E485E9
:1031180029F02003412B089340F02683B9F1610F71
:103128004FF030020CBF78235823BAF1630F8DF8A3
:1031380084208DF8853000F3FE833BAE0C90DDE9EA
:103148001212002A80F276852D23DDE912121793D8
:1031580002F100431E911F9322AADDE91E012AF005
:10316800F3F900224FF07F53FDF7A6F90022002360
:1031780004460D46FDF708FC08B101232293B94A1D
:103188000AF1FF3AB84BB3461897B9F1610F18BF67
:103198001A46CDF82C8017460E92CDE9109602E01B
:1031A800FDF7F2FB18BB0022B04B20462946FDF77D
:1031B80083F90D460446FDF72FFC0646FDF712F984
:1031C80002460B4620462946FCF7BEFF17F806C004
:1031D800BAF1FF3FD846D14604460D464FF00002EB
:1031E8004FF000030AF1FF3A0BF801CBD8D10022C7
:1031F8009F4B20462946B246CDF83C80119EDDF80B
:103208002C80189FCDF82C90DDF84090FDF7E4FB5A
:10321800002840F08B85204629460022944BFDF774
:10322800B3FB18B15346DB0700F180850B9B002BDD
:1032380007DB0B9B302201335B440BF8012B5B450A
:10324800FBD1079B43F002030793ABEB06031093F4
:10325800229B0E93D0E2834B1693079B990640F16D
:10326800EA800D9B073323F00703F3E802450D932B
:1032780054EA05030AD0079BDE0707D543F002038B
:103288008DF88590079330238DF88430079B23F4BD
:10329800806B0223FFF73CB9DDF81CB0FFF70ABBCF
:1032A800714B1693D9E743F0200397F80190013743
:1032B8000793FFF76BB843F4007397F80190013751
:1032C8000793FFF763B828AA19EE901A19EE100AA7
:1032D8002AF086FA00287FF47FAC2A9C0DF1AC080E
:1032E800FFF776BB4021484625F0F8FDCBF80000F3
:1032F800CBF81000002800F08E854023CBF814305E
:10330800FFF700B83046AA4626F076FD20EAE073BB
:103318009DF883200B9011950893CDE90C54CDE9C5
:103328000E55FFF725B9B9F1100F299B40F36585B4
:1033380022464FF0100A4F4D19EE10BA19EE904A76
:1033480005E0A9F11009B9F1100F40F3C482013367
:103358001032C8F8005008F10808072B48F804ACE8
:10336800CDE92932EDDD28AA214658460DF1AC08F1
:103378002AF036FA002840F08084DDE92932E0E7B7
:103388000F9B002B0ADC119B002B07DC109BF3180A
:103398000B930B9B9B4528BF9B4664E5109B2246DD
:1033A800179619EE109AF3181C975E46DFF8C4A01A
:1033B800DDF844B01B9F0E93BBF1000F45D00BF115
:1033C800FF3B2998199B01301A991A44C8F8043010
:1033D8000728C8F800102A9229907BDC08F1080811
:1033E8000E9B38789D1B0B938542A8BF0546002D80
:1033F8000EDD29982A44C8F8006001302A92C8F8DE
:1034080004500728299000F33C8108F1080838780F
:10341800002DACBF451B0546002D1BDC0F9B064449
:10342800002BC9DCBBF1000FC6DCB3461B97179E07
:1034380014461C9FADE7079BDA0640F1A3800D9B5D
:10344800002553F8044B0D9312E70F9B013F013BF6
:103458000F93B6E7102D29982DDD1196102419EE3B
:10346800906A0CE0A46B0800B86B080000003040BC
:103478000000E03FE86B0800103D102D1ADD013018
:103488001032C8F800A008F10808072848F8044CCA
:10349800CDE92902F0DD28AA314648460DF1AC08ED
:1034A8002AF09EF9002840F00E83103D102DDDE92A
:1034B8002902E4DC119E01302A44C8F800A007283C
:1034C800C8F80450CDE9290200F3248308F108085C
:1034D8003878A3E728AA19EE901A48462AF080F906
:1034E80000287FF47BAB2A9A0DF1AC0878E7299B7A
:1034F8000122013499481344C8F804202A94072B60
:10350800C8F80000299300F3F58108F10808109B1A
:103518000B4300F0EB82299B149801330219159C88
:10352800072BC8F80400C8F800402A92299300F332
:10353800A88208F108080029C0F2538310990133C2
:10354800C8F800608C18072BC8F80410CDE9293496
:103558007FF78BA8FFF792BB28AA19EE901A19EEED
:10356800100A17932AF03CF900287FF435AB9DF830
:1035780083200DF1AC082A9C179BFFF737B8A946A2
:10358800BB46D2E4079B5B0640F1DA800D9B002521
:1035980053F8044BA4B20D936AE628AA19EE901AC0
:1035A80019EE100A2AF01CF900287FF415AB2A9CA2
:1035B8000DF1AC08FFF7F7B9D346B6E4684D01330F
:1035C8003444C8F80050072BCDE92934C8F8046002
:1035D8007FF74BA8FFF752BB0BF480630022CDF8AE
:1035E8001C9054AECDF8208091460B971F46DDF80D
:1035F8006C8007E0FDF788FA002D08BF0A2C21D35C
:1036080004460D460A22002320462946FDF77CFA87
:103618009446204629460CF1300C0A22002309F171
:10362800010906F801CC013E002FE3D098F800C04C
:10363800BCF1FF0FDED0CC45DCD19D4208BF9442DF
:1036480080F0768254AB0B9FCDF840909B1BDDF841
:103658001C90CDF86C80CDF81CB0DDF820800B9361
:10366800FEF77ABF28AA19EE901A19EE100A2AF066
:10367800B7F800287FF4B0AA2A9C0DF1AC08FEF731
:10368800DCBF28AA19EE901A48462AF0A9F80028A3
:103698007FF4A4AA38780DF1AC082A9AB8E60D9BF5
:1036A800099953F8042B11600D93FEF741BE2A9B2C
:1036B80019EE90BA002B3FF43EAC19EE100A28AA76
:1036C80019EE901A2AF08CF8BBF80C3035E4534602
:1036D8003246B2461196062B28BF0623CDE90C6464
:1036E800CDE90E6608931F4E0B93FEF741BF99462E
:1036F80009F101093444C8F80050B9F1070FC8F8B6
:103708000460CDE929947FF7A9AA3BE4079B13F449
:10371800007F0D9B53F8044B18BF64B20D93E51757
:1037280022462B46FEF7C5BE079B002513F4007FF3
:103738000D9B53F8044B18BFE4B20D93FEF7E4BE9B
:10374800079B002513F4007F0D9B53F8044B18BF0B
:10375800E4B20D938CE5024DFFF7EAB9D46B08008B
:10376800E86B0800CC6B0800BAF1FF3F00F0F0806E
:10377800BAF1000F40F0EE80089B472B40F0EA803A
:10378800079A4FF0010ADDE912BC42F480756346DE
:10379800002BC0F2B682544617904CEC1BBB26A8EF
:1037A80023A922AA0223049019EE100A0093019477
:1037B800CDE9022153EC1B2B00F04EFB089B06467B
:1037C800472B40F0DF81079BDB0700F1DB81269B5D
:1037D8009B1B1093089B472B40F01081229B53455D
:1037E8000E9302DC033380F22B810023A9F1020936
:1037F8000C9329F0200308930E9B089A013B412A59
:10380800229340F0748209F10F02D2B2002B8DF896
:103818009020C0F2C3822B22092B8DF8912040F30F
:10382800A9820DF19F0EDFF828C670468CFB0312A3
:10383800D9171D460446C1EBA2010138632D01EBDF
:103848008102A3EB42020B4602F1300204F8012C7C
:10385800ECDC3033A21EDBB2964500F8013C40F2A6
:10386800D7820DF1920201E010F8013B864502F87B
:10387800013BF9D10DF1A1030DF1920124AA1B1B03
:103888000B449B1A1893109B189A012B1A440B92FD
:1038980040F37F820B9B149A13440B93079B0022DF
:1038A8000B9923F48063119221EAE17143F4807348
:1038B80008910793CDE90E22179B002B40F0DA8080
:1038C8009A469DF88320FEF753BE2D231A468DF89D
:1038D8008330FEF720BF144601334C44C8F800502B
:1038E800072BC8F80490CDE929346CDC08F10808E6
:1038F800FFF7B2BA28AA19EE901A19EE100A29F0A1
:103908006FFF00287FF468A922990DF1AC082A9C62
:10391800FDE5109A1644D31AA6EB0B069E42A8BFE3
:103928001E46FFF7D0BA0D9B099953F8042B118056
:103938000D93FEF7FDBC0AF1010119EE100A25F0FE
:10394800CDFA0646002800F072820C90FFF7F7BB0C
:103958004FF0060A079ADDE9120142F48075002942
:10396800C0F2CF81002341EC1B0B1793089B462B19
:1039780040F0F38026A823A922AA0323049019EE75
:10398800100A0093CDF804A0CDE9022153EC1B2BBB
:1039980000F062FA03780646302B08D10022002393
:1039A80051EC1B0BFCF7F0FF002800F01F82229B54
:1039B8005344F4180022002351EC1B0BFCF7E4FFDE
:1039C80080B1234604E728AA19EE901A19EE100AC6
:1039D80029F006FF00287FF4FFA82A9C0DF1AC0807
:1039E800FFF73ABA269BA342BFF4F2AE30215A1C25
:1039F80026921970269B9C42F9D8E9E6089B462B2B
:103A080040F00082229A079B002A0E9203F00103DD
:103A180040F3CE8153EA0A0340F06C810E9B4FF0CD
:103A280066090B93079B5A0500F12D810B9B23EA2E
:103A3800E3730893002307950C9311930F933BE7C7
:103A48000E9B10998B42C0F29F80079AD40740F1D1
:103A58008E81149A13440B93079B580503D50E9B2C
:103A6800002B00F30E810B9B4FF0670923EAE373E9
:103A78000893DFE72D224FF0000A8DF88320FEF728
:103A880078BD28AA19EE901A19EE100A29F0A8FE96
:103A980000287FF4A1A822990DF1AC08DDE92932AC
:103AA80049E528AA19EE901A19EE100A29F098FE8D
:103AB80000287FF491A82A9C0DF1AC08FFF7C4B93F
:103AC800D146FFF732BAB346FFF72FBA28AA19EE44
:103AD800901A19EE100A29F083FE00287FF47CA8BA
:103AE800229B0DF1AC082A9CFFF7D5B9079BDA0792
:103AF8007EF5BDAD299B1499013315980A19C8F8AC
:103B08000410072BC8F800002A922993B9DC08F1A1
:103B1800080813E528AA19EE901A484629F060FE0D
:103B280000287FF45BA838780DF1AC082A9A75E470
:103B3800199B1A99F61A1A46304626F0F3F998F89E
:103B480001300BB108F10108204629460A2200235A
:103B58004FF00009FCF7D8FF52E5452B40F056819D
:103B680026A823A922AA02230AF10104049000939B
:103B780019EE100A0194CDE9022153EC1B2B00F039
:103B88006BF90646344415E7109B149A9A180E9B55
:103B9800002B0B9240F3C0804FF0670942E7CDF845
:103BA80020A0CDF82CA082469DF883200D9411907A
:103BB800CDE90E00FEF7DCBC28AA19EE901A19EE22
:103BC800100A29F00DFE00287FF406A8229B0DF1AB
:103BD800AC08109A2A9CD31AFFF775B9299AFFF7EF
:103BE80093B8C1F100091031964D29DA102419EE65
:103BF80010AA19EE90BA04E0A9F11009B9F1100F52
:103C08001EDD01331032C8F8005008F10808072BF0
:103C180048F8044CCDE92932EEDD28AA5946504629
:103C28000DF1AC0829F0DCFD00287FF449AFDDE98F
:103C38002932E1E70023CDE91E121793FFF78CBA6A
:103C480001334A44C8F80050072BC8F80490CDE95E
:103C580029327FF75CAF28AA19EE901A19EE100ADC
:103C680029F0BEFD00287EF4B7AF2A9A0DF1AC0802
:103C7800299B63E4734DFEF714BFD946A346FFF7AB
:103C880054B94FF067091B990B78FF2B00F0CB80D4
:103C980000240E9A204603E001300131FF2B08D0A2
:103CA800934206DAD21A4B78002BF5D101340B78FF
:103CB800F4E70E921B910F901194119A0F9B0B9998
:103CC8001344002207950C92199A02FB03130B93D5
:103CD80023EAE3730893EFE5139B002B63DB9DF85E
:103CE80083200321584E594B0891FEF718BD5FFAFF
:103CF80089F28BE5149B4FF06609D31853440B9354
:103D080090E6DDE912122D230BEE101A179302F13B
:103D180000430BEE903A29E6C3F101034FF067091F
:103D28001A4422EAE2730B92089383E60F9B2693C8
:103D38000E9B1BF8012CD97B5B468A4209D13020A7
:103D480003F8010C269B5A1E269213F8012C914267
:103D5800F6D0392A53D00132D2B203F8012CFFF73A
:103D680070BA19EE90BABBF80C30FFF7E6B80E9BA4
:103D78000B9371E6089A412A3CD030210DF1930249
:103D88008DF89210303324A902F8013B531A189386
:103D980079E5079BDD077FF581AD7BE50E9B2D223D
:103DA800C3F1010338E52D231A468DF8833098E7CF
:103DB80053EA0A0305D101234FF0660908930B93D0
:103DC80038E6149B4FF06609013353440B9323EAFA
:103DD800E37308932EE60D9B97F80190174653F866
:103DE800042B42EAE27A0D93FEF7D0BACAF1010336
:103DF8002293DDE50DF19202C4E7124D6CE50E9AAF
:103E0800927AAAE700230C93FFF722BA5446C6E435
:103E18000223189337E50C234FF0FF32C9F800301E
:103E28000992FFF791B8002311930F9345E719EE14
:103E380090BABBF80C3043F04003ABF80C30FFF7F6
:103E48007CB800BFE86B08009C6B0800A06B0800FA
:103E580067666666000000002DE9F04F016C1646A3
:103E68001F4604462DED048B97B0279DCDE90467C6
:103E780041B1426C01239340C1E9012328F0E8FED7
:103E880000232364B7F10009C0F2B68000232B6039
:103E98007F4B33EA090300F0BA80002200239DED2E
:103EA800047B51EC170B8DED027BFCF76DFD804612
:103EB80088B10123269A1360289B002B00F05482B6
:103EC800744B289A03F1FF391360484617B0BDECCC
:103ED800048BBDE8F08F14AA15AB2046CDE900325B
:103EE800DDE9022329F050FA82465FEA195540F0CD
:103EF800A780DDE91485454405F23240202840F3C7
:103F08003B82C0F1400305F2124009FA03F926FA90
:103F180000F049EA0000FCF755FA013D0122A1F141
:103F2800F8710E9200225C4BFCF70EF952A3D3E90C
:103F38000023FCF7C1FA52A3D3E90023FCF706F9E2
:103F480006460F462846FCF74DFA4FA3D3E900234F
:103F5800FCF7B2FA02460B4630463946FCF7F6F84B
:103F680006460F46FCF758FD0022834600233046DC
:103F78003946FCF713FD002840F0E981BBF1160F24
:103F880000F2D781454B03EBCB03DDE90201D3E90E
:103F98000023FCF703FD002800F086800023A8EB2F
:103FA80005050BF1FF3B0D936B1E079300F1C981CB
:103FB80000230A93BBF1000F7EDA0A9BCDF818B0F4
:103FC800A3EB0B030A93CBF100034FF0000B0C9308
:103FD800249B092B79D8052B40F3D381043B00257A
:103FE8002493249B023B032B00F26685DFE813F041
:103FF800F503F203E803C603012329F000492B6007
:10400800234BCDF8149033EA09037FF446AF42F20C
:104018000F73C9F31309269A136059EA06031FD0D0
:10402800289BDFF87C90002B3FF44FAF09F1030386
:10403800289A4846136017B0BDEC048BBDE8F08F92
:10404800DDE90212CDF83880A5F2FF35C2F313037B
:104058000846DDF8508043F07F5141F4401161E794
:10406800289BDFF84090002B3FF42FAF09F108039D
:10407800DEE700BFAFF3008061436F63A787D23FDD
:10408800B3C8608B288AC63FFB799F501344D33F3F
:104098000000F07FD56B08000000F83F2861080099
:1040A800246C0800286C0800A8EB05056B1E079314
:1040B80000F1F0840D900A90079B5B44CDE906B3AC
:1040C80000230C93249B092B85D9002324930123D7
:1040D8000B934FF0FF33099300231D4625930021CE
:1040E800099B61641293204628F08CFD0890206497
:1040F800002D00F0F2800699002940F39E82C84AFC
:1041080001F00F030D1102EBC303CA05D3E90067E1
:1041180040F12B83C34B05F00F054FF00308D3E99B
:104128000823DDE90201FCF7F1FA41EC180B8DB127
:10413800DFF8F092EB073046394607D508F1010859
:10414800D9E90023FCF7B8F906460F466D1009F1C6
:104158000809EFD132463B4651EC180BFCF7D6FA6A
:1041680006460F460D9B43B10022AF4B30463946F9
:10417800FCF714FC002840F068844046FCF732F94C
:1041880032463B46FCF798F9A84B0022FBF7DEFFC6
:10419800099B8046A1F15079002B00F00281069B13
:1041A8001093099B0F930B9B002B00F019830F9A18
:1041B80000209B4B9E4903EBC203089D53E9022351
:1041C800FCF7A4FA42464B46FBF7BEFF80468946F9
:1041D80030463946FCF720FC49EC188B8046FCF742
:1041E80001F902460B4608F1300830463946FBF71C
:1041F800ABFF05F8018B06460F4602460B4651EC0D
:10420800180BFCF7E9FB002840F01C854FF000096B
:1042180009EE10AACDF84CB0DDF83CA0CB4659EC1D
:10422800188B08EE104A2C4624E0D3454FDAFCF7E9
:1042380043F900227F4B8046894630463946FCF7D1
:104248003BF90F460646FCF7E7FB0546FCF7CAF8BC
:1042580002460B46303530463946FBF775FF424675
:104268004B4604F8015B06460F46FCF797FB00280F
:1042780040F0E38432463B4600206B49FBF764FF7D
:1042880042464B460BF1010BFCF788FB0546002222
:10429800684B40464946002DC7D02546089919EE77
:1042A80010AA18EE104A02E08D4200F09E842A46B9
:1042B80015F8013D392BF7D001330891DBB22B708B
:1042C800109BDDF8209001330892069392E0DDF808
:1042D8004CB019EE10AA18EE104A069A159B0E2A31
:1042E80002DC002B80F2E4810B9A002A00F0A880FF
:1042F800249A012A40F3D083099B5F1E0C9BBB4282
:1043080080F27C830C9B0C97FB1A00279B44099B2B
:10431800002BC0F26584079A11460A9A194416467A
:104328001A4407910A920121204628F07FFD05468C
:1043380089E00123A8EB05050D936B1E07937FF514
:1043480037AEC5F101030A930023079332E65846B6
:10435800FCF748F832463B46FCF716FB00287FF48A
:104368000DAE0BF1FF3B09E6DFF8D090484617B0D9
:10437800BDEC048BBDE8F08FC0F1200006FA00F018
:10438800C9E501252DE64046FCF72CF832463B46A8
:10439800FCF792F80022254BFBF7D8FE8046A1F1E6
:1043A8005079304639460022234BFBF7CDFE424672
:1043B8004B4606460F46FCF70FFB002840F03783B4
:1043C80030463946424609F10043FCF7E7FA00282F
:1043D80083D000273D46259BDDF82090DE433946F3
:1043E800204628F035FC731C06931DB1294620464B
:1043F80028F02EFC5146204628F02AFC0023089A73
:104408001370269B1946069B0B60289B002B3FF4D4
:104418005CAD48461A6017B0BDEC048BBDE8F08F60
:1044280028610800006108000000F03F00001C40FF
:104438000000E03F0000244000001440D46B080056
:104448000C9FDDE90A65002E0CDD079A002A09DDBC
:10445800B24213460A99A8BF3346C91AF61AD31AA4
:104468000A9107930C9B43B10B9B002B61D0002F43
:1044780000F3B2820C9BDA1B5CD10121204628F0A4
:10448800D5FCBBF1000F074600F33881249B012BB4
:1044980040F3D0824FF00008BBF1000F40F03A81A2
:1044A800012307990B4413F01F0349D0C3F12002DD
:1044B800042A40F35A84C3F11C030A9A19441A4483
:1044C8001E440A9207910A9B002B05DD51461A46A5
:1044D800204628F0A7FD8246079B002B05DD3946BC
:1044E8001A46204628F09EFD07460D9B002B40F0FB
:1044F8001A81099B002B2CDC249B022B29DD099BAC
:10450800002B7FF468AF39460522204628F0AAFB25
:1045180007465046394628F0EDFD00287FF75BAF87
:1045280008983123069E814600F8013B0136089021
:1045380055E70C9A5146204628F024FD82469CE710
:104548001C230A9A1E441A440A92079A1A4407928C
:10455800B9E70B9B002B00F0B981069B013306934A
:10456800002E00F34D82B8F1000F40F07683A94683
:10457800089A0499531E9046099A01F001011A44B9
:10458800049109923946504627F00EFD2946834684
:10459800504628F0AFFD394606464A46204628F0E0
:1045A800C7FD0BF1300301460293C368002B40F0AE
:1045B8002E820790504628F09DFD03460799204615
:1045C800079328F045FB249B04991A46079B1A4336
:1045D8000A4300F09883002EC0F21583249A1643EC
:1045E800049A324300F00F83002B00F36C83029B84
:1045F80008F1010688F80030B346099B434500F0EE
:104608006C83514600230A22204628F02BFB4D4597
:10461800824629464FF000034FF00A02204600F078
:10462800FB8128F01FFB4946054600230A22204645
:1046380028F018FBB0468146A4E700F0AF81069B3E
:10464800C3F10009BF4B09F00F0203EBC203DDE918
:104658000201D3E90023FBF72FFF5FEA2919CDE90F
:10466800100100F07183B84A0023CDF83CB04FF038
:104678000208AB4606460F46154619F0010F3046AC
:10468800394608D008F10108D5E90023FBF714FFE3
:104698005B4606460F465FEA690905F10805ECD155
:1046A800DDF83CB0002B7FF45DADDDE9106759E51E
:1046B800A44B03EBC20393ED007B259B002BB0EECC
:1046C800478AF0EE678A80F21382099F002F00F371
:1046D8000F82002F7FF47DAE00229C4B51EC170B0C
:1046E800FBF7EAFE02460B46DDE90201FCF760F93A
:1046F800002800F09D81099F3D466CE601465A4618
:10470800204628F03FFC249B0746012B40F34C81B0
:104718004FF000083B6907EB8303186928F034FB66
:10472800C0F12003BDE63946504628F0E3FC0028D6
:10473800BFF6DFAE514600230A22204628F092FA3F
:10474800069B824603F1FF390B9B002B40F0E48265
:10475800129B002B00F3DD82249B022B40F3D982AD
:10476800129BCDF818900993C9E69DED027B4FF096
:104778000208B0EE478AF0EE678AD8E401230B936B
:10478800259B069A134412930133012B1E46099365
:10479800B8BF01260021172E616440F3D882012298
:1047A80004235B001146013203F11400B042F8D92A
:1047B800099B61640E2B8CBF002505F0010592E46E
:1047C80001230B93259B002B40F32C811E4612934B
:1047D8000993DFE700230B93D2E700230B93F1E75C
:1047E8000F9B42465749089D01EBC3014B4651E9CF
:1047F8000201FBF761FE02460B463046394643ECA0
:10480800182BFCF709F98046FBF7ECFD0B4602462E
:104818003946304608F13008FBF796FC0F9B0646F0
:104828000F46012B05F8018B22D00F9B089ACDF873
:104838003CB013449B460022454B30463946FBF7B3
:104848003BFE89468046FCF7E7F80746FBF7CAFDBA
:104858000B46024649464046FBF776FC07F1300313
:1048680006460F4605F8013B5D45E4D1DDF83CB04E
:104878000022384B18EE100A59EC188B4946FBF702
:1048880065FC02460B4630463946FCF7A5F8002879
:1048980040F0E08118EE102A4B4600202D49FBF726
:1048A80053FC02460B4630463946FCF777F8002899
:1048B8003FF413AD2A4615F8013D302BFAD0109B72
:1048C800DDF8209001330892069393E5069B0133A7
:1048D8000693DDF820800126DDF8249002E028F018
:1048E800C1F982463946504627F05EFB4E4500F135
:1048F800300C51464FF000034FF00A02204606F1F3
:10490800010608F801CBEADB099B0026CDF808C0B0
:10491800002BCCBF9B464FF0010B089B9B44514694
:104928000122204628F07EFB3946824628F0E2FB29
:10493800002840F33E811BF8013C0BF1FF3B089A2D
:104948000FE000BF28610800006108000000144063
:10495800000024400000E03F5A4500F035811BF874
:10496800013D392B0BF10108F6D001338BF80030EB
:104978003946204628F06CF9002D00F02C81002ED5
:1049880000F0ED81AE4200F0EA8131462046DDF8C4
:10499800209028F05DF9CDF8208027E5DDE9026751
:1049A8004FF00208FFF7DEBBDDE9041200297FF4AF
:1049B800AFAEC2F31303002B7FF4AAAECA4B134069
:1049C800002B00F08D810A9B4FF0010801330A93F8
:1049D800079B013307935FE529463A46204628F0AE
:1049E800D1FA054652462046294628F029FA80463B
:1049F80051462046C24628F02BF93BE5DF1B86E4EA
:104A080029463246204628F00DFB0546ABE52046F0
:104A180028F01EF90123DEE528F024F9B046054602
:104A28008146AFE5012325930993FFF758BB00277B
:104A38003D4675E5DDE9041200297FF42BADC2F38C
:104A48001303002B7FF426ADB8E7099B002B3FF436
:104A58009AAC129D002D7FF740AC069B0022304691
:104A68003946013B1093A14BFBF726FD06460F463E
:104A780008F10100FBF7B6FC32463B46FBF71CFD8C
:104A880000229B4BFBF762FB0F958046A1F1507902
:104A9800FFF789BB0D9054E40E9A002A00F0AC8011
:104AA8000A9903F233430C9F0E46079A1A44079259
:104AB8000A461A440A9236E400212046616428F026
:104AC800A1F8069A159B0E2A0890206400F35381DA
:104AD800002BC0F250814FF0FF32864B0992069AA4
:104AE80003EBC20393ED007BB0EE478AF0EE678AD2
:104AF800DDE9026753EC182B30463946FBF706FE12
:104B0800089DFBF789FF8146FBF76CFC53EC182BDB
:104B1800FBF7D2FC0B46024639463046FBF714FB3E
:104B280009F1300305F8013B099B012B00F0AE8029
:104B380009EE10AA4FF00108DDF824B009EE904AFA
:104B48005AEC189B17E0FBF7E1FDFBF765FF0446FD
:104B5800FBF748FC4A465346FBF7AEFC0B460246B9
:104B680039463046FBF7F0FA04F13003D84505F82A
:104B7800013B00F0868000225C4BFBF79DFC002285
:104B8800002306460F46FBF7FFFE044608F101081E
:104B98004A46534630463946002CD4D019EE10AA5E
:104BA80019EE904A069BDDF820900133089506938C
:104BB80020E403D1029BDB073FF5BDAED8461BF8C6
:104BC800013D302BFAD0D3E6069A31230132069202
:104BD800089A1370CCE6DDF82090CDF8208009E41F
:104BE800DDE909239E1AFFF79EBB109B089101334C
:104BF80010933123FFF763BB149B0A990C9FC3F1F1
:104C080036030E4651E7002B11DD5146012220469E
:104C180028F008FA3946824628F06CFA002840F352
:104C28008C80029B392B67D00BF131030293029BD6
:104C38002E464D4608F8013B9AE6254619EE10AA7D
:104C480018EE104A109BDDF8209001330895069362
:104C5800FFF7D0BB0899FFF72ABB6968204627F001
:104C6800D1FF2B69064605F10C0102330C309A007E
:104C7800FCF71AF931460122204628F0D3F981467B
:104C880076E4A14619EE10AA19EE904A02460B46A0
:104C9800FBF75CFA06460F4653EC182BFBF79CFE15
:104CA80060B93046394653EC182BFBF76DFE0028E7
:104CB8003FF478AF19F0010F3FF474AF069B0899E1
:104CC8001093FFF7F4BA029B392B15D0029B2E469E
:104CD8004D46013308F8013B4AE62E464D461EE68E
:104CE8009846FFF7D9BB00BF0000F07F00002440C2
:104CF80000001C4028610800C34639232E464D4653
:104D08000BF8013B19E6029B392BF5D0002E8BDC02
:104D18008DE7129B0993DCE5294600230A222046E9
:104D280027F0A0FF129B0546002B03DC249B022BD7
:104D38003FF716AD129B099312E47FF478AF029BFC
:104D4800DA077FF574AF6CE74FF00208ADE4099B12
:104D58000E2B8CBF002505F00105FFF7C4B9DDF85F
:104D68002090CDF82080FFF741BB3FF4ACABC3F1F6
:104D78003C03FFF7E6BB00214FF0FF3225910121EC
:104D880009920B911292FFF7B3BA00BF80B588B0B1
:104D980000AFF860B9607A607B68BB61BB681B785C
:104DA800062B00F2998001A252F823F0DF4E04008E
:104DB800DF4E0400D14D04005B4E0400C14E0400D8
:104DC800CF4E0400D74E040028F0AAFF02460B4637
:104DD800434B1A6028F0B3FF0346DB0B414A1360CC
:104DE8003F4B1A68404B1B68D31AB3F5967F08D916
:104DF8003E4825F001F803461A4600213B4824F0B6
:104E080011FC0023FB610EE0BB685A68BB68996817
:104E1800FB690B44134401221946344825F01AF85B
:104E2800FB690133FB61BB68DB68FA699A42EBD323
:104E38002E492F4829F00AFC28F072FF02460B463B
:104E4800294B1A60264B1B6819462A4829F0FEFB95
:104E580042E04FF000024FF0000307F1100126482E
:104E68001DF07EFE78617B69002B0CD04323234A1A
:104E78002349244829F0EAFB234829F0E7FB43218A
:104E88001E482AF067FD3B690A221946B86928F0CE
:104E980097FF78617B69002B0CD04623174A184985
:104EA800184829F0D3FB194829F0D0FB46211348AC
:104EB8002AF050FD00BF0FE0BB68043319460E48C6
:104EC8001DF0F6FE08E0124829F0C0FB04E0114886
:104ED80029F0BCFB00E000BF00BF2037BD4680BD05
:104EE8007CBA012080BA012078BA01206CBE01206A
:104EF800C0D70700C4D7070070B10120D4D7070076
:104F0800F0D70700FCD707001CD8070038D80700DF
:104F180058D8070064D8070080B586B000AF78601D
:104F2800294A07F10C0392E803001860043319704A
:104F38004FF000024FF0000307F1080123481DF06D
:104F48000FFE78617B69002B0CD06023204A214931
:104F5800214829F07BFB214829F078FB60211C4877
:104F68002AF0F8FC7A681E49786828F0F8FE78611B
:104F78007B69002B0CD06323154A1649164829F083
:104F880065FB184829F062FB632111482AF0E2FC0E
:104F9800B96842F210730A22786828F025FF786110
:104FA8007B69002B0CD06623094A0A490A4829F074
:104FB8004DFB0D4829F04AFB662105482AF0CAFC3A
:104FC80000BF1837BD4680BDB8D8070070B10120B2
:104FD800D4D70700F0D70700FCD707006CD8070024
:104FE800954D040084D80700A0D8070080B483B08A
:104FF80000AF78607B68044A9B1ADB0818460C37B8
:10500800BD465DF8047B7047C8D6070080B586B0FA
:1050180000AF78600323002B01D100BF31E028F0F6
:10502800F5FE0346FB7500233B610323002B07D0E5
:10503800164B1B681846FFF7D9FF03469BB200E0E2
:105048000023BB823B7B012262F302033B733B7B61
:105058006FF3C5033B73BB8AC3F309039AB2BB89D9
:1050680062F38F13BB81FB7D002B05D07A6808495A
:10507800B88904F0A1FD04E0BA89796804482BF0E6
:1050880023F900BF1837BD4680BD00BF00AA012024
:10509800CCD8070080B588B000AF78607B68012B5A
:1050A80003D07B68032B0DD069E00122E821364844
:1050B8001CF0A4F8F861FB69002B5DD1334828F097
:1050C800E9FF59E0532038F0EEF803467B617B692D
:1050D800002B35D10323002B01D100BF4FE028F06E
:1050E80095FE0346FB7600233B610323002B07D084
:1050F800274B1B681846FFF779FF03469BB200E071
:1051080000233B833B7B012262F302033B733B7B1F
:105118006FF3C5033B733B8BC3F309039AB2BB8997
:1051280062F38F13BB81FB7E002B04D01949B88929
:1051380004F042FD23E0B98916482BF0B0F81EE0D0
:105148007B690222532118461CF058F8F861FB6964
:10515800002B09D14FF000024FF0000307F11401B2
:105168000D4828F0A2FFF861FB69002B06D07B6987
:10517800184638F080F801E000BF00E000BF00BF2B
:105188002037BD4680BD00BF48B30120D8B20120FA
:1051980000AA0120F0D807008CB2012080B58CB09D
:1051A80000AF894824F028FE0346002B40D08649EA
:1051B80086481BF0B5FD0346002B39D00323002B8E
:1051C80032D028F023FE034687F82F300023FB61F6
:1051D8000323002B07D07E4B1B681846FFF706FFFA
:1051E80003469BB200E00023BB853B7E012262F3AD
:1051F80002033B763B7E6FF3C5033B76BB8DC3F35F
:1052080009039AB23B8B62F38F133B8397F82F30D5
:10521800002B04D06F49388B04F0CEFC05E0398BA5
:105228006C482BF03CF800E000BF4FF0FF33C6E0BD
:10523800694824F0E1FD0346002B40D066496348E5
:105248001BF06EFD0346002B39D00323002B32D010
:1052580028F0DCFD034687F82B3000237B6103230D
:10526800002B07D05A4B1B681846FFF7BFFE0346B2
:105278009BB200E000233B853B7C012262F30203E2
:105288003B743B7C6FF3C5033B743B8DC3F309034D
:105298009AB23B8A62F38F133B8297F82B30002B2C
:1052A80004D04E49388A04F087FC05E0398A4B4817
:1052B8002AF0F5FF00E000BF4FF0FF337FE032F047
:1052C800D0FE0346002B39D00323002B32D028F020
:1052D8009DFD034687F823300023FB600323002B42
:1052E80007D03B4B1B681846FFF780FE03469BB26E
:1052F80000E000233B843B7A012262F302033B7205
:105308003B7A6FF3C5033B723B8CC3F309039AB234
:105318003B8962F38F133B8197F82330002B04D02D
:105328002F49388904F048FC05E039892C482AF0CF
:10533800B6FF00E000BF4FF0FF3340E01F2013F03E
:1053480031F80346002B39D00323002B32D028F044
:105358005DFD034687F8273000237B600323002B7D
:1053680007D01B4B1B681846FFF740FE03469BB24D
:1053780000E00023BB843B78012262F302033B7008
:105388003B786FF3C5033B70BB8CC3F309039AB238
:105398003B8862F38F133B8097F82730002B04D0AB
:1053A8001049388804F008FC05E039880D482AF0CF
:1053B80076FF00E000BF4FF0FF3300E000231846FF
:1053C8003037BD4680BD00BF14D9070034D9070067
:1053D80000AA012038D907005CD9070074D9070052
:1053E80098D90700C4D9070080B594B000AFBF486A
:1053F8001CF060F90346002B3DD00323002B36D068
:1054080028F004FD034687F833300023FB620323AA
:10541800002B07D0B64B1B681846FFF7E7FD03467D
:105428009BB200E000233B8697F82830012262F304
:10543800020387F8283097F828306FF3C50387F8F8
:1054480028303B8EC3F309039AB23B8D62F38F1366
:105458003B8597F83330002B04D0A649388D04F0EB
:10546800ABFB05E0398DA3482AF019FF00E000BF27
:105478004FF0FF3370E11F23A7F84E30B7F84E30D6
:1054880018461CF0F9F80346002B3DD00323002BE7
:1054980036D028F0BBFC034687F8373000237B6200
:1054A8000323002B07D0924B1B681846FFF79EFD7D
:1054B80003469BB200E00023BB8697F82030012208
:1054C80062F3020387F8203097F820306FF3C503A2
:1054D80087F82030BB8EC3F309039AB23B8C62F382
:1054E8008F133B8497F83730002B04D08249388CCF
:1054F80004F062FB05E0398C7F482AF0D0FE00E01A
:1055080000BF4FF0FF3327E1012387F84D3097F8AC
:105518004D3018461CF056F80346002B39D00323AB
:10552800002B32D028F072FC034687F83B3000236A
:10553800FB610323002B07D06D4B1B681846FFF750
:1055480055FD03469BB200E000233B873B7E0122CA
:1055580062F302033B763B7E6FF3C5033B763B8FDA
:10556800C3F309039AB23B8B62F38F133B8397F81B
:105578003B30002B04D06149388B04F01DFB05E05B
:10558800398B5E482AF08BFE00E000BF4FF0FF33F6
:10559800E2E00023A7F84A300123A7F848301E2389
:1055A800A7F84A306423A7F84830B7F84A301846B5
:1055B8001CF044F80346002B39D00323002B32D0CB
:1055C80028F024FC034687F83F3000237B6103233F
:1055D800002B07D0464B1B681846FFF707FD03460C
:1055E8009BB200E00023BB873B7C012262F30203ED
:1055F8003B743B7C6FF3C5033B74BB8FC3F3090358
:105608009AB23B8A62F38F133B8297F83F30002BA4
:1056180004D03B49388A04F0CFFA05E0398A384883
:105628002AF03DFE00E000BF4FF0FF3394E0B7F8EA
:10563800483018461BF0E4FF0346002B3BD00323F9
:10564800002B34D028F0E2FB034687F843300023D0
:10565800FB600323002B07D0254B1B681846FFF778
:10566800C5FC03469BB200E00023A7F840303B7A14
:10567800012262F302033B723B7A6FF3C5033B726C
:10568800B7F84030C3F309039AB23B8962F38F132A
:105698003B8197F84330002B04D01A49388904F02D
:1056A8008BFA05E0398917482AF0F9FD00E000BFB8
:1056B8004FF0FF3350E01BF031FF0346002B4AD078
:1056C8000323002B43D028F0A1FB034687F847307B
:1056D80000237B600323002B16D0054B1B6818465C
:1056E800FFF784FC03469BB20FE000BF9D50040007
:1056F80000AA0120DCD9070000DA070020DA070039
:105708003CDA07005CDA07000023A7F844303B784E
:10571800012262F302033B703B786FF3C5033B70D1
:10572800B7F84430C3F309039AB23B8862F38F1386
:105738003B8097F84730002B04D00949388804F09B
:105748003BFA05E0398806482AF0A9FD00E000BFC9
:105758004FF0FF3300E0002318465037BD4680BDA8
:105768007CDA070080B483B000AF78607B6893F878
:105778003820274B1B789A4219D17B6893F8392037
:10578800244B1B789A4212D17B6893F83A20224B1B
:105798001B789A420BD1214AD3686FF35233D360F6
:1057A8001E4A136A6FF352331362002329E07B68A1
:1057B800D3E900231A49C1E900237B68D3E902230E
:1057C8001849C1E900237B6893F83820104B1A70F8
:1057D8007B6893F839200F4B1A707B6893F83A204E
:1057E8000D4B1A707B689A8E0F4B1A807B6893F862
:1057F80036200E4B1A707B6893F837200C4B1A70C2
:10580800012318460C37BD465DF8047B704700BF7E
:105818008D3702208E3702208F37022004AA0120FC
:1058280038B3012040B301207C3702209037022092
:105838009137022080B58CB000AF0323022B32D9F8
:1058480028F0E4FA034687F82F300023FB6103238E
:10585800002B07D0784B1B681846FFF7C7FB034699
:105868009BB200E00023BB853B7E032262F3020368
:105878003B763B7E6FF3C5033B76BB8DC3F30903D1
:105888009AB23B8B62F38F133B8397F82F30002B30
:1058980004D06A49388B04F08FF905E0398B6748E2
:1058A8002AF0FDFC00E000BFFFF778FC0346002B60
:1058B80039D00323002B32D028F0A8FA034687F802
:1058C800233000237B610323002B07D05A4B1B682E
:1058D8001846FFF78BFB03469BB200E000233B848E
:1058E8003B7C012262F302033B743B7C6FF3C503EC
:1058F8003B743B8CC3F309039AB23B8A62F38F1360
:105908003B8297F82330002B04D04D49388A04F0A5
:1059180053F905E0398A4A482AF0C1FC00E000BF83
:105928004FF0FF3384E028F0F6FB0346002B39D014
:105938000323002B32D028F069FA034687F8273072
:105948000023FB600323002B07D03B4B1B68184642
:10595800FFF74CFB03469BB200E00023BB843B7A75
:10596800012262F302033B723B7A6FF3C5033B7279
:10597800BB8CC3F309039AB23B8962F38F133B8153
:1059880097F82730002B04D02E49388904F014F9F1
:1059980005E039892B482AF082FC00E000BF4FF06F
:1059A800FF3345E0FFF720FD0346002B39D00323E2
:1059B800002B32D028F02AFA034687F82B30002330
:1059C8007B600323002B07D01B4B1B681846FFF78F
:1059D8000DFB03469BB200E000233B853B78012288
:1059E80062F302033B703B786FF3C5033B703B8D5A
:1059F800C3F309039AB23B8862F38F133B8097F88D
:105A08002B30002B04D01049388804F0D5F805E075
:105A180039880D482AF043FC00E000BF4FF0FF33FF
:105A280006E028F01FFB02460B460849C1E900239F
:105A380018463037BD4680BD00AA0120BCDA0700F1
:105A4800D4DA0700F0DA07000CDB070030B30120D6
:105A5800B0B500AF4FF0FF324FF0FF3302214E4890
:105A680028F047FB4C4BDB6803F4FC23B3F5804F6D
:105A780069D128F05CFB034683F00103DBB2002BFD
:105A880061D0464B93F8503003F00803002B02D046
:105A9800434828F0DBFD414B93F8503003F01003E6
:105AA800002B02D03F4828F0D1FD3C4B93F85030F2
:105AB80003F00403002B02D03B4828F0C7FD374B06
:105AC80093F8503003F00103002B0DD028F0CAFAE8
