:020000040004F6
:10000000A031022039260400037F04000D260400DD
:100010000D2604000D2604000D2604000D26040004
:10002000000000000000000000000000B5200400F7
:100030000D26040000000000552004000D260400D9
:100040003921040039210400392104003921040038
:100050003921040039210400392104003921040028
:100060003921040039210400392104003921040018
:100070003921040039210400392104003921040008
:1000800039210400392104003921040039210400F8
:1000900039210400392104003921040039210400E8
:1000A00039210400392104003921040039210400D8
:1000B000F5390400392104003921040039210400F4
:1000C00039210400392104003921040039210400B8
:1000D00039210400392104003921040039210400A8
:1000E0003921040039210400392104003921040098
:1000F0003921040039210400392104003921040088
:100100003921040039210400392104003921040077
:100110003921040039210400392104003921040067
:100120003921040039210400392104003921040057
:100130003921040039210400392104003921040047
:100140003921040053B94AB9002908BF00281CBF4F
:100150004FF0FF314FF0FF3000F070B9ADF1080CF7
:100160006DE904CE00F006F8DDF804E0DDE90223D5
:1001700004B070472DE9F047089E0D4604468A46B4
:10018000002B7FD18A42174641D9B2FA82F24AB196
:10019000C2F1200105FA02F39740944020FA01F1E0
:1001A00041EA030A4FEA17484FEA144C1FFA87F94D
:1001B000BAFBF8FE08FB1EA30EFB09F14CEA034351
:1001C000994206D9FB1802D2994200F224810EF11D
:1001D000FF3E591AA3B2B1FBF8F008FB101100FB67
:1001E00009F943EA0144A14505D93C1902D2A145C8
:1001F00000F20E810138A4EB090440EA0E40002110
:100200001EB1D4400023C6E90043BDE8F08702B91F
:10021000FFDEB2FA82F2002A4FD1CB1B4FEA174E13
:100220001FFA87F80121250CB3FBFEFC0EFB1C30E6
:100230002B4608FB0CF945EA0045A9450AD97D196A
:100240002CBF01230023A94502D9002B00F0D9803F
:100250000CF1FF3CA5EB0905A3B2B5FBFEF00EFBCC
:10026000105508FB00F843EA0544A04505D93C19A0
:1002700002D2A04500F2C9800138A4EB080440EA8C
:100280000C40BDE78B4208D9002E00F0B180002160
:10029000C6E900050846BDE8F087B3FA83F10029F6
:1002A00046D1AB42C0F0A780824240F2A48008460B
:1002B000002EAAD0C6E9004AA7E7C2F12000974065
:1002C00001FA02F34FEA174EC14024FA00F51FFA73
:1002D00087F894401D43B1FBFEF02B0C0EFB101170
:1002E00000FB08FC43EA01439C4509D9FB182CBFDD
:1002F000012100219C4502D9002900F09580013898
:10030000A3EB0C03ADB2B3FBFEF10EFB113301FB0B
:1003100008FC45EA0345AC4505D97D1902D2AC4538
:1003200000F289800139A5EB0C0341EA00417AE72C
:10033000C1F120048B4002FA01F705FA01FCE2400A
:1003400020FA04F8E54000FA01FE134348EA0C02E3
:100350004FEA13484FEA124C1FFA83F9B5FBF8FA3B
:1003600008FB1A550AFB09F04CEA054C60450AD90E
:1003700013EB0C0C2CBF01250025604501D9002D85
:1003800055D00AF1FF3AACEB000C92B2BCFBF8F08E
:1003900008FB10CC00FB09F942EA0C4CE14505D9F9
:1003A00013EB0C0C01D2E1453BD8013840EA0A407E
:1003B000ACEB090CA0FB0789CC4545464A4602D365
:1003C00006D1C64504D20138B8EB070569EB030234
:1003D0002EB3BEEB05036CEB020C23FA01F20CFA10
:1003E00004F42CFA01F300211443C6E900430CE79E
:1003F0003146304609E7841A65EB030301209A462B
:1004000056E7ACF1020C3D4424E702383C4434E7A3
:1004100002383C44EFE6AEF1020E3B44D9E63146E9
:10042000F3E602389C44C1E702383B4468E7AAF18E
:10043000020A9C44A7E702393D4474E7704700BFB5
:10044000F0B5114A8DB01068516801AB03C3118932
:10045000927A19809A700B2104AA01A806F0B2FEC4
:1004600020250A4E0A4F04AC14F8011B0F2994BF33
:100470003846304602F02AFB013DF5D1054802F02E
:1004800025FB28460DB0F0BD8C8F0400898F040039
:10049000888F0400919004002DE9F04FA0F1080A24
:1004A000534699B0083900F1800653F8084F51F8C7
:1004B000087F5A684D687C406A409E42C3E900420A
:1004C000F3D14FF0180B8F4B019300F1C00302934F
:1004D00000F1C80303935146002704AB052451F8EB
:1004E000086F4D68C3E90065083301EBC40C51F88F
:1004F0003420DCF804C00534192C86EA020685EAAB
:100500000C05F2D10137052F43E90265E6D10EACA7
:10051000214601224FF0050CB2FBFCF303EB8303F1
:10052000D31A18AD05EBC30353E914577E0046EA0E
:10053000D5766B00D51C43EAD773B5FBFCF707EB08
:100540008707ED1B18AF07EBC505013255E9147598
:10055000062A83EA070386EA0506C1E9003601F1A7
:100560000801D7D10025D4E900C70026083400EBE4
:10057000C5010136D1E90023052E82EA0C0283EA87
:100580000703C1E9002301F12801F2D10135052D4E
:10059000E9D10446DFF874E154F8082F1EF8013B56
:1005A0006568A3F1200702FA07F7C3F1200605FAF0
:1005B00003F122FA06F63943314302FA03F65B42AD
:1005C00003F03F03C3F1200CA3F12007DA4005FA42
:1005D0000CFC25FA03F3194342EA0C02029B25FAAC
:1005E00007F73A433243A342C4E90021D4D10121A1
:1005F000D0E90223444F3E467C7836780131C9B2B7
:1006000000EBC40400EBC6061829D4E9004507F145
:100610000107C6E90045EED1C0E914230346D3E93A
:100620000212D3E90076D3E906EC1C6924EA01053D
:100630005C697D4024EA02047440C3E900541C69EB
:100640002EEA04055C694D402CEA04045440C3E9D9
:100650000254D3E9085424EA0C0800941C6925EAE2
:100660000E0989EA04095C6922EA060288EA04089C
:10067000009CC3E9049821EA070127EA050926EA54
:10068000040889EA0E0E544088EA0C0C039A4D4087
:10069000C3E906ECC3E9085428339A42BFD1019B51
:1006A00013F8012B12F0400116BF00210C464FF049
:1006B000004412F0200F18BF4FF000410193D30601
:1006C00048BF41F40041170748BF41F08001560779
:1006D00048BF41F00801950748BF41F00201D30728
:1006E00048BF41F00101D0E9002363404A40C0E91E
:1006F00000230BF1FF3313F0FF0B7FF4ECAE19B0C6
:10070000BDE8F08F988F0400B08F0400C88F0400FC
:100710000B6801330B60014B1B68184700A50120D3
:10072000014B1860704700BF00A5012007B50B46BC
:10073000002102460191034801A900F0FFF803B02F
:100740005DF804FB1107040030B5002585B0CDE944
:100750000101044601A90548039500F0EFF8DDE921
:1007600002309842B8BF255405B030BD177304005D
:100770002DE9F84FB0F81890044619F00808934690
:100780000DD001290CBF49F0100949F02009A0F84B
:1007900018908BF31188BFF36F8FBDE8F88F09F0C5
:1007A0000709022907D1204606F0E2FD0028F0D013
:1007B0000128238B50D16769218B002F15DA25681A
:1007C00021F00701C4E9008841F0010121830026DE
:1007D000218B01F0070ACA4502D0A368002B5CD127
:1007E0000DB9002E74D0002358E001F007035A1F02
:1007F000012A20D821F00701062B256889B2C4E917
:1008000000880CD1002D2B4638BF00232BB1628B02
:100810001B6801326283002BF8D141F002012046AF
:10082000218306F0A5FD06460028D1D0238B43F096
:1008300020032383CBE7042B0CD121F0070189B2DD
:100840002046218306F094FD05460028BFD041F0E4
:10085000200121830025BAE7032809D1226923F06A
:100860000703166843F00603002523832F46AFE7EE
:10087000042806D1226923F00703566843F00403D5
:10088000F2E7052806D1226923F00703966843F0B2
:100890000503E9E700252E46E8E7012341F00801BA
:1008A00021838BF31188BFF36F8F03BB002D33D1EE
:1008B00016B120462049B0474FF02003EFF3118BCB
:1008C00083F31288BFF36F8F238B23F008032383F6
:1008D000238BDA0628D5012123F010032383B4F8F3
:1008E000189009F0070900297FF45BAF51E7A16870
:1008F0000029DBD00B68002B38BF002399465246F5
:100900003B462046D1F804B0D847B9F1000FCDD00E
:100910004946D9F80030EEE729463B465246204684
:100920002D6806F041FDC1E713F020011EBF23F042
:10093000200302212383D2E7D57304002DE9F04F71
:100940008B4692461C46002591B002909AF8000012
:1009500008B928465EE325280AF1010707D0594661
:10096000029B98470028C0F25583013510E21822F7
:1009700000210AA807F043FB9AF80130252B78D014
:1009800000229446164696461046394617F8013B13
:100990002B2B00F09D8000F29480202B00F09B8098
:1009A000232B00F09A8028B19DF8300040F004001D
:1009B0008DF83000BEF1000F05D09DF8300040F0FA
:1009C00008008DF830002EB19DF8300040F0100086
:1009D0008DF83000BCF1000F05D09DF8300040F0DC
:1009E00020008DF830002AB19DF8302042F04002FE
:1009F0008DF830209DF8302002F04400442803D1C7
:100A00006FF386128DF830209DF830202A2B42F0AB
:100A100080028DF830207BD19DF831204B1C42F0B4
:100A200001028DF831201A782E2A0CBF01210021F5
:100A30009DF8312061F341028DF8312074D15A784C
:100A40002A2A6AD000210A260133184610F8012B01
:100A5000A2F13007092F40F28E809DF830200E91D0
:100A6000C2F3400040EAD17161F341028DF83020B9
:100A70005AE00AF102078DF833309DF83130D9077A
:100A800040F1498154F8049BB9F1000F07DA9DF851
:100A90003020C9F1000942F004028DF830205A07D5
:100AA00040F1428154F8048BB8F1000F80F241818B
:100AB0009DF831306FF341038DF831304FF0FF383E
:100AC00037E12D2B0CD0302B7FF46DAF01225CE78A
:100AD0004FF0010E59E7012657E74FF0010C54E79C
:100AE000012052E733460CFB0202303A1E4616F84C
:100AF000010BA0F13007092FF4D9994293D09DF84A
:100B000030100D92D20F62F341018DF830108AE758
:100B10000B4600224FF00A0CE8E79DF83120023323
:100B200042F004028DF831201F4617F8012B6C2A81
:100B300041D025D8682A2BD06A2A46D04C2A4CD0DE
:100B40001F4617F8012B9DF83130782A8DF8332095
:100B500000F2D980572A4DD8412A03D0453A022ABB
:100B600000F2D18004229DF8323062F302038DF846
:100B7000323001239EE006FB01210346303964E751
:100B8000742A26D07A2ADBD106229DF831300DE076
:100B90005A78682A9DF8312006D1012161F3C602F6
:100BA0008DF831209F1CCCE71346022262F3C60366
:100BB0008DF83130C5E75A786C2A9DF8312001D183
:100BC0000421EBE713460322F0E705229DF83130BC
:100BD000ECE707229DF83130E8E7BDF8303023F428
:100BE000F04323F0020343F4804343F00203ADF8E3
:100BF0003030A6E7A2F15801202900F2848001A03C
:100C000050F821F0C90C0400070D0400070D040082
:100C1000070D0400070D0400070D0400070D040074
:100C2000070D0400070D0400650B0400070D040008
:100C3000C90C0400890C0400650B0400650B04005A
:100C4000650B0400070D0400890C0400070D040067
:100C5000070D0400070D0400070D0400D10C04006B
:100C6000C90C0400ED0C0400070D0400070D04007E
:100C7000ED0C0400070D0400C90C0400070D04006E
:100C8000070D0400C90C040001209DF8321003F088
:100C9000780360F30201402B8DF8321002BF9DF8FB
:100CA000301041F001018DF83010632A31D1003B42
:100CB00018BF01239DF83020C2F340010B4363F3BA
:100CC00041028DF83020D8E602209DF83210DEE790
:100CD00003219DF8322003F07803A3F1400061F373
:100CE000020243428DF832204341E3E703219DF89D
:100CF000322013F0780F61F3020214BF01230023A6
:100D00008DF83220D6E79DF8303043F001038DF89E
:100D100030300023CEE79DF93020002AACBF4FF0E1
:100D2000FF39DDF83490BAE69B077FF5C7AEDDF8F2
:100D300038800023CDE90D339DF832309DF8312005
:100D400003F00703012BC2F3C30236D1D31E042BD9
:100D500020D8DFE803F00307071F1F0054F8040B37
:100D6000C11704E0073424F00704F4E80201CDE9D8
:100D70000A019DF8303013F0030654D03B4652462A
:100D80005946029806F0B9FD0028C0F24381054497
:100D9000BA46DBE554F8040B012A4FEAE071CDE9CD
:100DA0000A0105D19DF828300A9300230B93E0E750
:100DB000022ADED1BDF92800D2E7022B23D1D31EAF
:100DC000042B13D8DFE803F0030A0A1212000021F3
:100DD0002068231D0A900B911C46CAE7073424F0B3
:100DE0000703F3E80201CDE90A01F5E754F8043BF3
:100DF000012A0A934FF000030B93D3D0022AB8D1F3
:100E0000BDF82830D0E7042B07D1073424F00704BD
:100E1000F4E80201CDE90A01ABE7032B04BF54F863
:100E2000043B0A93A5E79DF833007828B0D86228E0
:100E300022D825283FF493AD5828A9D1DDE90A012D
:100E40000DF1260300930CAA04AB06F00BFD8246BD
:100E5000B8F1000F0DF126000CDB9DF83020A0EB5F
:100E60000A036FF3861298458DF8302002D9A8EB5B
:100E700003030D9380463DE06338152888D801A10F
:100E800051F820F0050F0400690F0400910D0400D3
:100E9000910D0400910D0400910D0400690F0400F0
:100EA000910D0400910D0400910D0400910D0400BA
:100EB000C70F0400950F0400990F0400910D040062
:100EC000910D0400DD0E0400910D0400950F040047
:100ED000910D0400910D0400950F0400B8F1000F6E
:100EE000DDF828A00ADB4146504607F074F80026DA
:100EF0000AEB0008BAF1000F0CD149E7504607F0A1
:100F000063F8F4E700260A9B0DF111088DF8103004
:100F10000DF1100AA8EB0A0306B101339DF8322047
:100F2000D0066BD5023352060D9948BF0E9A0B447A
:100F300048BF9B18B9F1000F79DD9DF83020A9EB6F
:100F40000309C2F380030393530770D4500664D59A
:100F500046B159463046029B984700285ADB039B0E
:100F600001351E46302359E01E0711D413F0100638
:100F700018BF2026DDE90A23002A73F10001BFF61D
:100F80005DAF524263EB43032D26CDE90A2355E7BB
:100F90002B26EFE7002651E70A9848B30DF1260308
:100FA0000093002104AB0CAA06F05CFCBDF83230C3
:100FB000824603F0EF0343F4F04343F010030026AE
:100FC000ADF8323044E70A9B072A3FF6E1AEDFE88E
:100FD00002F00D04060D08080D0D1D70D8E61D80E9
:100FE000D6E62846E917C3E90001D1E61D60CFE641
:100FF000DFF8C4800646A8F1050A8BE7110748BF51
:10100000013390E7184603935946029B98470028FE
:10101000039B04DA11B0BDE8F08F20234D444A460B
:10102000002AA5EB090109F1FF39EBDC0D4636B1C9
:1010300059463046029B98470028EBDB01359DF866
:101040003230D90601D41A0706D559463020029B02
:1010500098470028DEDB01359DF83230DB0607D5E6
:1010600059469DF83300029B98470028D2DB013592
:101070000D9E2E44731B002B16DC434652465946E8
:10108000029806F03AFC0028C4DB0544A944A9EB09
:101090000503002B7FF77CAE59462020029B984722
:1010A0000028B7DB0135F2E759463020029B98470C
:1010B0000028AFDB0135DDE7E58F04004FF02002AB
:1010C000EFF3118382F31288BFF36F8F0121044A7B
:1010D000C2F8401583F31188BFF36F8F002070476B
:1010E0000090034020B1034B800143F001031847F7
:1010F000704700BFA08D040030B5002289B00F49B1
:101100000F4807F067FC002200230024CDE90623E6
:101110000E230C4DCDE903344FF440722846CDE93F
:101120000144094B0949009405F018F9084928467B
:1011300007F0CCFA204609B030BD00BF55110400BD
:10114000F0A5012028A6012035150400A00A0220E0
:10115000EA8F0400014805F04FBA00BFE0A5012066
:1011600000230C4A10B513700B4A4FF40040136073
:101170000A4B0B4A1A6000F0B5FC00F055FA09481A
:1011800006F0F0FBBDE8104004232822064907487A
:1011900007F052BA43AD0120ECA7012004A50120BD
:1011A000A3790400F4A70120E03A0220FCA7012063
:1011B00070B5104BD3E8EF5F6A1CC3E8E12F00293C
:1011C000F8D12DB90C4C0D4E361B3611B54200DB53
:1011D00070BD237B53B123689B690BB120469847B0
:1011E000636804222046196800F010FA01351034B3
:1011F000ECE700BFF0A70120608D0400808D0400A3
:1012000010B54FF02003EFF3118483F31288BFF37E
:101210006F8F044806F0B6FB84F31188BFF36F8F1D
:1012200010BD00BFF4A7012010B5044C227812B9FC
:10123000034805F0E1F90123237010BD42AD012000
:10124000E0A50120084BD3E8EF2F0132C3E8E12FDE
:101250000029F8D1054BD3E8EF2F013AC3E8E12F7D
:101260000029F8D1704700BFECA70120E8A70120B2
:1012700000200246034BD3E8EF0FC3E8E12F00291B
:10128000F9D17047ECA70120F8B5FFF7F1FF002670
:101290000746094C094D2D1B2D11AE4200DBF8BD50
:1012A00063685B792BB123681B6913B1394620460B
:1012B000984701361034F0E7608D0400808D0400FB
:1012C000144B37B59842044602D3134B98421CD3B3
:1012D00000220023114801A904F0E0FF0546B8B937
:1012E0000122019BD3E8EF1FC3E8E02F0028F9D1CA
:1012F000019821461F22043006F053FE7E23019CF4
:1013000084F8233084F824500434204603B030BDE0
:10131000034CFAE7388A0400DC970400FCA701209C
:10132000F28F040048B1054B984205D3A033984290
:101330002CBF00200120704700207047E03A0220B7
:10134000414B2DE9F74F1B78044603B9A0B1FFF7D5
:1013500057FF054618B19CB1284606F01FFC2CB972
:101360003A4B1B68002B01DDFFF78EFF384806F073
:1013700007FB041E18BF0124204603B0BDE8F08F10
:10138000344BD3E8EF2F013AC3E8E12F0029F8D11D
:10139000314B1B78BBB92B7ADB0714D406F00DFC5C
:1013A0008046284606F0D8FB0146404606F0FDFA86
:1013B00006462A4B2A4ADFF8BCA09B1ADFF8B8B0D1
:1013C0004FEAD30936B9274E274F4FF00008BF1B0D
:1013D0003F1136E0B6FA86F7C7F11F0739462846AF
:1013E00006F0BDFB214B0246984202D3204B9842A7
:1013F00016D31046FFF796FF90B9524510D0698971
:10140000C1F3891100F0F4F84FEA891343F00103A6
:101410000246ADF8003039464346584606F01FFBF9
:10142000012303FA07F726EA0706CBE773685B791F
:1014300023B13368294630465B68984708F10108B4
:101440001036B845F2DB87E742AD0120ECA701205A
:10145000F4A70120E8A7012043AD0120208D04005E
:10146000108D0400608D0400808D0400388A040013
:10147000DC970400F28F04000C900400264B37B573
:101480001B68418104469847E0604FF02003EFF36A
:10149000118583F31288BFF36F8F2048214606F031
:1014A00065FA85F31188BFF36F8F1D4BD3E8EF2FDB
:1014B000511CC3E8E01F0028F8D11A4B1B7883B1F8
:1014C0004FF02003EFF3118483F31288BFF36F8F83
:1014D0000020FFF735FF84F31188BFF36F8F03B04F
:1014E00030BD114B1B68002BF9D052B900220023EC
:1014F0000E48CDE900234FF47A72002305F0C8FDB1
:10150000EDE70A2AEBD1094807F070FA084803B062
:10151000BDE8304005F070B804A50120F4A7012013
:10152000E8A7012043AD012018A80120F0A5012063
:10153000E0A5012010B5FFF73BFE05F097FB0C4B33
:10154000186030B10B4B1B68092B02DD0A4805F00F
:1015500053F8094C0020FFF7F3FE0028FAD14FF0B2
:10156000FF324FF0FF33204605F066F8F2E700BF88
:1015700018A80120E8A70120E0A50120F8B50E4F2A
:101580003D7875B9FFF714FE0C4C0D4E361B361125
:10159000B54207DB0020FFF7D3FE0028FAD1012374
:1015A0003B70F8BD63685B791BB1236820465B69BB
:1015B000984701351034EBE743AD0120608D0400FE
:1015C000808D040007B504380190D0E8EF3F5A1E23
:1015D000C0E8E12F0029F8D1012B03D1034801A96C
:1015E00007F045F803B05DF804FB00BFFCA701203D
:1015F000044A054B9B1AB1EBD30F34BF52F83100AC
:1016000000207047108D0400608D0400054B426877
:10161000C31A1B11013313710122436819605A71F7
:10162000FFF702BE608D04004FF4F07320220249E0
:10163000024807F001B800BF803B02201CA801202F
:10164000002337B5094D01930120FFF779FE0446C9
:10165000FFF7F8FD00220023284601A904F01EFE32
:1016600008B1002CF0D1019803B030BD1CA80120B6
:10167000002307B5002201930648002301A904F0C6
:101680000DFE10B1FFF7DCFF0190019803B05DF88B
:1016900004FB00BF1CA80120F0B5037A457A85B091
:1016A0000190D8074FEA15151CD4DDB10024264659
:1016B0003146019806F053FA0746FFF733FE70B142
:1016C00034B9019B2946186906F06FF9044648B100
:1016D00024FA06F3D90702D53846FFF773FF01361F
:1016E000AE42E5D3019B1A7A920704D55B69084C98
:1016F0000393039B2BB9064801A906F0B8FF05B078
:10170000F0BD1D68204603A906F0B1FF0395F0E780
:101710001CA801200EB403B503AB53F8042B0146FB
:1017200004480193FFF70AF902B05DF804EB03B037
:10173000704700BFBB7E04002DE9F04F1F4687B005
:1017400001F001030592064688469DF84090BDF9D8
:1017500048A001F0020B049301F0080506F09BF984
:101760000246002844D030463849FFF7D3FF0446EC
:10177000BBF1000F08D018F0440F3BD13A46304679
:101780003349FFF7C7FF0444049B53B1314B304644
:1017900053F82920304B3149002A08BF1A46FFF779
:1017A000B9FF3DB12E4B304653F829202D49FFF7A4
:1017B000B1FF0546BAF1000F16DB059B002B43D0A5
:1017C000012303FA09F9284B19F0100F274F18BF0E
:1017D0001F4651469DF84400FFF70AFF394602466E
:1017E0003046FFF797FF0544281907B0BDE8F08F92
:1017F0000446BDE71E4B18680028C4D01D4B4FF4AB
:10180000616C19684FF03C0EB7FBF1F7B7FBF0F1D4
:10181000B1FBFCF200FB11770CFB121C4FF47A7148
:101820004F43B7FBF0F800FB1877BCFBFEF34F43C8
:10183000B7FBF0F00EFB13C1CDE9018000913046FB
:101840000D49FFF767FF9EE7084FC2E75E9004006F
:1018500062900400A88D040050900400879004005A
:10186000BC8D04008A9004005A9004005590040036
:1018700038A801203CA801206B90040038B50C4624
:10188000E107054603D5084A0849FFF743FFE2068A
:1018900008D4A3062846BDE838404CBF0449054992
:1018A000FFF738BF38BD00BF509004008790040098
:1018B00091900400909004002DE9F0471D46089B8C
:1018C0001746DA0604460E4605D499064CBF2A4947
:1018D0002A49FFF71FFF4FF00008DFF8A890A8453E
:1018E0002ADB0025DFF8A080DFF8A090DFF894A0C5
:1018F000BD422FD249462046725DFFF70BFF0135EE
:10190000102D20D120461E49FFF704FF0025DFF8E7
:101910007480DFF87C90AF4228D9725D4946A2F10D
:1019200020035F2B28BF2E222046FFF7F3FE013550
:10193000102D14D1BDE8F08749462046FFF7EAFE96
:1019400008F10108CBE76A07D2D151462046FFF7DC
:10195000E1FECDE741462046FFF7DCFECFE76B070F
:10196000D9D141462046FFF7D5FED4E7414620466F
:10197000FFF7D0FEDBE700BF9190040090900400D9
:101980009D9004009B9004009990040093900400A3
:101990009F9004002DE9F0478B7A174613F0070853
:1019A00005460E460A7A8AB021D0D2434989C3F34C
:1019B000C203C1F38911CDE900830291F36839466E
:1019C00002F00102FFF7B8FE8146347AE44314F0D6
:1019D00001040ED02946304606F005F9B8F1000F93
:1019E0002BD0424639462846FFF748FF25E0C1463E
:1019F000EBE7B8F1000F26D12746EB6806AA06935D
:101A000030463B46A96806F0DAF8069A6B681A6019
:101A10003AB1AB68134413F8014CA4F10A035C42D9
:101A20005C41284606F03CFA069B1F44002BE4D19B
:101A30001CB128461349FFF76DFE284606F030FA20
:101A40000AB0BDE8F087304606F0B7F80E49024606
:101A50002846FFF75FFE4FF0100A05AA23463046DE
:101A600006A9CDF814A006F0AAF8059A002AB8D065
:101A70004B462846009706A9FFF71EFF059B1C440E
:101A8000EBE700BFA29004008790040042F20F73BE
:101A900073B58B4228BF0B4605680446052168468E
:101AA0000D4A05F058FC0646636828460B225B6821
:101AB0000A4906F08BF863683246694628465B6837
:101AC00006F084F863681B2228465B68044906F028
:101AD0007DF802B070BD00BF19970400E0900400CB
:101AE000C490040001230021074A10B5074C13607D
:101AF000A04204D801B11360054B186010BD01214C
:101B000040085B00F4E700BF3CA8012040420F0002
:101B100038A80120F8B50D460446064F4618B442D1
:101B200001D12846F8BD386814F8011B83685B684A
:101B30009847F4E754A80120014B024A1A60704705
:101B400054A80120F08A04000122024B02481A70B6
:101B500006F0A6B944AD0120EC8D04000148FFF762
:101B600095BF00BFEC8D040010B50C46084605F08B
:101B7000EAFF214604480F22FFF70CFF2046BDE88C
:101B8000104006F00BB800BFEC8D04000122014BA1
:101B90001A70704756AD01200122024B02481A709C
:101BA00006F07EB957AD0120188E04000148FFF7FA
:101BB0006DBF00BF188E040010B50C46084605F036
:101BC000C2FF214604480F22FFF7E4FE2046BDE88D
:101BD000104005F0E3BF00BF188E0400054B1B78D2
:101BE0001BB141F2883006F0C8BE0520002105F087
:101BF00029B800BF57AD01202DE9F84FDFF89490C8
:101C000080460F460424CB46DFF88CA099F800509C
:101C1000CDB94FF0FF334FF0FF32504604F028FCAF
:101C20003A464146284602F051FD0646504604F029
:101C30009DFC174DFEB101232B709BF800306BB952
:101C40003846BDE8F88F3A464146002002F03EFD96
:101C50000646EEE75CB92C704FF0FF34002002F02E
:101C600081FD0028ECD02B78002BF3D1E8E7013C74
:101C7000FFF7B4FFF2E72B7813B1013C04D12C70CD
:101C80002B78002BC2D1DBE7FFF7A8FFF8E700BFF6
:101C900056AD012057AD0120B8A501202DE9F8432C
:101CA00005464FF02003EFF3118683F31288BFF34C
:101CB0006F8F104B1C68002C38BF00249CB14FF074
:101CC0000C090D4FDFF83480D4E90132002D08BF34
:101CD00013462BB198F8142009FB02F2B85C984720
:101CE0002468002CF0D186F31188BFF36F8FBDE814
:101CF000F88300BF6CA8012078A80120FCAC01206B
:101D0000012200F01F039A40084B400903EB8000BA
:101D1000D0E8EF3F43EA0201C0E8EC1FBCF1000F3E
:101D2000F6D11A4214BF01200020704784A8012078
:101D3000012230B51A4B85B01D7D05F01F039A4076
:101D4000D043184B690903EB8103D3E8EF1F01EA85
:101D50000004C3E8EC4FBCF1000FF6D1114217D0DC
:101D60000C22114C01AB02FB054207CA83E80700B5
:101D70000E4A7AB193E8070005F0E9FD0020FFF76D
:101D80008DFF0C2300226B43E118E250C1E90122D0
:101D900005B030BD82F31188BFF36F8FEEE700BF4F
:101DA000FCAC012074A8012078A801204F79040020
:101DB0002DE9F041394B05461C7D88B02046FFF7E0
:101DC0009FFF374E60B90C27E84607FB04672A4699
:101DD0002146404606F088F898E8070087E80700A3
:101DE0000C236343F05CF218670904F01F08002815
:101DF0003BD06B1C14D040F2E73000219368C01830
:101E000041F10001012908BF002841D203F2E73067
:101E10004FF47A73B0FBF3F00121281A06F08DFD20
:101E200004F080FC0120FFF739FF01221D4B02FA6C
:101E300008F203EB8703D3E8EF1F1143C3E8E01F69
:101E40000028F8D10C2303FB046405AB94E80700D9
:101E500083E80700144A1AB193E8070005F064FD0F
:101E6000FFF766FF04F038FE0120012303FA08F8AB
:101E70006FEA08080D4B03EB8707D7E8EF3F03EA4B
:101E80000803C7E8E23F002AF7D108B0BDE8F081B7
:101E90004FF47A720023FEF755F9BDE7FCAC012040
:101EA00078A8012074A801202979040084A80120C1
:101EB000014910220A60704710ED00E072B6404000
:101EC00080F31188BFF36F8FBFF34F8F30BF62B6BF
:101ED000BFF36F8F704700BF72B6494081F311881E
:101EE00020BF80F3118862B6704700BF73B5064605
:101EF0000C4601B3134B144D1448ED1AED08AD0117
:101F000045F00105ADF80050D1E90123096805F05D
:101F1000A6FDADF80050D4E90423E1680C4805F0B3
:101F20009EFD2A46E1690B4805F06CFD2A46A16931
:101F3000094805F067FD2146304602B0BDE8704013
:101F400004F054B8108D0400408D04001991040071
:101F500048910400779104008691040043B2002B5D
:101F600008DB012200F01F0002FA00F0024A5B09C0
:101F700042F82300704700BF00E100E0054B420932
:101F800053F82220012300F01F0003FA00F0104054
:101F9000704700BF00E100E043B2002B01F10101F6
:101FA000ACBF03F16043064B4FEA4111C9B2ABBF6E
:101FB00003F5614300F00F0083F8001319547047D4
:101FC00014ED00E008B572B6044B9A691AB100220C
:101FD0009A6106F080FB62B608BD00BFFCAC012030
:101FE00030BFFFF7FDBF00BF0B4A08B50B4B22F017
:101FF0007F029A60BFF34F8FBFF36F8FD3F88820B3
:1020000022F47002C3F8882004F096F804F086FEEB
:1020100000F006FB04F09AF80000040000ED00E078
:10202000094A0A49936809685867996708494B68DB
:1020300043F080534B60002383F31188BFF36F8F0D
:102040009368986F704700BFFCAC0120708F04004C
:1020500000ED00E015498A6882F87DE04FF030001D
:102060001044EFF3098C80E8F01F202080F31288E1
:10207000BFF36F8F0E4F4FF00066CA698A603E60F3
:1020800092F97DE0506F0023536780F3118802F1CD
:10209000300090E8F01F8CF3098802F1000004B5CD
:1020A00005F036FFBDE8044070470000FCAC01209D
:1020B00004ED00E01EF0040F0CBFEFF30880EFF317
:1020C0000980816911F8021C0229FFD001B505F0D1
:1020D00010FF01BD42F8203C009B0C4942F81C3C1B
:1020E000019B21F0010142F8183C029B42F8081CB8
:1020F00042F8143C4FF0807342F8043C00234367DD
:102100004FF43C43203A0265C3677047C77404002C
:10211000084B9860436E83F30B88104681F309885F
:10212000002163B681F31188BFF36F8F0022002373
:1021300005F0C9F9FCAC012001B572B60B4A9069F3
:1021400000281EBF0021916106F0C5FA62B6EFF3C8
:102150000580A0F110004FEAC0000549014409C9FB
:102160009847BDE80140034908470000FCAC012046
:10217000088B040079210400044B9968D8698842CF
:1021800003D003494FF080520A607047FCAC012035
:1021900004ED00E070B5284B284C294DE41AE40802
:1021A000A40144F001063146264805F01EFCAA6A47
:1021B000930103D53146244805F017FCAB6ADD01D5
:1021C00004D5224844F0010105F00FFC1C4DAE6A15
:1021D00016F4801605D01E4844F0010105F005FCF8
:1021E0000226AB6A180304D51A4844F0010105F031
:1021F000FCFB134DAA6A510304D5174844F00101B2
:1022000005F0F3FBAB6A9A0304D5144844F00101CE
:1022100005F0EBFB0A4DAB6ADB0304D5104844F034
:10222000010105F0E2FBAB6A30466FEA03436FEA57
:102230001343AB6270BD00BF108D0400408D0400DD
:1022400000ED00E0B4910400CC910400DF910400A3
:10225000F991040023920400419204006692040064
:10226000809204002DE9F041284B294C294DE41AB5
:10227000E408A40144F0010807460E4626484146FA
:1022800005F0B3FBAA6AD00603D54146234805F002
:10229000ACFBAB6A190704D5214844F0010105F0F5
:1022A000A4FB1C4DAB6A9A0712D544F001084146C5
:1022B0001C4805F09AFB696BAB6A1B0608D54246C1
:1022C000194805F09FFB1FB1AB6A23F08003AB6296
:1022D000104DAA6AD00704D5144844F0010105F056
:1022E00084FBAB6A990604D5114844F0010105F05E
:1022F0007CFB0020074B9A6AD20658BF9A6A9A6AFA
:1023000042F0FF029A623070BDE8F081108D040047
:10231000408D040000ED00E0AB920400C192040087
:10232000F4920400079304001F9304003593040003
:10233000549304002DE9F0412A4B2B4C2B4DE41A09
:10234000E408A40144F0010807460E462848414627
:1023500005F04BFBAA6AD10403D54146254805F098
:1023600044FBAB6A1A0504D5234844F0010105F08B
:102370003CFB1E4DAB6A9B0512D544F0010841465B
:102380001E4805F032FBA96BAB6A180408D542461B
:102390001B4805F037FB1FB1AB6A23F40043AB6267
:1023A000124DAB6A590504D5164844F0010105F0F9
:1023B0001CFBAB6ADA050DD5134844F0010105F0AA
:1023C00014FB0020094A936A43F47F439362307000
:1023D000BDE8F081AB6A9B04F3D50C4844F00101E1
:1023E000EDE700BF108D0400408D040000ED00E01B
:1023F0008393040099930400F4920400AA930400C8
:10240000C3930400D8930400F3930400549304008E
:102410002DE9F043684B0546D3F8048089461446FD
:1024200000278BB0C8F3080687F31188BFF36F8FBE
:1024300002F07F43B3F17F4F24D1D00722D451065D
:1024400003D422070ED401270EE05C495C4B5D48A3
:102450005B1ADB089B0143F0010105F0C6FA14F09A
:10246000040701D04D46002700238DF80730F31EE6
:10247000092B00F28880DFE803F007757972868601
:102480008686867D3D46EFE74FF000084B4A4C4E6E
:102490004D48B61AF608B60146F00106314605F079
:1024A000A4FA454B8DF80780DC6A14F0020405D0CD
:1024B0003146464805F099FA002406E0DA6A002A17
:1024C0001DDA3146424805F090FA9DF807309BB975
:1024D0002022294602A805F087FD099B002F66D01F
:1024E000C3F3080222B96FEA53236FEA4323099327
:1024F000204602A9FFF7FAFC0BB0BDE8F083DB6AC7
:102500005B00E2D53146334805F06FFAAB6933F82A
:10251000022C4DF602739A420CD003F1604303F68D
:1025200026631B786BB101200DF10701FFF79AFEBE
:102530000446CAE732462968274805F063FA2C6842
:10254000C3E7264B1B782BB101200DF10701FFF7E4
:10255000F1FEEDE7224B1B889BB2002BB5D0FFF7B5
:1025600019FEE5E700200DF10701DFE700200DF17E
:102570000701ECE71249114B1A48C91AC908890129
:1025800041F0010196E70D4A0D4B17489B1ADB08F5
:1025900018F4F87F4FEA8313144943F0010318BF7E
:1025A0000146A6F11002124805F040FA84E723F430
:1025B000FF7323F001039AE700ED00E0108D0400A3
:1025C000408D04000B9404002E94040045940400F4
:1025D00066940400749404009394040029ED00E0D0
:1025E0002AED00E0AF940400E8940400D3940400C2
:1025F00001950400044B5A6942F010025A615A696D
:1026000042F480625A61704700ED00E0EFF3088009
:10261000EFF3098101B57246FFF7FAFE01BD00BF75
:10262000002320210348C2180133412B82F80013F4
:10263000F9D1704700E100E0002080F31488BFF377
:102640006F8F002080F30A8880F30B8806F0EEF984
:1026500000200E490860BFF34F8F0D4880F30888B3
:1026600000F02AF8202080F311880A484FF4006116
:10267000401880F30988EFF314800221084380F3A7
:102680001488BFF36F8FFFF7AFFC000094ED00E0FC
:10269000A0310220E032022000231846054A1168CA
:1026A000C1F307218B4200D1704793601061013361
:1026B000F8E700BF90ED00E010B572B6002484F397
:1026C0001388FFF7E9FF0E4A234611464FF0FF3407
:1026D00003F120000133102B42F82040F8D10023F1
:1026E0004FF0FF3003F160020133102B41F822005C
:1026F000F8D162B6BFF34F8FBFF36F8F10BD00BF2D
:1027000000E100E0064B9B68834207D1EFF30583AD
:1027100023B1044A536843F08053536004F0ACBAC9
:10272000FCAC012000ED00E01FB5094C094A23462E
:102730000121094800F012F900230393074B0121FE
:10274000E41A01A80193029400F012F904B010BD3C
:102750000000042000A50120288E0400F0A501201F
:1027600010B50B680C7A23F01F0204F01F031A4304
:10277000CB68640923F01F03044943EA440343F090
:1027800001038860CA600B6110BD00BF90ED00E0DE
:102790000F2810B50DD9084B084A0146D21AD208A5
:1027A0009201074842F0010205F02CF96FF0150084
:1027B00010BDFFF7D5FFFBE7108D0400308D04003E
:1027C000189504002DE9F04F8946144606464FF04F
:1027D0000008544D85B0C84533DAD6F804A0BAF1E4
:1027E000000F4DD0BAF11F0F1ED91AF01F0F1BD1C9
:1027F000D6F800B01BF01F0F16D1584605F08EFB1F
:1028000007460AEB0B00013805F088FB87421CD015
:102810006FF01507444A454B3946D21AD208920147
:10282000434842F0010208E041463F4A3F4B4148DD
:10283000D21AD208920142F0010205F0E3F86FF0DB
:102840001504204605B0BDE8F08F17F1160FE1D052
:10285000631EBB42DEDBAF60E968AF602B6921F02D
:102860001F0143F01F0BD6E900321A44994202F1CE
:10287000FF3A1AD1D34507D13146F8B205F057FBDC
:1028800008F101080C36A6E73146AF60EB6822F08C
:102890001F0203F01F031A43EA60E0B205F047FB92
:1028A00010F1160FCBD0441CEAE7013BD345E0B250
:1028B00023F01F03AF6006D12A69314602F01F02E0
:1028C00013432B61EAE7296901F01F010B432B61D8
:1028D000314605F02CFB10F1160FB0D0AF60EA685E
:1028E0009DF808300BF1FF3B62F304038DF80830CC
:1028F0002B699DF808205B0863F347128DF80820C8
:10290000D6E900321344009323F01F035B44A3EB8A
:102910000A03013023F01F036946C0B20393FFF797
:1029200037FFBDE790ED00E0308D0400108D04000E
:10293000619504003E9504000522034B5A60BFF3E5
:102940004F8FBFF36F8F704790ED00E0BFF35F8F45
:102950000022014B5A60704790ED00E010B5034C27
:102960002278FFF72FFF207010BD00BF58AD012067
:102970002DE9F74F264D8A4606464FF00008AB4634
:10298000244FD0451BDAD6F80490B9F1000F39D0A6
:1029900031680846019105F0C1FA0199044609EB36
:1029A0000100013805F0BAFA84424FF014021A4BC4
:1029B00008D06FF0150302FB08F84BF8083003B09D
:1029C000BDE8F08F14F1160F2C60F8D01978A142F1
:1029D000F5DD02FB08B0BC60BC60FC6800F10801DA
:1029E000007B64F30400087138690C79400860F3D7
:1029F00047140C71F96821F01F016960396921F0F1
:102A00001F01296108F1010814350C36B9E700BF30
:102A100088A8012090ED00E058AD012038B50E4C9B
:102A20002568102D14D8FFF791FF00200B4B0C4A9E
:102A30001A63854205D10B4B1D70FFF77DFF002007
:102A400038BD616801EB0011FFF78AFE0130F0E745
:102A50004FF0FF30F4E700BF348E040090ED00E04B
:102A6000AAFF440058AD012008B50849084B0948A1
:102A7000C91AC908890141F0010104F0B6FF03F049
:102A8000AFFA0C230360002008BD00BF408D040096
:102A9000108D04008495040008B5024804F04EFC33
:102AA000FEE700BFAF950400014B1860704700BF00
:102AB00008A501200239012902D8034B1B681847D9
:102AC0004FF0FF30704700BF08A501200FB407B5D5
:102AD00004AB53F8042B022104480193FDF72EFFA9
:102AE00003B05DF804EB04B0704700BF178004002A
:102AF00070B504460C250D480E46231A9A100C4B4F
:102B000040215343DBB25D4305F14003184405F017
:102B10008DFA011E04DB074B2B445B6898470021AC
:102B200020463346BDE87040184700BFACA80120DE
:102B3000B76DDBB6748E04002DE9F0410F4C104DDB
:102B4000031B9B105D43EBB20C255D43074605F16B
:102B500040000E462044402105F081FA011E08DBAA
:102B6000084B2C44C4E90E36074B5B59BDE8F041D5
:102B7000184738463346BDE8F0411847ACA8012055
:102B8000B76DDBB6C1800400748E040070B50022FE
:102B9000012104460520FFF7FFF90520FFF7DEF9C4
:102BA0000F4801F0EFF80F4B984215D105F0C2FB2A
:102BB00026690D49304604F02AFC00280BDB01256C
:102BC00035642469084904F11C0004F020FC002845
:102BD00001DB0020E56470BD6FF00400FBE700BF7F
:102BE000212C04000000AD0B8C8E040001460C2348
:102BF00000224B43084870B5C4184033D4E90E5640
:102C00001844A26305F049FA2DB132462B46BDE8BF
:102C100070400248184770BDACA80120A88A040083
:102C200010B1012804D07047034B1B6C5B0701D126
:102C3000FFF7DCBF704700BFACA8012008B54FF01C
:102C40002003EFF3118183F31288BFF36F8F114AD2
:102C5000136843F0020013F0010310600BD00E4A1A
:102C6000D2F80C34D2F80C2413F0010303D00B4833
:102C700005F013FA012381F31188BFF36F8F23B19D
:102C8000BDE808400020FFF7B1BF0120BDE80840C3
:102C900001F088B8FCA8012000500040ECA80120F9
:102CA000074BD3E8EF2F22F00201C3E8E01F002812
:102CB000F7D1D30702D4012001F0A6B8704700BFB6
:102CC000FCA801201FB500220123CDE902236B4699
:102CD000084ACDF800D0CDF804D005F017FA002846
:102CE00005DB4FF4FA720023684603F0A5FC05B03B
:102CF0005DF804FBDF8004002DE9F843012207465C
:102D00003649D1E8EF3FC1E8E02F0028F9D133B9C7
:102D1000334934484B60CB608A6004F08BFB7B1EE8
:102D2000012B2ED8012F06D12F4BD3F81C3403F0E2
:102D30000303022B25D005F0C3FC044618B92B4B26
:102D40001B78002B44D14FF02003EFF3118683F35F
:102D50001288BFF36F8F0124234DDFF89C80A946B2
:102D6000D5F81834D5F81824D2030CD503F0030392
:102D7000022B01D0012F06D134B386F31188BFF3A3
:102D80006F8FBDE8F883D4B13046FFF7A5F8D5F8CA
:102D90001835DBB2012BE3D1D8F80020002ADFD0B0
:102DA0000022C8F80020D8F8002002222021C5F80F
:102DB00018250F4AC2F880110E4A1360D0E700218F
:102DC000012003F03FFFE2E70223C9F80433D8E70C
:102DD0000222054B0646C3F80823BDE700A90120DF
:102DE0009CA80120C8A80120005000409A0A022097
:102DF00000E100E0085000400451004008B50848D8
:102E0000084B186005F098FB38B10748FFF74CFEF7
:102E10000548FDF785FC002008BD6FF01200FBE7B8
:102E2000F08A040004A901202D2E04000A2838B5D8
:102E30000446074D04D1286883680D215B689847D4
:102E400028688368E1B25B689847204638BD00BFB8
:102E500004A9012030B5406801F01F05047BB2F5DC
:102E6000005F45EA441585B04FF0000404D12846C0
:102E700001F088FA00202CE0B2F5804FCDE9024441
:102E800029D1B3F5003F0CBF042305238DF808308A
:102E9000836823FA01F1C90729D4B2F5A03F26D1EE
:102EA0001B4A05F01F03803352F82330DB071ED482
:102EB0000DF107042146284601F0D4F9154B98423C
:102EC00014D1204601F018FA134B98420ED06FF03F
:102ED0000B0005B030BDB3F5C02F05D0B3F5003FF2
:102EE0000CBF02230123D1E70323CFE70394002380
:102EF0002846194602AA01F075F8074B984204D1FA
:102F00000121284601F0FEF9B4E76FF00400E0E784
:102F1000002584400400AD0B0000AD0B10B501F09E
:102F2000DBF9044668B901F0AFF9084B98420AD1C1
:102F30002146074801F090F9224605213120FFF78C
:102F40002BF8002010BD6FF00400FBE70000AD0B74
:102F5000552F0400430970B517D10C4B5968A1B126
:102F60000C680125002C38BF0024094E85408A6872
:102F70002A4002D030464B68984734B12368214636
:102F8000002B38BF00231C46F1E770BD08A90120C3
:102F9000C08A04002DE9F043476801F01F053B7B20
:102FA0000E46144685B045EA4315CAB902A928461B
:102FB00001F058F90446284601F006FA474B9842BA
:102FC00004D06FF0040005B0BDE8F083844205D161
:102FD0009DF8080001F08AF9A042F2D10020F2E742
:102FE0004FF000090DF103013046CDE9029901F0DF
:102FF00039F94B4680464946284602AA00F0F2FFBE
:10300000364B984202D06FF01500DCE7804503D1C3
:103010009DF8030001F06AF9A3054CD5304B314A05
:103020002340934239D00CD8062B14D004D893B146
:10303000022BE8D104230EE0B3F5801FE3D1012376
:1030400009E0294A93422AD0B3F5A00F29D0B3F55D
:10305000800FD8D102238DF8043084F48073C3F339
:103060000023E0068DF805304CBF0323C4F3401362
:1030700021058DF8063016D501217B6801FA06F688
:103080009E600022284601A901F052F8134B984295
:1030900014BF6FF01500002095E70723DBE7052339
:1030A000D9E70323D7E7620541BF01217B6801FA15
:1030B00006F6DE60E5E7E3064FF000034CBF0324AD
:1030C000C4F340141A46284601A98DF8044000F0C4
:1030D00089FF024B984281D095E700BF0000AD0BFD
:1030E0000600F0000600100002004000F0B54B7929
:1030F000012B26D0032B21D110268B79032B1DD138
:10310000CC790CB1012C19D10A7912B1022A15D14E
:103110000E220B684568B3F5164F2D6865D02DD883
:10312000B3F5165F64D016D8B3F5966F62D00AD89F
:10313000B3F5967F61D0B3F5167F61D06FF085004F
:1031400052E00026D9E7B3F5166F5CD0B3F5965F71
:10315000F4D1374B3CE0B3F5E14F57D007D8B3F586
:10316000615F55D0B3F5964FE8D1324B30E047F66A
:103170001227BB42E2D14FF4000329E0B3F5613FCF
:1031800048D013D8B3F5963F47D009D84DF6C0279D
:10319000BB4244D0B3F5614FD0D14FF46B0317E07D
:1031A000B3F5E13FCAD14FF0EB7311E0B3F5612FF6
:1031B00038D008D8204FBB4237D0B3F5E12FBDD16E
:1031C0004FF0E86304E01D4FBB42B7D14FF080538E
:1031D000C5F82435036934432243043303C9C5F8D1
:1031E0006C2583E803000020F0BD4FF41D03EFE7DA
:1031F000134BEDE74FF49E23EAE74FF4A033E7E7E4
:103200004FF41C33E4E74FF41D23E1E70D4BDFE7F8
:103210000D4BDDE74FF06C73DAE70C4BD8E74FF45A
:103220006503D5E74FF07063D2E74FF08063CFE7D7
:1032300000B0130000A04E0090D0030040420F00E9
:103240000050270000C0750000F03A0000903A01DD
:10325000F8B505460F46066905F032FA10B92C4B51
:103260001B7883B94FF02003EFF3118483F31288A6
:10327000BFF36F8F284604F0F7FF28BB84F3118853
:10328000BFF36F8FEEE76424284604F0EDFF70B9BA
:10329000012005F04DF8013CF6D10021012003F09A
:1032A000D1FCF0E784F31188BFF36F8FF5E74FF09F
:1032B0002003EFF3118483F31288BFF36F8F284646
:1032C00004F0D2FF0028EDD0012206F8107F6968D3
:1032D0000B68C3F84465C3F848250022C3F82021D1
:1032E000D3F82001C3F85821D3F858214A68D206F0
:1032F00041BF0822C3F800254FF48002C3F804231D
:1033000001229A6084F31188BFF36F8FF8BD00BF6C
:103310009A0A02202DE9F8430646012100220820DE
:10332000FEF73AFE0820FEF719FE0023776835699C
:103330003C68C4F800352E607368D868411C0BD017
:103340000121DFF854C100F01F029140CCF80810B1
:10335000032180324CF8221019694A1C0DD01A7FC3
:10336000DFF834C1002A14BF4FF00C0E4FF0000EEE
:1033700001F01F0280324CF822E0D3F814C0BCF1F7
:10338000FF3F0ED04FF0010EDFF80C810CF01F0252
:103390000EFA02FEC8F808E04FF0030E803248F83B
:1033A00022E0D3F818E0BEF1FF3F0DD05A7FDFF8DE
:1033B000E880002A14BF4FF00C094FF000090EF00E
:1033C0001F02803248F822901B68C3F80C05C3F82E
:1033D000141531693046C3F808C50431C3F810E547
:1033E000FFF784FE0646A8B97B68990722D505F148
:1033F000120000F07DFD234B98420ED0224B234952
:103400002348C91AC908890141F0010104F0EDFA05
:103410006FF004063046BDE8F883AB7C43F0004310
:10342000C4F8A031C4F88C300123AA7C9340194A17
:10343000C2F804350823C4F800353B7A5BB9C4F8F8
:103440001031D4F8103105F11103C4F834350123DB
:10345000C4F8383523607B6810359A075CBF4FF499
:103460008072C4F80423DB0644BF4FF48003C4F821
:1034700004330023C4F84455C4F848350123A3603D
:10348000E360C7E70000AD0B108D0400588D040009
:10349000EB9504000070014000258440F8B5204EF3
:1034A00022F07F45D6E900CEB2EB0C0222F01F01DC
:1034B00063EB0E03044611EB0C014FEA521043EB91
:1034C0000E0740EAC360A5F50013B3F5400FC6E947
:1034D00000174FF000060AD20126124B19680A069F
:1034E0000B0A5219104943F10003C1E9002303F00C
:1034F00007FDA30003F1804303F5A833D3F840256B
:10350000AA420BD11EB94FF40002C3F840254FF474
:103510008030064B00FA04F4C3F84443F8BD00BF02
:10352000C0A601201CA90120A8A60120005001402E
:103530000123834010B5DC430C4AD2E8EF1F01EAB7
:10354000040CC2E8EECFBEF1000FF6D14FF480328A
:1035500002FA00F0064AC2F80803BFF35F8FBFF318
:103560006F8F0B4214BF0120002010BD18A901204D
:103570000050014001230E4A8340D2E8EF1F194357
:10358000C2E8EC1FBCF1000FF7D14FF48033094AB9
:103590008340C2F80433084BD3E8AF3F23FA00F06E
:1035A000C30742BF4FF40012044BC3F80021704719
:1035B00018A901200050014014A9012000E100E0F9
:1035C0000D4B1B68190A1806BFF35F8F0B4BD3F81E
:1035D0000435C01841F10001B3F5801F0AD2084B31
:1035E000D3E90023994208BF904203D210F18070C2
:1035F00041F10001704700BF1CA9012000500140AB
:10360000A8A601202DE9F74F16461F460546FFF7ED
:103610008FFF0090FFF7D4FFB94208BFB0427BD2C2
:1036200000234FF08072B6EB000867EB01094B45B1
:1036300008BF42457DD3404B03EB0513D3E902237A
:103640009F4208BF964251D04FF4803B26F07F4204
:1036500014464FEA850905F1500809F180494FEAFF
:10366000880809F5A8391FFA88F808F18048D9F8C0
:103670004005324B08F5A8380BFA05FBD3F804A532
:10368000A0EB0A0020F07F402AF07F410128C9F812
:10369000401505D10192132005F06FF9274B019ACF
:1036A0000AF1020CA4EB0C0020F07F400021B0F5E1
:1036B000000F88BF6446C8F80010D8F8000024F056
:1036C0007F40C3F844B3C9F84005D3F804058245E8
:1036D00006D0201A023820F07F40B0F5000F19D82C
:1036E000A41A24F07F44321947F10003124C290137
:1036F00004EB0510C0E902230C9A0D9B62500024D4
:103700004360009B13B12846FFF734FF204603B007
:10371000BDE8F08F2046B1E70123094AAB40D2E86B
:10372000EF1F1943C2E8E01F0028F8D132463B469C
:10373000DCE76FF01504E4E7B0A60120005001407B
:1037400014A9012073B500244FF0FF304FF0FF3172
:10375000164D174BC5F80845C3E902014FF48033F5
:1037600002264FF40012C5F80433124B0121C5F8AC
:1037700004631520C3F880212246FEF70DFC1520B6
:10378000FEF7ECFB01230C4A204613600B4A2B602A
:1037900013600B4B0B4A009301940023FFF732FF99
:1037A0003046FFF7A9FA204602B070BD0050014034
:1037B000B0A6012000E100E00850014018A9012056
:1037C0009D340400FFFF7F00334B2DE97343D3F892
:1037D00004339A0709D5314B1A6832B100221A60B6
:1037E0002F4A1B681368013313604FF02003EFF377
:1037F000118283F31288BFF36F8F274BD3F8043302
:10380000DB030ED5274BD3E8EF1F21F00100C3E8FF
:10381000E40F002CF7D1244B002936D11968002978
:1038200033D1002382F31188BFF36F8F53B3FFF7B7
:10383000C7FE04464FF02003EFF3118083F3128894
:10384000BFF36F8F194B0022D3E90289494508BFA6
:1038500044451FD3D3E900164FF0FF344FF0FF3536
:103860001A604FF48032C3E902450B4BC3F848237A
:1038700080F31188BFF36F8F21B142464B46002081
:103880000096884702B0BDE87083002119601B686C
:103890000123C7E71146EBE7005001400451014006
:1038A0001CA9012014A9012040510140B0A601200B
:1038B000154B73B5B0F1FF3F08BF1846461E002EEA
:1038C00020DD9E42A8BF1E46FFF77AFE0F4BD3E9CC
:1038D0000045001BB0F5000F28BF0026203000EB8C
:1038E00046120B4822F01F02824228BF02460020E7
:1038F000084BA2180093019045F10003FFF782FEE8
:1039000002B070BD0026DFE7FFFF0300C0A6012064
:10391000E0FF7F009D34040008B5FFF751FE054A23
:10392000D2E90032C01A61EB0201400940EAC160ED
:1039300008BD00BFC0A6012038B5194D194C2B7821
:1039400033B9C4E90033184804F0CCFE01232B70CE
:1039500000222A201146FEF71FFB0021134802F027
:1039600065F9134B18604FF0FF324FF0FF330E48EC
:1039700002F07EFD206870B10468002C38BF00247E
:10398000043002F039FE34B123682046002B38BFE2
:1039900000231C46F4E7044802F0E8FD002038BD8F
:1039A00059AD012024A901202CA90120088F040071
:1039B00020A9012070B50D4C02460A25002620469C
:1039C0000B4B1B68016891420ED051B14168591AE6
:1039D000B142C4BF04460E46013D00F10800F1D1DA
:1039E0002046013B0260436070BD00BF98A90120E2
:1039F00074A90120684620F007018D4619B50F4BC8
:103A0000D3E8EF2F0132C3E8E12F0029F8D101F00C
:103A100051F90B4B1C68002C38BF00242CB1201D21
:103A200002F0EAFD2468002CF8D1FEF7CBFAFEF78D
:103A3000A3FBBDE819408546704700BF74A901206B
:103A400090A901202DE9F04F884687B004F093FF3C
:103A5000D8F800300446002B0D4603D103F064F87B
:103A6000742077E0BCBF4FF0FF33C8F8003001226C
:103A7000002102A804F03DFE0DF104094FF02003DF
:103A8000EFF3118B83F31288BFF36F8F03F0EEF81F
:103A9000FFF790FF384943680A688A4693424FF01F
:103AA000000308D10193354B5A68002A55D1C3E968
:103AB0000099012300E042608BF31188BFF36F8F00
:103AC000002B46D0D8F80020531C19BF22EAE2721E
:103AD000D3174FF0FF324FF0FF3302A802F0ACFDD6
:103AE0004FF02003EFF3118B83F31288BFF36F8F36
:103AF0000020224B1A6852B14A4539D1019988BB3E
:103B000058681960904200D159600023019303F076
:103B1000ADF8FFF74FFFDAF8003043608BF3118800
:103B2000BFF36F8FD8F80090B9F1FF3F11D004F0C8
:103B300022FF14EB090445EBE975261A65EB010732
:103B4000002E77F10003B8BF0026C8F80060002EF1
:103B500086D0002007B0BDE8F08FC2F80090C3F80F
:103B60000490A6E701605968914208BF5860CCE70D
:103B700010461268BFE700BF74A9012090A9012078
:103B800070B40468094B2CB19C4203D303F1300597
:103B9000AC4206D3064D2C78661C03EB04132E7042
:103BA0000360006870BC04F0A4BD00BF44A90120FC
:103BB0005AAD01204FF08052014BC3F800217047ED
:103BC00000E100E04FF08052014BC3F880217047C4
:103BD00000E100E04FF00052014BC3F800217047B4
:103BE00000E100E04FF00052014BC3F88021704724
:103BF00000E100E0014600220023014804F0F5BC8A
:103C0000A4A501200146014804F0F9BCA4A50120A7
:103C1000014600220023014804F0E7BC7CA90120F2
:103C20000146014804F0EBBC7CA9012010B500243A
:103C30000E4BC3E900440E4BD3E8EF2FC3E8E14F2E
:103C40000029F9D104F062FB21460422094804F05E
:103C5000D6F921460422084804F0D1F9BDE8104005
:103C60004FF400520549064804F070BC90A90120A9
:103C700074A9012040A9012078A90120E86401204D
:103C80007CA9012008B5FDF779FC064B06490748D9
:103C9000C91AC908890141F0010103F0A6FE0020FC
:103CA00004F043FB108D0400188D04003D960400C1
:103CB000F0B50446A3B00D4616461F464FF0FF323E
:103CC0004FF0FF330B4802F0D3FB88B9684604F08D
:103CD00023F93A463146289B2846A04704466846C1
:103CE00004F01BF9034802F041FC204623B0F0BD6C
:103CF0001F24FAE7CCA50120014B024A1A60704745
:103D000020A501200090D00370B501250368B3FA07
:103D100083F2202AC2F11F0410D005FA04F223EA2C
:103D20000202D0E8EF6F9E4204D1C0E8EC2FBCF154
:103D3000000FF6D1EAD102480C7070BD0148FCE7D3
:103D40000000AD0B0200AD0B036810B5CB40DB07E4
:103D500011D4012303FA01F1036841EA0302D0E818
:103D6000EF4F9C4204D1C0E8EC2FBCF1000FF6D11C
:103D7000F2D1024810BD0248FCE700BF0000AD0BC5
:103D80000400AD0B044B1A7922B9012218601A7194
:103D90000248704702487047E8A901200000AD0BB7
:103DA0000C00AD0B10B101281ED07047134BD3F897
:103DB0001824D3F8181411F4803F194610D002F0DB
:103DC0000302022A0CD1C3F8182500220C4B1A60FA
:103DD00002221B68094BC3F8042301229A60704732
:103DE0000123C1F81835F0E70022064B1A601B6862
:103DF000024BC3F804031860704700BF0050004036
:103E0000045100400051004038B510B1012816D0CF
:103E100038BD0222012142F21075164CC4F8082365
:103E2000154A10601268154A1160D4F81834DB0383
:103E3000EED5012004F07CFA013DF6D1E8E700223E
:103E400042F210750E4B0B4CC4F808031A601B6845
:103E50000C4B1860D4F80C34D4F80C2403F0010394
:103E6000D203D5D5002BD3D0012004F061FA013D57
:103E7000F0D1CDE700500040045100400C5000400C
:103E80000051004004500040154B10B51A684AB16B
:103E90000020012218601B68124BC3F80823124B44
:103EA0001B689847114B1A6882B100221A601B6880
:103EB0000C4BD3F81824D3F8181402F00302012A8B
:103EC0004FF0020103D1C3F818159A6010BDC3F872
:103ED0000813054B0120BDE810401B68184700BFC0
:103EE0000051004000500040E8A90120045100406A
:103EF00001460148FFF708BF24A5012070B50D4C0D
:103F000000F1080334F813300546DA050E4607D5EC
:103F1000C3F3432304EBC302526854F83330984789
:103F2000A3682BB131462846E268BDE870401847C7
:103F300070BD00BF28A50120124B083033F81020B7
:103F400010B4D1051BD5C2F3432122F4F85223F853
:103F50001020002003F1100434F8022B12F4807FAB
:103F600003D0C2F34322914209D001302028F3D17B
:103F70000022054810BC43F83120FFF7E5BE10BC15
:103F8000704700BF28A501207CA5012038B50C4C46
:103F900000F1080534F815309A060AD500225B0BAB
:103FA0009B0003F1804303F54433C3F81025C3F8A5
:103FB0001025FFF7C1FF002324F8153038BD00BFDE
:103FC00028A5012000F01F02054800EB8200D0F870
:103FD000003223F4403343EA0143C0F80032704713
:103FE00000258440F7B50446F9B14C4F00F1080CA8
:103FF00037F81C0000F02205222D02D1484803B0FA
:10400000F0BD484D04F01F0605EB8606D6F80052B9
:10401000097825F00F0520F0020045EA810140F003
:104020000100C6F8001227F81C0092B13B4804F1C9
:10403000080630F8161015788F0752680CD5002A3C
:10404000DCD130F8162022F01C0242EA850520F867
:104050001650D3BB3448D2E721F02001C904C90C63
:1040600020F81610002AECD0032DC7D892F800C013
:104070006246920002F1804202F5443225B9C2F84C
:104080001055C2F81055DCE7D2F810754FEA042E2F
:1040900027F00307C2F81075D2F810750EF4F85E19
:1040A00027F4473727F44077C2F81075D2F8107517
:1040B00041EA4C3147EA054747EA0E0741F0200143
:1040C000C2F8107520F81610BBE72046D3E9006748
:1040D000FFF732FF002EBDD0104D2B689E4204D159
:1040E0006B689F4201D1002209E010480DF10701E1
:1040F000FFF70AFE0C4B984281D19DF8072005EB93
:10410000C20308345F6035F8143045F8326043EA82
:10411000422343F4807325F814309BE728A501203F
:104120000400AD0B002584400000AD0B7CA50120F0
:104130002DE9F043002944D0434E00F1080C36F835
:104140001C50AB0704D4AF0602D54048BDE8F0834D
:1041500015F01C0F02D04B78012BF6D03C4B11F11F
:10416000010E00F01F0714BF0224002403EB870791
:104170008B1C14BF4FF00C094FF0000944EA0904EE
:10418000D7F8008244F4E06444F0010428EA04080B
:10419000BEF1000F03D091F801E04FEA4E0E0BB1D3
:1041A0008C78A300097845F0030543EA012343EA2C
:1041B000080343EA0E0343F00103C7F8003226F870
:1041C0001C500AB92348C1E71F4D00F1080635F815
:1041D0001640A307B9D50023177824F02004B900AE
:1041E00001F18041E40401F54431E40CC1F81035DB
:1041F00025F81640C1F8103592F801C0BCF1000F47
:10420000E0D0D1F81035927823F4981323F4F853C2
:10421000C1F81035D1F810E5030203F4F8534FEA62
:104220000C4043EA0E0300F440301205034302F44D
:10423000801244EA4734134344F02004C1F8103597
:1042400025F81640BEE700BF28A501200400AD0BED
:10425000002584400000AD0B014BC3E9020170470B
:1042600028A50120054B083033F810309A0643BFCB
:104270005B0B03480B700348704700BF28A5012063
:104280000000AD0B0400AD0B38B50E4C94F858503F
:10429000B5B94022294604F1100003F0B0FE3120E8
:1042A000FDF75CFE4FF00042074B08481D601B689D
:1042B000074BC3F80423012384F85830636538BDE5
:1042C0000448FCE728A501207C1103400000AD0B49
:1042D000001003400500AD0B034B93F85800003865
:1042E00018BF0120704700BF28A5012001460148E2
:1042F000FFF72ABD78A5012001460148FFF704BD5C
:1043000078A501201B4B00F1080233F8123010B4DD
:104310009A061AD513F0020417D117485B0B9A00BE
:104320008450805802F1804202F54432D2F81005E0
:1043300040F00100C2F8100529B1012202FA03F38E
:104340000E4AC2F8043310BC7047C3F38203042B37
:104350000CD0052B0CD00A4B196900F01F03D94073
:1043600001F00101023110BCFFF72CBE0321FAE776
:104370000221F8E728A501200011034000100340A6
:10438000002584400E4B00F1080233F812309906E4
:1043900013D59A0711D401225B0B9A4009499B005F
:1043A00003F18043C1F8082303F54433D3F8102503
:1043B00022F00302C3F8102570470021FFF702BE68
:1043C00028A50120001003400C4B00F1080213F84F
:1043D000123010B5DB0704460DD5FFF7D3FF20469A
:1043E000FFF7D4FD0222064B04F01F048034054879
:1043F00043F8242010BD0448FCE700BF28A5012095
:10440000002584400000AD0B0400AD0B2DE9F04FFA
:104410000026012234464B4B4B484C4985B01D6861
:1044200035B1D0F8045315421EBF1C601D681643F9
:1044300004338B424FEA4202F1D1454F3B6883B1CE
:10444000444D0DF10C082B6A03932B624FF00109C8
:10445000039840B938603B682B6A03932B62002BAA
:10446000F4D1012469E090FAA0FABAFA8AFA3A4A39
:104470000AF1080332F813104FEADA0C0AF00703C6
:1044800009FA03F418F80C30C1F3820223EA04039A
:1044900008F80C3005EB8A03D3F80042C8069346AF
:1044A000C4F3014418D5114650460193FFF726FD89
:1044B000019BE4B2D3F80032C3F301439C4207D11D
:1044C00000215046FFF77EFD21465046FFF77AFD5A
:1044D00009FA0AF02862BBE7022C0CBF0321022173
:1044E00050460192FFF76EFD019A032A04D0022C78
:1044F00007D1BBF1010FEBD159465046FFF7FEFC47
:10450000E6E7032CE4D1BBF1020FF4E796FAA6F339
:10451000B3FA83F304FA03F29B0003F1804303F53B
:104520004433D3F81005D3F81015C0F30420C1F3B9
:10453000014126EA0206FFF7E1FC002EE6D105B0B4
:10454000BDE8F08F0011034000100340201103402C
:104550007C1103400025844028A5012070B5084C3B
:104560000E462379154643B92A20FDF7F7FC0123AF
:10457000044823712660A56070BD0348FCE700BFB6
:10458000F0A901200000AD0B0C00AD0B002330B5ED
:104590000D4A50F8234003F5A2710133082B42F86D
:1045A0002140F6D10023084A00F1200103F5B2743E
:1045B00051F8045B0133082B42F82450F6D1036C08
:1045C000C2F8043330BD00BF00A002400023144AEB
:1045D0001449C1F81035C2F81035C2F81435C2F8C4
:1045E0001835C2F81C35C2F82035C2F82435C2F897
:1045F0002835C1F89035C2F89035C2F89435C2F824
:104600009835C2F89C35C2F8A035C2F8A435C2F876
:10461000A8354FF0FF32C1F80823034A13717047E1
:1046200004A0024000A00240F0A901200C4B30B4CD
:10463000D3F80C0301240346002523B930BC094BF1
:104640001A689968104793FAA3F2B2FA82F204FA50
:1046500002F123EA0103044992008D50EDE700BF07
:1046600000A00240F0A9012000A10240032310B5E0
:10467000104C114A23616361104BA261E3614FF456
:10468000705323620023A3626362E36222660C4AD2
:104690000C4962661022E01DA2662367E366636729
:1046A00003F075FC2046084903F071FC2023A37138
:1046B00010BD00BFFCA901205A9604006BAD01207B
:1046C0005BAD012063960400679604002DE9F84F66
:1046D0004FF0180B224F14460BFB0072936A556A79
:1046E0000646AB42884634D8D2F820A0AAEB05098A
:1046F00009F1FF32944211D84FF0180906FB0993D3
:104700003B44586822464146284403F06DFC09FBAF
:1047100006762C4401207462BDE8F88F13449C4255
:104720001BD800FB0BBBBB44DBF804004A46284403
:104730002C4403F059FCB4EB0A0406D02246DBF803
:10474000040008EB090103F04FFC182000FB06767B
:10475000E0E7013B5B1BA342CED20020DCE700BFB9
:10476000FCA901201822034B02FB00339A6A586A05
:10477000801A7047FCA901202DE9F04180460446CB
:10478000002758F8086B0C4DF6B22B78B3420AD0CC
:104790000137042F05F10C05F7D1A06850B103F0E3
:1047A0001DFE002006E0216840466B68090C984712
:1047B0000228EDD0BDE8F0812C8F04002DE9F84FE0
:1047C000534F05460021386803F08EFD044600284B
:1047D0004CD12B78D5F80880622B43D0632B43D083
:1047E000612B02D14B4B1C88A4B2386803F07AFDD0
:1047F000D5F80CA02969A8EB0A08A1EB0A039BB223
:1048000014FA88F4B4FBF3F203FB12446A68A2EBD7
:104810000A0213FA82F2121B92FBF3F003FB10223E
:104820001FFA82F914FA82F29342A24422DAA1EB2F
:104830000A039BB2A9EB03049946A4B2B9F1000F95
:1048400064D00520FFF7D6F9804600285ED09CB1E1
:104850000520FFF7CFF9064670B94046BDE8F84F8E
:10486000FFF7D0B92C4BBEE72C4BBCE7BDE8F84FA7
:10487000FFF7B0B90024E1E70021386803F034FD08
:1048800040B1FFF7A7F94046FFF7BCF9002C3DD037
:104890003046E3E72B78622B34D0632B34D0612B86
:1048A00007D11C4A138804EB090111FA83F39BB268
:1048B000138038686FF0100B6FF0410703F012FDA2
:1048C00088F800B088F801702B780521404688F8F8
:1048D0000430A8F8029003F024FD4946504603F046
:1048E00020FD9CB186F800B077702B78052130460A
:1048F0003371748003F015FD2146E868BDE8F84F78
:1049000003F00FBD044ACDE7044ACBE7BDE8F88FBA
:10491000B4AA012038AD012034AD012036AD01200C
:104920000023084A10B51380074A04461380074A3B
:104930000748138001221146FFF722F9054B1C603E
:1049400010BD00BF38AD012034AD012036AD0120CF
:10495000B4AA0120B0AA012008B5104B1B780BB9EE
:10496000FFF740F90E4B1868426883689A4201D0FD
:10497000FFF724FF0B4B1868826843689A4201D006
:10498000FFF71CFF084B1868826843689A4203D0FF
:10499000BDE80840FFF712BF08BD00BF6BE901206A
:1049A000ACAA0120A4AA0120A8AA01202DE9F74F52
:1049B000434B1B681969D3F814A01A7C00221A749F
:1049C000587C5A74987C9A74D87CDA74187D1A755D
:1049D000587D5A75987D9A75D87DDA75002933D03F
:1049E0000139032930D8DFE801F002654C53354A1C
:1049F000117809B100211170002291461746144622
:104A0000314D32493248D5F800E0D1F800800668CF
:104A1000DAF808B00195A34519D107B10660B9F1DC
:104A2000000F01D0C1F8008012B1019AC2F800E075
:104A30001A7A012100221972597A5A72997A9A7255
:104A4000DA7A6FF05F02DA7203B0BDE8F08FA51C6E
:104A50000AEB85056D6895F800C0BCF1620F09D0BE
:104A6000BCF1630F0AD0BCF1610F04BF2E460127D1
:104A70000134D0E7A8464FF00109F9E7AE4601221C
:104A8000F6E701210F4A11701A7A03210022D2E7BA
:104A9000197A04211972597A5A72997A9A72D97AC2
:104AA0006FF05F01D972074B1A7003B0BDE8F04F89
:104AB000FFF752BF03B0BDE8F04FFFF78BB800BF60
:104AC000B0AA01206BE90120A8AA0120A4AA012014
:104AD000ACAA0120014B1878704700BF6BE9012098
:104AE0002DE9F04106460F460025DFF87480336853
:104AF000AB4201D8BDE8F08106EBC504A368FBB169
:104B00006368DBB2012B1BD16268B8F80030B3EBED
:104B1000124F15D1022FA06814D1FFF72DFE0228E5
:104B20000ED0012813D1636823F0FF0343F0020382
:104B30006360B8F800300133A8F80030FFF73AF8A6
:104B40000135D4E70168090C03F006FCE7E700280B
:104B5000EFD1636823F0FF0343F00303E8E700BFEE
:104B60003AAD012070B5164600240368A34201D176
:104B700000231CE000EBC4025568EDB2032D18D1F0
:104B800001EB84139360516821F0FF0151600C49DF
:104B90000888441C0C80516889B241EA0041516088
:104BA00018464022002103F02AFA034646601846C0
:104BB00070BD15B99568002DE2D00134D6E700BF6D
:104BC0003CAD012008B50B4B1B68C01A0A4BC0F363
:104BD00089101B6803EBC000436823F0FF0343F018
:104BE00001034360032003F079FB0122034B1A60A9
:104BF00008BD00BFD0AA0120D4AA01200CA0024009
:104C000008B50B4B1B68C01A0A4BC0F389101B6810
:104C100003EBC000436823F0FF0343F0010343604C
:104C2000032003F05BFB0122034B1A6008BD00BFA9
:104C3000C8AA0120CCAA012004A00240054B1B7881
:104C400033B9054B02221968044B1868FFF78ABF75
:104C5000002070476DE90120D0AA0120D4AA0120CC
:104C60000A2337B50C4C0D4D0193012221682868A9
:104C7000FFF778FF68B903F033FB18B901A9FEF715
:104C8000E1FEF2E74FF47A70019B584303F026FBF4
:104C9000EBE703B030BD00BFC8AA0120CCAA0120B9
:104CA000034B1B780BB9FEF7B3BF0020704700BF62
:104CB0006DE9012010B5064CFEF784FF2068012144
:104CC000FFF70EFF60680221BDE81040FFF708BF44
:104CD000BCAA01200023114930B50A681468A34218
:104CE0000BD100234A6811688B4215D002EBC30434
:104CF000A468A04208D00133F6E702EBC305AD6813
:104D0000A84201D00133EAE702EBC3035A6822F05C
:104D1000FF0242F003025A6030BD00BFBCAA01206E
:104D20002DE9F04F002295B005464D490079FFF777
:104D300015FC3822002103A803F061F90223049333
:104D4000082306932023089301230B9304230D9338
:104D500010234FF0400C0F938023CDE911C3D523CE
:104D600003A81393FFF712FC2B6800215A681868F8
:104D700003F045F92A681468D36904F1600604F168
:104D8000A40704F1E80A04F53A7B04F12009002B9A
:104D900060D004F140083349C1F800903BB19269FA
:104DA0004046C8F80420C8F80030FFF7B9FD28686D
:104DB00000230269012162604269A170A2602A4A4F
:104DC00023701760294A637016600822E370E6605A
:104DD000276184F8A420C4F81490C4F818807B706C
:104DE000BB70FB70142784F86020214A214DC2F863
:104DF00000B0214A7370C2F800A0204AB370F3706B
:104E0000C2F81046C2F814361D4C29701D492360A3
:104E100002930B600B681C4E0293029B002001A9B9
:104E20000197FEF70FFE019B143B1E442B78012BCC
:104E300004D1002EF2D16FF07303236024685CB9B3
:104E4000124B1C70124B1C80124B1C80204615B05C
:104E5000BDE8F08F98469EE7FFF7B8FBF6E700BF86
:104E6000994E0400C4AA0120D4AA0120CCAA012092
:104E7000D0AA01206CE90120C8AA012000A00240AC
:104E8000B8AA012010560040F04902006DE9012047
:104E90003CAD01203AAD012070B5044620060CD58A
:104EA000FFF784FDFFF716FE38B1E0223E4B83F892
:104EB0002A234FF480625A6070BDE10748D548F25A
:104EC00002023A4BD3F81436934235D01BD843F242
:104ED0003202934236D00BD8013B012BECD803228F
:104EE0000E20334B1A70334B186003F003FBE3E7DB
:104EF00048F201029342DFD103222D4B1A70162291
:104F00002C4B1A60D8E72C4A93420CD8B3F1886F27
:104F10000CD848F203029342CED10322244B1A70DC
:104F20000C22244BEDE7254A9342C5D10321204AA8
:104F30001170204A1360BFE703221D4B1A705F22D5
:104F40001C4BDEE703221A4B1A700522194BD8E7D7
:104F500014F0400503D00222154B1A70ACE762072B
:104F600005D5134B1A781E463AB9FEF723FEE30621
:104F7000A2D5BDE87040FEF71DBE012AF7D1104A48
:104F800010481268916841605268026021B11AB1FC
:104F9000096809B112682AB9032305223370054B49
:104FA0001A60E4E71D70E2E700E100E000A00240C3
:104FB0006CE90120B8AA012004004004010050055A
:104FC000C4AA0120BCAA012008B54FF4B072002188
:104FD000024803F014F8002008BD00BFD8AA012041
:104FE0002DE9F04115462C2250431E460E4B0C462F
:104FF0001F181B582B408B4202D10020BDE8F081C6
:105000007B68002BF9D1B846D8F800302B40A3427A
:10501000F3D0D8F80430002BEFD131463846FEF7F4
:1050200011FD0028F0D0E9E7D8AA01200D4A70B59B
:10503000002311462C2505FB03F40C595CB1D46800
:1050400024F00806022E01D0052C04D105FB03F63E
:105050008C5904438C510133082B02F12C02EAD104
:1050600070BD00BFD8AA01200D4A70B500231146BB
:105070002C25C04305FB03F40C595CB1D46824F023
:105080000806022E01D0052C04D105FB03F68C592D
:1050900004408C510133082B02F12C02EAD170BD7F
:1050A000D8AA01200A4B024630B500201C462C210C
:1050B00001FB00F5655915B19D69954206D0013097
:1050C000082803F12C03F3D14FF0FF3030BD00BFAF
:1050D000D8AA0120072808D82C234343044AD01813
:1050E000D358002B08BF002070470020704700BF36
:1050F000D8AA01206A289ABF014B185C5F2070472C
:1051000073960400052813D007D870B10B4B1B5CB5
:105110000B4A40F215101360704706280BD00D287B
:1051200009D06A28F2D95F23F2E7054B186070476F
:105130004FF48A70704740F2111070477396040064
:1051400040AC012010B50024064B20221C60064B09
:10515000214606481C6002F052FF0122044B204603
:105160001A7010BD4CAC012048AC012050AC01209D
:105170006FE9012048F20F032DE9F04F99420446F0
:105180000E4689B000F0A48049F20403994200F071
:10519000AB8048F20D03994240F0B880BC4B1A68CE
:1051A0000393012A2DD14069002840F08C80D4F867
:1051B00018A0D4F800804FEA4A1318460193FEF76E
:1051C00019FD074610B3242000FB0AF0FEF712FD7C
:1051D0000546E8B1042600EBCA0307F12009029353
:1051E000029BAB4218D1BAF1000F05D0019B3B44A2
:1051F0009946002349F8043CA64B1F600223039AFA
:1052000013602068002840F0C781C7E1FEF7FAFC70
:105210000C22A14B1A60EFE758F8062008EB0601B4
:1052200049F8202C08EB06025268B1F812B0013A96
:10523000042A8CBF0022994B06F1140698BF9A5697
:10524000974B49F81C2C1A68964B49F8182C1A6889
:1052500049F8142C0A8A9449042A088849F8102C21
:1052600049F80C5C08EB060121D102226A60102289
:1052700028812A700A68EA6059F8102C0BF10100A5
:105280001644FEF7B7FC49F8080C48B15A4608EB3B
:10529000060102F0A9FE002159F8082C02F80B10B3
:1052A00049F8049C5E4409F12009083598E70A236F
:1052B0004FF0240C28816B6085F800C005F11000C8
:1052C00002F092FED8E7FFF71DFF734B186095E7D9
:1052D00043696A2B8EBF5F23744AD35C744A1360A0
:1052E000744B01221A7059E10369032B07D8DFE8D8
:1052F00003F0020802084FF40030FFF797FE6E4BF0
:10530000EFE74FF40030FFF7AFFEF8E701F410438A
:10531000B3F5104FC0683BD1FFF7C4FE07463846CF
:10532000FFF7D8FE054600283FF46BAF0146334631
:105330002246384600F0F4F9002800F02F8148F2A8
:105340000C039E4226D8B6F5004F7FF65AAFA6F55D
:105350000046013E0B2E3FF654AF01A353F826F052
:1053600025540400D9540400F555040013560400D4
:10537000BD540400A5550400A55504001D550400A6
:105380003F54040003520400035204004755040034
:10539000070CC4E749F202039E4200F0CC8049F2B8
:1053A00003039E425BD049F201039E427FF429AF82
:1053B0002E6816F4801600F0EE80A368042B40F2ED
:1053C000E780638A002B00F0E480102B40F0CC8053
:1053D0002420FEF70FFC18B30A2343602423037034
:1053E000627C237C04F1240143EA0223038100F15F
:1053F000100204F1140353F8046B8B4242F8046B5F
:10540000F9D12423226807930492626804A9CDE9A4
:105410000520E86903685B689847013040F08F8099
:105420000220BCE02B68012B40F0B88060690028A6
:1054300040F0E98002232B60A369AB61AFE02B68E9
:105440009BB20D2B40F0AA806069002840F0DB8001
:105450002B681B0C1B0443F00E032B609FE02B6892
:1054600043F400232B602B6823F400332B60236963
:105470006C2B07D12B6843F080432B6080236B603B
:10548000AB608BE06A2B96BF084A5F23D35CF6E7DC
:1054900048AC01204CAC012044AC01206E960400C5
:1054A0003CAC012038AC01203EAD012073960400D5
:1054B00070AC012070E901206EE901202B689BB2DD
:1054C000032B6BD16069002840F09D802B681B0C7A
:1054D0001B0443F00403C0E72B6899005ED52B68DA
:1054E00023F000532B60606968B92B6843F40033E4
:1054F0002B602B6843F480132B602B681B0C1B0460
:1055000043F00503A9E76A288EBF5F234C4B1B5C61
:105510006B602B6843F480232B603FE02B689BB2C9
:10552000062B3BD1606900286DD12B681B0C1B0436
:1055300043F0070391E72B689BB2072B2ED12B6812
:1055400043F48033E8E72B689BB2082B26D16369CC
:10555000002B6DD13B4B43F827402B681B0C1B04E1
:1055600043F009032B6032E0042B14D11020FEF726
:1055700041FB00283FF454AF022343601023037023
:10558000227C617C42EA012202816269C26039E7C1
:105590000023184636E7206802F04AFF002009B0D1
:1055A000BDE8F08F274B43F8274063697BB16B2B35
:1055B0000FD128690C2201282B6804D143F0006325
:1055C0002B606A60EBE743F480232B606A60012064
:1055D000E5E723F00200012802D10C236B60DEE72F
:1055E0006A2B8EBF5F23164AD35C6B602B6843F433
:1055F0008023B7E72B685A02D0D5606918B92B68A9
:1056000043F4000329E76A2817D80D4B1B5C6B6035
:10561000C4E72B68DB01C1D563694BB9206818B1B9
:105620000120084B43F827402B6843F0007314E730
:105630006A2B02D8024AD35CE9E75F23E7E700BFA1
:105640007396040050AC012038B5074C054654F859
:10565000300038B1FEF7D6FA002344F8353004EBB9
:10566000C504636038BD00BF74AC01204FF0FF3348
:105670002DE9F743DFF89480019308EBC0090D464C
:105680001646D9F8043047F281028969074602F0CC
:10569000D1FE044698B3D9F8042022B158F8371047
:1056A000006802F0A1FC2423174A03FB072304F13E
:1056B000140203F1240153F8040B8B4242F8040B4B
:1056C000F9D1A36822462433A3602B6847F28101F5
:1056D0001B0C1B0443F00A032B60042002F0A1FE04
:1056E0002B68DB000DD44FF6FF720B21384601AB5F
:1056F00002F0B3FE00B12E6003B0BDE8F0830C20D1
:10570000FAE77720F8E700BF72E9012074AC0120C6
:105710000122024B00201A70704700BF71E901207E
:1057200070B50C4648F281018B42064635D049F2ED
:1057300082018B4240D048F202018B4261D1002CA1
:105740005FD06369B3F5827F02D0B3F5877F58D10C
:10575000236823F0005323605569002D4DD1236841
:105760001B0C1B0443F0050323602368DB0001D4FA
:10577000002020E024237343234AD35C022BF7D17B
:105780002146304602F079FE0028F1D07728EFD08C
:105790006060236843F480232DE0002CE8D0236868
:1057A0009BB20A2BE4D1506940BB23681B0C1B043D
:1057B00043F00B03236070BD002CD9D023689BB24B
:1057C0000B2BD5D11569C5B9236843F080632360DD
:1057D000FFF73AFF236823F08063236023681B0CE4
:1057E0001B0443F00C032360236843F4003323605D
:1057F000236843F480132360BAE72846FFF77AFC56
:10580000C6E70120D7E700BF72E9012037B515468A
:105810006FF058020023027304220D4C437383730C
:10582000C373027243728372C372024689B2032049
:10583000237002F0F6FD4FF0FF3301932378AB4263
:1058400001D103B030BD01A90020FEF7FBF8F5E758
:1058500092EA0120012208B511460848FEF790F9A6
:10586000002002F0D8FD28B101220521FFF7CEFF6C
:10587000002008BD6FF00B00FBE700BFB4AC0120B7
:1058800070B5C3680546A72B03D0286802F0D0FD89
:1058900008E0032908D0042919D0022902D10122E5
:1058A0000E4B1A7000200AE00D4E336843B10024FD
:1058B000006898472868346002F0BAFDE0B270BD15
:1058C0000222084B01241860044B1A70F6E7064BBD
:1058D0001B68002BD9D000689847D6E792EA0120D0
:1058E000C0AC0120BCAC0120B8AC012010B504460E
:1058F000006808B102F09CFD054BE2689A4205BFC2
:105900000120044B0020187004BF034B1C6010BD25
:105910001AE1AB1593EA0120C4AC01202DE9F04156
:10592000046807460D46002C00F0868001F47043A1
:10593000B3F5005F42D15F4B1A789846012A31D106
:105940005D4A21681288B2EB114F2BD162686ABBA5
:105950005A4B1E681EB342F209039D421FD13046C6
:105960002389802240F8043B04F10A0102F03CFB49
:10597000802204F18A0106F1840002F035FBD4F89C
:105980000A31C6F80431D4F80E31C6F80831D4F81B
:105990001231C6F80C31D4F81631C6F81031002394
:1059A00088F80030386802F043FD45E047F6FF71A3
:1059B0008A420CBF032202221A70F3E7404E33687A
:1059C000002BEFD044F2040291420BD8B1F5804F86
:1059D000E8D9A1F58042023A022A0BD8DFE802F0AA
:1059E000454F590044F20113994203D044F2012378
:1059F0009942D7D1334F386808B102F019FD44F20B
:105A000001239D42304B1AD102223C6094F8514050
:105A10001A70E30702D50220336898472B4D14F023
:105A2000180433682A781AD01AB905209847012338
:105A30002B700120336898470020BDE8F08144F2C4
:105A4000011295420BBF012200223C603C600BBF5B
:105A500094F8414094F83D401A701A70D9E7002A32
:105A6000E7D0062098472C70E3E7194C206808B16E
:105A700002F0DEFC3B68032023603368DBE7154C53
:105A8000206808B102F0D4FC3B680420236033682E
:105A9000D1E72278032A85D8DFE802F0020507095A
:105AA000072098477EE70820FBE70920F9E70A204E
:105AB000F7E700BF96EA012040AD0120D8AC0120F5
:105AC000C8AC0120CCAC012095EA012094EA012069
:105AD000D4AC0120D0AC01200123034A1360C207DB
