:10000000D8250020551E0000EB820000291E0000AC
:10001000291E0000291E0000291E0000291E0000C4
:100020000000000000000000000000002518000093
:10003000291E000000000000CD170000712B0000F9
:10004000A5180000A5180000A5180000A5180000BC
:10005000A5180000A5180000A5180000A5180000AC
:10006000A5180000A5180000A5180000A51800009C
:10007000A5180000A5180000A5180000A51800008C
:10008000A5180000A5180000A5180000A51800007C
:10009000A5180000A5180000A5180000A51800006C
:1000A000A5180000A5180000A5180000A51800005C
:1000B000A5180000A5180000A5180000A51800004C
:1000C000A5180000A5180000A5180000A51800003C
:1000D000A5180000A5180000A5180000A51800002C
:1000E000A5180000A5180000A5180000A51800001C
:1000F000A5180000A5180000A5180000A51800000C
:10010000A5180000A5180000A5180000A5180000FB
:10011000A5180000A5180000A5180000A5180000EB
:10012000A5180000A5180000A5180000A5180000DB
:10013000A5180000A5180000A5180000A5180000CB
:10014000A5180000000000000000000000000000F2
:10015000000000000000000000000000000000009F
:10016000000000000000000000000000000000008F
:10017000000000000000000000000000000000007F
:10018000000000000000000000000000000000006F
:10019000000000000000000000000000000000005F
:1001A000000000000000000000000000000000004F
:1001B000000000000000000000000000000000003F
:1001C000000000000000000000000000000000002F
:1001D000000000000000000000000000000000001F
:1001E000000000000000000000000000000000000F
:1001F00000000000000000000000000000000000FF
:10020000DEE61E284CBBCE8F025B00003C000000E7
:1002100000000100010000000000000000000000DC
:10022000FFFF02910000000000000000000000003D
:0C023000000000000000000000000000C2
:10023C0053B94AB9002908BF00281CBF4FF0FF3141
:10024C004FF0FF3000F070B9ADF1080C6DE904CE41
:10025C0000F006F8DDF804E0DDE9022304B0704795
:10026C002DE9F047089E0D4604468A46002B7FD1A7
:10027C008A42174641D9B2FA82F24AB1C2F1200140
:10028C0005FA02F39740944020FA01F141EA030A7F
:10029C004FEA17484FEA144C1FFA87F9BAFBF8FEDD
:1002AC0008FB1EA30EFB09F14CEA0343994206D945
:1002BC00FB1802D2994200F224810EF1FF3E591A2A
:1002CC00A3B2B1FBF8F008FB101100FB09F943EAEB
:1002DC000144A14505D93C1902D2A14500F20E8179
:1002EC000138A4EB090440EA0E4000211EB1D440B1
:1002FC000023C6E90043BDE8F08702B9FFDEB2FA7D
:10030C0082F2002A4FD1CB1B4FEA174E1FFA87F807
:10031C000121250CB3FBFEFC0EFB1C302B4608FB0D
:10032C000CF945EA0045A9450AD97D192CBF0123D2
:10033C000023A94502D9002B00F0D9800CF1FF3C19
:10034C00A5EB0905A3B2B5FBFEF00EFB105508FB9F
:10035C0000F843EA0544A04505D93C1902D2A04552
:10036C0000F2C9800138A4EB080440EA0C40BDE758
:10037C008B4208D9002E00F0B1800021C6E900059F
:10038C000846BDE8F087B3FA83F1002946D1AB42A9
:10039C00C0F0A780824240F2A4800846002EAAD06A
:1003AC00C6E9004AA7E7C2F12000974001FA02F320
:1003BC004FEA174EC14024FA00F51FFA87F8944013
:1003CC001D43B1FBFEF02B0C0EFB101100FB08FCC7
:1003DC0043EA01439C4509D9FB182CBF012100219C
:1003EC009C4502D9002900F095800138A3EB0C0341
:1003FC00ADB2B3FBFEF10EFB113301FB08FC45EA79
:10040C000345AC4505D97D1902D2AC4500F2898073
:10041C000139A5EB0C0341EA00417AE7C1F1200454
:10042C008B4002FA01F705FA01FCE24020FA04F8CD
:10043C00E54000FA01FE134348EA0C024FEA134868
:10044C004FEA124C1FFA83F9B5FBF8FA08FB1A5560
:10045C000AFB09F04CEA054C60450AD913EB0C0C6D
:10046C002CBF01250025604501D9002D55D00AF17E
:10047C00FF3AACEB000C92B2BCFBF8F008FB10CCD2
:10048C0000FB09F942EA0C4CE14505D913EB0C0CC5
:10049C0001D2E1453BD8013840EA0A40ACEB090CEB
:1004AC00A0FB0789CC4545464A4602D306D1C64532
:1004BC0004D20138B8EB070569EB03022EB3BEEB8F
:1004CC0005036CEB020C23FA01F20CFA04F42CFA7F
:1004DC0001F300211443C6E900430CE731463046D2
:1004EC0009E7841A65EB030301209A4656E7ACF141
:1004FC00020C3D4424E702383C4434E702383C44C7
:10050C00EFE6AEF1020E3B44D9E63146F3E6023893
:10051C009C44C1E702383B4468E7AAF1020A9C44B8
:10052C00A7E702393D4474E7704700BF2DE9E04F5F
:10053C002746A046A146A246A346A446A2B02DEC4F
:10054C00000A84F3008825462646A4473DEC000AA1
:10055C0022B0BDE8E08F00000B6801330B60014B4B
:10056C001B6818470000002007B50B460021024607
:10057C000191034801A900F005F803B05DF804FBF4
:10058C00650500002DE9F04F8B4692461C46002570
:10059C0091B002909AF8000008B928465EE325282D
:1005AC000AF1010707D05946029B98470028C0F270
:1005BC005583013510E2182200210AA807F0EAFE43
:1005CC009AF80130252B78D0002294461646964690
:1005DC001046394617F8013B2B2B00F09D8000F29A
:1005EC009480202B00F09B80232B00F09A8028B164
:1005FC009DF8300040F004008DF83000BEF1000F83
:10060C0005D09DF8300040F008008DF830002EB178
:10061C009DF8300040F010008DF83000BCF1000F58
:10062C0005D09DF8300040F020008DF830002AB144
:10063C009DF8302042F040028DF830209DF830209B
:10064C0002F04400442803D16FF386128DF8302059
:10065C009DF830202A2B42F080028DF830207BD17F
:10066C009DF831204B1C42F001028DF831201A7894
:10067C002E2A0CBF012100219DF8312061F341028B
:10068C008DF8312074D15A782A2A6AD000210A2692
:10069C000133184610F8012BA2F13007092F40F254
:1006AC008E809DF830200E91C2F3400040EAD1714B
:1006BC0061F341028DF830205AE00AF102078DF8FF
:1006CC0033309DF83130D90740F1498154F8049BFF
:1006DC00B9F1000F07DA9DF83020C9F1000942F09A
:1006EC0004028DF830205A0740F1428154F8048BF3
:1006FC00B8F1000F80F241819DF831306FF3410366
:10070C008DF831304FF0FF3837E12D2B0CD0302BDA
:10071C007FF46DAF01225CE74FF0010E59E7012623
:10072C0057E74FF0010C54E7012052E733460CFB1E
:10073C000202303A1E4616F8010BA0F13007092FC1
:10074C00F4D9994293D09DF830100D92D20F62F3E8
:10075C0041018DF830108AE70B4600224FF00A0C4D
:10076C00E8E79DF83120023342F004028DF8312085
:10077C001F4617F8012B6C2A41D025D8682A2BD09C
:10078C006A2A46D04C2A4CD01F4617F8012B9DF8EC
:10079C003130782A8DF8332000F2D980572A4DD881
:1007AC00412A03D0453A022A00F2D18004229DF856
:1007BC00323062F302038DF8323001239EE006FBE7
:1007CC0001210346303964E7742A26D07A2ADBD11A
:1007DC0006229DF831300DE05A78682A9DF83120B8
:1007EC0006D1012161F3C6028DF831209F1CCCE7A4
:1007FC001346022262F3C6038DF83130C5E75A78EE
:10080C006C2A9DF8312001D10421EBE71346032219
:10081C00F0E705229DF83130ECE707229DF83130E6
:10082C00E8E7BDF8303023F4F04323F0020343F43F
:10083C00804343F00203ADF83030A6E7A2F1580133
:10084C00202900F2848001A050F821F01D0900003D
:10085C005B0900005B0900005B0900005B090000FC
:10086C005B0900005B0900005B0900005B090000EC
:10087C00B90700005B0900001D090000DD0800003D
:10088C00B9070000B9070000B90700005B090000B8
:10089C00DD0800005B0900005B0900005B0900003B
:1008AC005B090000250900001D090000410900003A
:1008BC005B0900005B090000410900005B090000B6
:1008CC001D0900005B0900005B0900001D09000008
:1008DC0001209DF8321003F0780360F30201402BE5
:1008EC008DF8321002BF9DF8301041F001018DF8E7
:1008FC003010632A31D1003B18BF01239DF8302002
:10090C00C2F340010B4363F341028DF83020D8E66B
:10091C0002209DF83210DEE703219DF8322003F00F
:10092C007803A3F1400061F3020243428DF83220B8
:10093C004341E3E703219DF8322013F0780F61F374
:10094C00020214BF012300238DF83220D6E79DF854
:10095C00303043F001038DF830300023CEE79DF9A1
:10096C003020002AACBF4FF0FF39DDF83490BAE6E6
:10097C009B077FF5C7AEDDF838800023CDE90D333A
:10098C009DF832309DF8312003F00703012BC2F3A0
:10099C00C30236D1D31E042B20D8DFE803F00307A3
:1009AC00071F1F0054F8040BC11704E0073424F090
:1009BC000704F4E80201CDE90A019DF8303013F088
:1009CC00030654D03B4652465946029807F011FC98
:1009DC000028C0F243810544BA46DBE554F8040B09
:1009EC00012A4FEAE071CDE90A0105D19DF82830C2
:1009FC000A9300230B93E0E7022ADED1BDF928000D
:100A0C00D2E7022B23D1D31E042B13D8DFE803F03B
:100A1C00030A0A12120000212068231D0A900B9170
:100A2C001C46CAE7073424F00703F3E80201CDE9BA
:100A3C000A01F5E754F8043B012A0A934FF000032E
:100A4C000B93D3D0022AB8D1BDF82830D0E7042BB1
:100A5C0007D1073424F00704F4E80201CDE90A01B8
:100A6C00ABE7032B04BF54F8043B0A93A5E79DF8AE
:100A7C0033007828B0D8622822D825283FF493ADCB
:100A8C005828A9D1DDE90A010DF1260300930CAA1F
:100A9C0004AB07F063FB8246B8F1000F0DF12600A2
:100AAC000CDB9DF83020A0EB0A036FF386129845FF
:100ABC008DF8302002D9A8EB03030D9380463DE05E
:100ACC006338152888D801A151F820F0590B000083
:100ADC00BD0B0000E5090000E5090000E509000078
:100AEC00E5090000BD0B0000E5090000E509000068
:100AFC00E5090000E50900001B0C0000E90B0000F3
:100B0C00ED0B0000E5090000E5090000310B0000C9
:100B1C00E5090000E90B0000E5090000E50900000B
:100B2C00E90B0000B8F1000FDDF828A00ADB414604
:100B3C00504607F0F4FB00260AEB0008BAF1000F50
:100B4C000CD149E7504607F0E3FBF4E700260A9B7B
:100B5C000DF111088DF810300DF1100AA8EB0A03F5
:100B6C0006B101339DF83220D0066BD50233520604
:100B7C000D9948BF0E9A0B4448BF9B18B9F1000F52
:100B8C0079DD9DF83020A9EB0309C2F380030393B0
:100B9C00530770D4500664D546B159463046029B73
:100BAC00984700285ADB039B01351E46302359E039
:100BBC001E0711D413F0100618BF2026DDE90A23F6
:100BCC00002A73F10001BFF65DAF524263EB4303A1
:100BDC002D26CDE90A2355E72B26EFE7002651E712
:100BEC000A9848B30DF126030093002104AB0CAA1C
:100BFC0007F0B4FABDF83230824603F0EF0343F449
:100C0C00F04343F010030026ADF8323044E70A9B62
:100C1C00072A3FF6E1AEDFE802F00D04060D0808E6
:100C2C000D0D1D70D8E61D80D6E62846E917C3E9E0
:100C3C000001D1E61D60CFE6DFF8C4800646A8F1BE
:100C4C00050A8BE7110748BF013390E71846039359
:100C5C005946029B98470028039B04DA11B0BDE863
:100C6C00F08F20234D444A46002AA5EB090109F1D7
:100C7C00FF39EBDC0D4636B159463046029B98479E
:100C8C000028EBDB01359DF83230D90601D41A0768
:100C9C0006D559463020029B98470028DEDB0135EB
:100CAC009DF83230DB0607D559469DF83300029B80
:100CBC0098470028D2DB01350D9E2E44731B002B68
:100CCC0016DC434652465946029807F092FA002821
:100CDC00C4DB0544A944A9EB0503002B7FF77CAECC
:100CEC0059462020029B98470028B7DB0135F2E7D4
:100CFC0059463020029B98470028AFDB0135DDE7D1
:100D0C001D8D0000044608B54FF02002EFF311834F
:100D1C0082F31288BFF36F8F02F016F8204601F0B1
:100D2C00C3F8034807F0F0F900F090FCFCE700BFB3
:100D3C001E8D00004FF02002EFF3118382F3128816
:100D4C00BFF36F8F0121044AC2F8401583F3118859
:100D5C00BFF36F8F002070470090035020B1034BFE
:100D6C00800143F001031847704700BF70890000F1
:100D7C0084B004AB03E907009DF80430062B07D1BF
:100D8C000122044BC3F80025BFF34F8F20BFFDE7B2
:100D9C0004B07047004000502DE9F84305464FF071
:100DAC002003EFF3118683F31288BFF36F8F1E4875
:100DBC0003F02CF940B91D491D48812207F0A4F914
:100DCC0081211A4807F02BFA174803F03BF9194B0D
:100DDC001C68002C38BF00249CB14FF00C09164F36
:100DEC00DFF85880D4E90132002D08BF13462BB12F
:100DFC0098F8142009FB02F2B85C98472468002C80
:100E0C00F0D1094803F010F940B908490848AC2260
:100E1C0007F07AF9AC21054807F001FA86F311883E
:100E2C00BFF36F8FBDE8F883600200204B8D00008C
:100E3C00718D00006402002070020020F409002073
:100E4C00012200F01F039A40084B400903EB80007D
:100E5C00D0E8EF3F43EA0201C0E8EC1FBCF1000F01
:100E6C00F6D11A4214BF0120002070477C020020EA
:100E7C00012230B51A4B85B01D7D05F01F039A4039
:100E8C00D043184B690903EB8103D3E8EF1F01EA48
:100E9C000004C3E8EC4FBCF1000FF6D1114217D09F
:100EAC000C22114C01AB02FB054207CA83E8070078
:100EBC000E4A7AB193E8070007F0B9F90020FFF762
:100ECC006BFF0C2300226B43E118E250C1E90122B5
:100EDC0005B030BD82F31188BFF36F8FEEE700BF12
:100EEC00F40900206C020020700200203B820000FC
:100EFC002DE9F041334B07461C7D88B02046FFF7A7
:100F0C009FFFDFF8D88060B90C256E4605FB048581
:100F1C003A462146304607F0A2F996E8070085E8E4
:100F2C0007000C23634318F8030008EB0302650960
:100F3C0004F01F06A8B37B1C0FD04FF4004C00210B
:100F4C00D2F808E020480023ECFB0E011F4AFFF703
:100F5C006FF90121381A04F00DFA03F057FB012048
:100F6C00FFF71AFF01221A4BB24003EB8503D3E8BB
:100F7C00EF1F1143C3E8E01F0028F8D10C2303FB3B
:100F8C00048405AB94E8070083E80700114A1AB102
:100F9C0093E80700FFF7ECFEFFF76AFF03F014FF7E
:100FAC0001200123B340DB430B4A02EB8505D5E856
:100FBC00EF2F1A40C5E8E12F0029F8D108B0BDE8A1
:100FCC00F08100BFF40900203F420F0040420F00A7
:100FDC006C0200207D0D00007C02002070020020BD
:100FEC0000280DDB0122430900F01F0002FA00F07B
:100FFC00044A203342F82300BFF34F8FBFF36F8FA7
:10100C00704700BF00E100E0F7B500281C4614BF94
:10101C004FF400534FF400438A420BD294222749D9
:10102C00274807F071F89421244803B0BDE8F0403C
:10103C0007F0F5B840D00D46224E002839D005F502
:10104C00E0770135AA4246F82740F6D802FB03F0B8
:10105C00013A4B4300901C4807F056F81B4B14F018
:10106C00100F1B491B4808BF194607F04DF814F028
:10107C00040F14BF72212D21174807F045F814F006
:10108C00020F14BF77212D21134807F03DF814F0FF
:10109C00010F0CBF2D2178210F4807F035F86C217A
:1010AC000D4807F031F80D4803B0BDE8F04007F0EB
:1010BC002BB805F5C077C4E703B0F0BDA18D0000D7
:1010CC00718D000000300050C28D0000958D000025
:1010DC008C8D0000738F0000DC8D0000679A00007F
:1010EC0030B54FF4803485B04FF480312548264D0F
:1010FC0007F00AF82168254807F006F82968244803
:10110C0007F002F810220021684607F043F9236823
:10111C0068460093029400F021FF012000F050FF7C
:10112C00002000F039FF002000F05EFF01210020BC
:10113C0000F078FF00F06CFF16482C6806F0E4FF16
:10114C000820FFF74DFF144A24F00104D2F8203890
:10115C00002B07DA03F00303023B012B9CBF0F4B60
:10116C00C2F820380121082007F08AF8BFF34F8F0E
:10117C00BFF36F8F64086400204621462246234645
:10118C00FFF7D4F9DF8D000004000100F68D00009C
:10119C000B8E0000298E00000030005000010080F2
:1011AC002DE9F843604806F0AFFF002140F2171319
:1011BC0008460222FFF728FF5C4D40F2071320225D
:1011CC0002210020FFF720FF594806F09DFFC5F3D0
:1011DC000E04584BC4F500449C4208D2564957485B
:1011EC00822206F091FF8221534807F018F8B4FAD6
:1011FC0084F4534EC4F11B04D6F80025E4B2D20596
:10120C00C5F3C4350AD54F494C484FF4BD7206F0AE
:10121C007BFF4FF4BD714B4807F001F8D6F804354D
:10122C00DB050AD54749454840F27B1206F06CFFB6
:10123C0040F27B11434806F0F2FF414B4248C3F8A1
:10124C000055C3F80445D3F80015D3F80425520112
:10125C0006F05AFF364806F057FF00F08BF80146AF
:10126C0010B13A4806F050FF0024394806F04CFF04
:10127C0040F21713042200210120FFF7C5FE304D68
:10128C0040F20713202204210120FFF7BDFE28485D
:10129C0006F03AFFC5F880442E4806F035FF2E4E76
:1012AC00C5F8C0442D4F2E4DDFF8C48095F805903D
:1012BC002146B9F1000F14BF33463B4640462A681D
:1012CC0006F022FFB9F1000F0CD12648013406F0CC
:1012DC001BFF202C05F10805E8D11548BDE8F843A3
:1012EC0006F012BF95F8049095F90400FFF778FE0C
:1012FC004FEA890303F1A04303F54053B9F1310FD1
:10130C00D3F8002806D0002A07DA02F00302023ACA
:10131C00012A02D8144AC3F800280121484606F0D5
:10132C00AFFF1248D2E700BF5F8E0000E0FF000065
:10133C00679A000020000000A18D0000718D000054
:10134C0000300050838E0000B58E0000FB8E000034
:10135C002B8F00004D8F0000548E0000998D0000E3
:10136C0078890000768F0000000100807D8F0000DE
:10137C00698F000000220248114604F045B900BFF5
:10138C008002002070B50C461546064650B96FF029
:10139C001500BDE87040714672467346F4468EF3F4
:1013AC00008C7447002AF2D006F0ADFF0128EED075
:1013BC000B4B9C420AD92A192D339A4209D82A463A
:1013CC002146304606F0DBFF0020E2E7054B9C424D
:1013DC0003D9054B2A199A42F1D94FF0FF30D8E7BF
:1013EC00FF01FF002F01FF003801FF0070B506461A
:1013FC000D46144606F087FF01280DD0204606F056
:10140C0082FF012808D023462A463146084804F0BA
:10141C002FF92368AB4201D06FF01500BDE8704086
:10142C00714672467346F4468EF3008C744700BFC7
:10143C00800200202DE9F04F81460D4685B081B326
:10144C0006F061FF01282CD1284606F05CFF01282C
:10145C0027D04FF00008DFF85CB0DFF85CA001AFDC
:10146C005BF8046B9AE807004E4487E807000C22EF
:10147C003946304606F05CFF044600B9A6B908F1BF
:10148C000108B8F1050FEBD16FF00D04204605B043
:10149C00BDE8F04F714672467346F4468EF3008CED
:1014AC0074476FF01504F1E73C223146284606F0EC
:1014BC0066FFEBE7788A000040890000014804F0E1
:1014CC009BB800BF8C8A000008B5B0B14368042BF0
:1014DC000DD100220368D3E8EF1F012903D1C3E823
:1014EC00E02F0028F7D1074808BF104608BD3BB1D4
:1014FC00006802F0AFFE0020F8E76FF4E040F5E77B
:10150C000148F3E7E98FFFFFEA8FFFFF10B50446B0
:10151C0018B90D4B0D485B689847616808290DD0C8
:10152C0031F004030AD011F0020108D0214608481A
:10153C0002F046FC002323600023636010BD1422DC
:10154C00206806F027FFF7E78C000020B29000001F
:10155C003C04002010B5044618B9164B16485B68BD
:10156C0098476368042B23D0082B21D0CBB9236870
:10157C00BBB94FF0FF324FF0FF3321460F4802F05A
:10158C00C5FB08B923681BB90A4B0D485B68984723
:10159C0014220021206806F0FDFE636843F002036C
:1015AC006360206807F025F8636843F0010363600B
:1015BC0010BD00BF8C000020B29000003C04002045
:1015CC00D890000008B5E8B14368042B0CD1012277
:1015DC000368D3E8EF1F002903D1C3E8E02F0028EC
:1015EC00F7D10BD1002008BD53B100684FF0FF328A
:1015FC004FF0FF3302F056FD0028F3D00348F2E71A
:10160C000348F0E76FF4E040EDE700BFE98FFFFF20
:10161C00EA8FFFFF08B5064940231422054806F05F
:10162C00C3FFBDE808400449044804F099B800BF62
:10163C005C0400203C040020A48A0000948A000072
:10164C00014910220A60704710ED00E072B640406C
:10165C0080F31188BFF36F8FBFF34F8F30BF62B62B
:10166C00BFF36F8F704700BF37B505460C46C9B145
:10167C008B6810480093D1E90023452106F0E2FD68
:10168C00636945210093D4E903230B4806F0DAFD86
:10169C004521E269094806F0D5FD4521A2690848B3
:1016AC0006F0D0FD2146284603B0BDE8304002F0DC
:1016BC00D3B900BF05910000399100006D91000075
:1016CC008191000043B2002B08DB012200F01F00C7
:1016DC0002FA00F0024A5B0942F82300704700BF8F
:1016EC0000E100E0054B420953F82220012300F0F1
:1016FC001F0003FA00F01040704700BF00E100E04B
:10170C0038B54C1C072C054608D90D490D485922F3
:10171C0006F0FAFC59210A4806F081FD6BB2002B49
:10172C00ACBF03F16043084B4FEA4414E4B2ABBFC7
:10173C0003F5614305F00F0583F800435C5538BD94
:10174C00B4910000718D000014ED00E030BFFFF784
:10175C00FDBF00BF0B4A08B50B4B22F07F029A600D
:10176C00BFF34F8FBFF36F8FD3F8882022F4700232
:10177C00C3F8882002F010FA03F066FC00F058FB66
:10178C0002F014FA0000000000ED00E0094A0A49DA
:10179C00936809685867996708494B6843F0805308
:1017AC004B60002383F31188BFF36F8F9368986F9E
:1017BC00704700BFF4090020788B000000ED00E0BA
:1017CC0013498A684FF030001044EFF3098C80E81D
:1017DC00F01F202080F31288BFF36F8F0D4F4FF056
:1017EC000066CA698A603E60506F0023536780F3BD
:1017FC00118802F1300090E8F01F8CF3098802F197
:10180C00000004B506F072FDBDE80440704700000E
:10181C00F409002004ED00E01EF0040F0CBFEFF300
:10182C000880EFF30980816911F8021C0229FFD0AE
:10183C0001B506F01DFD01BD42F8203C009B0B4993
:10184C0042F81C3C019B21F0010142F8183C029B20
:10185C0042F8081C42F8143C4FF0807342F8043CE8
:10186C000023203A02654367704700BF5581000092
:10187C00084B9860436E83F30B88104681F30988FC
:10188C00002163B681F31188BFF36F8F0022002310
:10189C0006F05AFCF409002001B572B60B4A9069A7
:1018AC0000281EBF0021916106F09CFE62B6EFF38A
:1018BC000580A0F110004FEAC0000549014409C998
:1018CC009847BDE80140034908470000F40900208F
:1018DC00F4860000E5180000044B9968D86988422A
:1018EC0003D003494FF080520A607047F40900207E
:1018FC0004ED00E070B52B4C06460D462A484521F8
:10190C0006F0A0FCA26AD00603D54521274806F0B4
:10191C0099FCA36A190703D54521254806F092FCCA
:10192C00204CA36A9A0710D54521224806F08AFC60
:10193C00626BA36A1B0608D545211F4806F082FC82
:10194C001EB1A36A23F08003A362164CA26AD607C9
:10195C0003D54521194806F075FCA36A980603D5F2
:10196C004521174806F06EFC0E4B9A6AD10602D43C
:10197C009A6A92070DD59B6ADB060AD51149124863
:10198C0040F24F1206F0C0FB40F24F110D4806F02A
:10199C0046FC0020034A936A43F0FF0393622870CD
:1019AC0070BD00BF00ED00E0EA9100000592000060
:1019BC003D92000055920000729200008D92000042
:1019CC00B1920000E5920000718D000070B5234CBF
:1019DC0006460D462248452106F034FCA26AD10485
:1019EC0003D545211F4806F02DFCA36A1A0503D523
:1019FC0045211D4806F026FC184CA36A9B0510D502
:101A0C001A48452106F01EFCA26BA36A180408D5DF
:101A1C004521174806F016FC1EB1A36A23F40043B7
:101A2C00A3620E4CA36A590503D54521114806F053
:101A3C0009FCA36ADA050BD545210F4806F002FC18
:101A4C000020064A936A43F47F439362287070BD6A
:101A5C00A36A9B04F4D545210848EFE700ED00E0AC
:101A6C001F9300003A9300003D9200005093000039
:101A7C006E93000088930000A8930000B1920000C0
:101A8C0038B5214C4521214806F0DCFBA26A9501B2
:101A9C0003D545211E4806F0D5FBA36ADC0103D50E
:101AAC0045211C4806F0CEFB174DAC6A14F480148B
:101ABC0004D04521184806F0C5FB0224AB6A180374
:101ACC0003D54521154806F0BDFB0F4DAA6A5103FD
:101ADC0003D54521124806F0B5FBAB6A9A0303D532
:101AEC004521104806F0AEFB074DAB6ADB0303D56E
:101AFC0045210D4806F0A6FBAB6A20466FEA03436E
:101B0C006FEA1343AB6238BD00ED00E0C5930000F3
:101B1C00E2930000FA93000019940000489400002E
:101B2C006B94000095940000B494000010B51E4C0A
:101B3C001E48452106F086FBA2696369580603D549
:101B4C0045211B4806F07EFB6369D90708D5452162
:101B5C00184806F077FB636943F0FF03636110BD1F
:101B6C0063699A0702D545211348F2E763695B075D
:101B7C0002D545211148ECE76369180702D54521C8
:101B8C000F48E6E76369D90602D545210D48E0E721
:101B9C0063699A0602D545210B48DAE763691B068F
:101BAC00D9D545210948D4E7D0ED00E0E4940000F4
:101BBC000295000017950000329500005595000025
:101BCC007595000097950000B1950000D095000028
:101BDC002DE9F0417A4B0D465C6800268AB0C4F3BF
:101BEC00080786F31188BFF36F8F02F07F43B3F1C0
:101BFC007F4F1ED112F001033AD012F0400302F0D5
:101C0C00080840F0D680520754BF05461E462A6885
:101C1C006C4B58BF01261344012B98BF2A6C4521ED
:101C2C00694806F00FFBB8F1000F1ED0EFF3898561
:101C3C005DB940F2F2326549654806F065FA40F24A
:101C4C00F231624806F0EBFA00250023FA1E9846A2
:101C5C008DF807301346092B00F29980DFE803F06A
:101C6C000A888C6A909797979794EFF38885DFE7AB
:101C7C001E46DEE74521574806F0E4FA504B8DF836
:101C8C000780DC6A14F0020404D04521524806F0A7
:101C9C00D9FA77E0DA6A002A1DDA45214F4806F0B6
:101CAC00D1FA9DF807309BB92022294602A806F0EC
:101CBC0066FB099B002E77D0C3F3080222B96FEAAA
:101CCC0053236FEA43230993204602A9FFF7CCFC68
:101CDC000AB0BDE8F081DB6A5B0040D54521404885
:101CEC0006F0B0FAAB6933F8022C4DF602739A4247
:101CFC000CD003F1604303F626631B786BB1012013
:101D0C000DF10701FFF7F6FD0446CAE745212A68E5
:101D1C00344806F097FA2C68C3E7334B1B782BB189
:101D2C0001200DF10701FFF751FEEDE72F4B1B884A
:101D3C009BB213B1FFF7A4FEE6E72D4B5B6913B121
:101D4C00FFF7F4FEADE7214940F2C322204806F02C
:101D5C00DBF940F2C3211D4806F061FAA1E71B49EB
:101D6C0040F2C7221A4806F0CFF940F2C721F2E739
:101D7C0000200DF10701C5E700200DF10701D2E7A6
:101D8C00FFF7D4FE00248CE745211A487FE71A4957
:101D9C0014F4F87F194A1A4808BF0A46A7F1100331
:101DAC00452106F04FFAEDE723F4FF7323F001030E
:101DBC0089E7B8F1000F7FF43BAF0546012637E702
:101DCC0000ED00E0A6ED050116960000E59200007E
:101DDC00718D00003A960000569600007C9600002B
:101DEC008F960000B396000029ED00E02AED00E08C
:101DFC00D0ED00E0D4960000E8950000FD950000C1
:101E0C00FD960000044B5A6942F010025A615A695F
:101E1C0042F480625A61704700ED00E0EFF30880F5
:101E2C00EFF3098101B57246FFF7D2FE01BD00BF89
:101E3C00002320210348C2180133412B82F80013E0
:101E4C00F9D1704700E100E0002080F31488BFF363
:101E5C006F8F002080F30A8880F30B8806F0F6FB66
:101E6C0000200E490860BFF34F8F0D4880F308889F
:101E7C0000F03CF8202080F311880A484FF40061F0
:101E8C00401880F30988EFF314800221084380F393
:101E9C001488BFF36F8FFFF75DFC000094ED00E03A
:101EAC00D825002018270020BFF34F8F0549064B7B
:101EBC00CA6802F4E0621343CB60BFF34F8F00BFDC
:101ECC00FDE700BF00ED00E00400FA050023184612
:101EDC00054A1168C1F307218B4200D1704793600A
:101EEC0010610133F8E700BF90ED00E010B572B659
:101EFC00002484F31388FFF7E9FF0E4A23461146AA
:101F0C004FF0FF3403F120000133102B42F8204036
:101F1C00F8D100234FF0FF3003F160020133102B96
:101F2C0041F82200F8D162B6BFF34F8FBFF36F8F29
:101F3C0010BD00BF00E100E0064B9B68834207D157
:101F4C00EFF3058323B1044A536843F08053536085
:101F5C0002F0E6BFF409002000ED00E082680D4BB2
:101F6C009A60036883F38888436883F38988027BCB
:101F7C0002F00101EFF3948323F00303920748BFAF
:101F8C0043F0020309B143F0010383F39488BFF3D8
:101F9C006F8F704700ED02E0084AD36848B123F414
:101FAC0000531B041B0C43F0BF6343F40033D3609A
:101FBC0070479BB243F40053F5E700BF00ED00E01F
:101FCC00084AD36840B19BB243F4804343F0BF63EB
:101FDC0043F40033D360704723F480431B041B0C81
:101FEC00F4E700BF00ED00E0084AD36840B19BB2B3
:101FFC0043F0080343F0BF6343F40033D3607047EE
:10200C0023F008031B041B0CF4E700BF00ED00E0F9
:10201C00034AD2F88C3043F44063C2F88C307047DA
:10202C0000ED00E0084B1A6818B142F001021A608A
:10203C00704722F001021A601A6811B142F00202D4
:10204C00F5E722F00202F2E7D0ED00E01FB5094CF3
:10205C00094A23460121094800F01AF90023039389
:10206C00074B0121E41A01A80193029400F02CF90A
:10207C0004B010BD0080002000000020B88A0000D1
:10208C005801002010B50B680C7A23F01F0204F0E5
:10209C001F031A43CB68640923F01F03044943EA66
:1020AC00440343F001038860CA600B6110BD00BF9C
:1020BC0090ED00E030B54B680C6885B00A898D7ADC
:1020CC000094013B24F01F04234402F01F0242EA57
:1020DC00451223F01F030F2804468DF808200393A4
:1020EC0009D902464521064806F0ACF86FF01504F4
:1020FC00204605B030BD6946FFF7C4FFF8E700BFC6
:10210C00199700002DE9F04F8946144606464FF00A
:10211C000008524D85B0C84523DA7768002F42D0AD
:10212C001F2F17D9FB0615D1D6F800A01AF01F0FD8
:10213C0010D1504606F0DEF8834607EB0A00013852
:10214C0006F0D8F8834510D06FF0150B5A46452190
:10215C00434802E042464521424806F073F86FF0CE
:10216C001504204605B0BDE8F08F1BF1160FEDD01D
:10217C00631E5B45EADBC5F808B0E968C5F808B032
:10218C002F6921F01F01D6E900321A44994247F019
:10219C001F0702F1FF3A1CD1574508D131465FFAAF
:1021AC008BF0FFF787FF08F101080C36B3E73146D7
:1021BC00C5F808B0EB6822F01F0203F01F031A43A6
:1021CC00EA60E0B2FFF776FF10F1160FC7D0441C9F
:1021DC00E9E7013B5745E0B223F01F03C5F808B00F
:1021EC0006D12A69314602F01F0213432B61E9E73D
:1021FC00296901F01F010B432B613146FFF75AFF90
:10220C0010F1160FABD0C5F808B0EA689DF808308D
:10221C00013F62F304038DF808302B699DF8082008
:10222C005B0863F347128DF80820D6E9003213449B
:10223C00009323F01F033B44441CA3EB0A0AE0B2B7
:10224C002AF01F030F28039303D9024645210648A1
:10225C0083E76946FFF716FFB9E700BF90ED00E092
:10226C006C97000044970000199700000522034B5F
:10227C005A60BFF34F8FBFF36F8F704790ED00E044
:10228C00BFF35F8F0022014B5A60704790ED00E066
:10229C0010B50A4C2278FFF735FF207016300CD1A0
:1022AC000749084840F2111205F02EFFBDE8104016
:1022BC0040F21111024805F0B2BF10BD14140020F9
:1022CC0094970000718D00002DE9F74F2D4D8A4633
:1022DC0006464FF00008AB462B4FD04502DB03B04F
:1022EC00BDE8F08FD6F80490B9F1000F44D03168F6
:1022FC000846019105F0FEFF0199044609EB010027
:10230C00013805F0F7FF84424FF014021F4B13D035
:10231C006FF0150302FB08F84BF8083040F221125D
:10232C001B491C4805F0F0FE40F22111184803B07F
:10233C00BDE8F04F05F073BF14F1160F2C60EDD013
:10234C001978A142EADD02FB08B0BC60BC60FC68F5
:10235C0000F10801007B64F30400087138690C7902
:10236C00400860F347140C71F96821F01F01696093
:10237C00396921F01F01296108F1010814350C3667
:10238C00ABE700BF5C09002090ED00E014140020C6
:10239C0094970000718D000070B51B4D2E68102EA7
:1023AC000DD94FF4A4721949194805F0ADFE174820
:1023BC004FF4A47105F033FF4FF0FF3070BDFFF701
:1023CC005FFF0020134C144A2263864215D1134B35
:1023DC001E70FFF74BFF2368C3F30723102B0AD0A3
:1023EC000A490B484FF4D67205F08EFE4FF4D671A5
:1023FC00064805F014FF0020E0E7696801EB0011C6
:10240C00FFF740FE0130E0E7C48A0000949700001B
:10241C00718D000090ED00E0AAFF44001414002020
:10242C002DE9F0410E4C0746051BC5F347130C254F
:10243C005D4305F148000E462044402105F0B3FFF2
:10244C00011E08DB074B2C44C4E91036064B5B59C4
:10245C00BDE8F041184738463346BDE8F04118470F
:10246C007009002015840000048B000038B5CCB234
:10247C00012C054608D908490848792205F044FE84
:10248C007921054805F0CBFE0C212B6904FB0134A6
:10249C00A06C00F0070038BDDA970000718D0000C9
:1024AC00F8B5CCB2012C0546164607690AD918496D
:1024BC00184840F24D1205F027FE40F24D11144819
:1024CC0005F0ADFE4FF02003EFF3118283F3128879
:1024DC00BFF36F8F0C2303FB0471896C11F0C001E7
:1024EC0001D08E4211D10121002003FB04739964A9
:1024FC0082F31188BFF36F8F30B90C23696803FB2B
:10250C000414636898470020F8BD4FF0FF30EFE7E4
:10251C00DA970000718D000070B50D46064904462F
:10252C00411A491140220548FFF7BAFF2B460146D4
:10253C002046BDE87040184770090020AC860000AA
:10254C0070B50022012104460520FFF7D9F80520BB
:10255C00FFF7B8F80F4800F0A5FD0F4B984215D1C6
:10256C0000F0C0FD26690D49304605F0DAFD002863
:10257C000BDB0125B5642469084904F1200005F042
:10258C00D0FD002801DB0020656570BD6FF00400F4
:10259C00FBE700BFE12500000000AD0B1C8B000029
:1025AC0001460C2300224B43084870B5C41848332D
:1025BC00D4E910561844226405F013FF2DB13246AD
:1025CC002B46BDE870400248184770BD70090020CA
:1025DC00AC860000012808B506D0032808D0A0B9A5
:1025EC000F4B9B6C5B0719D1BDE80840FFF7D8BFB8
:1025FC000C4940F25E220C4805F086FD40F25E214B
:10260C00BDE80840074805F00ABE064940F26222C0
:10261C00054805F079FD40F26221F1E708BD00BFE5
:10262C0070090020DA970000718D000008B54FF09A
:10263C002003EFF3118183F31288BFF36F8F124ADB
:10264C00136843F0020013F0010310600CD04FF03C
:10265C005022D2F80C34D2F80C2413F0010303D01E
:10266C000A4805F0BEFE012381F31188BFF36F8F7A
:10267C0023B1BDE808400020FFF792BF0120BDE860
:10268C00084000F04DBD00BFC8090020B80900206B
:10269C00074BD3E8EF2F22F00201C3E8E01F00281C
:1026AC00F7D1D30702D4012000F08ABD704700BFD8
:1026BC00C80900201FB500220123CDE902236B4677
:1026CC00084ACDF800D0CDF804D005F0AFFE0028B4
:1026DC0005DB4FF480420023684601F08DFE05B007
:1026EC005DF804FB3384000070B516460C46056992
:1026FC0041B91E491E48242205F006FD24211B4821
:10270C0005F08DFD636843B918491948252205F079
:10271C00FBFC2521154805F082FD6B685BB100229E
:10272C009C4213D123685AB9AA686B60944200D1B9
:10273C00AB600023236076B9002070BD0B46EFE739
:10274C001360AB689C4208BFAA60F2E719681A468E
:10275C000029F3D13EB16B682360A8686C60002837
:10276C00EAD1AC60E9E76FF01500E6E731980000BC
:10277C00718D00007FB5406801F01F04057BB2F538
:10278C00005F44EA45144FF0000504D1204601F0E7
:10279C0049F800204BE0B2F5804FCDE9025548D105
:1027AC00B3F5003F0CBF042305238DF80830836874
:1027BC0023FA01F1C90748D4B2F5A03F45D1660907
:1027CC000CBF4FF0FF33002304F01F05EB40DA077A
:1027DC000AD42649264840F2292205F095FC40F2FD
:1027EC002921224805F01BFD56B12049204840F212
:1027FC002E2205F089FC40F22E211C4805F00FFD1D
:10280C001C4B803553F82530DB071ED40DF1070522
:10281C002946204600F03CFF174B984214D128461D
:10282C0000F092FF154B98420ED06FF00B0004B0E5
:10283C0070BDB3F5C02F05D0B3F5003F0CBF02231C
:10284C000123B2E70323B0E7039500232046194682
:10285C0002AA00F0FFFD094B984204D10121204649
:10286C0000F078FF95E76FF00400E0E75E98000059
:10287C00718D0000002584500400AD0B0000AD0BE1
:10288C0010B500F051FF044668B900F025FF084B65
:10289C0098420AD12146074800F0F4FE2246052151
:1028AC000D20FEF72DFF002010BD6FF00400FBE79C
:1028BC000000AD0BC52800002DE9F843430929D1D0
:1028CC00154B5C6834B325680126002D38BF0025F4
:1028DC00DFF84C80114FDFF84C908640A3681E4205
:1028EC0010D0636843B939464846452205F00CFCC4
:1028FC004521384605F093FCD4E901322146404687
:10290C003240984735B12B682C46002B38BF00233A
:10291C001D46E3E7BDE8F883CC09002031980000A0
:10292C00C4860000718D00002DE9F043476801F06A
:10293C001F053B7B0E46144685B045EA4315CAB9C4
:10294C0002A9284600F0A4FE0446284600F08CFF9D
:10295C00474B984204D06FF0040005B0BDE8F083FB
:10296C00844205D19DF8080000F0E8FEA042F2D1A7
:10297C000020F2E74FF000090DF103013046CDE9DC
:10298C00029900F085FE4B4680464946284602AA2D
:10299C0000F060FD364B984202D06FF01500DCE77A
:1029AC00804503D19DF8030000F0C8FEA3054CD56B
:1029BC00304B314A2340934239D00CD8062B14D0DB
:1029CC0004D893B1022BE8D104230EE0B3F5801F99
:1029DC00E3D1012309E0294A93422AD0B3F5A00F91
:1029EC0029D0B3F5800FD8D102238DF8043084F4AC
:1029FC008073C3F30023E0068DF805304CBF03232E
:102A0C00C4F3401321058DF8063016D501217B68DF
:102A1C0001FA06F69E600022284601A900F0C0FDCE
:102A2C00134B984214BF6FF01500002095E7072355
:102A3C00DBE70523D9E70323D7E7620541BF012173
:102A4C007B6801FA06F6DE60E5E7E3064FF000036B
:102A5C004CBF0324C4F340141A46284601A98DF830
:102A6C00044000F0F7FC024B984281D095E700BF80
:102A7C000000AD0B0600F000060010000200400044
:102A8C00F7B50F46164640B918491948242205F0E7
:102A9C003BFB2421154805F0C2FB47B913491448E8
:102AAC00252205F031FB2521104805F0B8FB4FF429
:102ABC00806500246FF01500A64201D803B0F0BD6C
:102ACC00331BB3F5806F38BF1D46002001AB2A467F
:102ADC00391902F0CDFD019BAB4203D10028EDD199
:102AEC002C44E9E76FF01500E8E700BF9898000068
:102AFC00718D00000B4B10B59A681968986811F429
:102B0C00803F094B094901D1824205D21A680C68F1
:102B1C0022441A60034A12681B680A681344181A84
:102B2C0010BD00BF10E000E0E8090020E009002023
:102B3C0020220020074B83F82320074B1860074BFB
:102B4C001860074B586098601A6842F007021A60C8
:102B5C00704700BF00ED00E0E0090020E80900200C
:102B6C0010E000E008B5FFF7C5FF094A09491368F2
:102B7C00086803440B6000211160074A1068136059
:102B8C00181A02F035FCBDE80840FEF7A5BE00BFE0
:102B9C00E8090020DC090020D80900202DE9F041CB
:102BAC00394F59B1431C09D1384A136823F001033A
:102BBC0013604FF07F433B60BDE8F081344B3D68C0
:102BCC00B0F1FF3F08BF1846441E002C54DD9C4258
:102BDC00A8BF1C464FF02003EFF3118683F3128835
:102BEC00BFF36F8F2B4801F011FA40B92A492B48DB
:102BFC00812205F089FA8121274805F010FB254830
:102C0C0001F020FAFFF776FF4FF0000EDFF87C8022
:102C1C00DFF890C0224AD8F80810CCF800E0DFF8B2
:102C2C0088C01368DCF800C01844A0EB0C0CF44509
:102C3C004346106022DA4FF480643C603F689C6825
:102C4C00013F5F600027A14238BF4919091B0844A6
:102C5C009F6010600F4801F0E7F940B90E490F482A
:102C6C00AC2205F051FAAC210B4805F0D8FA86F3EA
:102C7C001188BFF36F8F9FE70024ABE7B4F5806F2B
:102C8C00B8BF4FF48064D8E7E009002010E000E002
:102C9C00FEFFFF00E40900204B8D0000718D000049
:102CAC00DC090020E8090020D809002038B54FF0D5
:102CBC002003EFF3118583F31288BFF36F8F154850
:102CCC0001F0A4F940B914491448812205F01CFA0A
:102CDC008121114805F0A3FA0E4801F0B3F9FFF772
:102CEC0009FF0F4B1C680F4B1B68E41A044409487E
:102CFC0001F09AF940B908490848AC2205F004FAE9
:102D0C00AC21054805F08BFA85F31188BFF36F8F62
:102D1C00204638BDE40900204B8D0000718D000069
:102D2C00DC090020D8090020054B1B68B3F17F4F4C
:102D3C0001BF044A136843F001031360704700BFDE
:102D4C00E009002010E000E0024A136823F00103C0
:102D5C001360704710E000E00348452108B505F00A
:102D6C0071FA0020FFF7A0F8D39800002DE9F0438A
:102D7C000025214C214E54F8048CDFF8889085B046
:102D8C00A84503D8002005B0BDE8F083636A96E837
:102D9C0007001F6801AB83E807000C221946384670
:102DAC0005F0C6FA90B98FB1636A21691B681A697C
:102DBC0091420BD19A69A169914207D8E16991427C
:102DCC0004D962695B6932EA03030AD0276A67B1E6
:102DDC000B4805F099F9404080F311884FF004003E
:102DEC0002DFE36801351C44CAE7484605F08CF95C
:102DFC00636A1F60F5E700BF3C0200004C890000CD
:102E0C00F59800001E990000064A074B1B681068D5
:102E1C00BFF34F8F092B03D1431E584258417047C3
:102E2C00002070473401FF003001FF00574A08B5FD
:102E3C00136843F002031360554B564A1B68126823
:102E4C00BFF34F8F092B01BF4FF050230022C3F863
:102E5C001421C3F81821FFF7D7FF30B101234E4AD4
:102E6C001360A2F63822C2F87835494B1A6804333D
:102E7C001B68BFF34F8F092A05D1012B1EBF0122FE
:102E8C00464BC3F87825FFF7BFFF10B10E22444B19
:102E9C001A603F4B3F4A1B681268BFF34F8F092BD8
:102EAC0004D100223F4B1A6001225A600022D30049
:102EBC0003F57F03D3F80013BFF34F8F013108D014
:102ECC00D3F800130132D3F80433B2F5807F0B60D2
:102EDC00EDD1354BDB69BFF34F8FD90745D5334B5C
:102EEC001946D3F80024012AFBD1C3F80425D1F8E4
:102EFC000034012BFBD12C4BDA69BFF34F8FD20777
:102F0C000AD5DA6922F00102DA61BFF34F8F274A42
:102F1C00D2F80034012BFBD1254B1B68BFF34F8F2C
:102F2C0001330DD1204A136A23F0FF0343F0200331
:102F3C001362BFF34F8F1D4AD2F80034012BFBD123
:102F4C0000221A4BC3F80425D3F80024012AFBD124
:102F5C00BFF34F8F1749184BCA6802F4E062134352
:102F6C00CB60BFF34F8F00BFFDE7114B1B68BFF366
:102F7C004F8F0133B3D00F4AD2F88C3043F44063F7
:102F8C00C2F88C300D4B0E4A1A6008BDD0ED00E033
:102F9C003001FF003401FF00384A0050004000505F
:102FAC00E4AE03500C4700500080FF00009003502B
:102FBC002080FF0000ED00E00400FA052400002052
:102FCC000090D00370B501250368B3FA83F2202A70
:102FDC00C2F11F0410D005FA04F223EA0202D0E871
:102FEC00EF6F9E4204D1C0E8EC2FBCF1000FF6D17C
:102FFC00EAD102480C7070BD0148FCE70000AD0B33
:10300C000200AD0B036810B5CB40DB0711D40123D4
:10301C0003FA01F1036841EA0302D0E8EF4F9C4246
:10302C0004D1C0E8EC2FBCF1000FF6D1F2D102486C
:10303C0010BD0248FCE700BF0000AD0B0400AD0B57
:10304C0008B570B101281BD04FF44F7213491448C6
:10305C0005F05AF811484FF44F7105F0E0F80020D4
:10306C000DE031B14FF05023D3F8183403F00303C3
:10307C000B704FF05023D3F81804C0F3004008BD78
:10308C0031B14FF05023D3F80C3403F001030B7023
:10309C004FF05023D3F80C04EFE700BF5199000018
:1030AC00718D000010B5044640B909490948BD228C
:1030BC0005F02AF8BD21064805F0B1F8064B1A793F
:1030CC0022B9012205481C601A7110BD0448FCE7A6
:1030DC0085990000718D0000EC0900200000AD0BFB
:1030EC000C00AD0B08B50B4B1B7943B90A490B48C7
:1030FC00D62205F009F8D621074805F090F80520EE
:10310C00FEF7F0FA20B9BDE808400520FEF7DABA60
:10311C0008BD00BFEC09002085990000718D0000EE
:10312C00224B13B51B79044653B9214921484FF45E
:10313C00897204F0E9FF4FF489711D4805F06FF8AE
:10314C006CB1012C28D04FF4A2721949194804F023
:10315C00DBFF4FF4A271164805F061F818E0204629
:10316C000DF10701FFF76CFF4FF0502390B19DF864
:10317C000720022A0ED1C3F8182500220E4B1A6024
:10318C001B6802224FF05023C3F8042301229A60DB
:10319C0002B010BD0122EEE70022084B1A601B683A
:1031AC004FF05023C3F804431C60F1E7EC090020F6
:1031BC0085990000718D00000451005000510050A1
:1031CC002D4B13B51B79044653B92C492C4840F2AE
:1031DC004B1204F099FF40F24B11284805F01FF8F0
:1031EC0074B1012C27D02549254840F2671204F010
:1031FC008BFF40F26711214805F011F802B010BDA9
:10320C004FF050230222C3F808230122C3F80441D3
:10321C0042F2107403F582731B681A4B1A6000217A
:10322C000846FFF70DFF0028E8D0012005F04FF904
:10323C00013CF4D1E2E74FF050230022C3F80843DD
:10324C00C3F8002103F580731B680F4B1C608DF8CD
:10325C00074042F2107401200DF10701FFF7F0FE58
:10326C000028CBD09DF807000128C7D105F02FF915
:10327C00013CF0D1C2E700BFEC09002085990000A9
:10328C00718D00000C50005004500050164B07B5C7
:10329C001A6852B1002018601B6801224FF05023AD
:1032AC00C3F80823114B1B689847114B1A688AB155
:1032BC0000200DF1070118601B68FFF7C1FE9DF897
:1032CC0007104FF0502301294FF0020205D1C3F82B
:1032DC001825996003B05DF804FBC3F80823034B71
:1032EC0001201B689847F5E700510050EC090020BD
:1032FC0004510050054B083033F8100000F0220048
:10330C00A0F1220358425841704700BF280000200A
:10331C0070B50D4C00F1080334F813300546DA058E
:10332C000E4607D5C3F3432304EBC302526854F88B
:10333C0033309847A3682BB131462846E268BDE884
:10334C007040184770BD00BF28000020194B083092
:10335C0033F8102010B5D1051DD5C2F3432122F44A
:10336C00F85223F81020002003F1100434F8022B3B
:10337C0012F4807F03D0C2F3432291420BD0013070
:10338C002028F3D100220C4843F83120FFF73AFEF5
:10339C000A4B984200D110BD09490A484FF4997262
:1033AC0004F0B2FEBDE810404FF49971044804F0EB
:1033BC0036BF00BF280000207C0000200000AD0BB1
:1033CC00C2990000718D000038B50C4C00F1080555
:1033DC0034F815309A060AD500225B0B9B0003F1DA
:1033EC00A04303F55043C3F81025C3F81025FFF78D
:1033FC00ADFF002324F8153038BD00BF2800002095
:10340C0010B50446006805F064F850B90E490F4831
:10341C0040F2292204F078FE40F229210A4804F0F7
:10342C00FEFE236803F01F025B0922600AD00649E6
:10343C00064840F22E2204F067FE40F22E2102488C
:10344C0004F0EDFE024810BD5E980000718D000086
:10345C0000258450F0B5044616461D4685B0F1B1E2
:10346C00FFF748FF10B14A4805B0F0BD0B46CDE957
:10347C0000008DF80E008DF80F000DF10F020DF10C
:10348C000E01204605F035F8424A04F1080132F8E5
:10349C00113023F0020343F0010322F8113096B1EE
:1034AC003C4B3078726804F1080633F816108F071D
:1034BC000CD5002AD7D133F8162022F01C0242EA90
:1034CC00800023F81600CDBB3348CDE721F0200156
:1034DC00C904C90C23F81610002AECD00328C2D852
:1034EC0092F800C06246920002F1A04202F55042EE
:1034FC0020B9C2F81005C2F81005DCE7D2F8107537
:10350C0041EA4C3127F00307C2F81075D2F8107558
:10351C0041F0200127F4473727F44077C2F81075A3
:10352C00D2F810E5270207F4F8574EEA004E47EAA6
:10353C000E07C2F8107523F81610BCE72046D5E923
:10354C000067FFF703FF002EBED0124D2B689E4282
:10355C0004D16B689F4201D100220AE00F480DF1A3
:10356C000F01FFF72FFD0C4B98427FF47DAF9DF8B8
:10357C000F2005EBC20308345F6035F8143045F8B2
:10358C00326043EA422343F4807325F814309BE7FE
:10359C000400AD0B280000200000AD0B7C000020C7
:1035AC00F0B50446154685B009B3334E00F1080753
:1035BC0036F81730980701D49A065AD413F01C0F1A
:1035CC0002D04B78012B54D001238DF80F300023FF
:1035DC004A1CCDE9001320468B1C0DF10F0104F0A1
:1035EC0088FF36F8173043F0030326F8173015B967
:1035FC00224805B0F0BD204E04F1080736F817003C
:10360C00830736D595F800C00023614620F02000D2
:10361C00890001F1A041C00401F55041C00CC1F872
:10362C00103526F81700C1F810356A78002ADFD05B
:10363C00D1F81035AD7823F4981323F4F853C1F86E
:10364C001035D1F810E5230203F4F853120443EAC1
:10365C000E0302F440322D05134305F4801540EAA5
:10366C004C302B4340F02000C1F8103526F81700E1
:10367C00BEE70348BDE700BF280000200000AD0BEB
:10368C000400AD0B014BC3E9020170472800002078
:10369C0038B504460D4651B90A490B4840F235225B
:1036AC0004F032FD40F23521064804F0B8FD074B1A
:1036BC00083433F814309A0643BF5B0B2B70044864
:1036CC00044838BDC2990000718D0000280000200C
:1036DC000000AD0B0400AD0B38B50E4C94F85850EF
:1036EC00B5B94022294604F1100004F053FE0D2018
:1036FC00FDF7E8FF4FF00042074B08481D601B68C0
:10370C00074BC3F80423012384F85830636538BD94
:10371C000448FCE7280000207CD100500000AD0BD1
:10372C0000D000500500AD0B034B93F85800003847
:10373C0018BF0120704700BF280000200146014837
:10374C00FFF760BC7800002001460148FFF73ABC47
:10375C0078000020F7B52F4D00F1080735F8173029
:10376C00044613F01C0F0E460AD12B492B4840F28D
:10377C00DF3204F0C9FC40F2DF31274804F04FFD82
:10378C0035F8170083061FD510F002031CD1410B2E
:10379C00084604F0AAFE00F1A04000F5504003607A
:1037AC0003688B0003F1A04303F55043D3F81025B5
:1037BC0042F00102C3F8102526B10123184A8B40B0
:1037CC00C2F8043303B0F0BD56B91349134840F2A4
:1037DC00EE3204F099FC40F2EE310F4804F01FFD7C
:1037EC0035F81730C3F38203042B0FD0052B0FD001
:1037FC0001A80194FFF704FE019B0169D94001F077
:10380C0001010231204604F0BFFEDBE70321F9E79A
:10381C000221F7E728000020C2990000718D0000FA
:10382C0000D000500E4B00F1080233F8123099060C
:10383C0013D59A0711D401225B0B9A4009499B00BE
:10384C0003F1A043C1F8082303F55043D3F8102526
:10385C0022F00302C3F810257047002104F094BE37
:10386C002800002000D000500D4B00F1080213F886
:10387C00123013B5DB07044610D5FFF7D3FF2046F3
:10388C00FFF7A2FD01A80194FFF7BAFD0222019BEC
:10389C00803340F82320034802B010BD0248FBE7F8
:1038AC00280000200000AD0B0400AD0B2DE9F04FFB
:1038BC00002601223446524B5248534985B01D68AC
:1038CC0035B1D0F8045315421EBF1C601D68164359
:1038DC0004338B424FEA4202F1D14C4B1A689846A2
:1038EC0082B14B4F3B6A02933B624FF00109029C41
:1038FC0054B9C8F80040D8F800303B6A02933B62D8
:10390C00002BF2D1012476E094FAA4F4B4FA84F4F6
:10391C00404A04F1080332F81330E5089A08C3F35F
:10392C00820B04F0070102AB09FA01F0595D019218
:10393C0021EA0001595503A80394FFF761FD03998F
:10394C00019A803150F821505307DA46C5F30145EE
:10395C0021D559462046FFF7DBFC03A80394FFF75B
:10396C004FFD039BEDB2803350F82330C3F301437A
:10397C009D4207D10021204604F006FE2946204630
:10398C0004F002FE03A80394FFF73AFD039B09FA27
:10399C0003F30362ABE7022D0CBF03210221204687
:1039AC0004F0F2FDBBF1030F04D0022D07D1BBF1E3
:1039BC00010FE7D151462046FFF7AAFCE2E7032DA1
:1039CC00E0D1BBF1020FF4E796FAA6F3B3FA83F356
:1039DC0004FA03F29B0003F1A04303F55043D3F820
:1039EC001005D3F81015C0F30420C1F3014126EAE9
:1039FC000206FFF78DFC002EE6D105B0BDE8F08F76
:103A0C0000D1005000D0005020D100507CD100508B
:103A1C0000258450280000200E4B70B553F8204030
:103A2C00013053F82060A64200D870BDD4E90035AF
:103A3C002846984765B1EB6830B10028B8BF4042C2
:103A4C00FF28A8BFFF2018705A7842F001025A7064
:103A5C000834E8E7648B0000F7B504460E464FF0D7
:103A6C002003EFF3118783F31288BFF36F8F01F0FC
:103A7C0051FA0022042C98BF1D4B054694BF53F8F5
:103A8C0024301C4B0092452122461B4804F0DAFBE3
:103A9C003EB1F369C3F308031BB14521174804F089
:103AAC00D1FB35B1284604F09BFD034608B10278E2
:103ABC0002B9134B2A464521124804F0C3FB314688
:103ACC002046FFF749F9042C08D10F490F488F22E3
:103ADC0004F01AFB8F210C4804F0A1FB87F311882A
:103AEC00BFF36F8F284603B0BDE8F040FEF724BA51
:103AFC007C8B0000009A0000169A0000439A00008C
:103B0C000E9A0000699A0000869A0000718D0000E0
:103B1C000023012210B586B0CDE904230F220193B6
:103B2C00CDE9023218230B4A0B4C03FB00234FF454
:103B3C00A0720A4904EBC01402FB0011009320464A
:103B4C00074B00F08FF9637B23F00403637306B01B
:103B5C0010BD00BFF409002058010020D82500201A
:103B6C0061400000012208B5094B02201A70FFF7D2
:103B7C0053FF04F069FD0320FFF74EFF00F0C6F978
:103B8C0004F0B9FA034A137B23F00103137308BD45
:103B9C0015140020D80100200248034A0021121AF3
:103BAC0004F0F8BB58010020D415002080B5354B2B
:103BBC00A6B003F5006787F3088883F30A8800240E
:103BCC00E023314D314E85F82230EC772C766C7633
:103BDC00AC7685F82040EC766B6ADFF8C49043F441
:103BEC00E0236B626B6A43F400236B62AC63EB689B
:103BFC009BB243F0BF6343F40833EB60FEF702F96A
:103C0C00FDF71EFD4FF0FF33AB62EB62FEF7C4FB1A
:103C1C00FEF71CFA40F20113ADF8243006ABB3608A
:103C2C00CDE91F4404F0BFFC2046FFF7F5FE012050
:103C3C00FFF7F2FE01F062F9154B164D05930123C7
:103C4C0015494FF48052CDE9034328464B46CDE944
:103C5C0001440094F56100F005F980466A7B284622
:103C6C0022F004026A7300F099FE2046FFF750FF21
:103C7C000A4B4A4641462846F36034757760FDF797
:103C8C00F7FD00BF1827002000ED00E0F40900202C
:103C9C00F29A0000D8010020D8150020580100200D
:103CAC00713B00002DE9F041144D154CA846154E02
:103CBC00AC4208D9314614483C2204F025FA3C2188
:103CCC00304604F0ACFA444502D30020BDE8F08144
:103CDC00D4E9041242EA010313F003030BD1E068A8
:103CEC00A361834201D12034E2E7A7690133176055
:103CFC00A2610A44F5E76FF01500E7E70801002020
:103D0C0008010020FA9A0000718D00002DE9F7439C
:103D1C0004460D469046994600F108064FF02003E4
:103D2C00EFF3118783F31288BFF36F8F304600F0E7
:103D3C006DF940B91F492048812204F0E5F9812131
:103D4C001C4804F06CFA304600F07CF9A369C3B14E
:103D5C002B601B68A361E3690133E36100243046E7
:103D6C0000F062F940B913491348AC2204F0CCF9C5
:103D7C00AC21104804F053FA87F31188BFF36F8F0E
:103D8C0013E058EA090203D16FF00B042B60E6E74D
:103D9C00224639463046CDE9008900F067FF0446DB
:103DAC0018B9064B9B685B692B60204603B0BDE8D5
:103DBC00F08300BF4B8D0000718D0000F4090020D2
:103DCC002DE9F04104460D4600F108064FF02003A2
:103DDC00EFF3118783F31288BFF36F8F304600F037
:103DEC0015F940B91D491E48812204F08DF9812135
:103DFC001A4804F014FA304600F024F9D4F818806C
:103E0C00B8F1000F0FD1204601F03AF858B12A68EA
:103E1C00C0F87880426100F0C1FD39463046BDE8FB
:103E2C00F04100F0BDBB2B68A26930461A602B68CC
:103E3C00A361E369013BE36100F0F6F840B907497F
:103E4C000748AC2204F060F9AC21044804F0E7F90F
:103E5C0087F31188BFF36F8FBDE8F0814B8D0000A5
:103E6C00718D00002DE9F04385B0DDF83C900446DF
:103E7C00B9F10F0F0F46154698462ED11F4B98459A
:103E8C002FD104F15803C4E91633109B0026237379
:103E9C00042363730E9BE81D02930D9B20F0070017
:103EAC0001930C9B3D18C4E9197000932A464346B4
:103EBC0039462046C4E90666A66084F80E90E6737F
:103ECC00E666FDF7B9FC0E4B66659B6803B11B6F8C
:103EDC002846236705B0BDE8F08309F110031E2BBB
:103EEC00CFD940F2FF120749074804F00DF940F210
:103EFC00FF11044804F093F9C3E700BF61400000D0
:103F0C00F40900201F9B0000718D00002DE9F04783
:103F1C00394F3A4D3E46DFF8EC8086B0BD420AD9A7
:103F2C004146374840F2CF2204F0EEF840F2CF2160
:103F3C00404604F074F9B54205F130041DD300F08D
:103F4C0065FB40F2E7384FF000092C4C2D4DDFF8A3
:103F5C00B0A0B4420AD92946504640F2EE2204F0F1
:103F6C00D3F840F2EE21284604F059F9B44221D39B
:103F7C0006B0BDE8F04700F027BF54F8043C0593A9
:103F8C0054F8103C049354F8143C039354F8183C24
:103F9C00029354F81C3C019354F8203C009354E9D0
:103FAC000A2354E90C01FFF75DFF54F8303C5D65C2
:103FBC002546B3E7636A5A1C0FD04FF400424046C3
:103FCC00494623EAE373C2FB0301494508BF404558
:103FDC00276804D1384600F017FD3034B9E74FF4A8
:103FEC007A720023FCF724F902460B4607F11800FD
:103FFC00054901F093F8F0E70801002008010020C2
:10400C00718D00001F9B0000994A0000006838B1B8
:10401C00044B00F003001B7DC01A18BF0120704731
:10402C0001207047F4090020054903468A68087D81
:10403C00196802430020914204BF186001207047A8
:10404C00F4090020024A117D93680B43036070470A
:10405C00F4090020104C08B5A26892F90E20002A31
:10406C0008DA0E490E48272204F04EF827210B4897
:10407C0004F0D5F84FF02002EFF3118382F312888D
:10408C00BFF36F8F01F040F9A061FCF731FF0028FE
:10409C00F0D1FDF7DBFAEDE7F4090020429B0000BC
:1040AC00718D00002DE9F341044616461F46EFF3CF
:1040BC00058343B162496348652204F025F8652104
:1040CC005F4804F0ACF84FF02003EFF3118883F352
:1040DC001288BFF36F8F5C48FFF798FF40B95B49BC
:1040EC005848812204F010F88121584804F097F8C0
:1040FC005548FFF7A7FFE368554AD3B1A06891680C
:10410C00884233D056EA070332D14F48FFF78CFF71
:10411C0040B94E494B48AC2203F0F6FFAC214B485A
:10412C0004F07DF888F31188BFF36F8F6FF00F00E8
:10413C0019E0916891F90E100133E36093684248DD
:10414C002161A360FFF770FF40B940493D48AC22A4
:10415C0003F0DAFFAC213D4804F061F888F31188D4
:10416C00BFF36F8F002002B0BDE8F0812169E3E757
:10417C0091F90E1090F90E306FF07E029942A8BFA3
:10418C0019469142B8BF11468B423FDD00F094FDB9
:10419C00054622464146CDE900672B4800F066FDF6
:1041AC000028E0D04FF02003EFF3118683F3128840
:1041BC00BFF36F8F2448FFF729FF40B923492148EB
:1041CC00812203F0A1FF8121204804F028F81E4829
:1041DC00FFF738FF236821699C420AD04BB193F951
:1041EC000E309942A8BF19466FF07E039942B8BFB2
:1041FC001946A06890F90E30994209D16DB131463B
:10420C00114800F0CDF96FF00A00ACE70025C0E7CB
:10421C0000F052FD0028F2D1F0E70B48FFF704FF45
:10422C0040B90A490748AC2203F06EFFAC2107489D
:10423C0003F0F5FF86F31188BFF36F8FE3E700BF40
:10424C00639B0000718D00001C0A00204B8D000048
:10425C00F409002038B50446EFF3058343B1454912
:10426C004548C72203F050FFC721424803F0D7FF4F
:10427C00A368002B78D0414DAA68934277D1E368AC
:10428C0043B93C493C48DF2203F03EFFDF2139486B
:10429C0003F0C5FFEFF3058343B139493648FD22DE
:1042AC0003F032FFFD21364803F0B9FFAB68DB7B2E
:1042BC00012B08D132493048FE2203F025FFFE21A4
:1042CC002F4803F0ACFFAA68D37B013BD373E368A0
:1042DC00012B05D9013BE36000F076FD002038BDD1
:1042EC004FF02003EFF3118583F31288BFF36F8F28
:1042FC002448FFF78BFE40B923491F48812203F065
:10430C0003FF8121204803F08AFF1E48FFF79AFE25
:10431C00A068216990F90E30994201D000F0CCFCD4
:10432C00204600F0ADFDA06058B190F90E2022613E
:10433C000022826700F032FB2946124800F030F967
:10434C00CAE7E0600F48FFF76FFE40B90E490A4814
:10435C00AC2203F0D9FEAC210B4803F060FF85F3CF
:10436C001188BFF36F8FB7E76FF01500B7E74FF009
:10437C00FF30B4E7639B0000718D0000F40900204E
:10438C00859B00001C0A00204B8D000038B50446AC
:10439C004FF02003EFF3118583F31288BFF36F8F77
:1043AC001248FFF733FE40B911491248812203F03D
:1043BC00ABFE81210E4803F032FF0C48FFF742FEA2
:1043CC00204600F05DFD48B10022826700F0E6FA5D
:1043DC002946BDE83840054800F0E2B8D4E902327D
:1043EC009A4218BF0133A360F2E700BF200A0020F5
:1043FC004B8D0000718D0000F7B5044616461F4624
:10440C00EFF305835BB156EA070308D02B492C4820
:10441C00792203F079FE7921284803F000FF4FF050
:10442C002003EFF3118583F31288BFF36F8F2548B8
:10443C00FFF7ECFD40B924492148812203F064FECA
:10444C008121214803F0EBFE1E48FFF7FBFDA3681A
:10445C00ABB1013B1B48A360FFF7E6FD40B91A491D
:10446C001748AC2203F050FEAC21174803F0D7FEDE
:10447C0085F31188BFF36F8F002003B0F0BD56EAAF
:10448C00070313D10F48FFF7CFFD40B90E490C4875
:10449C00AC2203F039FEAC210B4803F0C0FE85F3CF
:1044AC001188BFF36F8F6FF00F00E6E722462946A5
:1044BC00CDE90067034800F0D9FBDEE7B09B0000B4
:1044CC00718D0000200A00204B8D000010B5084CA7
:1044DC0023685BB1FEF7EAFB03462068054A0344F8
:1044EC000021BDE81040136100F044BF10BD00BFB7
:1044FC00300A0020F4090020F8B504460D464FF0B0
:10450C002003EFF3118683F31288BFF36F8F1E48DD
:10451C00FFF77CFD40B91D491D48812203F0F4FDD5
:10452C0081211A4803F07BFE1748FFF78BFD4FF4EF
:10453C000047002240F2E7300021164BE7FB040154
:10454C001A6100234FF47A72FBF772FE002C124BA7
:10455C0016DC1860114B1D60FFF7B8FF0A48FFF717
:10456C0063FD40B909490A48AC2203F0CDFDAC21EA
:10457C00064803F054FE86F31188BFF36F8FF8BD25
:10458C000228B8BF0220E4E7280A00204B8D000067
:10459C00718D0000F4090020300A00202C0A002044
:1045AC0010B503460C46C1B9EFF30582AAB9144AFB
:1045BC00D1699268914210D0FFF736FD40B911498C
:1045CC001148C32203F0A0FDC3210E4803F027FEBF
:1045DC00BDE810400020FDF7D9B81846FFF724FDC0
:1045EC0040B908490848AC2203F08EFDAC210548BF
:1045FC0003F015FE84F31188BFF36F8F10BD00BF5D
:10460C00F40900204B8D0000718D000038B54FF07F
:10461C002003EFF3118583F31288BFF36F8F2048CB
:10462C00FFF7F4FC40B91F491F48812203F06CFDD1
:10463C0081211C4803F0F3FD1948FFF703FDEFF34C
:10464C00058343B119491848FD2203F05DFDFD2196
:10465C00164803F0E4FD164CA268D27B012A08D15F
:10466C0012491148FE2203F04FFDFE210F4803F0C2
:10467C00D6FDA268D37B013BD3730948FFF7D4FC6A
:10468C0040B908490848AC2203F03EFDAC2105486E
:10469C0003F0C5FD85F31188BFF36F8F38BD00BFE4
:1046AC00280A00204B8D0000718D0000859B0000B6
:1046BC00F40900200B4B10B599420C460AD10A495B
:1046CC000A4840F2E73203F01FFD40F2E73106489A
:1046DC0003F0A5FDD4E9003213605A600023C4E94D
:1046EC00003310BD58010020D09B0000718D0000DC
:1046FC00836810B5044653B90A490B4840F283222B
:10470C0003F002FD40F28321064803F088FD2146A8
:10471C00A068FFF7CFFF637B23F0020363730023D2
:10472C00A36010BDD09B0000718D000038B502460F
:10473C00124803F07BFF124D044600B9EC68AAB98D
:10474C00AB6843B90F491048892203F0DDFC89217D
:10475C000C4803F064FDAB685A7BD20606D1A26903
:10476C0022B9DA897F2A01D9EB6138BDAB68A34243
:10477C0001D0FFF7ABFEEC61F7E700BF140A002095
:10478C00F4090020D09B0000718D000070B590F9E9
:10479C000D200446002A437B06DA03F07F03014612
:1047AC0043731F48FFF786FF637B63F07F036373DC
:1047BC001C4B9C4208D11C491C48BA2203F0A4FC97
:1047CC00BA21194803F02BFD194A114651F8203F24
:1047DC00556A8B4208BF0023002B38BF0023CBB196
:1047EC0094F90E6093F90E0086420FD0801B0028BE
:1047FC000CDD5968C4E900310C605C609068031BE7
:10480C0058425841BDE87040FFF790BFAB4201D011
:10481C001B68E4E7C4E900152C605462EEE700BFA6
:10482C00140A002058010020D09B0000718D00005C
:10483C00F409002070B504464FF02003EFF3118506
:10484C0083F31288BFF36F8F2548FFF7DFFB40B966
:10485C0024492548812203F057FC8121214803F08B
:10486C00DEFC1F48FFF7EEFB204B214A98681168CD
:10487C008842194613D1FFF729FE1948FFF7D4FBDC
:10488C0040B918491848AC2203F03EFCAC2115483D
:10489C0003F0C5FC85F31188BFF36F8F70BD002644
:1048AC001660144A1268BAB1C2897F2A14D8427BA6
:1048BC00D20611D1104A90F90E60126896420BDBA9
:1048CC000E4A904208D01A69A24202DCFFF75EFF42
:1048DC00D1E7121B1A61D0E700230B61CDE700BFB3
:1048EC00280A00204B8D0000718D0000F409002077
:1048FC00240A0020300A00202C0A00205801002035
:10490C0070B590F90D200446002A437B3DDBDA0696
:10491C003BD18569002D38D163F07F0343731B4B6A
:10492C00984208D11A491B48BA2203F0EDFBBA2170
:10493C00174803F074FC18490B4653F8200F9842A3
:10494C0018BF0546002D1A462B4638BF00234D6A6A
:10495C00B3B194F90E6093F90E0086420CD0801B13
:10496C00002809DD5A68C4E9003214605C6000203C
:10497C00BDE87040FFF7DABEAB4201D01B68E7E739
:10498C00C4E900252C604C62F1E770BD5801002091
:10499C00D09B0000718D0000F409002038B504464E
:1049AC004FF02003EFF3118583F31288BFF36F8F61
:1049BC001248FFF72BFB40B911491248812203F032
:1049CC00A3FB81210E4803F02AFC0C48FFF73AFBAD
:1049DC002046FFF795FF0948FFF726FB40B9084929
:1049EC000848AC2203F090FBAC21054803F017FCFF
:1049FC0085F31188BFF36F8F38BD00BF280A0020E4
:104A0C004B8D0000718D000038B504464FF020032B
:104A1C00EFF3118583F31288BFF36F8F1848FFF7FC
:104A2C00F5FA40B917491848812203F06DFB812132
:104A3C00144803F0F4FB1248FFF704FB637B5A079E
:104A4C0011D40F48FFF7F0FA40B90E490E48AC22CA
:104A5C0003F05AFBAC210B4803F0E1FB85F3118802
:104A6C00BFF36F8F38BD23F0040320466373FFF749
:104A7C0047FF2946BDE838400148FFF791BD00BF0C
:104A8C00280A00204B8D0000718D000070B5044683
:104A9C004FF02003EFF3118683F31288BFF36F8F6F
:104AAC001B48FFF7B3FA40B91A491B48812203F09F
:104ABC002BFB8121174803F0B2FB1548FFF7C2FA14
:104ACC0014F80B3C13F0280F10D154F8103CA4F13F
:104ADC00180513B12846FFF70BFE14F80B3C2846BB
:104AEC0023F0140304F80B3CFFF70AFF0848FFF708
:104AFC009BFA40B907490848AC2203F005FBAC21EE
:104B0C00044803F08CFB86F31188BFF36F8F70BDE4
:104B1C00280A00204B8D0000718D000010B590F913
:104B2C000D200446002A437B06DA03F07F0301467E
:104B3C0043730648FFF7BEFD054B9868031B5842AC
:104B4C005841BDE81040FFF7F1BD00BF140A00202A
:104B5C00F409002038B504460D46FFF7DFFF637BF0
:104B6C0043F00203637315B3174BA5609C4208D145
:104B7C0016491748BA2203F0C7FABA21134803F0B2
:104B8C004EFB2B689D4208BF0023002B38BF00232F
:104B9C009BB194F90E1093F90E20914208D0521A41
:104BAC00002A05DD5A68C4E9003214605C6038BD27
:104BBC006A68934201D01B68EAE76B68C4E900534A
:104BCC001C606C60F3E700BF58010020D09B000014
:104BDC00718D00002DE9F04104460D4616461F4626
:104BEC004FF02003EFF3118883F31288BFF36F8F1C
:104BFC001A48FFF70BFA40B919491A48812203F0F9
:104C0C0083FA8121164803F00AFB1448FFF71AFABD
:104C1C0020462946FFF79EFF1048FFF705FA40B9DA
:104C2C000F491048AC2203F06FFAAC210C4803F08A
:104C3C00F6FA88F31188BFF36F8F7B1C08BFB6F1AF
:104C4C00FF3F08D032463B4604F118000649BDE848
:104C5C00F04100F063BABDE8F08100BF280A0020E3
:104C6C004B8D0000718D0000994A000038B5054647
:104C7C000D4B0C4698680D4B11461860DDE904236A
:104C8C00FFF7A8FF2846FFF7CFF940B908490948B4
:104C9C00C32203F039FAC321054803F0C0FA2046B9
:104CAC00BDE83840FCF772BDF4090020240A00204E
:104CBC004B8D0000718D0000F8B504460E464FF088
:104CCC002003EFF3118783F31288BFF36F8F3748FC
:104CDC00FFF79CF940B936493648812203F014FAA3
:104CEC008121334803F09BFA3048FFF7ABF9637B23
:104CFC0076B2DA0656D1A569002D53D103F07F03A5
:104D0C00637321462C48FFF7D5FC637BA67363F0D5
:104D1C007F036373294B9C4208D129492548BA2249
:104D2C0003F0F2F9BA21264803F079FA25490B462B
:104D3C0053F8200F984218BF0546002D1A462B46F3
:104D4C0038BF00234D6A43B394F90E6093F90E00FB
:104D5C0086421ED0801B00281BDD5A68C4E9003235
:104D6C0014605C600120FFF7E1FC01240F48FFF7A1
:104D7C005BF940B90E490F48AC2203F0C5F9AC21E0
:104D8C000B4803F04CFA87F31188BFF36F8F204662
:104D9C00F8BDAB4201D01B68D5E7C4E900252C60F7
:104DAC004C62DFE7A6730024E0E700BF280A00206E
:104DBC004B8D0000718D0000140A0020580100205A
:104DCC00D09B0000F409002038B54FF02003EFF31E
:104DDC00118583F31288BFF36F8F2448FFF716F900
:104DEC0040B923492348812203F08EF981212048C0
:104DFC0003F015FA204C1D48FFF724F9A268D27B6A
:104E0C0052B91E491B4840F2853203F07DF940F23D
:104E1C0085311A4803F003FAEFF3058353B11749B0
:104E2C00144840F2863203F06FF940F28631134891
:104E3C0003F0F5F9A2680020D37B0133D373FFF79D
:104E4C0075FC0A48FFF7F0F840B909490948AC224B
:104E5C0003F05AF9AC21064803F0E1F985F3118807
:104E6C00BFF36F8FBDE8384003F0D6BB280A002093
:104E7C004B8D0000718D0000F4090020D09B0000C8
:104E8C0038B504464FF02003EFF3118583F31288F5
:104E9C00BFF36F8F1648FFF7B9F840B9154916489C
:104EAC00812203F031F98121124803F0B8F910483E
:104EBC00FFF7C8F8204603F0B9FB044628B1FFF70A
:104ECC0017FC04F1180000F0E3F90948FFF7ACF8FF
:104EDC0040B908490848AC2203F016F9AC21054842
:104EEC0003F09DF985F31188BFF36F8F204638BD11
:104EFC00280A00204B8D0000718D00000021044B0E
:104F0C00084603F12002C3E90822FFF7F5BA00BFF7
:104F1C00F4090020014B9868704700BFF409002089
:104F2C002DE9F04104464FF02003EFF3118683F393
:104F3C001288BFF36F8F3E48FFF768F840B93D49C0
:104F4C003D48812203F0E0F881213A4803F067F9EB
:104F5C003748FFF777F8637B1A0712D53448FFF709
:104F6C0063F840B933493448AC2203F0CDF8AC2196
:104F7C00304803F054F986F31188BFF36F8FBDE806
:104F8C00F08123F0200242F00801D20938D161737C
:104F9C00A36813B12046FFF7ABFB04F1180000F037
:104FAC0077F94FF0000804F15807A56DBD4200D009
:104FBC0085BB0120FFF7BAFB204B9B68A342CDD1E8
:104FCC00EFF30583002BC9D11948FFF72DF840B931
:104FDC0018491948C32203F097F8C321154803F068
:104FEC001EF93046FCF7D2FB40F24B6214491248D2
:104FFC0003F08AF840F24B61114803F010F9ADE769
:10500C0003F05F0343F0080321460E486373FFF778
:10501C0051FBBDE72846FFF76BFB05F1180000F0CC
:10502C0037F92846C5F87880FFF76AFCBDE700BF62
:10503C00280A00204B8D0000718D0000F40900201F
:10504C00D09B0000140A002008B50648064A074900
:10505C00121A03F094F9BDE80840054A05490648C0
:10506C0003F08DB900000020580100201C9C0000AA
:10507C00000000001C9C000000000020034B1B687B
:10508C000BB9FDF713BE0020704700BF340A002097
:10509C0030B5036868B10A4A5268904209D043B1EE
:1050AC00D3E90421D0E90445121945EB0101C3E908
:1050BC000421426813605A600023C0E9003330BDFC
:1050CC008400002038B5134B1C689C4208BF002498
:1050DC00FFF7D4FF0546BCB1D4E90401401B61EBDA
:1050EC00E571012871F1000311DB6FF00042002320
:1050FC00824273EB010400DA1046074B1B6913B1B3
:10510C009842A8BF184638BD6FF00040F5E7002064
:10511C00F3E700BF84000020F40900202DE9F74FCD
:10512C001D466B1C08BFB2F1FF3F82468B461446EE
:10513C0000F09C80036843B14E494F485D2202F059
:10514C00E3FF5D214B4803F06AF8CAF808B04FF052
:10515C002003EFF3118B83F31288BFF36F8F474853
:10516C00FEF754FF40B946494348812202F0CCFF78
:10517C008121434803F053F84048FEF763FF6FF07A
:10518C0001034FF0FF32B3EB040862EB0509B8F1F1
:10519C00000F79F100011CDB3A48D0E900105B1AD2
:1051AC0062EB00021E1B62EB0507012E77F1000378
:1051BC00BCBF01260027CAE90467334AD2E900368E
:1051CC0093421DD1CAE90026C6F800A0C2F804A07B
:1051DC002CE0FFF753FF631C009345F10003019390
:1051EC00DDE90023121843EBE073CAE90423E4E77A
:1051FC00E01B65EB0801B342CAE90401E2D01B686D
:10520C00002BDFD0D3E90478DAE90445BC4275EB16
:10521C000801EDDA381B68EB0501C3E90401596894
:10522C00CAE90031C1F800A0C3F804A01368934286
:10523C000BD09A4509D1FFF745FF18B1134B1B69E9
:10524C00834202D00021FDF7A9FC0C48FEF7ECFECE
:10525C0040B90B490848AC2202F056FFAC21084873
:10526C0002F0DDFF8BF31188BFF36F8F03B0BDE845
:10527C00F08F00BFF29B0000718D0000380A0020F7
:10528C004B8D00005802002084000020F4090020FF
:10529C0038B504464FF02003EFF3118583F31288E1
:1052AC00BFF36F8F1548FEF7B1FE40B9144915488E
:1052BC00812202F029FF8121114802F0B0FF0F4832
:1052CC00FEF7C0FE2368B3B12046FFF7E1FE0024D1
:1052DC000A48FEF7A9FE40B909490A48AC2202F077
:1052EC0013FFAC21064802F09AFF85F31188BFF337
:1052FC006F8F204638BD6FF01504E9E7380A00209F
:10530C004B8D0000718D000038B54FF02003EFF38A
:10531C00118583F31288BFF36F8F1348FEF776FE67
:10532C0040B912491248812202F0EEFE81210F4849
:10533C0002F075FF0C48FEF785FEFFF7C3FE04462E
:10534C000948FEF771FE40B908490948AC2202F041
:10535C00DBFEAC21054802F062FF85F31188BFF338
:10536C006F8F204638BD00BF380A00204B8D0000DF
:10537C00718D000070B504460D464FF02003EFF31D
:10538C00118683F31288BFF36F8F1648FEF73EFE2B
:10539C0040B915491548812202F0B6FE8121124808
:1053AC0002F03DFF0F48FEF74DFEFFF78BFE012884
:1053BC0005DDA04203DB29462046FDF7EFFB09483B
:1053CC00FEF732FE40B908490848AC2202F09CFEB8
:1053DC00AC21054802F023FF86F31188BFF36F8FD1
:1053EC0070BD00BF380A00204B8D0000718D00008D
:1053FC002DE9F04F85B00446FFF71CFA4FF020035F
:10540C00EFF3118983F31288BFF36F8F4C48FEF7CB
:10541C00FDFD40B94B494C48812202F075FE8121BB
:10542C00484802F0FCFE494F494EBB464448DFF861
:10543C0024A1FEF707FE3460D6F800C0DAF800802D
:10544C006246D7E90034D045CDE902344FEAE27325
:10545C00CDE9002311D0B8F1000F0ED0D8E9041219
:10546C00DDE900348B4274EB02032ADA009BC81A84
:10547C00019B62EB0301C8E904010024009B029A22
:10548C0003999A18019B346041EB0303CBE9002389
:10549C00FFF718FE2146FDF781FB2948FEF7C4FDF6
:1054AC0040B928492848AC2202F02EFEAC212548F0
:1054BC0002F0B5FE89F31188BFF36F8F05B0BDE81C
:1054CC00F08F0022DDE9024500236418ACEB0100EB
:1054DC0045EBE1753060C8E904234046C7E9004557
:1054EC00FFF7D6FD1648FEF79FFD40B91549164843
:1054FC00AC2202F009FEAC21124802F090FE89F3B6
:10550C001188BFF36F8F4046D8F8083098474FF09A
:10551C002003EFF3118983F31288BFF36F8F0848D0
:10552C00FEF774FD40B907490748812202F0ECFDF3
:10553C008121044802F073FE0148FEF783FD7BE7EE
:10554C00380A00204B8D0000718D0000580200209D
:10555C00340A00208400002010B50C4C236813B1D1
:10556C000B4B1B682BB900F073FE30B90122084BB2
:10557C001A6001230020236010BD0138062801D9D0
:10558C00044810BD044B53F8200010BD3C0A002009
:10559C00400A0020FE8FFFFF908B0000BFF34F8F5F
:1055AC000549064BCA6802F4E0621343CB60BFF3B3
:1055BC004F8F00BFFDE700BF00ED00E00400FA05CF
:1055CC004FF0FE33002130B4064A074D074C2B60D8
:1055DC0013602360064A074CEB606368C2F8001541
:1055EC0030BC1847041484500014845008148450A0
:1055FC00000084508C000020024BD0E90012C3E95B
:10560C00001270478C0000202DE9F043154CDFF898
:10561C005C80002818BF0446206883B040451DD02C
:10562C0016460D4620464FF4DE7104F1040900F0D5
:10563C00D3F804F58C77484600F0F2FC384600F0BD
:10564C001DFB4A4638462B460749009600F02CFBBA
:10565C0008B9C4F8008003B0BDE8F083002003B0A3
:10566C00BDE8F08318140020AD600000A5BCC95A39
:10567C00F0B50D4C0D4E002808BF2046076883B0CE
:10568C00B7420ED100261D4600F58C7033460096AD
:10569C00144600F057FB002818BF34462C6003B0AA
:1056AC00F0BD0348FBE700BF18140020A5BCC95A85
:1056BC00E88FFFFF10B5044630B16368DB0602D5F6
:1056CC0000232360636010BD024B03485B6898475E
:1056DC00F3E700BF8C000020AC8B000068B143687E
:1056EC003BB1DB0607D5BFF35F8F00230360184681
:1056FC00704703487047034870476FF4E0407047A9
:10570C00EA8FFFFFE98FFFFF10B5044620B100229E
:10571C0011232260636010BD0148FFF751FFF6E7CB
:10572C00D48B0000A0B1436883B1DB060CD50122F9
:10573C00D0E8EF3FC0E8E12F0029F9D1012BF7D0D9
:10574C00BFF35F8F002070470348704703487047D2
:10575C006FF4E040704700BFE98FFFFFEA8FFFFF57
:10576C002DE9F041144C0268C368D0E90156C4E934
:10577C000263C4E90025114B0E684868104DC3E95B
:10578C000060D1E902760869D5F81411C3E90276F4
:10579C001861CB060DD5002305F58870C5E9443397
:1057AC00C5E96D339047236805F5DA70BDE8F04123
:1057BC001847BDE8F08100BF9C000020AC00002021
:1057CC001814002038B131B10022014403460130D5
:1057DC0081421A70FAD1704738B131B100220144BC
:1057EC000346013088421A70FAD170472DE9F04F08
:1057FC00B2F5C07FAFB000F22C81DFF86C9290460E
:10580C000C464FF4D07200218246484602F0C2FD8D
:10581C0011A801F0E9F9002220232146A9F8102053
:10582C0098FA98F4424609F11800A9F8124089F840
:10583C00173002F0A4FD8022874B8849884C09EB75
:10584C000800CDE902410276019311A803F10C3353
:10585C0001A9049301F0DEF90746002840F0D88036
:10586C0008F1190805AE0DF1240B10220021304669
:10587C0002F090FD45467B4C9DF8142014F8103C2A
:10588C009DF815C014F80F1C9DF81600534014F821
:10589C000E2C8CEA010C50409DF8171014F80D2CAE
:1058AC009DF818E0514014F80C2C8DF814308EEA49
:1058BC00020214F80B3C9DF819E08DF815C08EEA25
:1058CC00030314F80ACC9DF81AE08DF816008EEA42
:1058DC000C0C14F8090C9DF81BE08DF817108EEACF
:1058EC00000014F8081C9DF81CE08DF818208EEAB6
:1058FC00010114F8072C9DF81DE08DF819308EEA83
:10590C0002029DF81E3014F806EC8DF81AC083EADA
:10591C000E038DF81B008DF81C108DF81D208DF8D2
:10592C001E309DF81F1014F8053C9DF820C09DF802
:10593C0021004B4014F8042C14F8031C8CEA0202CE
:10594C0041409DF822C014F8020C9DF823E08CEA2B
:10595C00000014F801CC8DF81F308EEA0C0C8DF879
:10596C0020208DF821108DF822003346324601217B
:10597C0011A88DF823C001F067F9102D94BF6D1B91
:10598C00103D002863D11034002D7FF475AF0BEB64
:10599C0007001022314602F0F2FC99F80330103760
:1059AC000133202F89F803307FF45FAF80225946F2
:1059BC0011A801F02FF9074668BB54460AF12005DF
:1059CC000DAB1A46012111A801F03EF9074610BB98
:1059DC00102220460DA9144402F0D1FCAC42EFD1A8
:1059EC0011A801F011F94FF4D0711F48FFF7F4FE24
:1059FC0058462021FFF7F0FE01A81021FFF7ECFE1E
:105A0C0030461021FFF7E8FE38462FB0BDE8F08F86
:105A1C0005AE0DF1240B11A801F0F6F84FF4D0717E
:105A2C001148FFF7D9FE58462021FFF7D5FE10216B
:105A3C0001A8FFF7D1FE30461021FFF7CDFE5046EE
:105A4C002021FFF7C9FE38462FB0BDE8F08F07467E
:105A5C00E1E76FF03707F6E70001020308090A0BCC
:105A6C0004050607640A0020540A00202DE9F041C1
:105A7C002022044688B00D4668460021A6186F46C1
:105A8C0002F088FCE27B0132D2B2E273002A4DD1E3
:105A9C00A27B0132D2B2A273002A47D1637B0133BD
:105AAC00DBB26373002B41D1237B0133DBB2237355
:105ABC00002B3BD1E37A0133DBB2E372002B35D1FF
:105ACC00A37A0133DBB2A372002B2FD1637A01339B
